:020000040000FA
:2000000000500020E100000049A60000C90000004BA600004BA600004BA600000000000004
:200020000000000000000000000000004BA600004BA60000000000004BA600004BA60000FC
:20004000892D00004BA60000693200004BA6000041250000F12800004BA600004BA600000C
:200060004BA60000893200004BA600004BA600004BA600004BA600004BA600004BA600002E
:200080004BA600004BA600004BA600004BA600004BA600004BA600004BA600004BA60000D8
:2000A0004BA600004BA600004BA600004BA600004BA600004BA600004BA600004BA60000B8
:2000C0004BA6000099340000044B1A68B2F5806F03D01B689B0500D4FEE7704728ED00E0A0
:2000E00008B508F043F80C4A0C4B0D498B4204D252F8041F43F8041BF7E70A480A494FF0E1
:2001000000028842B8BF40F8042BFADB01F046F9FFF7DAFF08BD00BFB8C90000000000203C
:200120006503002068030020053100202DE9FF410E46018804467029174630D02AD80029B8
:2001400040F0A78048F2FE02564B1A8041F202221A814FF41D725A814FF400729A8140F232
:2001600002225980DA819980D98000F0B5FD4E484FF4A0610AF011FD4C4B01219B688120D4
:2001800098474B4B4B481A684B4B53F8221003F0BFF93AE0812925D095295CD079E0424891
:2001A0000AF016FD0546002833D044480AF046FC002102220B4642480AF022FB3E4B4048AC
:2001C00059680AF042FB3F4A02AB10685168072203C33B4802A90AF08FFB3B4B00221A80DD
:2001E00081232380364B38480093384B314601932C4A43F2163300F075FD01284DD9344875
:200200000AF01CFC28480AF0D1FC70232380012044E0304B1B78B342F7D1244B9F42F4D13A
:20022000DFF88C800122264829462B460AF0E8FA214FD8F80030224857F823100AF005FB38
:20024000D8F80030244857F8231003F061F9234B1D80952323801A4B204800931B4B3146C0
:200260000193104A43F2163300F03CFD012814D917480AF0E3FB0E490B685A1C184B1340A6
:20028000002BBEBF03F1FF3363F0030301330B60BBE700232380032000E0002004B0BDE8B4
:2002A000F08100BFB8300020600400209CBF00005C0400206CC30000000000208AC300000B
:2002C000A4030020B8C3000090030020E50200009BC30000F6300020A5C3000048040020CA
:2002E0000300008007B501A90AF0FDFA019A0146024803F00DF903B05DF804FBC0C3000075
:2003000010B5044600200146024606F0C1F9044B048218600AF006FC024B188010BD00BFB5
:2003200070040020981A0020024B1888013080B218807047981A0020F7B50446012321604B
:20034000037100230B700E46016800790A7842EA80120A70206862790178120102F0300288
:200360000A430270A27A206802F00F0102780A4302702268A179517022892168120A8A7030
:2003800022682189D170A279002A00F04081224652F80A5B0435A17A8B4205D212F8011FB9
:2003A000013305F8011BF6E7E37C03F0020303F0FF015BB194F86A30002100932A46012052
:2003C00004F16B030AF0D1F901210544E37C1A0708D5236C2A4600930320636C0AF0C5F9F2
:2003E00003210544E37CDB060AD594F824302A460093042004F125030AF0B7F90421054435
:20040000E37C9F0606D52A46052000230AF07DF905210544E37C580606D52A460620636E67
:200420000AF073F90621054494F91330002B07DA2A460720B4F850300AF067F9072105447C
:20044000237DDA070AD5A36C2A4600932F2301930820E36C0AF099F908210544237D1B070D
:200460000AD5E36D2A4600932F2301930B20236E0AF08BF90B210544237DDF0606D52A46E5
:200480000C20A38B0AF041F90C210544237D580606D52A460E20236A0AF037F90E210544B2
:2004A00094F91430002B0CDAD4F894302A460093262301930F20D4F898300AF066F90F219E
:2004C0000544637D9A0707D52A461120B4F868300AF01BF911210544637DDB060AD5636D98
:2004E0002A460093262301931420A36D0AF04DF91421054494F91530002B1CDA676F94F8C5
:2005000078303F010BB147F00807B4F87A3000201B09421C5B0892B201D01046F9E7002A21
:2005200018BF024602F00F0317202A463B430AF0ECF817210544A37D1F071DD5D4F8807020
:2005400094F884303F010BB147F00807B4F8863000201B09421C5B0892B201D01046F9E767
:20056000002A18BF024602F00F031B202A463B430AF0CBF81B210544A37DD80607D52A4679
:200580001C20D4F88C300AF0C0F81C210544E37D1A0708D5236B2A4600932320636B0AF065
:2005A000E4F82321054494F91730002B08DAA36B2A4600932720E36B0AF0D7F827210544F1
:2005C000A37EDB0606D52A463C20D4F890300AF09CF805442368EB1A3E2B11DCB4F89E30AF
:2005E00013B1FF2305F8013B2846D4F8A010B4F89E2009F049FFB4F89E00AD1B284407E0E2
:20060000044A054B0025256028461A6000E0042003B0F0BD17C40000200000202DE9F041E4
:200620008C46104904460F680D46BE4600F11008764620686168083403C64445B646F7D10F
:200640001146A7F812C01A46384606F07FF92C6800212046102209F07BFF00236382BDE819
:20066000F08100BF700400202DE9F7438846064600219146A42209F06BFFC6F8008098F85D
:2006800000309B09337198F80020012BC2F30112727198F8004004F00F07B77298F80120A7
:2006A000B27198F8021098F8032042EA0122328101D0A14A02E0082F04D9A04AA04B802099
:2006C0001A6035E108F1040421463A4606F10B0009F064FE06F113000021082209F038FFC0
:2006E0003C44002708EB09039C4280F02081257805F0F003F02B14D10134C4EB0808C144E7
:200700001FFA89F9B9F1300F8ABF3023A6F89E90A6F89E30B6F89E300020C6F8A040E05413
:2007200006E12B090D2B05F00F0503D1637802340D330AE00E2B03BFA378627803F20D1349
:20074000013404BF03EB022303340D2D03D114F8015B0D3508E00E2D01BF657805F20D12C9
:2007600014F8025B02EB05251F4406EBD70107F00703012202FA03F0CB7C0E2F43EA000306
:20078000CB746CD029D8062F00F0AB8017D8032F00F084800BD8974240F0C0802A46082DA7
:2007A00028BF082286F86A2006F16B006DE0042F5BD0052F40F0B28086F89C20B5E0082F77
:2007C0007DD06ED30B2F73D00C2F40F0A7802046294609F03BFFB083A7E01B2F00F0878079
:2007E00026D8112F4AD009D80F2F40F097802623009306F1980006F1940166E0142F69D082
:20080000172F40F08B802046294609F01FFFC0F3C00300F0070286F8783010239340A6F832
:200820007A3020F00F0393400009F36770677CE0232F2ED008D81C2F70D12046294609F0F9
:2008400005FFC6F88C0070E0272F22D03C2F65D12046294609F0FAFEC6F8900065E0204652
:20086000294609F0F3FE30625FE02A46082D28BF082286F8242006F1250006E020462946FF
:2008800009F0E4FEA6F868004FE0214609F086FD4BE02C4A2A4BA5201A6049E07464356476
:2008A00043E02046294609F0D1FEA6F850003CE02F23009306F1600006F15C0105E02F23A7
:2008C000009306F14C0006F1480122462B4609F0C8FE2AE02623009306F1580006F15401E9
:2008E000F3E72046294609F0B1FE70661DE02046294609F0ABFEC0F3C00300F0070286F86A
:20090000843010239340A6F8863020F00F0393400009C6F88830C6F8800006E0FB0704D556
:20092000094A074B82201A6002E02C44DAE6002003B0BDE8F08300BF46C400005DC400000F
:200940002000002082C40000A9C400002DE9F04F038887B0814633B1B3F5AD7F13D0002308
:2009600003800320ACE1A848A84900F0E7FC00F02FFA43F21630FFF7C3FC4FF4AD73A9F843
:20098000003001209CE1A24B1B788B4240F09281A04D00232B70A04B1B789807EDD59F4E82
:2009A0009F4BA04C316820461A88FFF75DFEB046074628709C4E002840F01781A379013B62
:2009C000032B00F2DC80994B994A1B7802F1080128332089D25A00F005FA3060002800F07E
:2009E000C8802023ADF80A30637903970497059723B9904802214522238905E0FFF794FC8B
:200A000003468C480121452209F0FAFEA27A1AB18848894909F007FF04AB0093814803A900
:200A200000220DF10A0309F02CFF40B1BDF80A30202B28BF2023ADF80A30049B05937F4B30
:200A4000D3F800C0BCF1000F00F08F803268794FDFF8D0B105A90091BDF80A30584639464B
:200A60007432E047BA4600286ED02B78002B6BD19BF8163019070DD597F90630002B09DB89
:200A8000BB7D1A0706D4634BA1221A706C4A6D4B1A6059E094F91530059A002B41DA049BB1
:200AA0009A4223D1BAF89E10624F8A4205D38223BB71384664490F2244E0BDF80A308A1ACD
:200AC0009A4294BF002201220399384609F0F2FE0499B7F89E30BDF80A205B1AD7F8A0E0E2
:200AE0009A423846714428BF1A462BE001320399BDF80A3006D1BAF89E209A4294BF00223F
:200B0000012200E001224B4F384609F0D3FEBDF80A20BAF89E30934216D93846D7F8A010AD
:200B200010E08AB1013218BF012200214148202309F0C0FEBAF89E203E481F2ADAF8A010F8
:200B400088BF202209F0D8FE2B78002B4DD13768384807F13601FFF7EFFB80B2B88600288B
:200B600043D12C4BC1221A703FE0A1232B70374A02E0A323364A2B70324B1A6035E06368E4
:200B800023F07F4323F0FF0313B9C3232B700CE06379032B09D1254B254A1B7802F10800E1
:200BA0002833D15A228900F0F3F9208900F09EF9306040B1C76AD0F830A000F035F917B1C8
:200BC00050461849B847002333606379154A012B0BD8D37C5B0608D5144B15491B7801F150
:200BE00008002833C95A00F011FB2B78094F30682BB900283FF4C1AE00F02CF9BDE6C22B8D
:200C000028D100F011F9B8E64C000020C6C30000FB300020B2210020AC2C0020B82C002014
:200C2000B4280020740400201805002022280020C42800201C0500207F040020C4050020A0
:200C4000C5C4000020000020D5C40000E5C40000F6C4000000F0E8F83B78C32B03D1002367
:200C60003B70032104E0BF2B84BFA0233B7002212A782389144809F0C3FD144B144D1C685C
:200C8000204609F0B3FC214602460F4809F034FE104BD8F800401B78214628330A485E5B4A
:200CA000FFF74AFB314683B2224605F10800FFF7B5FC62E688297FF460AE00F025F95CE676
:200CC00007B0BDE8F08F00BF7404002020000020C4280020222800200148002103F05EBAB7
:200CE000240000202DE9F3411F46038804461646089D23B140F2991293422DD04AE02F4A05
:200D000003611268C36042602D4A13702D4A13602D4A1370FFF708FB314628813A4600F0C9
:200D200061F8A060E0B1294BC362A3681C63216921B128460022302309F0BCFDA668284639
:200D400006F13601FFF7F8FAB086A06800F082F840F29913238021E082291FD1E06818B99F
:200D600000232380022025E0DFF8588000230093134A414609F085FDD8F8002023699A426A
:200D80000ED1099BE06898472369013323610C4B1B7853B90023238003200BE0012009E091
:200DA000094A137801331370F1E7074B1B78032BF0D8AFE702B0BDE8F08100BFC00C0020E2
:200DC000B4210020C0050020B32100200BA90000024B1A68024B1A60704700BFC00C002099
:200DE000CC050020F8B507460D480D46164609F077FF044690B1294600230376878000F107
:200E00001A0305F1100251F8040B914243F8040BF9D166850348214609F030FF2046F8BD8E
:200E200034000020C805002010B5044660B1083003F092F82146054809F00CFF2146BDE8D8
:200E40001040034809F060BF10BD00BFC8050020340000202DE9F041044600F11A073846F1
:200E6000618D04F13602A38EFFF7D8FB94F83650C5F3011575BB237E032B1AD853B909F087
:200E800051FEC023B0FBF3F202FB130000F28110E06002E0E3685B00E360124D124B2E68A0
:200EA0001B6804F108002B6009F089FE2E60BDE8F081E66A3846618DD4F8308000F04AF899
:200EC0002046FFF7B1FF56B1404629463346BDE8F04118472046BDE8F041FFF7A5BFBDE821
:200EE000F08100BFC00C0020CC05002010B50446044809F0A5FE20B18388A34201D00068F4
:200F0000F9E710BDC805002010B5094809F098FE044664B104F1080009F05AFE28B1237E6B
:200F2000204601332376FFF795FF2468F1E710BDC805002010B504460448214609F0E4FE39
:200F40002146BDE81040024809F084BE4000002060090020F8B506460C480F4609F070FEBE
:200F6000044600257CB104F118003146102209F0E3F930B9238DBB4203D12046FFF7DAFFAB
:200F800001352468EEE72846F8BD00BF600900202DE9F04106460F480F46904609F050FEF3
:200FA0000446002594B104F118003146102209F0C3F948B9238DBB4206D1A38E434503D100
:200FC0002046FFF7B7FF01352468EBE72846BDE8F08100BF600900202DE9F74F0C9F8B46C7
:200FE00090461E4600F0D6F909F02AFE002481462546B9F1000F7CD04DB13B689D4205D324
:20100000B4423EBF2C2308F80430013401353B689D4205D3B4423EBF3C2308F804300134DA
:201020003A686B1C934205D3B4423EBF2F2308F804300134D9F804C002356046CDF804C031
:2010400009F0D4FA3B6800EB050A9A45DDF804C00FD9711C5B1B08EB0400091B002BACBF18
:2010600063440CF10003344A09F07FFD0444B4423FD23B689A4505D3B4423EBF3E2308F8D9
:2010800004300134D9F80C300AF1010543B31B7833B33B689D4205D3B4423EBF3B2308F8BF
:2010A00004300134D9F80C300AF1020A1846019309F09CFA3A6800EB0A059542019B0FD93B
:2010C000CAEB020A711C08EB0400091BBAF1000FA8BF5344184A09F048FD0444B44204E02D
:2010E000B44203D93A682B1B934203D8D9F800907FE74CB141465846224609F0FDFB5846A6
:20110000282109F09BFB09E045B18221584609F084FB584609490F2209F0EEFBB9F1000FA3
:2011200003D14FF0FF333B6002E03B681E443E6003B0BDE8F08F00BF1AC50000D5C400003C
:2011400038B50C46054620B90E4809F077FC042038BD0D4809F072FCAB79413B3E2B04D9AF
:201160000A4809F06BFC032038BDEB7C5B0604D4074809F063FC022038BDB4FA84F04009DC
:2011800038BD00BF23C500002FC500003EC5000052C500002DE9F04104460A4D0F46214601
:2011A000094C16462846002209F02AFB21682846FFF7C2F8314683B222683846BDE8F0419F
:2011C000FFF72CBA68090020B82C002070B505460C480E4609F034FD044684B10A482978EA
:2011E0006A7802F095F9237FB34206D104F11D002946324609F0A0F808B12468EDE7204616
:2012000070BD00BF64090020C2C50000F7B51446074622480E4609F011FCA57A204809F037
:201220000DFC0DB91F482DE01F4809F007FC294604F10B00FFF7CAFF054648B91B4809F032
:20124000FDFB0320394632462389FFF7A3FF22E063792BB90220394632462389FFF79AFF22
:20126000EB6AC3B120460021FFF76AFF012806460CD1204601A909F0F8FA019B2A6B93426C
:2012800003D10B4809F0DAFB05E02B63EB6A284621463246984703B0F0BD00BF3DC6000043
:2012A00058C6000066C60000AAC60000C0C6000008C7000070B502880546C82A09D0D82A58
:2012C00021D082B91B4B8521186802F03FFFC82307E085290BD1184809F0B2FC044644B97C
:2012E000D8232B8003E000230380032070BD012070BDE3692BB1A16819B104F10C0009F02C
:201300004CFC2468EBE78829EAD10B4809F098FC0446002CE4D0A36853B104F10C06304625
:2013200009F056FC20B1E3699847304609F03EFC2468EEE7C00C00200C0A0020F8B5044643
:2013400041601048214609F099FC94F90830002B16DA216ACB699BB18B688BB10A4E0B48DA
:2013600009F08CFC304609F041FC48B1084D236A2F6803F10C0099682E6009F00EFC2F60AD
:20138000F8BD00BF100A0020700000200C0A0020C00C002000487047100A00202DE9F0416D
:2013A000764C86B0236876485B6801219847236801210A461B68724898470AF00BFB01F01E
:2013C000FBFC01F093FC00F0C1F901F0CBFC00F091F96C4B01201860A3F58043043B186058
:2013E00003F5005324331B6809F093FA0AF0F6FA01F022F800F0C0FF09F0FDFB01F000F9C3
:2014000002F040FE41F2342009F091FB01F03CFA02F048FF5C4809F011FB00214BF2AC720B
:201420005A4802F075F85A4809F008FB06F05EFD584C594D10F0040F14BFA046A84606F0C2
:201440005DFD01280CBF27462F4606F04FFD10F0020F14BF26462E4606F048FD10F0080F04
:2014600008BF2C463A463346009441464B4802F04FF800214A4802F091FE02F03BFC09F0FD
:201480008BFB022009F045FA464802F041F8464B464C186809F0D2FA454802F039F8454B0B
:2014A000186809F0CBFA444802F032F82168434802F02EF8E469A04720B1A047014640485F
:2014C00002F026F80A2009F0B2FA002607F018FD04A80821039601F0B9F89DF817309DF87A
:2014E0001640384D384F43EA042404AB03CBD7F82C802860696002204AF6CD31C04721461E
:201500000320C0471A210120C04708227B6B04A90B209847BB6A03A90120984703992B4897
:2015200001F0F6FF2A4B21462A481C8001F0F0FF294A2B6813606B68536007F01DFE314673
:20154000264802F02BFE022009F0E3F93146244802F024FE234809F015FB01F067F801202F
:2015600009F0D7F902F0A6FD044601F055F814F0FF0FF7D101F0AAFAF4E700BFD801001093
:20158000004003400C40094085C70000A8C70000BFC700007EC7000082C70000D3C70000CA
:2015A0002801002006C8000008C300003CC300000DC8000014C3000014C800001AC50000E3
:2015C0001BC80000FD30002044C000003EC800009A1A00204FC80000BC280020AC01002015
:2015E0008000002054BF000070B505880446772D30D07E2D3FD0002D4DD102F03BFD294BF5
:201600001870294B1D601D462B68284A264E52F823204AB126480021C154936880209847CF
:20162000336801333360EFE7224A1370772320E01F4AD256002A12DB1B4A136801331360BA
:20164000194B1C4A1B6812789342F1DB1A4B1B68002BEBD0184A00231360134AEFE7114ABE
:2016600000201178114A52F8232002F06FFD30B97E23238013E00B4B1B788B420FD10A4B70
:201680000B491A688B5C03F07F038B540A4A136801331360D0E700230380032070BD0120F5
:2016A00070BD00BFF6300020180A0020A4000020F7300020BC210020140A0020094B1A788A
:2016C0000023934204DA084951F82310814207D106490748CA5C62F07F02CA5402F076BDF2
:2016E0000133EEE7BC210020A4000020F73000208000002008B500F075F8024B00221A7026
:2017000008BD00BFBD210020024A13781843107000F082B8BD210020034A137823EA000088
:20172000107000F079B800BFBD21002008B5064B04201B685B699847034B04201B685B6B38
:2017400098470128F8D108BDB8010010F0B591B00AF040F90746FFF7E9FF1C4B4FF4A0603C
:201760001B68DB6998471A4B01221A60194B1B689A07FBD56C46184D09F011F9174801F0FF
:20178000A9FA0FCD0FC40FCD0FC40FCD0FC495E80F0084E80F00ADF1040555F8044F631CCC
:2017A0000BD00F4E204633689B6B9847336820469B694FF400519847EFE727B911B0BDE877
:2017C000F0400AF00BB911B0F0BD00BFB801001028200860282008405CBF0000900000201A
:2017E000B401001010B5094B1A686AB90122084C1A6023680620DB6B984723680720DB6BA7
:201800009847044BC0221A6010BD00BF1C0A0020B4010010A0200240074BC0221870074B97
:201820001A60C20744BF402243F8102C830742BF034B80221A607047BE210020A0200240DC
:201840009020024008B5034B1B685B689847C0F3804008BDB401001030B9064B1868C0F3FC
:20186000403080F001007047012806BF024BD86800207047C0200240200A002030B9044BDA
:201880001868C0F3803080F00100704700207047C0200240802870B5144602D0812815D0BD
:2018A00070BD01239340164A164D13602B6820469B6B98472B68204600211B68124A984718
:2018C000E0B21249BDE8704001F036BA0D4D81B1012393400A4A204613602B689B6B9847BD
:2018E0002B6820461B680021074A98472B681B6B01E02B685B6B2046BDE87040184700BFEF
:20190000E0200240B401001000400720111900000D2838B51CD1144C204609F080F908B32D
:201920002046042109F069F9104B1D68C5F3403525B900F06BFDE560A06038BD00F066FDF1
:20194000A368C01AE060BDE838400948FFF7B6BE0E2807D1BDE838404FF480414FF080524A
:2019600000F0EEBF38BD00BF200A0020C02002409CBF000073B5194B00241868184B4FF479
:20198000801501908DF800408DF8014001A81D60042100F0B9F8134E08B9356017E068464E
:2019A000022100F0CFF8356088B19DF80030EF2B01D0C22B0DD19DF80100A0F11103012B9D
:2019C00009D9143801288CBF0020012004E0FF2002E0204600E0012002B070BD6CC80000C5
:2019E000A02002409020024037B5052302AC04F8043D124B4FF480151D6000F0C7F820462D
:201A0000012100F081F8A0B10DF10700012100F099F820B90A4B4FF480121A600BE09DF845
:201A20000730DB07F0D4064B4FF480121A60012001E0034B1D6003B030BD00BFA0200240FB
:201A40009020024037B50A210F4800F0B1F80F4B14201B680E4DDB6B98474FF48014AB2357
:201A600002A82C6000F8013D0A4B01211C6000F04BF808B1FFF7B8FF2C60FFF77BFF431E11
:201A80005842584103B030BD00093D00B401001090200240A020024037B5FFF7A5FFC0B17D
:201AA00002A8B92300F8013D0C4B4FF480141C60012100F029F80A4B1D461C600A24FFF735
:201AC00059FF30B1013C14F0FF04F8D14FF480132B6000F0CBF803B030BD00BFA02002404B
:201AE0009020024008B5064B02201B685B6B9847012803BF034B186800F00100002008BD0D
:201B0000B801001078200840F7B504460D46FFF7E9FF064688B12544AC420ED0084F14F8D8
:201B2000011B3B684FF080405B6898473B684FF08040DB6801A99847EEE7304603B0F0BD2C
:201B4000C4010010F7B504460E46FFF7CBFF0546B0B12644B44213D00B4F4FF080403B68BB
:201B600000219B68984708B9054609E03B684FF08040DB6801A99847019B04F8013BE9E75B
:201B8000284603B0F0BD00BFC401001007B5FFF7A9FF38B1054B01A91B684FF080401B69A0
:201BA0009847F6E703B05DF804FB00BFC4010010F0B5254B07461B6885B05B6902200E467A
:201BC0009847214D02202B685B6B984701280446F7D12B684FF48070DB6998471B4B1C6058
:201BE0001B4B1B689B07FBD51A4A082413684FF0804023F00F031360174B03221A60174B85
:201C000000221B68009701941D6815491346A847144B09221B6800965D6C4FF080404FF01E
:201C2000FF332146A847104A136843F0020313600A4B4FF080401B6803A91B69984700288E
:201C4000F6D105B0F0BD00BFB801001028200860282008401400004020000040C40100100A
:201C6000006CDC02B40100100400004010B5174B4FF480701B681B6A9847154B01221A60D3
:201C8000144B1B689B07FBD5134C082023689B6B984723684FF400519B6908209847236844
:201CA00009209B6B984723684FF400519B690920984723680A209B6B984723680A209B6998
:201CC0004FF40051BDE81040184700BFB80100102820086028200840B40100104FF6FF70DB
:201CE000094A4FF47A71D389128A4B4301FB0200A3F55223A3F6953303EB2043C820B3FB8A
:201D0000F0F0C0B2704700BFAC02002008B501F0DFF820B1024B5888831E5842584108BD11
:201D20007C02002013B501F0F5F9044601F0D0F850B1064801A901F0D3F8012804D16388BD
:201D400003F44063002BFAD002B010BD0100010437B5FFF7DBFF044628BB144D01A9688093
:201D6000AB7F28465BB2C3F5FF6307339BB22B8301F0B6F8012814D108F057FE04466B8838
:201D80009BB2022B05D16C88A4B2A31E5C425C4107E008F04AFE6FF03F031B1BC342EED4E8
:201DA000F1E7204600E0012003B030BD7C02002008B50346B32994BF0A46B42202481946A2
:201DC00008F0ECFA002008BD4A0A0020084B70B51D461C6800262379032B03D10548013625
:201DE00002F0F4F924682B689C42F4D1304670BD3C0A0020DC000020F8B5114B1D681E464B
:201E00002A79032A19D12C89023C002C10DD8C4205F10A0703DC3946224608F0BFFA395720
:201E2000042089B207F07EF903207F2107F07AF92B68336000232B7100E000242046F8BDA4
:201E4000440A002007B5FFF761FF90B10B4801A901F046F8FFF75AFF0028FBD1084B58881F
:201E6000A0F55050043880B201288CBF0020012000E0012003B05DF804FB00BF010001043D
:201E80007C02002013B50C4C052384F824300B4B20461B6801A99B88638301F021F8012867
:201EA00006D1204601F05CF8431E5842584100E0002002B010BD00BFC4020020C400002004
:201EC00007B5084801A901F00BF8012806D1054801F046F8431E5842584100E0002003B095
:201EE0005DF804FBAC02002008B501F0F9F901280CD0FFF7A7FF01F053F900F0A1FF044A64
:201F000000235380034A1371034A1371012008BD7C020020000B00208C0B002038B501F0E5
:201F2000DFF9012801D1012038BD08F0CEFDFFF7EDFE0028F7D100F0CBFF054620BB01F053
:201F400025F80128044602D001F02AF925E018494FF42372174808F021FA174B022203F8DA
:201F60001B2C032203F8192C04229A770522DA76062203F80F2C114A1D7003F8174C1A63E6
:201F800001F0CEF80128DFD1002001F071F800F03DFFFFF777FF012801D0002038BDFFF79A
:201FA0008FFF0128F9D1BDE83840FFF7D1BE00BF7CC000001C04002190030021BD0500212B
:201FC00038B50C46072805D8DFE800F00611040461042F46012038BD012905D1FFF79EFF5D
:201FE000012854D0032038BD002952D14CE021294FD8FFF773FEE3B2984248D0C82060431A
:2020000000F5522000F695304FF47A75B0FBF5F3224C99B204FB03031B04B3FBF5F3204AFC
:202020001184204AD181138218E001F10A03182B2FD8FFF777FE0F231B49DA0051F8330022
:20204000844203DC8B18194A136002E013F1FF33F2D208F0B7FC1AE0154B1970FFF756FEAE
:2020600028B9FFF75BFF0128BCD1054600E00025FFF7E8FE012814BF0324002408F0A2FC70
:20208000012818BF032435B1FFF72EFF03E0002038BD022038BD204638BD00BF18FCFFFFD5
:2020A000C4020020AC020020BCBF0000C40000206203002073B50C46002950D0102850D865
:2020C000DFE800F0090F4F4F4F4F14181C4F4F4F4F4245474A00FFF719FE003018BF012024
:2020E00001E0FFF7FBFD206000203BE01E4B1B681B6832E01D4B93F900302EE0FFF706FEA9
:2021000028B9FFF70BFF012816D1064600E000260023019340F2034301A86946ADF804301C
:2021200000F0DEFE01280CBF9DF8025080250EB1FFF7DAFE6BB201E06FF07F0323608033B1
:202140000CBF032000200DE0002008600AE0212303E06FF0090300E00E232360C4E702201F
:2021600000E0012002B070BDC40000206203002073B50446FFF7CAFD28B9FFF7CFFE01281A
:2021800035D1054600E000251B4A231D1B4E9BB202341370A4B21B0A53703482F261FFF798
:2021A00051FE0020014600F095FF304601A900F097FE80B100F030FA738803F4406313B994
:2021C00000F07AFCF8E70D4B5C88A4B2B4F5505418BF012400E00124002000F08FFF002319
:2021E0007380FFF7B5FD25B1FFF77EFE01E0012000E0204602B070BD480A0020EC02002055
:2022000037B501F06DF8012828D000F061FE30B9FFF784FE012808D0FFF766FE1DE0104BF8
:202220005B88022B19D0002500E0054680240D4801A900F055FE012803D19DF8064063062E
:20224000F5D00DB1FFF750FE074B60B293F900308342D4BF0020012000E0012003B030BD5D
:20226000EC020020010003046203002038B5244800F030FD05F042FE012801D000243CE0DE
:20228000204C214D00F0D8FE204600218C2208F05FF9284600218C2208F05AF94FF0000250
:2022A0004FF00003022161F3830261F383036A71164A63718423E380EB801460144B154A50
:2022C00025602C6000251C6093625D60124BD362124B4FF459721A84114BDA8145F23332AC
:2022E0001A82FFF71BFE01280446C7D10D4800F0B5FF0D48294601F051FF204638BD00BF10
:20230000B0000020000B00208C0B0020440A00203C0A00207C020020300A0020C402002059
:20232000AC0200203CC00000DC00002008B5064B04201B685B699847034B04201B685B6BC4
:2023400098470128F8D108BDB80100100749084A0B68126809688B42F8D1DB01054903EB70
:2023600052620023C1E90023704700BF082009400C2009406803002010B51A4B0020002167
:20238000C3E90001184C042023685B6B9847012801D0FFF7CBFF23680020DB699847134BF2
:2023A00001221A60124B1B689B07FBD5114A124C1368204623F4807323F0010313600F4BA6
:2023C0000F491B681B689847042323600D4B31221A6040F2212243F8342C0B4B01221A60EE
:2023E00010BD00BF68030020B801001028200860282008400C00014000000140C801001056
:20240000002100043C0001400400244308B5FFF79DFF024BD3E9000108BD00BF6803002047
:2024200010B509F0D7FA034B1C6808B909F0D6FA204610BD082009402DE9F04109F0CAFA09
:202440001D4F1E4B012400254FF480723D601C4E1C601A604FF480321A60336880461B68D8
:20246000284623219847336820461B6824219847336802201B6825219847124A136843F4B0
:20248000E0231360104B1D6005F020FD0F4B00F5007018600E4B14201C600E4B3C601B6824
:2024A0001B699847B8F1000F03D1BDE8F04109F095BABDE8F08100BF000024430420094066
:2024C0008401001000200940082009401C200940A0022443B0010010431E012B10B501D912
:2024E00004281AD110F001021CBF0C4B196010F002031CBF0A4C216010F004001CBF094C2C
:20250000216012B1084A0121116013B1074B01221A6010B1064B01221A6010BD18200940E2
:202520001C2009402020094080022443A0022443C0022443014B1868704700BF180C0020EC
:2025400008B508F072FA154B186008F05EFA144B1B686BB1134B4FF480721A6005F0B6FC80
:2025600000F2052020F4FF700F4B20F0010018600E4B1B683BB10E4B00221A60094B0122AA
:202580001A6001F02FFE0B4B1B6833B10A4B00221A60044B4FF480321A6008BD180C00202E
:2025A000A0002443042009401C2009408000244380022443C0002443C0022443820742BF78
:2025C000034B01221A60C30701D509F007BA7047000C084008B509F0FDF9074B1A68012A00
:2025E00009BF064A00231A600223002814BF184643F0010008BD00BF000C084051E5CC1A80
:20260000034A044B1A600122C3F8002C704700BFFFFF0F0000000840024A034B1A60012298
:20262000DA607047FFFF0F000000084010B5FFF7D1FF0446FFF7F0FF034B01221A60204649
:20264000BDE81040FFF7BABF040100430A4B13F8012FFF2A04D1094A9342F8D1084B00E01C
:20266000084B19440138994204D001390A7800F8012FF8E7704700BFC7FF0100CFFF0100F3
:20268000F0120050C8FF010038B50C4B02201B685B699847094D02202B685B6B98470128BB
:2026A0000446F7D12B684FF40070DB699847044B1C60044B1B689B07FBD538BDB8010010D2
:2026C000282008602820084008B5064B02201B685B6B9847012803BF034B186800F00100B8
:2026E000002008BDB80100106C20084008B5084B15201B685B699847064A136823F4FE63AA
:2027000023F00203136040F2F272034B1A6008BDB0010010381000404410004037B5284CCE
:20272000FFF7B2FF2368274DDB6827489847FFF7DDFF2B680320DB6B9847244B08221A60A2
:202740002B68122200921D6C1F48022103221323A84723681C485C681D494FF4E1326023D1
:20276000A0471C4B14221A601B4A1C49136843F01003136040F2011240F20133086800281A
:2027800008BF134602F1804202F62F72136040F2F272134B1A600B687BB102F1804202F69E
:2027A00046021368152043F0500313600D4B1B681B6903B0BDE83040184703B030BD00BF43
:2027C000D0010010B40100100010004090200240006CDC02341000402C1000401C0C00207F
:2027E00044100040B001001038B50546FFF76CFF18B11E4B1B681A07FBD4032D03D01C4BDC
:202800001B68002B30D1FFF75FFF30B1194B1A481B68DB689847FFF769FF184C4FF40070F4
:2028200023681B6A9847032D09D123684FF400709B6A984723684FF400701B6B9847104B7F
:2028400001221A600F4B1B689B07FBD5032000F05DFA022000F05AFA132000F057FABDE8A3
:202860003840122000F052BA38BD00BF181000401C0C0020D001001000100040B801001054
:20288000282008602820084010B509F0A3F80446054800F01FFA054B00221A601CB9BDE899
:2028A000104009F09BB810BDC80000201C0C002010B50446FFF708FF08B9FFF72FFF044B3F
:2028C0002146BDE810401B680248DB69184700BFD00100100010004008B5FFF7F5FE18B1CD
:2028E000024B1868C0F3C00008BD00BF1810004008B5FFF7C9FE40F2F2710B4B0B4A1B686F
:20290000116013F0500F0AD108BD094B09481B681B699847084B1B680BB1C0B29847074B84
:202920001B68DB06F1D508BD4010004044100040D0010010001000401C0C002018100040A3
:202940002DE9F347402300241646019307468846009409F03FF8454B01221C60444B1A6099
:202960004FF480721A604FF480321A60414B20461B683F211B6801349847042CF6D10024B2
:202980003C4B20461B683F219B6801349847032CF6D1394D2B68FFF73FFE384808F050F94D
:2029A00004462CB1A3680BB1032098472468F8E77B1C0DD0324BBA0013431C60314B46F08D
:2029C00000521B6838461B68214642EA08029847DFF8DCA000242C4ECAF8004033680720F0
:2029E0009B699847684606F021FF00F029FA08F04FF8264A264F1368382023F0030313609A
:202A00009368DFF8B09023F00F03936033684FF001089B6998473C60012006F029FF1D4B83
:202A20003C60C9F80040C3F800801B4B1B4A1C605C601B4BCAF800401C602B681368194868
:202A400023F003031360184B03211B685B689847164B3C60C9F80040C3F800802B683368D7
:202A60009B6B984702B0BDE8F08700BF0000244304200940840100102C200940200C00209A
:202A8000001A4442B4010010B8010010001009404010094088010443400122432422084012
:202AA0000800094000400340D8010010181009400C40094020042243034A136823F00403E8
:202AC000136030BF704700BF10ED00E0F8B508F081FF01F031FB002840F0D5806F4808F0A3
:202AE000AFF80646022546B1736823B19847A84228BF2846C5B23668F5E707F096FF684BC8
:202B000004461B6863B1674B1B681B1A022B04D4A3F28F23002B03DA0126B54228BF354696
:202B200001F008FA28B301F00DFA0646FFF76EFC361A002E40F3A780FFF7FCFC5A4A00EBCE
:202B40004623121BDA4200F1A280012085421BD16FF00702121BDA4202D504F1080106E070
:202B600004F58031CA1A11EA220138BF1946022005E0012D034607D1022004F58031FFF73B
:202B8000ABFCFFF799FF7EE0022D7CD110B12846194601E02846611EFFF79EFC3F4808F0BB
:202BA0004FF80446062544B1A3680BB1022098472369246825EA0305F5E73C4EFFF72CFDE8
:202BC00005F0060715F0040F18BF346027B1384B38461B689B69984700F032F9002006F000
:202BE00047FE344A3920136823F003031360936843F00F0393602E4B1B689B6998472E4B27
:202C00000020186018602D4B186005F0EDFD062F02D1022005F02AFA294C2A4D2A4F2B689A
:202C200023682A4823F0030323603B6803215B6898471F4B1B689B6B98472B6805F0E4FE56
:202C4000234B00221A603B68204801215B689847236843F003032360012333602B6805F015
:202C600003FF06F0CFFD07F0D0FEFFF7D5FC0B4807F0E6FF044624B1E36803B1984724684C
:202C8000F9E708F0ABFEBDE8F84008F0A7BE022D3FF45EAF012DF6D15AE700BF200C0020C9
:202CA000800224431820094071FDFFFF0C400940B801001000100940401009402004224365
:202CC000242208402C200940D801001000400340800104430146014807F0D0BF200C00203B
:202CE0000146014807F0B6BF200C002010B5054807F0A3FFBDE81040034B03201B682021B7
:202D00001B681847200C002084010010431C10B504460BD0064B4FF4C0421B6800211B68EA
:202D20009847044BA400234300221A6010BD00BFB4010010001A444238B504460D4608F04C
:202D400049FE0123054AA3401360054B43F8245018B9BDE8384008F041BE38BDE020024048
:202D6000240C00200023064A002142F823100133202BF8D1034B10201B681B69184700BF17
:202D8000240C0020B001001038B5094B00241D681D600123A3402B42E0B204D0054B53F846
:202DA000243003B198470134202CF2D138BD00BFE0200240240C00201FB50023029302A86C
:202DC0004123039306F032FD042005F039F9032812D00420032105F005F9042005F030F9FF
:202DE0000328FAD1074B00211B6800905C6806484FF040521C23A04702A806F06DFD04B090
:202E000010BD00BFA401001000A00C4007B54123002268468DE80C0006F008FD012005F003
:202E20000FF9012803D0054B986B05F03BF8684606F052FD03B05DF804FB00BF4800001002
:202E400013B54123002468460193009406F0EEFC0320214605F0C6F8012005F0F1F818B167
:202E6000044B986B05F01EF8684606F035FD02B010BD00BF4800001010B5038804463BB103
:202E800040F21A22934207D000230380032010BD40F21A23238001E0822901D0012010BD25
:202EA000FFF7BAFB06F0E4F806F078F8064B80211B6998470028EBDD80B206F053F8034B29
:202EC0001B699847ECE700BF44C000003CC30000024B186800F00100704700BF9C210840C1
:202EE000F8B510F0030504460F4605D103881A0503D54580012500E0002508F06BFD061CB4
:202F000018BF0126FFF7E4FF20B90EB907F0F4FD0020F8BD55B1238813F4405F06D003F459
:202F20004063B3F5006F04BF0A4B1C600A4B1C604CF25133094A013B12683A60E5D012F056
:202F4000FF0FF7D00EB907F0D7FD3878431E58425841F8BDA40C0020001004400410044095
:202F6000094B013B0DD0428802F44062B2F5806FF7D1408800F44060A0F58063584258411D
:202F800070471846704700BF21A1070037B508F021FD224C0546236819201B6A984723686F
:202FA00012201B6A9847236819205B699847236812205B6998471A4B01201B685B69984708
:202FC000174B01201B685B6B98470128F8D1154B186003F10053043B1860134B1B689A07FC
:202FE000FBD5124A00230D4C13605360236819201B699847236812201B6998470DB907F0FF
:203000007BFD0B4B07221A6001A90A48FFF768FF431E5842584103B030BD00BFB001001032
:20302000B80100102C2008402820084010100460000004600100060408B504F085FF05284E
:2030400002D10A4B186007E0032801D1022201E020B90322054B1A60012008BD012803BF4E
:20306000024B05221A60002008BD00BFD021084038B50028144C18BF0024FFF729FF08B33C
:2030800008F0A8FC0546114B4FF000421A6043F8044C00220E4C43F8082C236819201B6A33
:2030A0009847236812201B6A9847236819201B699847236812201B6998471DB9BDE83840D6
:2030C00007F01ABD38BD00BF0000808018100460B0010010002814BF08220222044B002960
:2030E000044918BF00230B601343034A13607047000080801010046014100460034B0028CF
:20310000034A18BF00231360704700BF0000808014100460014B1868704700BFA40C0020E5
:203120007FB5142101A840F60A0207F0ECFC0A4B01A81B6869460593FFF7D2FE012806D1CE
:2031400001A8FFF70DFF431E5842584100E0002007B05DF804FB00BFAC0C00207FB5142125
:2031600001A840F6090207F0CEFC01A86946FFF7B7FE012804D101A8FFF7F2FE012801D01A
:20318000C0B206E0044B1A781AB91870059A034B1A6007B05DF804FBBF210020AC0C002051
:2031A00030B587B008F016FC274C0546236819205B699847236812205B699847FFF788FEE8
:2031C00090B1224A0023136002A85360102140F60D0207F098FC02A801A9FFF781FE01285C
:2031E00002D102A8FFF7BCFEFFF7B8FF184B00221A6003F100530122043B1A60154B1B68F0
:203200009B07FBD5144B01201B689B699847124B01201B685B6B98470228F8D10A4C19202E
:2032200023681B6A9847236812201B6A9847236819201B699847236812201B6998470DB971
:2032400007F05AFC07B030BDB0010010101004602C20084028200840B8010010014B186087
:20326000704700BFA80C002008B5FFF731FE20B1044B6FF000421A6008BDFFF787FE01287E
:20328000F6D008BD1010046010B5FFF721FE60B1104C08F09FFB23681B020ED56FF4000355
:2032A00023600D4800F092FF07E00C4807F0C6FBFFF76CFE0128EBD010BD236813F00A0F0A
:2032C0001EBF044B6FF00A021A60BDE8104007F013BC00BF10100460DC00002070C80000AB
:2032E000014B1878704700BFC0210020034B1B68002B14BF01200220704700BFB00C002017
:2033000038B5064B02201B6800241D46044B1B685B689847201845F1000138BD04800240A5
:20332000CC01001008B5064B04201B685B6B9847012803BF034B1868C0F34000002008BDC5
:20334000B80100103C20084038B5038804461BB3B3F5847F03D000230380032038BD114BD8
:203360001B788B421BD1104D2B682BB1FFF7C8FF2B68984700232B600C4B40F201401B680B
:203380009B6A98470A4B01221A600A4B1B689B07FBD50948FFF7A4FC4FF484732380012028
:2033A00038BD00BF63030020B00C0020B80100102820086028200840EC00002038B50C4B9E
:2033C00004201B685B699847094D04202B685B6B984701280446F7D12B6840F20140DB696C
:2033E0009847044B1C60044B1B689B07FBD538BDB8010010282008602820084070B51F4B52
:203400001B688BB100231E4A995C39B10021D1541C4A02EBC30393E8030070BD0133042B16
:20342000F1D10020014670BDFFF77CFF08B9FFF7C5FF154A154B116814460B406BB9144BEA
:2034400001221A6018680028FCD102464FF4807105F046FB0F4B01221A6008F0BBFA0646B8
:203460002368DB07FCD5FFF74BFF05460C460EB908F0B4FA2846214670BD00BFB00C002027
:20348000C1210020700300200880024001000080F09F0240A802504238B50E4D00240E4A7B
:2034A0002C601368312023F0010313600B4B1B685B699847204622464FF4807105F010FBAC
:2034C00001232B60064B224619780648BDE8384000F03CBEA80250420C800240B0010010D3
:2034E000630300200001002010B5074C2378802B08D100F0BFFD207000210448BDE8104050
:2035000000F04CBE10BD00BF63030020000100200FB407B504AA52F8041B0448019200F019
:2035200035F803B05DF804EB04B07047100100201FB5084C8DE80300114602A81A46029434
:20354000CDF80CD000F022F8009B00221A7004B010BD00BF43AB000070B505460C46102C4D
:2035600007D92B68686808491022984750B9103CF5E734B12B6868682246BDE87040024925
:203580001847204670BD00BF02C900002DE9F04F80468FB0069107920026069B1B78002BA0
:2035A00000F05F83069B1C4613F8012B1AB9069B9C4203D10FE0252AF5D1F8E7069BD8F885
:2035C0000400E51A0699D8F800302A469847002840F02A832E442378002B00F0428363782D
:2035E000611C002B00F03D8300240A4611F8013B2B2B11D006D8202B11D0232B12D144F014
:203600000804F2E72D2B04D0302B0BD144F01004EBE744F00104E8E744F00604E5E744F002
:203620000204E2E7A3F1310108290DD8134600251A4613F8011BA1F13000092811D80A22D2
:2036400002FB0515303DF3E72A2B09D1079B01321D68191D002D0791B8BF44F0010400E0F8
:20366000002513782E2B1CD15178531CA1F1300009280ED8194600270A780B46A2F1300027
:20368000092801F101010FD80A2303FB0727303FF2E72A2906D1931C079A111D07911768BE
:2036A00002E013464FF0FF371A786C2A09D15A786C2A02D144F080040AE0013344F06004AF
:2036C0000BE0682A09D15A78682A03D144F02004023302E0013344F040041A78642A3CD014
:2036E0001FD8462A48D00DD8252A5AD003D8002A00F0B78257E0412A4AD0452A53D144F438
:20370000424450E0582A31D004D8472A4BD144F4A13448E0612A38D0632A44D144F4A06461
:2037200041E06E2A3AD007D8662A22D027D3672A28D0692A11D036E0732A2CD006D86F2A48
:2037400011D0702A2FD144F440742CE0752A07D0782A28D144F4C85425E044F4245422E0DA
:2037600044F410641FE044F488541CE044F4B24419E044F4007416E044F4844413E044F49A
:20378000024410E044F481340DE044F4C1340AE044F4E13407E044F4806404E044F4E06452
:2037A00001E044F4C0640133069304F4E063B3F5806F00F0AA8116D8B3F5807F2BD0B3F5DA
:2037C000407F7FF4EAAE079BA04914F4804F03F104029F4818BF08460DF1330107920F4697
:2037E0001A680023C5E1B3F5C06F08D0B3F5E06F00F03182B3F5A06F7FF4CFAE00E2D8F8DC
:203800000030D8F80400934901229847002840F00B820136C1E6002FACBF24F01004012719
:2038200014F40053039304F0E00337D0402B17D008D8DBB1202B2AD1079B1A1D079293F9B7
:20384000002017E0602B11D0802B20D1079B073323F0070303F108020792D3E900230AE0F0
:20386000079B1A1D0792B3F9002003E0079B1A1D07921A68D317002A73F1000109DA524243
:2038800063EB4303CDE900234FF0010933E000220023CDE900234FF000092CE0402B16D09C
:2038A00007D8CBB1202B20D1079B1A1D07921A78EEE7602B10D0802B17D1079B073323F0AB
:2038C000070303F108020792D3E90023E1E7079B1A1D07921A88DBE7079B00211A1D079237
:2038E0001B681846CDE90001D5E700220023CDE900234FF0000904F4C053B3F5805F0CD0A0
:20390000B3F5C05F33D0B3F5006F4FD1DDE900230DF1360ACDE9042304E0DDE900230DF1D7
:20392000360A15E0DDE9042313433AD0DDE904010A22002306F028FADDE9040130320AF8A4
:20394000012D00230A2206F01FFACDE90401E9E752EA030125D002F0070130310AF8011DA0
:20396000D10841EA4371D8080A460346F0E7384B14F4804F0DF1360A344908BF1946DDE93E
:20398000002352EA03000CD002F00F00085C4FEA131E0AF8010D100940EA03700246734653
:2039A000EFE70DF1360BCAEB0B0B03E00DF1360A4FF0000B41F6080241F208035F4502EAAD
:2039C00004028CBFCBEB070700279A4202D1002F08BF012741F608018A4207EB0B030DD1F4
:2039E000DDE9000150EA010208D01B4914F4804F1A4A4FF0020C18BF0A4602E04FF0000CAB
:203A000062460399A1B1B9F1000F0AD104F0060102290AD00629124904BF4FF0010C0A4693
:203A200006E04FF0010C0F4A02E00F4A4FF0010C63449D428CBFED1A002514F0010922D176
:203A4000E30613D52F444D461DE000BFCFC80000E0C8000000C90000F4C80000F1C8000056
:203A6000F7C80000A3C30000C0C5000040462946CDF80CC00092FFF76FFD009ADDF80CC0E7
:203A8000002840F0D180BCF1000F0DD01146D8F800306246D8F80400CDF800C09847DDF8D8
:203AA00000C0002840F0C0803C465E44102CD8F800300DD9D8F804006C491022CDF800C028
:203AC0009847002840F0B080103CDDF800C0EDE75CB1D8F8040065492246CDF800C098476F
:203AE000DDF800C0002840F09F80D8F80030D8F8040051465A4666449847002840F09480BA
:203B00003E44B9F1000F79D073E0079BD3F800A01A1D0792BAF1000F09D05346994699F855
:203B200000200133002AF9D1CAEB090903E0DFF840A14FF00609002F02DBB94528BFB9469D
:203B40004D458CBFC9EB0505002514F0010405D140462946FFF700FD002865D1D8F8003080
:203B6000D8F8040051464A46984700285CD14E443EE052EA030E0ED002F00F0E10F80EE036
:203B80004FEA131C01F801ED4FEA121E4EEA037E72466346EDE70B467F1A01BF302201275B
:203BA00001F1FF3301F8012C03377822BD4203F8012C4FF0300203F8022C88BFED1B4FF098
:203BC000230298BF002514F00104A3F1030903F8032C04D140462946FFF7BEFC20BBD8F84C
:203BE0000030D8F8040049463A469847E0B93E4424B140462946FFF7AFFCA8B92E44CCE4CA
:203C0000079B012D03F104021B688CBF05F1FF35002514F0010407928DF8203008D14046E7
:203C20002946FFF799FC10B14FF0FF301AE02E44D8F80030D8F8040008A901229847002840
:203C4000F2D16F1C2CB140462946FFF785FC0028EAD13E44A1E4079B1A1D1B6807921E6070
:203C60009BE430460FB0BDE8F08F00BF12C90000F9C80000F8B50388064615462BB14A2BE1
:203C800015D0002303800320F8BD174806F0D8FF04462CB1201DA16806F07FFF2468F8E749
:203CA000124B01221A704A2333800120F8BD8829FBD10D4806F0C4FF0446002CF3D0231D00
:203CC0009D420ED10848214606F0C4FF084B62691F681A60A2691D460AB1E06990472F60BF
:203CE000E1E72468E9E700BFB40C0020C5210020C00C002010B5064B002406481C7006F005
:203D00009CFF2146BDE81040034800F047BA00BFC5210020B40C00201801002070B5044623
:203D2000E3610B4B049D1B786561A26143B1094D094B2E68201D2B6006F02FFF2E6000E05E
:203D4000A1602146BDE87040044806F097BF00BFC5210020C00C002018010020B40C002044
:203D600013B5034C24680094FFF7D8FF02B010BDC00C002070B5094B05461B783BB1084C3D
:203D8000084B26680430236006F010FF26602946BDE87040044806F071BF00BFC521002005
:203DA000C00C002018010020B40C002070B5094B05461B783BB1084C084B266804302360CF
:203DC00006F0FDFE26602946BDE87040044806F055BF00BFC5210020C00C00201801002068
:203DE000B40C002010B5084B04461B781BB1043000F0B2F801E0C36003612146BDE8104090
:203E0000024806F027BF00BFC5210020B40C002010B50E4C236813B90D4A136010BDFEF7D5
:203E2000F5FA216891E80C001A44131A8A6842B192E812002144091A8B4228BF0B46926802
:203E4000F5E71844024B186010BD00BFB80C0020BC0C0020014800F0B9B900BF280100205A
:203E6000F8B5038805462BB1592B09D0002303800320F8BD1E4A136059232B800120F8BD30
:203E8000872920D08229F7D1194F00263C68002CF2D0204606F0C3FE90B1E0688821224638
:203EA00000F054F950B9E060A3680EB1B36000E03B600023A360FFF7ABFFE5E7FFF7CAFFD3
:203EC0002646A468E3E70A490B680BB90B60D3E7D868904201D19B68F7E70B609968002997
:203EE000CAD0C86890420ABF89680B469960F5E7B80C002010B50446FFF7ACFFE3680B4A12
:203F00004BB113683BB1A34203D1094A1268DA6007E09B68F6E7064B1B68E36013681460B1
:203F2000A360BDE81040FFF773BF00BFB80C0020C00C0020024B1868003018BF0120704726
:203F4000B80C0020024B186808B1024B18687047B80C0020BC0C002010B50B4A04461368C8
:203F6000984206D18368136008E09A68A24203D01346002BF9D103E0A2689A60FFF748FF1F
:203F80000023A360E36010BDB80C002038B5836804460D469BB10A4804600220A07304F166
:203FA0000C0098470238012801D9832D05D120462146BDE8384000F005B80123A37338BD8D
:203FC000C00C00202DE9F8431C4A0446156889462B4690461A4E3768A34204D00BB11B6862
:203FE000FAE7BDE8F88334B3A37BABB10023A37345B1AC4204D028468721224606F0F0FD0D
:204000002D68F5E7A3683BB14C4505D0346004F10C0083212A469847D8F800309C4203D198
:204020002268064B05E0134623B11A68A242FAD122681A603760BDE8F88300BFC40C0020F8
:20404000C00C002010B5094B00221A70084B1C685CB1E37B3BB101230022A373E27320466A
:204060008221FFF793FF2468F2E710BDC8210020C40C0020024B1878421C1A70704700BFAF
:20408000C9210020064B8A221A70064A00231370054A1370054A1360054A1360704700BFCD
:2040A000C9210020C6210020C7210020C40C0020C00C00202DE9F0411A4D2B780BB1FFF708
:2040C000C1FF194C22783AB3184E0C213378184F5943781817F8018001334768806803F015
:2040E0001F03013A3370227068B9124B1E689EB12B780BB1FFF7A6FF304641463A4606F06E
:204100006FFD3668F3E7B8F1810F04BF0123837341463A4606F064FD2B7820781844BDE80B
:20412000F08100BFC8210020C7210020C6210020C80C0020C40C0020024A034B10781B789E
:2041400018447047C7210020C8210020F0B50B4E3378202B0FD00A4C0C252478094F1C448D
:2041600004F01F046C4301333D19A86039556A6033700020F0BD0120F0BD00BFC72100208A
:20418000C6210020C80C002038B5034C256806F027FD256038BD00BFC00C002010B50A4607
:2041A00009490C68234683420DD00BB11B68FAE748B1046008600121817383818121BDE8E8
:2041C0001040FFF7E1BF10BDC40C002038B1837B013B012B9FBF024A0123C37313707047AF
:2041E000C821002010B5084C206858B100232360816843689847236823B1BDE8104018681F
:2042000006F00FBC10BD00BF480E002038B505880446672D09D0792D2ED0002D32D1FFF7E0
:2042200029FF1B4B18701B4B1D601B4806F0A5FD431C01D167231DE00A28164B07D01A68E6
:204240007E2AF2DC511C1960144B9854EDE7196800254A1C1A60114A0D4B55542846197802
:20426000FFF774FF0E4B852118682A46FFF76EFF20B97923238009E0852907D1054B00228A
:204280001A60D2E700230380032038BD012038BDFA300020540E00204C0E00204A22002045
:2042A000C00C002008B505480549802206F05EFDBDE8084003480021FFF770BF4C0E0020CF
:2042C000CA210020380100200C4AB82303FB0022002330B553821A46094CE1188D782DB1BB
:2042E0001C5D844202BF00248C70013240F24C5171338B42F0D1104630BD00BF740E0020C6
:20430000D522002008B5064802F0BCF9054B01221A70FD2100225A709970DA7008BD00BFF6
:204320006D450000CB22002010B513780446087A83F0020398421DD1487A5378984219D111
:20434000887A9378984215D1C87AD378984211D1087B137998420DD1487B5379984209D13D
:20436000887B9379984205D1C87BD379984201D103201BE00B890F4A6BB94B89B3F57F4FCA
:2043800009D18B89FE2B06D11368C989022023F8021B13600AE0136851F8080F083343F85A
:2043A000080C486843F8040C13600120A040C0B210BD00BF600E002010B50F4C0220A17992
:2043C00004F0B0FEA379112B01D0062B05D1238D618D9942A8BF194608E03A2B05BF94F82F
:2043E000281094F82930002143EA01210120BDE8104004F097BE00BFC428002010B5084CED
:2044000001462378012B08D1A01C082205F094FF00280CBF2046002010BD002010BD00BF55
:20442000CB22002008B50146102004F089FE044B04489B6800219847BDE80840FEF7ECB89C
:204440005CC300004944000010B508460C46114601F00AFD044B1B6813B19B68204698471E
:20446000024B1C6010BD00BF700E00206C0E0020F8B505460023114A712404FB0324A27864
:20448000B2B9617004F078FD26460D4F0D4A3B7806F8035BC01A1568A0701D4404F06CFD24
:2044A0003A782946821A304605F078FFA078F8BD01330C2BDFD14FF0FF30F8BDD52200203B
:2044C00021280020640E00202DE9F8434FEA1219B9F10F0F80461D4602F00F040BD00F2C20
:2044E00005D1B9F1000F0AD11024274619E0B9F1000F09D004E00F2C4FF0100900D11024AA
:2045000040464A4605F04AFF09EB04020F2A274606DC08EB09000021C2F1100206F018F8DD
:20452000BCB1114DC7F110002E6840443146224605F034FF022C08D1B9F10A0F9FBFFF237D
:2045400088F80B30FE2388F80C3034442C60BDE8F883B9F1000F05D040462946BDE8F8433C
:2045600006F06FBCBDE8F883600E00202DE9F04F8E4E8F4D002387B033702B70044604F089
:2045800077FD04F00BFD8B4A8B4B126818608DE8600099460AB1FFF70FFF04A80CB987495A
:2045A00000E0214607F01EFA854B864E1A8803933E2A40F20182D9F800B0834D0BF102035A
:2045C0002B60009B06F1180093F80080002308F102080BF80830FFF711FF20B906F108005C
:2045E000FFF70CFF20B10BF103032B60802400E0044672783178130943EA0113DBB2980871
:2046000040EA8313DBB212F00F0FDEB26E4F01F00F010CD16B48408848B911B912F0F00FBB
:204620001FD03B6803F8016B3B6070261AE079B912F0F00F0CD1296823F03F031A43634B55
:204640000A701B88033121F8023C6826296009E05C4A2B681068186003F8046B2B6060260E
:2046600000E07826574B9A790293112A08BF46F0040673075EBF3B6803F8012B3B60029B97
:20468000DB79402B06D0FF2B07D0012B08D146F0010609E046F0020606E046F0030603E013
:2046A0003A6802F8013B3A60029A464B128982B95A8972B99A8962B9DA8952B91A8A42B92C
:2046C0005A8A32B99A8A22B9DB8A13B944F0400013E03F48FFF792FE3E4B186078B1427883
:2046E0001BF80830042043EA02130BF808303849394AFFF719FE60F03F00C4B227E0029B14
:2047000030491A8948F2FE039A420CD14B8B53B98B8B43B9CB8B33B9042008312E4AFFF788
:2047200003FE2043E9E73A68DFF8A4C096460CF1100A634603CB5345CEF80000CEF80410C6
:204740009C460EF1080EF4D11F4B10321A60DFF874A09AF81830FF2B40F08A809AF8192083
:2047600044F0080E022A5FFA8EFE37D1BAF81A30A3BBBAF81C308BBBBAF81E3073BBBAF858
:2047800020305BBBBAF8223043BBBAF824302BBB9AF8263013BB3B689AF8272044F00B0054
:2047A00003F8012BC4B23B609FE000BFCA22002021280020700E0020640E00209FC9000076
:2047C000B4280020C4280020600E0020C6280020CC280020580E0020BC2800209B4B588BCE
:2047E000194688BB988B78BBD88BA8B9188C98B9588C88B993F8240070B9296844F00A003C
:20480000C4B2084600F8012B33F8252F043121F8032C9B78837015E0C98B8C4BA1B9198C8F
:2048200091B993F8221079B9296844F00900C4B2084600F8012B53F8232F063141F8052C4B
:204840001B790371296050E0814ADFF818C214680CF110082746634603CB434538607960AD
:204860009C4607F10807F6D11034146074463CE00AF11800FFF7C2FD764B186050B143783D
:204880001BF8081044F004040B43E4B20BF8083000200EE048F2FE03BAF818209A4210D1A2
:2048A000BAF81A306BB9BAF81C3053B9BAF81E303BB90AF1180104AAFFF736FD2043C4B216
:2048C00013E0634ADFF89CC117680CF11008BE46634603CB4345CEF80000CEF804109C46EB
:2048E0000EF1080EF4D110371760019A5749282313708B79112B53D14FF2B0030A8D52BA1C
:2049000092B222F00F0080B2984217D14B8D5BBA23F00F031B041B0C83420FD12868F3239B
:2049200003704B8D02301A0A0B8D1B0A02EB031303F5AA6300F8013C286028E0029B434923
:204940005B8D5BBA03F47F43B3F5704F09D12B68F1221A700A8DA3F801204A8D120ADA70A0
:204960000CE002F47F42B2F5704F2B6808D1F2221A700A8D120A5A704A8D5A80043305E0DA
:20498000F0221A70886A053343F8040C2B60324B1A882B6823F8022B019A2B603023137085
:2049A000009BD9F800201B78D65413445C70284B1B689B1A009A1AE0D9F800204123137074
:2049C000009B06F128051C78631CDBB21344324603CAAA4218605960164603F10803F6D19D
:2049E000009B29341C70019B019A1B782833102013700DEB000104F0A3FB184BDFF86880AE
:204A00001B68984730EA200028BF1520039BC0F17D051C88019BDFF854A01E78009BA21B14
:204A200093F800B00E4FCBEB05039A4240F3CD80C0F17803019304F0ADFB019B94FBF3F456
:204A40000134A04214DC0020D1E000BFC4280020600E0020580E0020F228002030C3000072
:204A600021280020DC280020B4280020CA220020D9F800B05F4B3C7800221A60594622461F
:204A80000BF10400039305F0FFFCB8F800205A496FEA82426FEA9242C2F307228BF8002052
:204AA000B8F8002004348BF801200A88E4B2501C0880110ADFF850C18BF802102D1B9AF8BC
:204AC000001025F007054D4E61448BF803200BEB04002A46CDF808C03C70356005F05EFC38
:204AE000281980B204F03EFA04F05AFB039B04461D460028A7D00DF1100B5846FFF792FCA9
:204B0000204604F085FB204604F06CFB2B68012B99D0043B012B96D99AF800A03368534494
:204B20001FFA83FA05233B70354B1A68B8F800306FEAC3436FEAD343C3F307231370B8F849
:204B400000305370019B23F0070737602D4B1B889A454BD2D9F800204FEADA0111713268D6
:204B6000CAEB03039342B8BF244AD9F80000B8BF1360009B376893F80080029B3A4603EBB5
:204B80000A01404405F00AFC08EB070080B204F0E9F904F005FB074600283FF454AF58464C
:204BA000FFF740FC384604F033FB384604F01AFB124B1B689A442B681FFA8AFA012B3FF44F
:204BC00042AF043B012BC1D83DE7D9F800000E495844314405F0E2FBB8F800005844801BCA
:204BE00080B204F0BFF904A8FFF71CFC012007B0BDE8F08F6C0E00209C1A0020680E00201B
:204C0000640E0020B4280020C42800202DE9F047074688461646002A47D0434C0025A1465A
:204C2000238ABB4215D1638A9BB10F2004F094FA0146204606F0DBFE58B1ECB220463146FA
:204C4000FFF716FC002827DA0027DFF8E0A0B8460DE0B834002D5DD10125E1E7A8450BD1BC
:204C60000AF1B80AB8F1000F10D14FF001083AF8063C002BF4D0F1E7504605F0D0FF0028D9
:204C8000EED04046FFF720FB0744E9E7002F41DD20463146FFF7ECFB00283BDDB82303FB84
:204CA0000595AB8A1844A8823AE0204DFF2435F8063C4FFA84F97BB3284605F0B0FF10B1BF
:204CC0003046FFF701FBB9F1FF3F03D135F8063C03B9F4B2012E05F1B80501D00126E6E738
:204CE00065B26B1C16D0B8235D43DFF83C900F2009EB0506A6F81280378204F02DFA014699
:204D0000304606F06FFE05F118004844402105F074FF05E0FF2403E0B9F1FF3FDAD1D8E71A
:204D200060B2BDE8F08700BF740E00208C0E00202DE9F04F0F2087B0A54CDFF8CCA204F045
:204D40000BFA002603F040FF8AF80060267004F025F9A04DA0462860042004F0EBF99E4B2C
:204D60002A6800B218605778137847EA032703F0F803C02B02D0E02B19D03AE09078237866
:204D8000D278C7F30A07043342EA0020394632462370FFF73BFFB0F1FF3F814600F07F822A
:204DA0008E4CB82303FB00440126223424E01379D17890782278C7F30A070532227041EA45
:204DC00000201A4639460093FFF720FFB0F1FF3F814600F064828149B82202FB0012958ADE
:204DE0004FF0010BBD4234BF002501253446009BDFE1B1464F467A4C296898F800504A5DEC
:204E000002F0E003602B40F0B681A81C084429444D78744B5FFA85FC1CF0800F18601CBF02
:204E20000130186012F0100F02F0080130D1D1B9196831F8010FA4F801008978E1701968F8
:204E400011F8040B1960830803F00F0141F060012170617803F0300343EA801301F00F0150
:204E60000B43637030E018686021864621701EF8011B03304FEA910B0BF0300B01F00F0132
:204E80004BEA01016170BEF80010186061801BE001F0FF0E99B919680878C0F3830040F039
:204EA0006000207011F801BBA4F802E04FEA9B0000F0300040EA8B106070196004E0602356
:204EC000237000236370638002F0040303F0FF0100912BB943490B6813F8010BA0710B6073
:204EE00012F003020BBF3F4A3F4B13689B5C09BF13F8011BE3711360E1716B06C5F3011218
:204F000033D51CF0800F1DBF324998F80030096800211EBF5B189978090922B904F1080BEF
:204F20009AB9114614E0314B1878012805D1587888420CBF1946002100E000212C4B1960F2
:204F40000029EBD1B3460D4632E1294B19680231284B0F209A5C0391CDF808C0019204F0A5
:204F6000FBF80399034658460BE0234B0F209A5CCDF808C0019204F0EFF82049034604F19B
:204F80000800019AFFF7A0FA05F00800DDF808C005F0030200F0FF0105F00403002835D031
:204FA000002B6BD1164B1B88ADF81430531E012B9FBF0C490B6813F8010B0B60114B98BFA5
:204FC0008DF815009A5C04F1180005A9002353E021280020640E00205C0E0020740E002009
:204FE000C4280020600E00204DC90000CB220020580E002066C9000051C9000055C9000007
:205000004BC9000057C90000CA22002053B31CF0800F1DBFA34998F8003009680B4618BF8E
:205020005B18A14918BF9D78087818BF05F00F03012805D14D789D420CBF0D46002500E003
:2050400000259A4B1D60002D00F0AE80984B10209A5C019204F080F8A91C0346019A04F1D8
:20506000180009E0934B10209D5C04F075F82A469149034604F11800FFF726FA9AF800007F
:205080008E4900F128038AF80030009B002B53D00B681A7802F0F802F02A4DD11122A27113
:2050A0001A7802F0040502F0F302F03AEDB2032A7CD8DFE802F0020A1622B3F80120053331
:2050C000228533F8022C62852CE0B3F801202285DA78A2F5805292B2120242F0F00262854C
:2050E00009E05A78A2F5805292B2120242F0F00222855A886285043314E05A780233120953
:20510000A2F5756292B2120242F0F002228513F8012C02F00F02A2F5756292B2120242F0CB
:20512000F00262850B6025B90B6833F8022BE2850B6030308AF800005A4A0B6812689B1A88
:2051400088F8003067B903F017FF5D4B1B78C01A9AF800301844283803122371607104E085
:20516000A7F128031A1222716371A379112B1DD1A388A3851AE0412A40F091806A1CD2B290
:205180008B18224603F1280153F8040B8B4242F8040BF9D105F1290388F800309AF8003019
:2051A00028338AF8003001E0B34601E0B34600252B46009303F0E0FE98F8002082426ED87A
:2051C00003F0DAFE3E4A009B12789AF800A0DB009BB2C2EB000853443A494344B3F57A7F06
:2051E000C1F800805BD83CB12E4B04EB0A0019681144424605F0D2F8002F39D056B132480E
:205200004FFA89F3B82404FB030308EB0A0189B29982198495B3B8224FFA89F402FB04F31B
:2052200029492A48CA18114697822231128C05F0B5F8274D05F24C5615F8012C5AB115F846
:20524000033CA34207D115F8020C204B294603EBC00005F0A3F87135B542EDD15FFA89F0F2
:20526000FFF732F8BBF1000F0BD01A4B1F800CE0BBF1000F05D0002DF7D110E0BBF1000F58
:205280000DD1144BD044A3F80080134C236823B1FFF792F823685B68984701F019FA07B07C
:2052A000BDE8F08F640E0020CB220020580E002066C9000051C9000055C90000600E0020B0
:2052C00021280020680E0020740E0020C4280020D8220020B4280020700E002037B5124B24
:2052E000124D1C782B796A79C4EB032313449BB2ADF80630BDF8063005F108011844202258
:2053000080B205F04AFDBDF8062004F12801294492B205F042FD10B140BA80B201E04FF62E
:20532000FF7003B030BD00BF22280020C42800202DE9F041264F274E3D7827482835AB19B3
:205340005C780223E40007349C423DDBE9187218715CDFF88080012931D002D3632902D0B2
:2053600011E001332EE0037018461B4C01F06CFED0B13B7822782833134443445B78134436
:205380000233237021E001F0C001802905D0C02905D0402913D1037006E0037007E098F8C6
:2053A00018200370FF2A02D10120BDE8F08104200221EA1801F068F80220BDE8F081527873
:2053C00002321344DBB2BFE703700020BDE8F08122280020C42800202428002008B500F0D7
:2053E0006BFC01F039F905F063FD074B4FF480621A800023054A00211A442033B3F5A07FB2
:205400001182F7D108BD00BF9E1A0020CC2C00202DE9F041124F3D7805B3DFF84C8005F10F
:205420002703B8F80040A34203DB0023A8F8003013E00C4EA4F1280205F12801641BA4B29C
:2054400006F128003144521B05F01EF8A8F80040283C23123371747100233B70BDE8F0815A
:2054600022280020C4280020B4280020F8B503461D4804460288013292B2B2F5FA4F28BF3D
:205480004FF4805250BA80B20026184D77193F8A8742F0D02036B6F5A07FF6D122800022A3
:2054A0005601AC19278A47B92082618253B920461946102205F04CF80FE001320A2AEFD148
:2054C0000020F8BD274603F1100E3A4618685968083303C273451746F7D1054B35441B797D
:2054E00020462B75F8BD00BF9E1A0020CC2C0020142E002004282DE9F74F9D4E00F0C88134
:205500009C4C9D4B9D49052823600B60A146884612D19B4A1268128A002A00F0F6810C3B4F
:2055200023600B60974B002297481A80974B0260328008221A70A9E113F83C2CA3F13C0485
:2055400002F0F002602A40F0E08122796179120230885518854200F3D88128310A44328032
:20556000227AFF2A00F0D181894A363B1360894D894B002129701970A17993469A46B9B93B
:2055800001238AF80030FFF7D3FE012800F0BD8103D3022800F0B5810AE02B7803F1280246
:2055A0002244CBF800205278083303EBC2032B707A4800F01FFA002840F08B80774800F072
:2055C000BFFA002840F08580227E754BFF2A40D048F2FE00198B81423BD01989814238D005
:2055E00071B9598961B9998951B9D98941B91B8A33B9618A6A4B19B9998A09B9DB8A43B3BA
:20560000218B674B79B9598B69B9998B59B9D98B49B9198C39B9598C29B9998C19B9DB8C9C
:20562000B3F5807F15D03388B3F5A06F04D9022000214FF4A06205E0E379012B05D800219C
:205640000A46032000F020FF5BE1554A013BD37157E148F2FE032189994240F05681218BC2
:205660004F4B81B9598B71B9998B61B9D98B51B9198C41B9598C31B9998C21B9DB8CB3F520
:20568000807F00F04281FF2A00F03F81434800F091F90246002840F0388101200221D1E725
:2056A0001FD93B2F00F031813C2F22D19AF8003039499F0739D558067DD443F040030B70F0
:2056C000FFF736FE012800F0208131D3022800F01881DBF80020DFF8B8C017782C2FDFD153
:2056E00013E1112F00F089802B2F2DD0002F62D102E03A2F5FD162E09AF80030CDF804C0BC
:20570000D90758D4244A43F001031370FFF710FE012800F0FA80DDF804C0D7D22B7803F1E5
:2057200028022244CCF8002008E043F00203C6E72B7803F128022244CBF800205278083319
:2057400003EBC2032B70C4E79AF8003003F0040000F0FF0178BB104A43F0040313702A78BB
:2057600002F128032344D878E0B104202A3269E7B4280020B82C002000290020B8280020AA
:20578000B42C0020C82C0020BC2C0020AC2C0020B02C00202228002023280020DC28002000
:2057A000C4280020CCF800305B78083202EBC3025B4B1A708DE704200121121B42E705F0F5
:2057C00008FB4FF6FF73984240F09F802B782833E05C00F069FF2B782833E218E05C517857
:2057E00000F030FE012801BF00234D4A338013703388002B00F0898083E0FFF709FEE38D03
:20580000A7714BB9678D002F7FD0464B464D2B60464BB3F828A00AE005F0DEFA4FF6FF73D9
:20582000984272D1EEE7238A33B920342C602C683F4B9C42F7D315E09F42F6D1638A0BB1F1
:205840009A45F2D123682BB963681BB9A3680BB9E3685BB137482146102204F06DFD0028D4
:20586000E3D103E0012004210022EBE63388324A303B3249338000230B60C9F800203049A0
:20588000C8F800202F4A02200870138000F0F8FF2C4B1A88002A38D002F13003234C9BB26E
:2058A0003380283B191263711F4B08321B6852BA2171197DA2850022E2851A8AE17122852B
:2058C0005A8A11216285A17104F118050FCB85E80F0004F10800294600F090F91A4B04F112
:2058E0003C021A6005F078FAC04380B208B1E08502E04FF6FF73E385602323700023637029
:2059000063800F4B00221A7007E0054A002313700E4A338013700A4A137003B0BDE8F08F86
:2059200022280020CC2C0020B42C0020C42800200C2E0020CC280020F4280020BC2C002027
:20594000AC2C0020C82C0020B82C0020232800202DE9F3410446154D00910E4690461F46B6
:205960000195234612480321202205F042FA01282B4616D12A6804F11001107020462A68A6
:20598000023250F8044B884242F8044BF9D11868089B86744361099B80F81380077783614D
:2059A00000E0002002B0BDE8F08100BFE80F0020102F002070B506460B4D0C4B2B602C68AB
:2059C0000B4B9C420BD2237833B1A27CA01C3146D20804F0B1FC20B120342C60EFE70020C4
:2059E00070BD012070BD00BFE80F0020102F0020702F002013B5084C80220346009201940A
:205A000006480321202205F0F4F908B9206800E0002002B010BD00BFEC0F00202C2E0020D4
:205A200010B50C4A0C4B136013680C498B420DD2197849B1411C02D0997C814204D148F264
:205A4000FE015C888C4202D02033ECE70023184610BD00BFEC0F00202C2E00208C2E002021
:205A600037B504460F4D80230093019523460E480521122205F0BDF901282B460ED12A68F9
:205A800004F11001107020462A68023250F8044B884242F8044BF9D1186800E0002003B06D
:205AA00030BD00BFE40F0020B02E0020F7B50546204C802300930E46174601941E480321C0
:205AC00020222B4605F095F9012830D12A46236805F1100118702368023352F8040B8A42F7
:205AE00043F8040BF9D12068C77416B90123037505E0002303753146183006F0EAF82368C2
:205B00000E480121997402234370FF220023027043808380C38003818372C17202736B7B62
:205B20004373EB89C381FFF79BFF206800E0002003B0F0BDEC0F00202C2E0020A01A002010
:205B400013B5084C802203460092019406480521122205F04EF908B9206800E0002002B038
:205B600010BD00BFE40F0020B02E002038B50546C8B10D48022200244270FF230122C2720F
:205B800044808480C4800481847203730370EB7B43732B8AC381FFF7D3FF044A106008B141
:205BA00005F04BF92C7038BDA01A0020E40F002010B50E4B0E4C236020680E4B98420ED298
:205BC00003784BB1037D3BB9183003F099FE18B1074B1868FFF7CAFF23682033EBE700F00E
:205BE0006BFBBDE81040044804F0E0BF2C2E0020EC0F00208C2E0020702F00202DE9F843EC
:205C000048F2FE030A8805469A42884621D00B78FF2B1ED01B4B0024A1461F461A4A1A6082
:205C20003E681A4A964218D233787BB1B37C012B0CD148F2FE0372889A4207D04046B11C4E
:205C400005F008F9484524BF3446814620363E60E6E70120FFF7E4FE04464CB92C806C80FC
:205C6000AC80EC802C816C81AC81EC81BDE8F883A31C123453F8042BA34245F8042BF9D19E
:205C8000BDE8F883EC0F00202C2E00208C2E002010B504F047FF044604F044FF054B24027F
:205CA0009A68A4B22044B0FBF2F302FB130000EB520010BD142E002073B52F4C00F07CF815
:205CC00000F010F9002160222C4804F041FC00212046F82204F03CFC294B20221A70294B02
:205CE00018221A704FF4A0632360274B40262671A360FFF7CDFF42F21073236148F2FE036D
:205D0000314640F2FF260025E06025751F4C2A46238065802B46A580E580204600950195C7
:205D2000FFF716FE20461A4905F08BF8294601222046FFF7BBFE4FF480732046E3812680CB
:205D40006580A580E58025816581A581FFF788FE4FF40073204626806580A580E5802581CF
:205D60006581A581E381FFF77BFE0A480C2102B0BDE8704004F011BF142E0020102F002039
:205D80000D2F00200C2F0020C0270900A01A0020BC280020702F002010B5044640B100F0CF
:205DA00051FE044B2146BDE81040186803F07EB810BD00BF4801002008B502F02BFF034B24
:205DC00003491868BDE8084002F0B8BF48010020995D000070B51E460C4B04469DF8102053
:205DE0001868059B02F0D8FF054668B120462B4604F1100250F8041B904243F8041BF9D11B
:205E00006E74284600F01EFE284670BD48010020024B0146186805F069BE00BF48010020CA
:205E200070B50C4D0646286802F09CFF044666B9002070BD20463146102204F07DFA38B162
:205E40002146286805F01AFE0446002CF2D1EFE7204670BD48010020024B0146186805F02A
:205E60002CBE00BF4801002070B5054610200C4603F072F90849064605F0B9FD58B93046F1
:205E80002946224602F064FE304629462246BDE8704000F0ADBD70BD9FC900002DE9F041FF
:205EA00005460D480F46904604F0CAFE044688B1012D04D8094804F0F9FE034601E0084B15
:205EC0001B682846666839464246B047204604F0F4FEEBE7BDE8F0819C140020341000209D
:205EE0003010002008B50B4804F0EAFE0A4804F0A4FE0A4B0A49186802F020FF094804F0F0
:205F0000DFFE094804F099FEBDE80840074804F094BE00BF7C010020D81000207801002049
:205F2000ADAE00005C010020341000209C14002008B5034640B1054A5968106805F0D6FD0E
:205F4000BDE8084004F0A3BF08BD00BF78010020014804F075BE00BFD810002008B504F0F9
:205F600098FF014638B1044B186805F0A6FD003018BF012008BD08BD780100202DE9F04161
:205F80008046FFF7E5FF0026044637469CB194F82450B5420AD3404604F10801EA0804F0E9
:205FA000CBF918B9802D08D02E462746204604F079FF0446EAE73C4667B1084804F040FEDD
:205FC000844207D00548214604F044FE0348214604F063FE2046BDE8F08100BFD8100020F0
:205FE00038B5044600283ED04368002B3BD01E48214604F02FFE6368586804F021FE05467C
:2060000030B14368A34207D0284604F056FEF6E704F1080000F04AFC63682946586804F084
:2060200019FE6368586804F00BFE28B963680F4A5968106802F03AFF21460D4804F064FE46
:2060400029460C4804F060FE0B4A20461368013B1360FFF76DFF04F108010246BDE8384081
:206060000320FFF71BBF38BDD8100020780100207C010020880100203010002010B50446E2
:2060800080B1406870B104F0DBFD20B14068FFF7A7FF6068F7E7044B2146BDE81040186854
:2060A00002F004BF10BD00BF780100202DE9F84F074610468946904604F0EBFE834610B9F2
:2060C0000020BDE8F88F3846FFF758FF044660B1FFF72EFF014628B14046102204F02CF93A
:2060E000002859D02046FFF77BFF2D4B1A689A46142AE5D02B4E5946306805F0DEFC0546E2
:2061000068B92B4630685946042202F045FE05460028D5D000236860036004F08EFD22480C
:2061200004F0DEFD04460028CAD02048214604F0B4FD1F4804F0D4FD834620B921461A4879
:2061400004F0E2FDBCE744606868594604F096FDDAF800306560013330682946CAF800303B
:2061600002F0BAFE3B4604F1080507F110062A4618685968083303C2B3421546F7D10021FA
:206180000C2284F8249004F1180004F0E1F9022039464246FFF782FE2046BDE8F88F00BFD6
:2061A00030100020780100207C010020D81000208801002038B505460D4804F041FD04468F
:2061C000A0B1AC420ED12146094804F043FD2146084804F099FD211D01200A46BDE83840A8
:2061E000FFF75CBE204604F068FDE8E738BD00BF341000205C01002038B50546084804F0F0
:206200001FFD044648B1201D2946102204F094F818B1204604F051FDF3E7204638BD00BF5C
:2062200034100020F8B505460F46FFF7E5FF044640B9134804F054FD0446F0B11148214645
:2062400004F02BFD2B46261D05F1100E324618685968083303C273451646F7D137B104F1E8
:206260001400394605F035FD002300E001232377002029462A46FFF711FE2046F8BD00BFC5
:206280005C0100203410002038B50A4804F0D8FC044600255CB1251D2846FFF7C1FD08B17D
:2062A000437C23B9204604F008FD0446F2E7284638BD00BF3410002010B50A4804F0C0FC74
:2062C000044670B1237F43B904F1140003F018FB18B12046FFF76EFFEFE7204604F0EDFCFB
:2062E000EEE710BD341000202DE9FF411F4C204D04F108030FCB8DE80F0029786F4694F82A
:206300000780A1B13A23A3711A4B1A88521A92B21A80A2F1280318122C312071214404F1B2
:206320002C002C3A637104F0AFF800232B70124804F086FC064690B1D6F804C0BCF1000FF3
:2063400009D00C4B2A781B8838322C3B3846414622449BB2E047304604F0AFFCEAE7054BE2
:206360002870188004B0BDE8F08100BFC428002022280020B4280020A0140020F8B52A4BFC
:206380002A4C1B7904F11806E371237E04F10805FF2B08D195E80F0086E80F0028463146F8
:2063A000FFF72CFC1BE02F46B646214A3B4603CB7345106051601F4602F10802F6D196E819
:2063C0000F0085E80F001A4B1A4D03F110062A4618685968083303C2B3421546F7D1164D30
:2063E000297899B13A23A371144B1A88521A92B21A80A2F1280318122C31207163711048F4
:2064000021442C3A04F040F800232B702B7881222833E518E25400236B706B8004F0D9FC41
:20642000C0436880F8BD00BF142E0020C4280020181C0020DC28002022280020B4280020B1
:20644000F028002038B504460B480D4604F0F8FB78B10379A34209D14379AB4204D1836873
:206460003BB19847002038BDFF2BF8D004F025FCEEE7012038BD00BFA41400200146014823
:2064800004F0FCBBA41400202DE9F74F484D81462B7888469246474C43B12833E35C3A2BF2
:2064A0000BD1454A002313802B707EE0A3793A2B03D194F92830002BF3DA00F045FE3F4ED0
:2064C0003F4AB446934606F1100E334603CB7345106051601E4602F10802F6D1364E2F78D8
:2064E000338804EB470030339BB2B3F5A06F88BF4FF4A063338032882E4BD21B1946303A1B
:206500003030CDF804C0009303F0BEFF9DE80810602222700022627062803A2217B183F829
:20652000282000E09A71274A224B1279E271228972B95A8962B99A8952B9DA8942B91A8A68
:2065400032B95A8A22B99A8A12B9DB8A002BA8D01D4B0FCB8CE80F009BF80030FF2B05D112
:20656000B9F1040F9DD1B8F1020F9AD114491648FFF744FB2F78504607F12803E21804F885
:20658000039082F8018004F02AFC33882C37283BE0511A1263712B78227128331C4400238D
:2065A000638004F016FCC043608003B0BDE8F08F22280020C4280020B4280020DC280020A2
:2065C000181C0020142E0020CC2800202DE9F0411E460F461B4905460C4660230B700023CF
:2065E0004B704B803A238B71174B90461B7900F1100ECB71331D1A120A714B7101F11802E6
:20660000134628686968083503C375451A46F7D10E482C3600F11001FFF7F0FA0C4B1B7857
:206620002833E518E75400236B8085F8018004F0D0FBC043074B68801E80BDE8F04100F05B
:2066400059B800BFC4280020142E0020CC28002022280020B428002008B50448FFF70EFF76
:20666000BDE808400248FFF709BF00BF94010020A0010020024B1B6803B1184718467047F8
:20668000B8140020014B1860704700BFB814002010B51446FEF7EAFE18B1024BC4611B682E
:2066A000836110BDC00C002007B5074B8DF80700186828B1054B0DF107021978FDF764FD0D
:2066C00003B05DF804FB00BFC02C0020FC30002008B5002204480221FDF756FD034A002397
:2066E0001380034A137008BDAC010020B42800202228002038B5274D2B88002B48D0B3F540
:20670000A06F26D8244C238B6BB9638B5BB9A38B4BB9E38B3BB9238C2BB9638C1BB9A38C0F
:206720000BB9E38CABB100F04DFD90B1237EFF2B0CD01A48FFF73EF980B11848FFF770FB27
:2067400008B9288038BDFFF763FB00E00020FFF791FF134A00232B80137038BD0F48FFF711
:206760000DFC044620B9FFF78FFD0028E6D1F0E7FFF7DEFB0028E1D1E36923B11B6A93F8DC
:20678000540004F0FEFD2046BDE83840FFF728BC38BD00BFB4280020C4280020DC28002079
:2067A0002228002038B50388054614463BB140F24B32934218D000230380032038BDFDF748
:2067C00059FC274B1870FDF755FC264B40211870254804F0E2F9FEF701FE00F05BF940F225
:2067E0004B332B80012038BD02290CD11F4C2388002BF4D00120FEF77DFE2388002BEED028
:20680000FFF778FFEBE709D80129E8D1002CE6D0174B05201C60FEF76DFEF1E787290BD1CC
:20682000144B9A692033A24204BF002223F8102C114A9342F5D1D2E78829D0D10A4B9C424F
:2068400002D1204604F0C4F90C4B9C42C7D1204604F0BEF90028C2D0FFF7AAF9D0E700BFA7
:20686000FB300020FC300020A8140020B4280020B42C0020CC2C00200C2E0020702F002078
:20688000074B1B680BB1283302E0064B1B681833186820B1044A11785A68FDF775BC704745
:2068A000BC2C0020B42C0020FB300020F7B5054628B9224803B0BDE8F040FCF729BE038856
:2068C000ABB94488ACB98388A3B9C4888CB9038983B94FF6FF72418991420AD1017B427BFC
:2068E000837BC07B00901648FCF712FE24E0002400E01C462646AB195B78AF5D03EB0727D9
:20690000BFB24FB9002C09DB01D0013411E00D48FCF7FEFD01240CE0002C04DC2EB13A205E
