:020000040000FA
:2000000000500020E1000000D1AF0000C9000000D3AF0000D3AF0000D3AF000000000000C0
:20002000000000000000000000000000D3AF0000D3AF000000000000D3AF0000D3AF0000B8
:20004000BD320000D3AF00009D370000D3AF0000752A0000252E0000D3AF0000D3AF0000E3
:20006000D3AF0000BD370000D3AF0000D3AF0000D3AF0000D3AF0000D3AF0000D3AF0000FE
:20008000D3AF0000D3AF0000D3AF0000D3AF0000D3AF0000D3AF0000D3AF0000D3AF000050
:2000A000D3AF0000D3AF0000D3AF0000D3AF0000D3AF0000D3AF0000D3AF0000D3AF000030
:2000C000D3AF0000CD390000044B1A68B2F5806F03D01B689B0500D4FEE7704728ED00E0D6
:2000E00008B508F0DDFA0C4A0C4B0D498B4204D252F8041F43F8041BF7E70A480A494FF045
:2001000000028842B8BF40F8042BFADB01F0D8FBFFF7DAFF08BD00BF1AD900000000002036
:2001200059080020600800209135002010B5038804466E2B0BD0AB2B3FD0002B37D1274A39
:20014000852110681A4604F09BFA6E232DE0852931D123480BF07EFA1A21224803F072FC66
:200160004AF6CD31204803F06DFC4FF47A711F4803F068FC00211E4803F064FC30211D4801
:2001800003F060FC30211C4803F05CFC01F048FB1A481B4901F064FB1A481B4901F060FBB4
:2001A0001A481B4901F05CFBAB23238003E000230380032010BD012010BD164B1B788B4298
:2001C000F2D1154B9A42EFD114480BF043FA144B1B6A9847134B1B6A9847E5E75C110020EE
:2001E00098D10000B7D10000C7D10000D7D10000E7D10000F6D1000009D20000E804002068
:200200001DD200007C04002028D20000A004002032D2000082350020C0CC000043D2000015
:20022000C40400203804002008B5094A1378012B03D9BDE8084001F04FB8013305491370ED
:2002400001F058F8BDE80840034804490AF01CBD4E26002088080020B808002058D20000B7
:2002600070B5184EAAB033784BB3174CA08A2146228A00F0C9FD054608B3144B214693F843
:20028000642001A80BF039F904F130000AF05AFD04F13001024601A80BF01DF9A38D002214
:2002A000A16A01A80BF0C9F805F1360101A800F0C5F8A886284600F0DFFD002333702AB043
:2002C00070BD00BF4E2600208808002074CB0000034A0448136801331360034BDB6D1847FF
:2002E000080900207C04002074CB00002DE9F0410D4616461F460E4C0846E369D4F8B4100F
:2003000098470C4B28461B6A9968236BC9099847094B39463046094A1B68E46C0BF031FADF
:200320003146024623462846BDE8F041184700BF74CB00007C0400200809002079D20000D8
:20034000034A0448136801331360034BDB6D18470C090020C404002074CB00002DE9F0414A
:2003600015461F460A4C0E46E3690846D4F8B4109847084B39462846074A1B68E46C0BF0AB
:2003800000FA2946024623463046BDE8F041184774CB00000C09002083D2000073B5164C45
:2003A0000C23154600228DE80C000E46636D13496A46984750B100980AF058FA20EAE070C2
:2003C0003028C8BF30230190C8BF0193019A28460B490AF0CBFAE369D4F8B41030469847F2
:2003E000636B01A9304601229847E36C30462946019A984702B070BD74CB0000DBD2000094
:20040000DFD2000010B5044600200146024606F0D9FB044B048218600BF090F9024B1880ED
:2004200010BD00BF10090020341F0020024B1888013080B218807047341F0020F7B504467C
:2004400001232160037100230B700E46016800790A7842EA80120A70206862790178120106
:2004600002F030020A430270A27A206802F00F0102780A4302702268A17951702289216821
:20048000120A8A7022682189D170A279002A00F04081224652F80A5B0435A17A8B4205D2CC
:2004A00012F8011F013305F8011BF6E7E37C03F0020303F0FF015BB194F86A3000210093B8
:2004C0002A46012004F16B030AF04BFE01210544E37C1A0708D5236C2A4600930320636C99
:2004E0000AF03FFE03210544E37CDB060AD594F824302A460093042004F125030AF031FEEC
:2005000004210544E37C9F0606D52A46052000230AF0F7FD05210544E37C580606D52A4671
:200520000620636E0AF0EDFD0621054494F91330002B07DA2A460720B4F850300AF0E1FDF9
:2005400007210544237DDA070AD5A36C2A4600932F2301930820E36C0AF013FE08210544DE
:20056000237D1B070AD5E36D2A4600932F2301930B20236E0AF005FE0B210544237DDF06EE
:2005800006D52A460C20A38B0AF0BBFD0C210544237D580606D52A460E20236A0AF0B1FDE2
:2005A0000E21054494F91430002B0CDAD4F894302A460093262301930F20D4F898300AF0B4
:2005C000E0FD0F210544637D9A0707D52A461120B4F868300AF095FD11210544637DDB06BB
:2005E0000AD5636D2A460093262301931420A36D0AF0C7FD1421054494F91530002B1CDAF9
:20060000676F94F878303F010BB147F00807B4F87A3000201B09421C5B0892B201D01046C8
:20062000F9E7002A18BF024602F00F0317202A463B430AF066FD17210544A37D1F071DD552
:20064000D4F8807094F884303F010BB147F00807B4F8863000201B09421C5B0892B201D0E0
:200660001046F9E7002A18BF024602F00F031B202A463B430AF045FD1B210544A37DD8060F
:2006800007D52A461C20D4F88C300AF03AFD1C210544E37D1A0708D5236B2A460093232061
:2006A000636B0AF05EFD2321054494F91730002B08DAA36B2A4600932720E36B0AF051FDBB
:2006C00027210544A37EDB0606D52A463C20D4F890300AF016FD05442368EB1A3E2B11DC18
:2006E000B4F89E3013B1FF2305F8013B2846D4F8A010B4F89E200AF0AFF9B4F89E00AD1B59
:20070000284407E0044A054B0025256028461A6000E0042003B0F0BD48D300000C050020A6
:200720002DE9F0418C46104904460F680D46BE4600F11008764620686168083403C644458B
:20074000B646F7D11146A7F812C01A46384606F097FB2C680021204610220AF0E1F9002363
:200760006382BDE8F08100BF100900202DE9F7438846064600219146A4220AF0D1F9C6F8DC
:20078000008098F800309B09337198F80020012BC2F30112727198F8004004F00F07B77247
:2007A00098F80120B27198F8021098F8032042EA0122328101D0A14A02E0082F04D9A04A72
:2007C000A04B80201A6035E108F1040421463A4606F10B000AF0CAF806F113000021082203
:2007E0000AF09EF93C44002708EB09039C4280F02081257805F0F003F02B14D10134C4EB6A
:200800000808C1441FFA89F9B9F1300F8ABF3023A6F89E90A6F89E30B6F89E300020C6F811
:20082000A040E05406E12B090D2B05F00F0503D1637802340D330AE00E2B03BFA378627849
:2008400003F20D13013404BF03EB022303340D2D03D114F8015B0D3508E00E2D01BF6578C9
:2008600005F20D1214F8025B02EB05251F4406EBD70107F00703012202FA03F0CB7C0E2F1F
:2008800043EA0003CB746CD029D8062F00F0AB8017D8032F00F084800BD8974240F0C0801B
:2008A0002A46082D28BF082286F86A2006F16B006DE0042F5BD0052F40F0B28086F89C209D
:2008C000B5E0082F7DD06ED30B2F73D00C2F40F0A780204629460AF080FBB083A7E01B2F61
:2008E00000F0878026D8112F4AD009D80F2F40F097802623009306F1980006F1940166E006
:20090000142F69D0172F40F08B80204629460AF064FBC0F3C00300F0070286F878301023E4
:200920009340A6F87A3020F00F0393400009F36770677CE0232F2ED008D81C2F70D12046EF
:2009400029460AF04AFBC6F88C0070E0272F22D03C2F65D1204629460AF03FFBC6F890000F
:2009600065E0204629460AF038FB30625FE02A46082D28BF082286F8242006F1250006E0E5
:20098000204629460AF029FBA6F868004FE0214609F0ECFF4BE02C4A2A4BA5201A6049E066
:2009A0007464356443E0204629460AF016FBA6F850003CE02F23009306F1600006F15C0129
:2009C00005E02F23009306F14C0006F1480122462B460AF00DFB2AE02623009306F15800BA
:2009E00006F15401F3E7204629460AF0F6FA70661DE0204629460AF0F0FAC0F3C00300F020
:200A0000070286F8843010239340A6F8863020F00F0393400009C6F88830C6F8800006E0A9
:200A2000FB0704D5094A074B82201A6002E02C44DAE6002003B0BDE8F08300BF77D3000014
:200A40008ED300000C050020B3D30000DAD30000014B1860704700BF600A00202DE9F04FB8
:200A6000038887B0814633B1B3F5AD7F13D0002303800320ACE1A848A84900F0F1FE00F04C
:200A8000B9F943F21630FFF7BDFC4FF4AD73A9F8003001209CE1A24B1B788B4240F0928118
:200AA000A04D00232B70A04B1B789807EDD59F4E9F4BA04C316820461A88FFF757FEB04607
:200AC000074628709C4E002840F01781A379013B032B00F2DC80994B994A1B7802F108012D
:200AE00028332089D25A00F08FF93060002800F0C8802023ADF80A3063790397049705978F
:200B000023B9904802214522238905E0FFF78EFC03468C48012145220AF06EFBA27A1AB196
:200B2000884889490AF09DFB04AB0093814803A900220DF10A030AF067FC40B1BDF80A3060
:200B4000202B28BF2023ADF80A30049B05937F4BD3F800C0BCF1000F00F08F803268794F98
:200B6000DFF8D0B105A90091BDF80A30584639467432E047BA4600286ED02B78002B6BD195
:200B80009BF8163019070DD597F90630002B09DBBB7D1A0706D4634BA1221A706C4A6D4B09
:200BA0001A6059E094F91530059A002B41DA049B9A4223D1BAF89E10624F8A4205D3822302
:200BC000BB71384664490F2244E0BDF80A308A1A9A4294BF00220122039938460AF02DFC25
:200BE0000499B7F89E30BDF80A205B1AD7F8A0E09A423846714428BF1A462BE00132039908
:200C0000BDF80A3006D1BAF89E209A4294BF0022012200E001224B4F38460AF00EFCBDF856
:200C20000A20BAF89E30934216D93846D7F8A01010E08AB1013218BF012200214148202304
:200C40000AF0FBFBBAF89E203E481F2ADAF8A01088BF20220AF03FFC2B78002B4DD137689A
:200C6000384807F13601FFF7E9FB80B2B886002843D12C4BC1221A703FE0A1232B70374A5C
:200C800002E0A323364A2B70324B1A6035E0636823F07F4323F0FF0313B9C3232B700CE097
:200CA0006379032B09D1254B254A1B7802F108002833D15A228900F0D7F9208900F028F938
:200CC000306040B1C76AD0F830A000F0BFF817B150461849B847002333606379154A012B48
:200CE0000BD8D37C5B0608D5144B15491B7801F108002833C95A00F07FFC2B78094F3068BE
:200D00002BB900283FF4C1AE00F0B6F8BDE6C22B28D100F09BF8B8E638050020F6D30000B7
:200D2000873500204F2600204831002054310020502D002014090020B8090020BE2C00203F
:200D4000602D0020BC0900201F090020600A002007D400000C05002017D4000027D400003D
:200D600038D4000000F072F83B78C32B03D100233B70032104E0BF2B84BFA0233B70022104
:200D80002A78238914480AF037FA144B144D1C68204609F0D7FF214602460F480AF09BFB6F
:200DA000104BD8F800401B78214628330A485E5BFFF744FB314683B2224605F10800FFF72B
:200DC000AFFC62E688297FF460AE00F0AFF85CE607B0BDE8F08F00BF140900200C0500200D
:200DE000602D0020BE2C00200148002103F070BC10050020024B1A68024B1A60704700BF72
:200E00005C110020680A0020F8B507460D480D4616460AF071FD044690B1294600230376B7
:200E2000878000F11A0305F1100251F8040B914243F8040BF9D16685034821460AF02AFD98
:200E40002046F8BD20050020640A002010B5044660B1083003F01AFB214605480AF006FD93
:200E60002146BDE8104003480AF05ABD10BD00BF640A0020200500202DE9F041044600F1D9
:200E80001A073846618D04F13602A38EFFF748FC94F83650C5F3011575BB237E032B1AD85C
:200EA00053B90AF04BFCC023B0FBF3F202FB130000F28110E06002E0E3685B00E360124D75
:200EC000124B2E681B6804F108002B600AF083FC2E60BDE8F081E66A3846618DD4F83080BF
:200EE00000F04AF82046FFF7B1FF56B1404629463346BDE8F04118472046BDE8F041FFF7D8
:200F0000A5BFBDE8F08100BF5C110020680A002010B5044604480AF09FFC20B18388A342C8
:200F200001D00068F9E710BD640A002010B509480AF092FC044664B104F108000AF054FCF9
:200F400028B1237E204601332376FFF795FF2468F1E710BD640A002010B5044604482146D9
:200F60000AF0DEFC2146BDE8104002480AF07EBC2C050020FC0D0020F8B506460C480F46A7
:200F80000AF06AFC044600257CB104F118003146102209F0B9FC30B9238DBB4203D1204621
:200FA000FFF7DAFF01352468EEE72846F8BD00BFFC0D00202DE9F843074613488846914622
:200FC0001E460AF049FC04460025D4B104F118003946102209F098FC88B9238D43450ED1D7
:200FE00094F82A30B3420AD104F12B004946324609F08AFC18B92046FFF7AEFF01352468F9
:20100000E3E72846BDE8F883FC0D00202DE9F84307461448894690460AF01EFC044600252D
:20102000E4B14FB104F118003946102209F06CFC90B9238D4B450FD1261D464508D0304677
:2010400009F080FE41460246304609F05DFC18B92046FFF781FF01352468E1E72846BDE838
:20106000F88300BFFC0D00202DE9F04106460F480F4690460AF0F0FB0446002594B104F16A
:2010800018003146102209F03FFC48B9238DBB4206D1A38E434503D12046FFF75DFF01355B
:2010A0002468EBE72846BDE8F08100BFFC0D00202DE9F0414668DAB0804630460D4609F05F
:2010C00041FE0446314603A8132209F0B3FE122C07DC35B103AB18192946C4F1130209F06E
:2010E000A9FE0024234608A8012145228DF81F400AF082F823460122214631A80AF07CF8F1
:2011000003A931A80AF022F903A809F01BFE06462D480AF0A1FB0446002C52D0251D2846D9
:2011200009F010FEB04208D049DD98F80830DB0645D5A3191B792F2B41D103A829463246A7
:2011400009F02EFE00283AD1FFF770F904F11801228DFFF759FE054688B3A16B142391FB79
:20116000F3F203FB12130BB98DF82530AB8831A8A386AB88D8F81070ADF82830002300935E
:2011800008A9302305F17402B8479DF92630002B05DBA16B08A84B1CA3630AF02EF904F1AA
:2011A0002B0194F82A2008A80AF05BF808A805F13601FFF743F9A8862846FFF75DFE2468A8
:2011C000AAE75AB0BDE8F081FC0D00202DE9F74F92468A790B46012A6ED19AF90620002A60
:2011E0006ADBCA7C520667D54E6E002E48D1344A344D1278D1F860C0283232F805808F7A49
:20120000D1F85CB0624601F10B0905F108004146CDF804C0FFF7FAFE2B480AF06DFB044630
:2012200000283ED0BBF1130FDDF804C0A8BF4FF0130B61465A460430A34409F097FB8BF8DD
:20124000046004F1180E05F108030FCB8EE80F0049463A46A4F8288084F82A7004F12B0026
:2012600009F084FB2146A68618480AF013FB5046A16B4B1CA36303B0BDE8F04F0AF0BDB8E6
:20128000012E19D10E4A1249127801F108002832895A03F10B029B7A03B0BDE8F04FFFF71E
:2012A00089BE50460B49A32310228AF8063003B0BDE8F04F0AF00FB903B0BDE8F08F00BF5E
:2012C000BE2C0020602D00202C050020FC0D0020602D00205CD40000034BA3221A70034A16
:2012E000034B1A60704700BF4F2600206DD400000C0500202DE9F0430446ABB000890D46DF
:20130000FFF706FE064600284DD06279C2B901A80221238909F070FF264BDFF8A4801B780D
:2013200001A8283333F80890234B1F683946FFF785F8494683B23A4608F10800FFF7F0F9DB
:201340002F4606F11A0306F12A0E3A4618685968083303C273451746F7D1738D2B826379AE
:20136000003318BF0123AB74FFF760F8A88204F10B0105F11700A27A09F0F8FAA37AAB7556
:20138000D4F880302B62B4F88630AB84636FAB62B4F87A301BB1202B28BF202300E020231A
:2013A000AB85C22200E0A022044B1A702BB0BDE8F08300BFBE2C0020543100204F260020A8
:2013C000602D00202DE9F74F0C9F8B4690461E4600F072FA0AF040FA002481462546B9F1BE
:2013E000000F7CD04DB13B689D4205D3B4423EBF2C2308F80430013401353B689D4205D3FF
:20140000B4423EBF3C2308F8043001343A686B1C934205D3B4423EBF2F2308F8043001348D
:20142000D9F804C002356046CDF804C009F08AFC3B6800EB050A9A45DDF804C00FD9711CA8
:201440005B1B08EB0400091B002BACBF63440CF10003344A0AF095F90444B4423FD23B68C6
:201460009A4505D3B4423EBF3E2308F804300134D9F80C300AF1010543B31B7833B33B68D8
:201480009D4205D3B4423EBF3B2308F804300134D9F80C300AF1020A1846019309F052FC8E
:2014A0003A6800EB0A059542019B0FD9CAEB020A711C08EB0400091BBAF1000FA8BF534414
:2014C000184A0AF05EF90444B44204E0B44203D93A682B1B934203D8D9F800907FE74CB109
:2014E00041465846224609F0F6FF5846282109F0CFFE09E045B18221584609F0ACFE584663
:2015000009490F2209F0E7FFB9F1000F03D14FF0FF333B6002E03B681E443E6003B0BDE8F3
:20152000F08F00BF7AD4000017D4000038B50C46054620B90E480AF08DF8042038BD0D488E
:201540000AF088F8AB79413B3E2B04D90A480AF081F8032038BDEB7C5B0604D407480AF065
:2015600079F8022038BDB4FA84F0400938BD00BF83D400008FD400009ED40000B2D4000012
:201580002DE9F04104460A4D0F462146094C16462846002209F030FE21682846FEF74EFF06
:2015A000314683B222683846BDE8F041FFF7B8B8040E00205431002070B505460C480E464C
:2015C0000AF04AF9044684B10A4829786A7802F039FA237FB34206D104F11D0029463246EE
:2015E00009F092F908B12468EDE7204670BD00BF000E002022D50000F7B51446074622481A
:201600000E460AF027F8A57A20480AF023F80DB91F482DE01F480AF01DF8294604F10B00A2
:20162000FFF7CAFF054648B91B480AF013F80320394632462389FFF7A3FF22E063792BB917
:201640000220394632462389FFF79AFFEB6AC3B120460021FFF76AFF012806460CD12046CF
:2016600001A909F0BEFE019B2A6B934203D10B4809F0F0FF05E02B63EB6A284621463246E1
:20168000984703B0F0BD00BF9DD50000B8D50000C6D500000AD6000020D6000068D600009E
:2016A00070B502880546C82A09D0D82A21D082B91B4B8521186802F0E3FFC82307E0852957
:2016C0000BD118480AF0C8F8044644B9D8232B8003E000230380032070BD012070BDE369B4
:2016E0002BB1A16819B104F10C000AF062F82468EBE78829EAD10B480AF0AEF80446002CB3
:20170000E4D0A36853B104F10C0630460AF06CF820B1E369984730460AF054F82468EEE712
:201720005C110020A80E00202DE9F04F3A4D87B00E46994606A9002341F8043DEB6890468B
:201740000746DDF840A09847029034480AF084F80446DDF814B0002C51D063681846039335
:2017600009F0F0FA029B02468342039B07D044DD217AC90641D51BF800102F293DD11846DF
:20178000594609F00DFB002837D12B6938469847C20704D5D4F810C0BCF1000F14D183071F
:2017A00004D5D4F814C0BCF1000F0DD1410704D5D4F818C0BCF1000F06D1020715D5D4F8FF
:2017C0001CC0BCF1000F10D04B46CDF800A0384631464246E047237A5B0617D520462B6E0E
:2017E000394632469847012005E06B693046D5F88C109847002001240AE02468ABE76B695A
:201800003046D5F888109847012001E001200446204007B0BDE8F08F74CB0000AC0E00204D
:2018200038B50A4B1C7884B9094D012209481A700AF00FF8AB68084898476B6898472146E5
:20184000BDE83840054802F043BF38BD5726002074CB0000AC0E0020291700005C050020BE
:20186000F8B504464160104821460AF013F894F90830002B16DA216ACB699BB18B688BB1F2
:201880000A4E0B480AF006F8304609F0BBFF48B1084D236A2F6803F10C0099682E6009F082
:2018A00088FF2F60F8BD00BFAC0E00205C050020A80E00205C11002000487047AC0E002007
:2018C0002DE9F041764C86B0236876485B6801219847236801210A461B68724898470AF0A9
:2018E00085FE01F003FD01F09BFC00F0C9F901F0D3FC00F091F96C4B01201860A3F5804355
:20190000043B186003F5005324331B6809F00DFE0AF070FE01F02AF800F0C8FF09F077FF46
:2019200001F008F902F048FE41F2342009F00BFF01F044FA02F050FF5C4809F08BFE00213C
:201940004BF2AC725A4802F07DF85A4809F082FE06F066FD584C594D10F0040F14BFA04699
:20196000A84606F065FD01280CBF27462F4606F057FD10F0020F14BF26462E4606F050FDFA
:2019800010F0080F08BF2C463A463346009441464B4802F057F800214A4802F099FE02F0E1
:2019A00043FC09F005FF022009F0BFFD464802F049F8464B464C186809F04CFE454802F0EE
:2019C00041F8454B186809F045FE444802F03AF82168434802F036F8E469A04720B1A047B2
:2019E0000146404802F02EF80A2009F02CFE002607F020FD04A80821039601F0C1F89DF8CC
:201A000017309DF81640384D384F43EA042404AB03CBD7F82C802860696002204AF6CD318A
:201A2000C04721460320C0471A210120C04708227B6B04A90B209847BB6A03A90120984713
:201A400003992B4801F0FEFF2A4B21462A481C8001F0F8FF294A2B6813606B68536007F0C1
:201A600025FE3146264802F033FE022009F05DFD3146244802F02CFE234809F08FFE01F0E5
:201A80006FF8012009F051FD02F0AEFD044601F05DF814F0FF0FF7D101F0B2FAF4E700BF39
:201AA000D8010010004003400C400940E5D6000008D700001FD70000DED60000E2D6000029
:201AC00033D700001406002066D700002CD0000060D000006DD7000038D0000074D70000C2
:201AE0007AD400007BD700008935002068CD00009ED70000361F0020AFD70000582D00201E
:201B0000980600206C0500206CCB000070B505880446772D30D07E2D3FD0002D4DD102F0A8
:201B200043FD294B1870294B1D601D462B68284A264E52F823204AB126480021C154936875
:201B400080209847336801333360EFE7224A1370772320E01F4AD256002A12DB1B4A1368BD
:201B600001331360194B1C4A1B6812789342F1DB1A4B1B68002BEBD0184A00231360134A23
:201B8000EFE7114A00201178114A52F8232002F077FD30B97E23238013E00B4B1B788B4247
:201BA0000FD10A4B0B491A688B5C03F07F038B540A4A136801331360D0E7002303800320E9
:201BC00070BD012070BD00BF82350020B40E0020900500208335002058260020B00E002009
:201BE000094B1A780023934204DA084951F82310814207D106490748CA5C62F07F02CA540C
:201C000002F07EBD0133EEE75826002090050020833500206C05002008B500F07DF8024B63
:201C200000221A7008BD00BF59260020024A13781843107000F08AB859260020034A13787A
:201C400023EA0000107000F081B800BF59260020024A13785840107000F078B859260020C2
:201C600008B5064B04201B685B699847034B04201B685B6B98470128F8D108BDB8010010F2
:201C8000F0B591B00AF0B2FC0746FFF7E9FF1C4B4FF4A0601B68DB6998471A4B01221A6039
:201CA000194B1B689A07FBD56C46184D09F083FC174801F0A9FA0FCD0FC40FCD0FC40FCD10
:201CC0000FC495E80F0084E80F00ADF1040555F8044F631C0BD00F4E204633689B6B984746
:201CE000336820469B694FF400519847EFE727B911B0BDE8F0400AF07DBC11B0F0BD00BFC0
:201D0000B8010010282008602820084080CC00007C050020B401001010B5094B1A686AB94A
:201D20000122084C1A6023680620DB6B984723680720DB6B9847044BC0221A6010BD00BFCE
:201D4000B80E0020B4010010A0200240074BC0221870074B1A60C20744BF402243F8102CA9
:201D6000830742BF034B80221A6070475A260020A02002409020024008B5034B1B685B68D2
:201D80009847C0F3804008BDB401001030B9064B1868C0F3403080F001007047012806BF74
:201DA000024BD86800207047C0200240BC0E002030B9044B1868C0F3803080F00100704770
:201DC00000207047C0200240802870B5144602D0812815D070BD01239340164A164D136029
:201DE0002B6820469B6B98472B68204600211B68124A9847E0B21249BDE8704001F036BA0A
:201E00000D4D81B1012393400A4A204613602B689B6B98472B6820461B680021074A9847CD
:201E20002B681B6B01E02B685B6B2046BDE87040184700BFE0200240B40100100040072008
:201E4000451E00000D2838B51CD1144C204609F0F2FC08B32046042109F0DBFC104B1D686D
:201E6000C5F3403525B900F06BFDE560A06038BD00F066FDA368C01AE060BDE838400948DF
:201E8000FFF7AEBE0E2807D1BDE838404FF480414FF0805200F0EEBF38BD00BFBC0E002065
:201EA000C0200240C0CC000073B5194B00241868184B4FF4801501908DF800408DF80140ED
:201EC00001A81D60042100F0B9F8134E08B9356017E06846022100F0CFF8356088B19DF87D
:201EE0000030EF2B01D0C22B0DD19DF80100A0F11103012B09D9143801288CBF00200120B2
:201F000004E0FF2002E0204600E0012002B070BDCCD70000A02002409020024037B50523EB
:201F200002AC04F8043D124B4FF480151D6000F0C7F82046012100F081F8A0B10DF107000E
:201F4000012100F099F820B90A4B4FF480121A600BE09DF80730DB07F0D4064B4FF48012DE
:201F60001A60012001E0034B1D6003B030BD00BFA02002409020024037B50A210F4800F069
:201F8000B1F80F4B14201B680E4DDB6B98474FF48014AB2302A82C6000F8013D0A4B01217F
:201FA0001C6000F04BF808B1FFF7B8FF2C60FFF77BFF431E5842584103B030BD00093D0096
:201FC000B401001090200240A020024037B5FFF7A5FFC0B102A8B92300F8013D0C4B4FF4FB
:201FE00080141C60012100F029F80A4B1D461C600A24FFF759FF30B1013C14F0FF04F8D100
:202000004FF480132B6000F0CBF803B030BD00BFA02002409020024008B5064B02201B68A6
:202020005B6B9847012803BF034B186800F00100002008BDB801001078200840F7B50446CD
:202040000D46FFF7E9FF064688B12544AC420ED0084F14F8011B3B684FF080405B689847D2
:202060003B684FF08040DB6801A99847EEE7304603B0F0BDC4010010F7B504460E46FFF732
:20208000CBFF0546B0B12644B44213D00B4F4FF080403B6800219B68984708B9054609E093
:2020A0003B684FF08040DB6801A99847019B04F8013BE9E7284603B0F0BD00BFC4010010AC
:2020C00007B5FFF7A9FF38B1054B01A91B684FF080401B699847F6E703B05DF804FB00BF3B
:2020E000C4010010F0B5254B07461B6885B05B6902200E469847214D02202B685B6B984710
:2021000001280446F7D12B684FF48070DB6998471B4B1C601B4B1B689B07FBD51A4A0824CE
:2021200013684FF0804023F00F031360174B03221A60174B00221B68009701941D68154976
:202140001346A847144B09221B6800965D6C4FF080404FF0FF332146A847104A136843F0FD
:20216000020313600A4B4FF080401B6803A91B6998470028F6D105B0F0BD00BFB801001028
:2021800028200860282008401400004020000040C4010010006CDC02B40100100400004023
:2021A00010B5174B4FF480701B681B6A9847154B01221A60144B1B689B07FBD5134C082006
:2021C00023689B6B984723684FF400519B6908209847236809209B6B984723684FF40051AD
:2021E0009B690920984723680A209B6B984723680A209B694FF40051BDE81040184700BFD9
:20220000B80100102820086028200840B40100104FF6FF70094A4FF47A71D389128A4B4335
:2022200001FB0200A3F55223A3F6953303EB2043C820B3FBF0F0C0B2704700BF98070020C4
:2022400008B501F0DFF820B1024B5888831E5842584108BD6807002013B501F0F5F90446E2
:2022600001F0D0F850B1064801A901F0D3F8012804D1638803F44063002BFAD002B010BDF9
:202280000100010437B5FFF7DBFF044628BB144D01A96880AB7F28465BB2C3F5FF63073363
:2022A0009BB22B8301F0B6F8012814D109F0C9F904466B889BB2022B05D16C88A4B2A31E23
:2022C0005C425C4107E009F0BCF96FF03F031B1BC342EED4F1E7204600E0012003B030BDB1
:2022E0006807002008B50346B32994BF0A46B4220248194608F03AFB002008BDE60E002025
:20230000084B70B51D461C6800262379032B03D10548013602F0F4F924682B689C42F4D175
:20232000304670BDD80E0020C8050020F8B5114B1D681E462A79032A19D12C89023C002C3C
:2023400010DD8C4205F10A0703DC3946224608F00DFB3957042089B207F07EF903207F21D5
:2023600007F07AF92B68336000232B7100E000242046F8BDE00E002007B5FFF761FF90B18E
:202380000B4801A901F046F8FFF75AFF0028FBD1084B5888A0F55050043880B201288CBF84
:2023A0000020012000E0012003B05DF804FB00BF010001046807002013B50C4C052384F8BC
:2023C00024300B4B20461B6801A99B88638301F021F8012806D1204601F05CF8431E584207
:2023E000584100E0002002B010BD00BFB0070020B005002007B5084801A901F00BF8012887
:2024000006D1054801F046F8431E5842584100E0002003B05DF804FB9807002008B501F061
:20242000F9F901280CD0FFF7A7FF01F053F900F0A1FF044A00235380034A1371034A137156
:20244000012008BD680700209C0F00202810002038B501F0DFF9012801D1012038BD09F024
:2024600040F9FFF7EDFE0028F7D100F0CBFF054620BB01F025F80128044602D001F02AF90B
:2024800025E018494FF42372174808F06FFA174B022203F81B2C032203F8192C04229A77DA
:2024A0000522DA76062203F80F2C114A1D7003F8174C1A6301F0CEF80128DFD1002001F0E3
:2024C00071F800F03DFFFFF777FF012801D0002038BDFFF78FFF0128F9D1BDE83840FFF762
:2024E000D1BE00BFA0CD00001C04002190030021BD05002138B50C46072805D8DFE800F047
:202500000611040461042F46012038BD012905D1FFF79EFF012854D0032038BD002952D168
:202520004CE021294FD8FFF773FEE3B2984248D0C820604300F5522000F695304FF47A7531
:20254000B0FBF5F3224C99B204FB03031B04B3FBF5F3204A1184204AD181138218E001F13B
:202560000A03182B2FD8FFF777FE0F231B49DA0051F83300844203DC8B18194A136002E0AD
:2025800013F1FF33F2D209F029F81AE0154B1970FFF756FE28B9FFF75BFF0128BCD10546C8
:2025A00000E00025FFF7E8FE012814BF0324002409F014F8012818BF032435B1FFF72EFFBE
:2025C00003E0002038BD022038BD204638BD00BF18FCFFFFB007002098070020E0CC00007E
:2025E000B00500205608002073B50C46002950D0102850D8DFE800F0090F4F4F4F4F14182E
:202600001C4F4F4F4F4245474A00FFF719FE003018BF012001E0FFF7FBFD206000203BE08B
:202620001E4B1B681B6832E01D4B93F900302EE0FFF706FE28B9FFF70BFF012816D10646B0
:2026400000E000260023019340F2034301A86946ADF8043000F0DEFE01280CBF9DF802506D
:2026600080250EB1FFF7DAFE6BB201E06FF07F03236080330CBF032000200DE00020086090
:202680000AE0212303E06FF0090300E00E232360C4E7022000E0012002B070BDB0050020A8
:2026A0005608002073B50446FFF7CAFD28B9FFF7CFFE012835D1054600E000251B4A231DA5
:2026C0001B4E9BB202341370A4B21B0A53703482F261FFF751FE0020014600F095FF30469E
:2026E00001A900F097FE80B100F030FA738803F4406313B900F07AFCF8E70D4B5C88A4B228
:20270000B4F5505418BF012400E00124002000F08FFF00237380FFF7B5FD25B1FFF77EFEC7
:2027200001E0012000E0204602B070BDE40E0020D807002037B501F06DF8012828D000F00E
:2027400061FE30B9FFF784FE012808D0FFF766FE1DE0104B5B88022B19D0002500E00546BD
:2027600080240D4801A900F055FE012803D19DF806406306F5D00DB1FFF750FE074B60B207
:2027800093F900308342D4BF0020012000E0012003B030BDD80700200100030456080020BE
:2027A00038B5244800F030FD05F042FE012801D000243CE0204C214D00F0D8FE204600210D
:2027C0008C2208F0ADF9284600218C2208F0A8F94FF000024FF00003022161F3830261F304
:2027E00083036A71164A63718423E380EB801460144B154A25602C6000251C6093625D6039
:20280000124BD362124B4FF459721A84114BDA8145F233321A82FFF71BFE01280446C7D114
:202820000D4800F0B5FF0D48294601F051FF204638BD00BF9C0500209C0F0020281000209C
:20284000E00E0020D80E002068070020CC0E0020B00700209807002060CD0000C80500202B
:2028600008B5064B04201B685B699847034B04201B685B6B98470128F8D108BDB8010010E6
:202880000749084A0B68126809688B42F8D1DB01054903EB52620023C1E90023704700BF70
:2028A000082009400C2009406008002010B51A4B00200021C3E90001184C042023685B6BB9
:2028C0009847012801D0FFF7CBFF23680020DB699847134B01221A60124B1B689B07FBD544
:2028E000114A124C1368204623F4807323F0010313600F4B0F491B681B6898470423236069
:202900000D4B31221A6040F2212243F8342C0B4B01221A6010BD00BF60080020B8010010B2
:2029200028200860282008400C00014000000140C8010010002100043C00014004002443E3
:2029400008B5FFF79DFF024BD3E9000108BD00BF6008002010B509F049FE034B1C6808B97A
:2029600009F048FE204610BD082009402DE9F04109F03CFE1D4F1E4B012400254FF48072A6
:202980003D601C4E1C601A604FF480321A60336880461B68284623219847336820461B68D2
:2029A00024219847336802201B6825219847124A136843F4E0231360104B1D6005F020FD20
:2029C0000F4B00F5007018600E4B14201C600E4B3C601B681B699847B8F1000F03D1BDE8AB
:2029E000F04109F007BEBDE8F08100BF0000244304200940840100100020094008200940D0
:202A00001C200940A0022443B0010010431E012B10B501D904281AD110F001021CBF0C4BEF
:202A2000196010F002031CBF0A4C216010F004001CBF094C216012B1084A0121116013B145
:202A4000074B01221A6010B1064B01221A6010BD182009401C200940202009408002244393
:202A6000A0022443C0022443014B1868704700BFB410002008B508F0E4FD154B186008F098
:202A8000D0FD144B1B686BB1134B4FF480721A6005F0B6FC00F2052020F4FF700F4B20F0B3
:202AA000010018600E4B1B683BB10E4B00221A60094B01221A6001F02FFE0B4B1B6833B114
:202AC0000A4B00221A60044B4FF480321A6008BDB4100020A0002443042009401C200940A5
:202AE0008000244380022443C0002443C0022443820742BF034B01221A60C30701D509F0A8
:202B000079BD7047000C084008B509F06FFD074B1A68012A09BF064A00231A600223002851
:202B200014BF184643F0010008BD00BF000C084051E5CC1A034A044B1A600122C3F8002C1C
:202B4000704700BFFFFF0F0000000840024A034B1A600122DA607047FFFF0F00000008402D
:202B600010B5FFF7D1FF0446FFF7F0FF034B01221A602046BDE81040FFF7BABF040100439E
:202B80000A4B13F8012FFF2A04D1094A9342F8D1084B00E0084B19440138994204D00139B1
:202BA0000A7800F8012FF8E7704700BFC7FF0100CFFF0100F0120050C8FF010038B50C4B22
:202BC00002201B685B699847094D02202B685B6B984701280446F7D12B684FF40070DB6938
:202BE0009847044B1C60044B1B689B07FBD538BDB8010010282008602820084008B5064BDB
:202C000002201B685B6B9847012803BF034B186800F00100002008BDB80100106C2008403E
:202C200008B5084B15201B685B699847064A136823F4FE6323F00203136040F2F272034B77
:202C40001A6008BDB0010010381000404410004037B5284CFFF7B2FF2368274DDB682748A0
:202C60009847FFF7DDFF2B680320DB6B9847244B08221A602B68122200921D6C1F48022149
:202C800003221323A84723681C485C681D494FF4E1326023A0471C4B14221A601B4A1C4930
:202CA000136843F01003136040F2011240F201330868002808BF134602F1804202F62F722F
:202CC000136040F2F272134B1A600B687BB102F1804202F646021368152043F050031360D6
:202CE0000D4B1B681B6903B0BDE83040184703B030BD00BFD0010010B401001000100040F9
:202D000090200240006CDC02341000402C100040B810002044100040B001001038B5054602
:202D2000FFF76CFF18B11E4B1B681A07FBD4032D03D01C4B1B68002B30D1FFF75FFF30B13F
:202D4000194B1A481B68DB689847FFF769FF184C4FF4007023681B6A9847032D09D123680F
:202D60004FF400709B6A984723684FF400701B6B9847104B01221A600F4B1B689B07FBD5D2
:202D8000032000F05DFA022000F05AFA132000F057FABDE83840122000F052BA38BD00BFF0
:202DA00018100040B8100020D001001000100040B8010010282008602820084010B509F0CB
:202DC00015FC0446054800F01FFA054B00221A601CB9BDE8104009F00DBC10BDB405002024
:202DE000B810002010B50446FFF708FF08B9FFF72FFF044B2146BDE810401B680248DB693E
:202E0000184700BFD00100100010004008B5FFF7F5FE18B1024B1868C0F3C00008BD00BF30
:202E20001810004008B5FFF7C9FE40F2F2710B4B0B4A1B68116013F0500F0AD108BD094B26
:202E400009481B681B699847084B1B680BB1C0B29847074B1B68DB06F1D508BD4010004087
:202E600044100040D001001000100040B8100020181000402DE9F347402300241646019376
:202E800007468846009409F0B1FB454B01221C60444B1A604FF480721A604FF480321A6088
:202EA000414B20461B683F211B6801349847042CF6D100243C4B20461B683F219B68013483
:202EC0009847032CF6D1394D2B68FFF73FFE384808F0C2FC04462CB1A3680BB103209847AB
:202EE0002468F8E77B1C0DD0324BBA0013431C60314B46F000521B6838461B68214642EACF
:202F000008029847DFF8DCA000242C4ECAF80040336807209B699847684606F021FF00F07C
:202F200029FA08F0C1FB264A264F1368382023F0030313609368DFF8B09023F00F0393604C
:202F400033684FF001089B6998473C60012006F029FF1D4B3C60C9F80040C3F800801B4B2A
:202F60001B4A1C605C601B4BCAF800401C602B681368194823F003031360184B03211B68CB
:202F80005B689847164B3C60C9F80040C3F800802B6833689B6B984702B0BDE8F08700BFB6
:202FA0000000244304200940840100102C200940BC100020001A4442B4010010B8010010F9
:202FC00000100940401009408801044340012243242208400800094000400340D80100103E
:202FE000181009400C40094020042243034A136823F00403136030BF704700BF10ED00E0AB
:20300000F8B509F0F3FA01F031FB002840F0D5806F4808F021FC0646022546B1736823B16E
:203020009847A84228BF2846C5B23668F5E708F008FB684B04461B6863B1674B1B681B1A88
:20304000022B04D4A3F28F23002B03DA0126B54228BF354601F008FA28B301F00DFA06468A
:20306000FFF76EFC361A002E40F3A780FFF7FCFC5A4A00EB4623121BDA4200F1A2800120B5
:2030800085421BD16FF00702121BDA4202D504F1080106E004F58031CA1A11EA220138BF6E
:2030A0001946022005E0012D034607D1022004F58031FFF7ABFCFFF799FF7EE0022D7CD18A
:2030C00010B12846194601E02846611EFFF79EFC3F4808F0C1FB0446062544B1A3680BB198
:2030E000022098472369246825EA0305F5E73C4EFFF72CFD05F0060715F0040F18BF346096
:2031000027B1384B38461B689B69984700F032F9002006F047FE344A3920136823F003038F
:203120001360936843F00F0393602E4B1B689B6998472E4B0020186018602D4B186005F09C
:20314000EDFD062F02D1022005F02AFA294C2A4D2A4F2B6823682A4823F0030323603B680E
:2031600003215B6898471F4B1B689B6B98472B6805F0E4FE234B00221A603B682048012116
:203180005B689847236843F003032360012333602B6805F003FF06F0CFFD08F042FAFFF719
:2031A000D5FC0B4808F058FB044624B1E36803B198472468F9E709F01DFABDE8F84009F051
:2031C00019BA022D3FF45EAF012DF6D15AE700BFBC100020800224431820094071FDFFFFF6
:2031E0000C400940B8010010001009404010094020042243242208402C200940D8010010EA
:2032000000400340800104430146014808F042BBBC1000200146014808F028BBBC1000209B
:2032200010B5054808F015FBBDE81040034B03201B6820211B681847BC10002084010010E7
:20324000431C10B504460BD0064B4FF4C0421B6800211B689847044BA400234300221A6094
:2032600010BD00BFB4010010001A444238B504460D4609F0BBF90123054AA3401360054B0D
:2032800043F8245018B9BDE8384009F0B3B938BDE0200240C01000200023064A002142F837
:2032A00023100133202BF8D1034B10201B681B69184700BFC0100020B001001038B5094BFE
:2032C00000241D681D600123A3402B42E0B204D0054B53F8243003B198470134202CF2D128
:2032E00038BD00BFE0200240C01000201FB50023029302A84123039306F032FD042005F07A
:2033000039F9032812D00420032105F005F9042005F030F90328FAD1074B00211B68009075
:203320005C6806484FF040521C23A04702A806F06DFD04B010BD00BFA401001000A00C4099
:2033400007B54123002268468DE80C0006F008FD012005F00FF9012803D0054B986B05F09F
:203360003BF8684606F052FD03B05DF804FB00BF4800001013B541230024684601930094E3
:2033800006F0EEFC0320214605F0C6F8012005F0F1F818B1044B986B05F01EF8684606F047
:2033A00035FD02B010BD00BF4800001010B5038804463BB140F21A22934207D000230380FF
:2033C000032010BD40F21A23238001E0822901D0012010BDFFF7BAFB06F0E4F806F078F8BD
:2033E000064B80211B6998470028EBDD80B206F053F8034B1B699847ECE700BF68CD00009D
:2034000060D00000024B186800F00100704700BF9C210840F8B510F0030504460F4605D119
:2034200003881A0503D54580012500E0002509F0DDF8061C18BF0126FFF7E4FF20B90EB9B3
:2034400008F066F90020F8BD55B1238813F4405F06D003F44063B3F5006F04BF0A4B1C60CE
:203460000A4B1C604CF25133094A013B12683A60E5D012F0FF0FF7D00EB908F049F93878D9
:20348000431E58425841F8BD401100200010044004100440094B013B0DD0428802F44062F7
:2034A000B2F5806FF7D1408800F44060A0F580635842584170471846704700BF21A1070053
:2034C00037B509F093F8224C0546236819201B6A9847236812201B6A9847236819205B69F2
:2034E0009847236812205B6998471A4B01201B685B699847174B01201B685B6B984701280D
:20350000F8D1154B186003F10053043B1860134B1B689A07FBD5124A00230D4C13605360BC
:20352000236819201B699847236812201B6998470DB908F0EDF80B4B07221A6001A90A48AC
:20354000FFF768FF431E5842584103B030BD00BFB0010010B80100102C200840282008406D
:2035600010100460000004600100060408B504F085FF052802D10A4B186007E0032801D172
:20358000022201E020B90322054B1A60012008BD012803BF024B05221A60002008BD00BFFB
:2035A000D021084038B50028144C18BF0024FFF729FF08B309F01AF80546114B4FF0004256
:2035C0001A6043F8044C00220E4C43F8082C236819201B6A9847236812201B6A9847236827
:2035E00019201B699847236812201B6998471DB9BDE8384008F08CB838BD00BF000080802C
:2036000018100460B0010010002814BF08220222044B0029044918BF00230B601343034A47
:2036200013607047000080801010046014100460034B0028034A18BF00231360704700BFAE
:203640000000808014100460014B1868704700BF401100207FB5142101A840F60A0208F0E3
:203660005EF80A4B01A81B6869460593FFF7D2FE012806D101A8FFF70DFF431E5842584127
:2036800000E0002007B05DF804FB00BF481100207FB5142101A840F6090208F040F801A8BB
:2036A0006946FFF7B7FE012804D101A8FFF7F2FE012801D0C0B206E0044B1A781AB9187095
:2036C000059A034B1A6007B05DF804FB5B2600204811002030B587B008F088FF274C054605
:2036E000236819205B699847236812205B699847FFF788FE90B1224A0023136002A85360E7
:20370000102140F60D0208F00AF802A801A9FFF781FE012802D102A8FFF7BCFEFFF7B8FF6D
:20372000184B00221A6003F100530122043B1A60154B1B689B07FBD5144B01201B689B690B
:203740009847124B01201B685B6B98470228F8D10A4C192023681B6A9847236812201B6A31
:203760009847236819201B699847236812201B6998470DB907F0CCFF07B030BDB001001036
:20378000101004602C20084028200840B8010010014B1860704700BF4411002008B5FFF756
:2037A00031FE20B1044B6FF000421A6008BDFFF787FE0128F6D008BD1010046010B5FFF76C
:2037C00021FE60B1104C08F011FF23681B020ED56FF4000323600D4800F092FF07E00C48D0
:2037E00007F038FFFFF76CFE0128EBD010BD236813F00A0F1EBF044B6FF00A021A60BDE82D
:20380000104007F085BF00BF10100460C8050020D0D70000014B1878704700BF5C26002052
:20382000034B1B68002B14BF01200220704700BF4C11002038B5064B02201B6800241D4619
:20384000044B1B685B689847201845F1000138BD04800240CC01001008B5064B04201B6838
:203860005B6B9847012803BF034B1868C0F34000002008BDB80100103C20084038B503882D
:2038800004461BB3B3F5847F03D000230380032038BD114B1B788B421BD1104D2B682BB160
:2038A000FFF7C8FF2B68984700232B600C4B40F201401B689B6A98470A4B01221A600A4BB3
:2038C0001B689B07FBD50948FFF7A4FC4FF484732380012038BD00BF570800204C1100205E
:2038E000B80100102820086028200840D805002038B50C4B04201B685B699847094D0420BA
:203900002B685B6B984701280446F7D12B6840F20140DB699847044B1C60044B1B689B07CC
:20392000FBD538BDB8010010282008602820084070B51F4B1B688BB100231E4A995C39B101
:203940000021D1541C4A02EBC30393E8030070BD0133042BF1D10020014670BDFFF77CFF33
:2039600008B9FFF7C5FF154A154B116814460B406BB9144B01221A6018680028FCD1024612
:203980004FF4807105F046FB0F4B01221A6008F02DFE06462368DB07FCD5FFF74BFF05468E
:2039A0000C460EB908F026FE2846214670BD00BF4C1100205D260020680800200880024097
:2039C00001000080F09F0240A802504238B50E4D00240E4A2C601368312023F001031360B3
:2039E0000B4B1B685B699847204622464FF4807105F010FB01232B60064B22461978064802
:203A0000BDE8384000F03CBEA80250420C800240B001001057080020EC05002010B5074C2C
:203A20002378802B08D100F0BFFD207000210448BDE8104000F04CBE10BD00BF57080020C4
:203A4000EC0500200FB407B504AA52F8041B0448019200F035F803B05DF804EB04B0704761
:203A6000FC0500201FB5084C8DE80300114602A81A460294CDF80CD000F022F8009B002226
:203A80001A7004B010BD00BF5BB7000070B505460C46102C07D92B686868084910229847A7
:203AA00050B9103CF5E734B12B6868682246BDE8704002491847204670BD00BF64D8000098
:203AC0002DE9F04F80468FB0069107920026069B1B78002B00F05F83069B1C4613F8012BCB
:203AE0001AB9069B9C4203D10FE0252AF5D1F8E7069BD8F80400E51A0699D8F800302A463A
:203B00009847002840F02A832E442378002B00F042836378611C002B00F03D8300240A462D
:203B200011F8013B2B2B11D006D8202B11D0232B12D144F00804F2E72D2B04D0302B0BD152
:203B400044F01004EBE744F00104E8E744F00604E5E744F00204E2E7A3F1310108290DD85A
:203B6000134600251A4613F8011BA1F13000092811D80A2202FB0515303DF3E72A2B09D1AB
:203B8000079B01321D68191D002D0791B8BF44F0010400E0002513782E2B1CD15178531C12
:203BA000A1F1300009280ED8194600270A780B46A2F13000092801F101010FD80A2303FBD9
:203BC0000727303FF2E72A2906D1931C079A111D0791176802E013464FF0FF371A786C2AD8
:203BE00009D15A786C2A02D144F080040AE0013344F060040BE0682A09D15A78682A03D1B3
:203C000044F02004023302E0013344F040041A78642A3CD01FD8462A48D00DD8252A5AD080
:203C200003D8002A00F0B78257E0412A4AD0452A53D144F4424450E0582A31D004D8472A49
:203C40004BD144F4A13448E0612A38D0632A44D144F4A06441E06E2A3AD007D8662A22D07E
:203C600027D3672A28D0692A11D036E0732A2CD006D86F2A11D0702A2FD144F440742CE0B4
:203C8000752A07D0782A28D144F4C85425E044F4245422E044F410641FE044F488541CE04D
:203CA00044F4B24419E044F4007416E044F4844413E044F4024410E044F481340DE044F4C8
:203CC000C1340AE044F4E13407E044F4806404E044F4E06401E044F4C0640133069304F453
:203CE000E063B3F5806F00F0AA8116D8B3F5807F2BD0B3F5407F7FF4EAAE079BA04914F43A
:203D0000804F03F104029F4818BF08460DF1330107920F461A680023C5E1B3F5C06F08D0B4
:203D2000B3F5E06F00F03182B3F5A06F7FF4CFAE00E2D8F80030D8F80400934901229847AE
:203D4000002840F00B820136C1E6002FACBF24F01004012714F40053039304F0E00337D0E7
:203D6000402B17D008D8DBB1202B2AD1079B1A1D079293F9002017E0602B11D0802B20D122
:203D8000079B073323F0070303F108020792D3E900230AE0079B1A1D0792B3F9002003E0A9
:203DA000079B1A1D07921A68D317002A73F1000109DA524263EB4303CDE900234FF0010969
:203DC00033E000220023CDE900234FF000092CE0402B16D007D8CBB1202B20D1079B1A1D9D
:203DE00007921A78EEE7602B10D0802B17D1079B073323F0070303F108020792D3E9002356
:203E0000E1E7079B1A1D07921A88DBE7079B00211A1D07921B681846CDE90001D5E70022FB
:203E20000023CDE900234FF0000904F4C053B3F5805F0CD0B3F5C05F33D0B3F5006F4FD1CF
:203E4000DDE900230DF1360ACDE9042304E0DDE900230DF1360A15E0DDE9042313433AD011
:203E6000DDE904010A22002306F028FADDE9040130320AF8012D00230A2206F01FFACDE99F
:203E80000401E9E752EA030125D002F0070130310AF8011DD10841EA4371D8080A4603466C
:203EA000F0E7384B14F4804F0DF1360A344908BF1946DDE9002352EA03000CD002F00F00EB
:203EC000085C4FEA131E0AF8010D100940EA037002467346EFE70DF1360BCAEB0B0B03E08A
:203EE0000DF1360A4FF0000B41F6080241F208035F4502EA04028CBFCBEB070700279A4213
:203F000002D1002F08BF012741F608018A4207EB0B030DD1DDE9000150EA010208D01B4986
:203F200014F4804F1A4A4FF0020C18BF0A4602E04FF0000C62460399A1B1B9F1000F0AD17B
:203F400004F0060102290AD00629124904BF4FF0010C0A4606E04FF0010C0F4A02E00F4AB2
:203F60004FF0010C63449D428CBFED1A002514F0010922D1E30613D52F444D461DE000BF64
:203F80002FD8000040D8000062D8000054D8000051D8000059D8000057D8000020D500001E
:203FA00040462946CDF80CC00092FFF76FFD009ADDF80CC0002840F0D180BCF1000F0DD00A
:203FC0001146D8F800306246D8F80400CDF800C09847DDF800C0002840F0C0803C465E4459
:203FE000102CD8F800300DD9D8F804006C491022CDF800C09847002840F0B080103CDDF8D7
:2040000000C0EDE75CB1D8F8040065492246CDF800C09847DDF800C0002840F09F80D8F8D5
:204020000030D8F8040051465A4666449847002840F094803E44B9F1000F79D073E0079BD7
:20404000D3F800A01A1D0792BAF1000F09D05346994699F800200133002AF9D1CAEB09097A
:2040600003E0DFF840A14FF00609002F02DBB94528BFB9464D458CBFC9EB0505002514F0A3
:20408000010405D140462946FFF700FD002865D1D8F80030D8F8040051464A4698470028FD
:2040A0005CD14E443EE052EA030E0ED002F00F0E10F80EE04FEA131C01F801ED4FEA121E3B
:2040C0004EEA037E72466346EDE70B467F1A01BF3022012701F1FF3301F8012C03377822B0
:2040E000BD4203F8012C4FF0300203F8022C88BFED1B4FF0230298BF002514F00104A3F133
:20410000030903F8032C04D140462946FFF7BEFC20BBD8F80030D8F8040049463A46984752
:20412000E0B93E4424B140462946FFF7AFFCA8B92E44CCE4079B012D03F104021B688CBFDE
:2041400005F1FF35002514F0010407928DF8203008D140462946FFF799FC10B14FF0FF3011
:204160001AE02E44D8F80030D8F8040008A9012298470028F2D16F1C2CB140462946FFF70E
:2041800085FC0028EAD13E44A1E4079B1A1D1B6807921E609BE430460FB0BDE8F08F00BFAA
:2041A00074D800005BD80000F8B50388064615462BB14A2B15D0002303800320F8BD17488E
:2041C00007F04AFB04462CB1201DA16807F0F1FA2468F8E7124B01221A704A23338001209E
:2041E000F8BD8829FBD10D4807F036FB0446002CF3D0231D9D420ED10848214607F036FBFA
:20420000084B62691F681A60A2691D460AB1E06990472F60E1E72468E9E700BF5011002043
:20422000612600205C11002010B5064B002406481C7007F00EFB2146BDE81040034800F09F
:2042400047BA00BF61260020501100200406002070B50446E3610B4B049D1B786561A26146
:2042600043B1094D094B2E68201D2B6007F0A1FA2E6000E0A1602146BDE87040044807F042
:2042800009BB00BF612600205C110020040600205011002013B5034C24680094FFF7D8FFB8
:2042A00002B010BD5C11002070B5094B05461B783BB1084C084B26680430236007F082FA50
:2042C00026602946BDE87040044807F0E3BA00BF612600205C110020040600205011002016
:2042E00070B5094B05461B783BB1084C084B26680430236007F06FFA26602946BDE87040E5
:20430000044807F0C7BA00BF612600205C110020040600205011002010B5084B04461B7846
:204320001BB1043000F0B2F801E0C36003612146BDE81040024807F099BA00BF6126002025
:204340005011002010B50E4C236813B90D4A136010BDFEF7F5FA216891E80C001A44131A52
:204360008A6842B192E812002144091A8B4228BF0B469268F5E71844024B186010BD00BFBC
:204380005411002058110020014800F0B9B900BF14060020F8B5038805462BB1592B09D0AF
:2043A000002303800320F8BD1E4A136059232B800120F8BD872920D08229F7D1194F002606
:2043C0003C68002CF2D0204607F035FA90B1E0688821224600F054F950B9E060A3680EB1D5
:2043E000B36000E03B600023A360FFF7ABFFE5E7FFF7CAFF2646A468E3E70A490B680BB912
:204400000B60D3E7D868904201D19B68F7E70B6099680029CAD0C86890420ABF89680B4676
:204420009960F5E75411002010B50446FFF7ACFFE3680B4A4BB113683BB1A34203D1094A63
:204440001268DA6007E09B68F6E7064B1B68E36013681460A360BDE81040FFF773BF00BFFC
:20446000541100205C110020024B1868003018BF0120704754110020024B186808B1024B26
:2044800018687047541100205811002010B50B4A04461368984206D18368136008E09A68FF
:2044A000A24203D01346002BF9D103E0A2689A60FFF748FF0023A360E36010BD5411002018
:2044C00038B5836804460D469BB10A4804600220A07304F10C0098470238012801D9832D63
:2044E00005D120462146BDE8384000F005B80123A37338BD5C1100202DE9F8431C4A044692
:20450000156889462B4690461A4E3768A34204D00BB11B68FAE7BDE8F88334B3A37BABB1A7
:204520000023A37345B1AC4204D028468721224607F062F92D68F5E7A3683BB14C4505D0EC
:20454000346004F10C0083212A469847D8F800309C4203D12268064B05E0134623B11A68B2
:20456000A242FAD122681A603760BDE8F88300BF601100205C11002010B5094B00221A702F
:20458000084B1C685CB1E37B3BB101230022A373E27320468221FFF793FF2468F2E710BD79
:2045A0006426002060110020024B1878421C1A70704700BF65260020064B8A221A70064A03
:2045C00000231370054A1370054A1360054A1360704700BF6526002062260020632600206D
:2045E000601100205C1100202DE9F0411A4D2B780BB1FFF7C1FF194C22783AB3184E0C215B
:204600003378184F5943781817F8018001334768806803F01F03013A3370227068B9124BFE
:204620001E689EB12B780BB1FFF7A6FF304641463A4607F0E1F83668F3E7B8F1810F04BFEA
:204640000123837341463A4607F0D6F82B7820781844BDE8F08100BF6426002063260020B5
:20466000622600206411002060110020024A034B10781B7818447047632600206426002051
:20468000F0B50B4E3378202B0FD00A4C0C252478094F1C4404F01F046C4301333D19A86014
:2046A00039556A6033700020F0BD0120F0BD00BF63260020622600206411002038B5034C83
:2046C000256807F099F8256038BD00BF5C11002010B50A4609490C68234683420DD00BB15D
:2046E0001B68FAE748B1046008600121817383818121BDE81040FFF7E1BF10BD60110020EC
:2047000038B1837B013B012B9FBF024A0123C373137070476426002010B5084C206858B1B8
:2047200000232360816843689847236823B1BDE81040186806F081BF10BD00BFE4120020B4
:2047400038B505880446672D09D0792D2ED0002D32D1FFF729FF1B4B18701B4B1D601B4802
:2047600007F017F9431C01D167231DE00A28164B07D01A687E2AF2DC511C1960144B9854E7
:20478000EDE7196800254A1C1A60114A0D4B555428461978FFF774FF0E4B852118682A460C
:2047A000FFF76EFF20B97923238009E0852907D1054B00221A60D2E700230380032038BDAC
:2047C000012038BD86350020F0120020E8120020E62600205C11002008B5054805498022F9
:2047E00007F0D0F8BDE8084003480021FFF770BFE812002066260020240600200C4AB8233B
:2048000003FB0022002330B553821A46094CE1188D782DB11C5D844202BF00248C700132B7
:2048200040F24C5171338B42F0D1104630BD00BF101300207127002008B5064802F0BCF9C8
:20484000054B01221A70FD2100225A709970DA7008BD00BFA14A00006727002010B5137891
:204860000446087A83F0020398421DD1487A5378984219D1887A9378984215D1C87AD37881
:20488000984211D1087B137998420DD1487B5379984209D1887B9379984205D1C87BD37904
:2048A000984201D103201BE00B890F4A6BB94B89B3F57F4F09D18B89FE2B06D11368C98918
:2048C000022023F8021B13600AE0136851F8080F083343F8080C486843F8040C136001202D
:2048E000A040C0B210BD00BFFC12002010B50F4C0220A17904F0B0FEA379112B01D0062B54
:2049000005D1238D618D9942A8BF194608E03A2B05BF94F8281094F82930002143EA012158
:204920000120BDE8104004F097BE00BF602D002010B5084C01462378012B08D1A01C0822C6
:2049400005F0E2FF00280CBF2046002010BD002010BD00BF6727002008B50146102004F0B9
:2049600089FE044B04489B6800219847BDE80840FEF7ECB880D000007D49000010B5084663
:204980000C46114601F00AFD044B1B6813B19B6820469847024B1C6010BD00BF0C13002004
:2049A00008130020F8B505460023114A712404FB0324A278B2B9617004F078FD26460D4F04
:2049C0000D4A3B7806F8035BC01A1568A0701D4404F06CFD3A782946821A304605F0C6FF5F
:2049E000A078F8BD01330C2BDFD14FF0FF30F8BD71270020BD2C0020001300202DE9F84367
:204A00004FEA1219B9F10F0F80461D4602F00F040BD00F2C05D1B9F1000F0AD1102427461B
:204A200019E0B9F1000F09D004E00F2C4FF0100900D1102440464A4605F098FF09EB0402D3
:204A40000F2A274606DC08EB09000021C2F1100206F066F8BCB1114DC7F110002E684044EB
:204A60003146224605F082FF022C08D1B9F10A0F9FBFFF2388F80B30FE2388F80C30344487
:204A80002C60BDE8F883B9F1000F05D040462946BDE8F84306F0E1BFBDE8F883FC12002023
:204AA0002DE9F04F8E4E8F4D002387B033702B70044604F077FD04F00BFD8B4A8B4B12687E
:204AC00018608DE8600099460AB1FFF70FFF04A80CB9874900E0214607F090FD854B864E3B
:204AE0001A8803933E2A40F20182D9F800B0834D0BF102032B60009B06F1180093F80080CF
:204B0000002308F102080BF80830FFF711FF20B906F10800FFF70CFF20B10BF103032B60F7
:204B2000802400E0044672783178130943EA0113DBB2980840EA8313DBB212F00F0FDEB28D
:204B40006E4F01F00F010CD16B48408848B911B912F0F00F1FD03B6803F8016B3B60702649
:204B60001AE079B912F0F00F0CD1296823F03F031A43634B0A701B88033121F8023C682604
:204B8000296009E05C4A2B681068186003F8046B2B60602600E07826574B9A790293112AFC
:204BA00008BF46F0040673075EBF3B6803F8012B3B60029BDB79402B06D0FF2B07D0012B93
:204BC00008D146F0010609E046F0020606E046F0030603E03A6802F8013B3A60029A464BF1
:204BE000128982B95A8972B99A8962B9DA8952B91A8A42B95A8A32B99A8A22B9DB8A13B987
:204C000044F0400013E03F48FFF792FE3E4B186078B142781BF80830042043EA02130BF888
:204C200008303849394AFFF719FE60F03F00C4B227E0029B30491A8948F2FE039A420CD172
:204C40004B8B53B98B8B43B9CB8B33B9042008312E4AFFF703FE2043E9E73A68DFF8A4C042
:204C600096460CF1100A634603CB5345CEF80000CEF804109C460EF1080EF4D11F4B10322A
:204C80001A60DFF874A09AF81830FF2B40F08A809AF8192044F0080E022A5FFA8EFE37D143
:204CA000BAF81A30A3BBBAF81C308BBBBAF81E3073BBBAF820305BBBBAF8223043BBBAF85C
:204CC00024302BBB9AF8263013BB3B689AF8272044F00B0003F8012BC4B23B609FE000BFB3
:204CE00066270020BD2C00200C1300200013002001D90000502D0020602D0020FC1200203A
:204D0000622D0020682D0020F4120020582D00209B4B588B194688BB988B78BBD88BA8B9DF
:204D2000188C98B9588C88B993F8240070B9296844F00A00C4B2084600F8012B33F8252F4B
:204D4000043121F8032C9B78837015E0C98B8C4BA1B9198C91B993F8221079B9296844F0B3
:204D60000900C4B2084600F8012B53F8232F063141F8052C1B790371296050E0814ADFF8A1
:204D800018C214680CF110082746634603CB4345386079609C4607F10807F6D11034146063
:204DA00074463CE00AF11800FFF7C2FD764B186050B143781BF8081044F004040B43E4B215
:204DC0000BF8083000200EE048F2FE03BAF818209A4210D1BAF81A306BB9BAF81C3053B97E
:204DE000BAF81E303BB90AF1180104AAFFF736FD2043C4B213E0634ADFF89CC117680CF1AB
:204E00001008BE46634603CB4345CEF80000CEF804109C460EF1080EF4D110371760019AC2
:204E20005749282313708B79112B53D14FF2B0030A8D52BA92B222F00F0080B2984217D1B0
:204E40004B8D5BBA23F00F031B041B0C83420FD12868F32303704B8D02301A0A0B8D1B0A51
:204E600002EB031303F5AA6300F8013C286028E0029B43495B8D5BBA03F47F43B3F5704F1F
:204E800009D12B68F1221A700A8DA3F801204A8D120ADA700CE002F47F42B2F5704F2B68DC
:204EA00008D1F2221A700A8D120A5A704A8D5A80043305E0F0221A70886A053343F8040C20
:204EC0002B60324B1A882B6823F8022B019A2B6030231370009BD9F800201B78D6541344B1
:204EE0005C70284B1B689B1A009A1AE0D9F8002041231370009B06F128051C78631CDBB270
:204F00001344324603CAAA4218605960164603F10803F6D1009B29341C70019B019A1B7868
:204F20002833102013700DEB000104F0A3FB184BDFF868801B68984730EA200028BF1520FE
:204F4000039BC0F17D051C88019BDFF854A01E78009BA21B93F800B00E4FCBEB05039A4255
:204F600040F3CD80C0F17803019304F0ADFB019B94FBF3F40134A04214DC0020D1E000BFAC
:204F8000602D0020FC120020F41200208E2D002054D00000BD2C0020782D0020502D0020A6
:204FA00066270020D9F800B05F4B3C7800221A60594622460BF10400039305F04DFDB8F83D
:204FC00000205A496FEA82426FEA9242C2F307228BF80020B8F8002004348BF801200A8805
:204FE000E4B2501C0880110ADFF850C18BF802102D1B9AF8001025F007054D4E61448BF8C1
:2050000003200BEB04002A46CDF808C03C70356005F0ACFC281980B204F03EFA04F05AFBB0
:20502000039B04461D460028A7D00DF1100B5846FFF792FC204604F085FB204604F06CFBB0
:205040002B68012B99D0043B012B96D99AF800A0336853441FFA83FA05233B70354B1A687F
:20506000B8F800306FEAC3436FEAD343C3F307231370B8F800305370019B23F00707376028
:205080002D4B1B889A454BD2D9F800204FEADA0111713268CAEB03039342B8BF244AD9F892
:2050A0000000B8BF1360009B376893F80080029B3A4603EB0A01404405F058FC08EB0700E4
:2050C00080B204F0E9F904F005FB074600283FF454AF5846FFF740FC384604F033FB38463B
:2050E00004F01AFB124B1B689A442B681FFA8AFA012B3FF442AF043B012BC1D83DE7D9F870
:2051000000000E495844314405F030FCB8F800005844801B80B204F0BFF904A8FFF71CFC87
:20512000012007B0BDE8F08F08130020381F00200413002000130020502D0020602D00200D
:205140002DE9F047074688461646002A47D0434C0025A146238ABB4215D1638A9BB10F20B7
:2051600004F094FA0146204607F04DFA58B1ECB220463146FFF716FC002827DA0027DFF80F
:20518000E0A0B8460DE0B834002D5DD10125E1E7A8450BD10AF1B80AB8F1000F10D14FF011
:2051A00001083AF8063C002BF4D0F1E7504606F042FB0028EED04046FFF720FB0744E9E74A
:2051C000002F41DD20463146FFF7ECFB00283BDDB82303FB0595AB8A1844A8823AE0204DD3
:2051E000FF2435F8063C4FFA84F97BB3284606F022FB10B13046FFF701FBB9F1FF3F03D1C3
:2052000035F8063C03B9F4B2012E05F1B80501D00126E6E765B26B1C16D0B8235D43DFF840
:205220003C900F2009EB0506A6F81280378204F02DFA0146304607F0E1F905F11800484448
:20524000402106F0E6FA05E0FF2403E0B9F1FF3FDAD1D8E760B2BDE8F08700BF10130020AA
:20526000281300202DE9F04F0F2087B0A54CDFF8CCA204F00BFA002603F040FF8AF80060AF
:20528000267004F025F9A04DA0462860042004F0EBF99E4B2A6800B218605778137847EADF
:2052A000032703F0F803C02B02D0E02B19D03AE090782378D278C7F30A07043342EA0020D0
:2052C000394632462370FFF73BFFB0F1FF3F814600F07F828E4CB82303FB00440126223409
:2052E00024E01379D17890782278C7F30A070532227041EA00201A4639460093FFF720FFCD
:20530000B0F1FF3F814600F064828149B82202FB0012958A4FF0010BBD4234BF00250125B7
:205320003446009BDFE1B1464F467A4C296898F800504A5D02F0E003602B40F0B681A81CA3
:20534000084429444D78744B5FFA85FC1CF0800F18601CBF0130186012F0100F02F0080183
:2053600030D1D1B9196831F8010FA4F801008978E170196811F8040B1960830803F00F0159
:2053800041F060012170617803F0300343EA801301F00F010B43637030E01868602186462C
:2053A00021701EF8011B03304FEA910B0BF0300B01F00F014BEA01016170BEF800101860A5
:2053C00061801BE001F0FF0E99B919680878C0F3830040F06000207011F801BBA4F802E007
:2053E0004FEA9B0000F0300040EA8B106070196004E06023237000236370638002F00403DF
:2054000003F0FF0100912BB943490B6813F8010BA0710B6012F003020BBF3F4A3F4B136833
:205420009B5C09BF13F8011BE3711360E1716B06C5F3011233D51CF0800F1DBF324998F8A7
:205440000030096800211EBF5B189978090922B904F1080B9AB9114614E0314B1878012861
:2054600005D1587888420CBF1946002100E000212C4B19600029EBD1B3460D4632E1294BC8
:2054800019680231284B0F209A5C0391CDF808C0019204F0FBF80399034658460BE0234B49
:2054A0000F209A5CCDF808C0019204F0EFF82049034604F10800019AFFF7A0FA05F00800F5
:2054C000DDF808C005F0030200F0FF0105F00403002835D0002B6BD1164B1B88ADF81430C8
:2054E000531E012B9FBF0C490B6813F8010B0B60114B98BF8DF815009A5C04F1180005A969
:20550000002353E0BD2C002000130020F812002010130020602D0020FC120020AFD800002A
:2055200067270020F4120020C8D80000B3D80000B7D80000ADD80000B9D80000662700201A
:2055400053B31CF0800F1DBFA34998F8003009680B4618BF5B18A14918BF9D78087818BFE9
:2055600005F00F03012805D14D789D420CBF0D46002500E000259A4B1D60002D00F0AE808C
:20558000984B10209A5C019204F080F8A91C0346019A04F1180009E0934B10209D5C04F069
:2055A00075F82A469149034604F11800FFF726FA9AF800008E4900F128038AF80030009BF6
:2055C000002B53D00B681A7802F0F802F02A4DD11122A2711A7802F0040502F0F302F03A70
:2055E000EDB2032A7CD8DFE802F0020A1622B3F801200533228533F8022C62852CE0B3F8EC
:2056000001202285DA78A2F5805292B2120242F0F002628509E05A78A2F5805292B2120228
:2056200042F0F00222855A886285043314E05A7802331209A2F5756292B2120242F0F0029F
:20564000228513F8012C02F00F02A2F5756292B2120242F0F00262850B6025B90B6833F8B0
:20566000022BE2850B6030308AF800005A4A0B6812689B1A88F8003067B903F017FF5D4B82
:205680001B78C01A9AF800301844283803122371607104E0A7F128031A1222716371A3794F
:2056A000112B1DD1A388A3851AE0412A40F091806A1CD2B28B18224603F1280153F8040B3B
:2056C0008B4242F8040BF9D105F1290388F800309AF8003028338AF8003001E0B34601E08E
:2056E000B34600252B46009303F0E0FE98F8002082426ED803F0DAFE3E4A009B12789AF8F3
:2057000000A0DB009BB2C2EB000853443A494344B3F57A7FC1F800805BD83CB12E4B04EB09
:205720000A0019681144424605F020F9002F39D056B132484FFA89F3B82404FB030308EBA1
:205740000A0189B29982198495B3B8224FFA89F402FB04F329492A48CA18114697822231E6
:20576000128C05F003F9274D05F24C5615F8012C5AB115F8033CA34207D115F8020C204BB9
:20578000294603EBC00005F0F1F87135B542EDD15FFA89F0FFF732F8BBF1000F0BD01A4BC6
:2057A0001F800CE0BBF1000F05D0002DF7D110E0BBF1000F0DD1144BD044A3F80080134C63
:2057C000236823B1FFF792F823685B68984701F019FA07B0BDE8F08F0013002067270020FD
:2057E000F4120020C8D80000B3D80000B7D80000FC120020BD2C0020041300201013002018
:20580000602D002074270020502D00200C13002037B5124B124D1C782B796A79C4EB0323AC
:2058200013449BB2ADF80630BDF8063005F108011844202280B206F0BCF8BDF8062004F1B5
:205840002801294492B206F0B4F810B140BA80B201E04FF6FF7003B030BD00BFBE2C0020E1
:20586000602D00202DE9F041264F274E3D7827482835AB195C780223E40007349C423DDBF7
:20588000E9187218715CDFF88080012931D002D3632902D011E001332EE0037018461B4C10
:2058A00001F06CFED0B13B7822782833134443445B7813440233237021E001F0C001802938
:2058C00005D0C02905D0402913D1037006E0037007E098F818200370FF2A02D10120BDE838
:2058E000F08104200221EA1801F068F80220BDE8F081527802321344DBB2BFE7037000204A
:20590000BDE8F081BE2C0020602D0020C02C002008B500F06BFC01F039F906F0D5F8074B62
:205920004FF480621A800023054A00211A442033B3F5A07F1182F7D108BD00BF3A1F002045
:20594000683100202DE9F041124F3D7805B3DFF84C8005F12703B8F80040A34203DB0023E0
:20596000A8F8003013E00C4EA4F1280205F12801641BA4B206F128003144521B05F06CF8FD
:20598000A8F80040283C23123371747100233B70BDE8F081BE2C0020602D0020502D0020CD
:2059A000F8B503461D4804460288013292B2B2F5FA4F28BF4FF4805250BA80B20026184D8E
:2059C00077193F8A8742F0D02036B6F5A07FF6D1228000225601AC19278A47B920826182E8
:2059E00053B920461946102205F09AF80FE001320A2AEFD10020F8BD274603F1100E3A4633
:205A000018685968083303C273451746F7D1054B35441B7920462B75F8BD00BF3A1F002018
:205A200068310020B032002004282DE9F74F9D4E00F0C8819C4C9D4B9D49052823600B602E
:205A4000A146884612D19B4A1268128A002A00F0F6810C3B23600B60974B002297481A8070
:205A6000974B0260328008221A70A9E113F83C2CA3F13C0402F0F002602A40F0E081227911
:205A80006179120230885518854200F3D88128310A443280227AFF2A00F0D181894A363B3C
:205AA0001360894D894B002129701970A17993469A46B9B901238AF80030FFF7D3FE01287B
:205AC00000F0BD8103D3022800F0B5810AE02B7803F128022244CBF800205278083303EB8B
:205AE000C2032B707A4800F01FFA002840F08B80774800F0BFFA002840F08580227E754BF3
:205B0000FF2A40D048F2FE00198B81423BD01989814238D071B9598961B9998951B9D98981
:205B200041B91B8A33B9618A6A4B19B9998A09B9DB8A43B3218B674B79B9598B69B9998B6E
:205B400059B9D98B49B9198C39B9598C29B9998C19B9DB8CB3F5807F15D03388B3F5A06F13
:205B600004D9022000214FF4A06205E0E379012B05D800210A46032000F020FF5BE1554AF8
:205B8000013BD37157E148F2FE032189994240F05681218B4F4B81B9598B71B9998B61B9BA
:205BA000D98B51B9198C41B9598C31B9998C21B9DB8CB3F5807F00F04281FF2A00F03F8170
:205BC000434800F091F90246002840F0388101200221D1E71FD93B2F00F031813C2F22D109
:205BE0009AF8003039499F0739D558067DD443F040030B70FFF736FE012800F0208131D325
:205C0000022800F01881DBF80020DFF8B8C017782C2FDFD113E1112F00F089802B2F2DD071
:205C2000002F62D102E03A2F5FD162E09AF80030CDF804C0D90758D4244A43F001031370C6
:205C4000FFF710FE012800F0FA80DDF804C0D7D22B7803F128022244CCF8002008E043F045
:205C60000203C6E72B7803F128022244CBF800205278083303EBC2032B70C4E79AF80030A8
:205C800003F0040000F0FF0178BB104A43F0040313702A7802F128032344D878E0B10420A7
:205CA0002A3269E7502D0020543100209C2D0020542D00205031002064310020583100206D
:205CC000483100204C310020BE2C0020BF2C0020782D0020602D0020CCF800305B78083206
:205CE00002EBC3025B4B1A708DE704200121121B42E705F07AFE4FF6FF73984240F09F8065
:205D00002B782833E05C00F069FF2B782833E218E05C517800F030FE012801BF00234D4A33
:205D2000338013703388002B00F0898083E0FFF709FEE38DA7714BB9678D002F7FD0464B5F
:205D4000464D2B60464BB3F828A00AE005F050FE4FF6FF73984272D1EEE7238A33B920345E
:205D60002C602C683F4B9C42F7D315E09F42F6D1638A0BB19A45F2D123682BB963681BB9DB
:205D8000A3680BB9E3685BB137482146102204F0BBFD0028E3D103E0012004210022EBE621
:205DA0003388324A303B3249338000230B60C9F800203049C8F800202F4A022008701380A5
:205DC00000F0F8FF2C4B1A88002A38D002F13003234C9BB23380283B191263711F4B0832F6
:205DE0001B6852BA2171197DA2850022E2851A8AE17122855A8A11216285A17104F118057E
:205E00000FCB85E80F0004F10800294600F090F91A4B04F13C021A6005F0EAFDC04380B224
:205E200008B1E08502E04FF6FF73E385602323700023637063800F4B00221A7007E0054A18
:205E4000002313700E4A338013700A4A137003B0BDE8F08FBE2C00206831002050310020FC
:205E6000602D0020A8320020682D0020902D0020583100204831002064310020543100204D
:205E8000BF2C00202DE9F3410446154D00910E4690461F460195234612480321202205F02D
:205EA000B4FD01282B4616D12A6804F11001107020462A68023250F8044B884242F8044B82
:205EC000F9D11868089B86744361099B80F813800777836100E0002002B0BDE8F08100BF9F
:205EE00084140020AC33002070B506460B4D0C4B2B602C680B4B9C420BD2237833B1A27CFE
:205F0000A01C3146D20804F0FFFC20B120342C60EFE7002070BD012070BD00BF84140020EC
:205F2000AC3300200C34002013B5084C802203460092019406480321202205F066FD08B907
:205F4000206800E0002002B010BD00BF88140020C832002010B50C4A0C4B136013680C49F0
:205F60008B420DD2197849B1411C02D0997C814204D148F2FE015C888C4202D02033ECE72B
:205F80000023184610BD00BF88140020C83200202833002037B504460F4D80230093019545
:205FA00023460E480521122205F02FFD01282B460ED12A6804F11001107020462A680232EA
:205FC00050F8044B884242F8044BF9D1186800E0002003B030BD00BF801400204C330020DB
:205FE000F7B50546204C802300930E46174601941E48032120222B4605F007FD012830D162
:206000002A46236805F1100118702368023352F8040B8A4243F8040BF9D12068C77416B96B
:206020000123037505E0002303753146183006F05CFC23680E480121997402234370FF222E
:206040000023027043808380C38003818372C17202736B7B4373EB89C381FFF79BFF206815
:2060600000E0002003B0F0BD88140020C83200203C1F002013B5084C802203460092019441
:2060800006480521122205F0C0FC08B9206800E0002002B010BD00BF801400204C330020CD
:2060A00038B50546C8B10D48022200244270FF230122C27244808480C4800481847203736A
:2060C0000370EB7B43732B8AC381FFF7D3FF044A106008B105F0BDFC2C7038BD3C1F00203F
:2060E0008014002010B50E4B0E4C236020680E4B98420ED203784BB1037D3BB9183003F030
:2061000099FE18B1074B1868FFF7CAFF23682033EBE700F06BFBBDE81040044805F052BB45
:20612000C832002088140020283300200C3400202DE9F84348F2FE030A8805469A4288469B
:2061400021D00B78FF2B1ED01B4B0024A1461F461A4A1A603E681A4A964218D233787BB15C
:20616000B37C012B0CD148F2FE0372889A4207D04046B11C05F07AFC484524BF3446814690
:2061800020363E60E6E70120FFF7E4FE04464CB92C806C80AC80EC802C816C81AC81EC8192
:2061A000BDE8F883A31C123453F8042BA34245F8042BF9D1BDE8F88388140020C83200202F
:2061C0002833002010B505F0B9FA044605F0B6FA054B24029A68A4B22044B0FBF2F302FB29
:2061E000130000EB520010BDB032002073B52F4C00F07CF800F010F9002160222C4804F075
:206200008FFC00212046F82204F08AFC294B20221A70294B18221A704FF4A0632360274B25
:2062200040262671A360FFF7CDFF42F21073236148F2FE03314640F2FF260025E060257559
:206240001F4C2A46238065802B46A580E580204600950195FFF716FE20461A4905F0FDFB8F
:20626000294601222046FFF7BBFE4FF480732046E38126806580A580E58025816581A581B0
:20628000FFF788FE4FF40073204626806580A580E58025816581A581E381FFF77BFE0A487A
:2062A0000C2102B0BDE8704005F083BAB0320020AC330020A9330020A8330020C027090090
:2062C0003C1F0020582D00200C34002010B5044640B100F051FE044B2146BDE810401868D4
:2062E00003F07EB810BD00BF3406002008B502F02BFF034B03491868BDE8084002F0B8BF46
:2063000034060020CD62000070B51E460C4B04469DF810201868059B02F0D8FF054668B1B8
:2063200020462B4604F1100250F8041B904243F8041BF9D16E74284600F01EFE284670BD2B
:2063400034060020024B0146186806F0DBB900BF3406002070B50C4D0646286802F09CFF45
:20636000044666B9002070BD20463146102204F0CBFA38B12146286806F08CF90446002CCE
:20638000F2D1EFE7204670BD34060020024B0146186806F09EB900BF3406002070B505468D
:2063A00010200C4603F072F90849064606F02BF958B930462946224602F064FE30462946AF
:2063C0002246BDE8704000F0ADBD70BD01D900002DE9F04105460D480F46904605F03CFA62
:2063E000044688B1012D04D8094805F06BFA034601E0084B1B682846666839464246B0472B
:20640000204605F066FAEBE7BDE8F08138190020D0140020CC14002008B50B4805F05CFA09
:206420000A4805F016FA0A4B0A49186802F020FF094805F051FA094805F00BFABDE8084003
:20644000074805F006BA00BF680600207415002064060020C5BA000048060020D0140020C7
:206460003819002008B5034640B1054A5968106806F048F9BDE8084005F015BB08BD00BFBF
:2064800064060020014805F0E7B900BF7415002008B505F00AFB014638B1044B186806F080
:2064A00018F9003018BF012008BD08BD640600202DE9F0418046FFF7E5FF002604463746BB
:2064C0009CB194F82450B5420AD3404604F10801EA0804F019FA18B9802D08D02E462746E7
:2064E000204605F0EBFA0446EAE73C4667B1084805F0B2F9844207D00548214605F0B6F9C2
:206500000348214605F0D5F92046BDE8F08100BF7415002038B5044600283ED04368002BDF
:206520003BD01E48214605F0A1F96368586805F093F9054630B14368A34207D0284605F0F2
:20654000C8F9F6E704F1080000F04AFC63682946586805F08BF96368586805F07DF928B920
:2065600063680F4A5968106802F03AFF21460D4805F0D6F929460C4805F0D2F90B4A2046D5
:206580001368013B1360FFF76DFF04F108010246BDE838400320FFF71BBF38BD741500207B
:2065A000640600206806002074060020CC14002010B5044680B1406870B105F04DF920B114
:2065C0004068FFF7A7FF6068F7E7044B2146BDE81040186802F004BF10BD00BF64060020DB
:2065E0002DE9F84F074610468946904605F05DFA834610B90020BDE8F88F3846FFF758FF01
:20660000044660B1FFF72EFF014628B14046102204F07AF9002859D02046FFF77BFF2D4B1E
:206620001A689A46142AE5D02B4E5946306806F050F8054668B92B4630685946042202F0EB
:2066400045FE05460028D5D000236860036005F000F9224805F050F904460028CAD0204887
:20666000214605F026F91F4805F046F9834620B921461A4805F054F9BCE7446068685946A1
:2066800005F008F9DAF800306560013330682946CAF8003002F0BAFE3B4604F1080507F1EB
:2066A00010062A4618685968083303C2B3421546F7D100210C2284F8249004F1180004F07B
:2066C0002FFA022039464246FFF782FE2046BDE8F88F00BFCC140020640600206806002089
:2066E000741500207406002038B505460D4805F0B3F80446A0B1AC420ED12146094805F015
:20670000B5F82146084805F00BF9211D01200A46BDE83840FFF75CBE204605F0DAF8E8E744
:2067200038BD00BFD01400204806002038B50546084805F091F8044648B1201D294610220C
:2067400004F0E2F818B1204605F0C3F8F3E7204638BD00BFD0140020F8B505460F46FFF751
:20676000E5FF044640B9134805F0C6F80446F0B11148214605F09DF82B46261D05F1100EE7
:20678000324618685968083303C273451646F7D137B104F11400394606F0A7F8002300E05C
:2067A00001232377002029462A46FFF711FE2046F8BD00BF48060020D014002038B50A488C
:2067C00005F04AF8044600255CB1251D2846FFF7C1FD08B1437C23B9204605F07AF8044637
:2067E000F2E7284638BD00BFD014002010B50A4805F032F8044670B1237F43B904F1140052
:2068000003F018FB18B12046FFF76EFFEFE7204605F05FF8EEE710BDD01400202DE9FF415C
:206820001F4C204D04F108030FCB8DE80F0029786F4694F80780A1B13A23A3711A4B1A88EF
:20684000521A92B21A80A2F1280318122C312071214404F12C002C3A637104F0FDF800234C
:206860002B70124804F0F8FF064690B1D6F804C0BCF1000F09D00C4B2A781B8838322C3B17
:206880003846414622449BB2E047304605F021F8EAE7054B2870188004B0BDE8F08100BFBB
:2068A000602D0020BE2C0020502D00203C190020F8B52A4B2A4C1B7904F11806E371237EDB
:2068C00004F10805FF2B08D195E80F0086E80F0028463146FFF72CFC1BE02F46B646214AD0
:2068E0003B4603CB7345106051601F4602F10802F6D196E80F0085E80F001A4B1A4D03F17E
:2069000010062A4618685968083303C2B3421546F7D1164D297899B13A23A371144B1A88D8
