:020000040000FA
:2000000000500020E100000015840000C9000000178400001784000017840000000000005C
:20002000000000000000000000000000178400001784000000000000178400001784000054
:2000400025200000178400000525000017840000911400008D1B0000178400001784000078
:200060001784000025250000178400001784000017840000178400001784000017840000F9
:20008000178400001784000017840000178400001784000017840000178400001784000088
:2000A000178400001784000017840000178400001784000017840000178400001784000068
:2000C0001784000035270000044B1A68B2F5806F03D01B689B0500D4FEE7704728ED00E067
:2000E00008B506F01DF80C4A0C4B0D498B4204D252F8041F43F8041BF7E70A480A494FF009
:2001000000028842B8BF40F8042BFADB00F0EEF8FFF7DAFF08BD00BF8593000000000020FF
:200120009A020020A00200209A1E002038B5048805462CB1E42C20D000230380032038BD0A
:200140004FF4E13001F048FA2146104803F044F90F4801F059FB0F4B01201C600E4B9B6939
:2001600098470E4808F084FA0D484FF4C07108F00FFBE4232B80012038BD094808F023FBDA
:200180000028F6D0064808F00CFBF2E758000020A5010000DC180020CC900000FC90000031
:2001A000C802002010B5054C0548218800F086F8044A00232380137010BD00BFF018002090
:2001C000041900205B1800202DE9F04103780546212B0C462FD14378532B47D1254E8278E6
:2001E0003368DFF8AC8008F8032006F077FEE81CE11E08F089F9002835DBC71CE41B802C90
:20020000A8BF802406F01EFEE919224607F0ACFFA0B206F0FBFD184B9B6898473168174B35
:2002200017489B6841449847336801330F2B88BF0023336017E0134B1A783F2A16D1427801
:200240004D2A13D121215A70197000220E489918105C0132082A8870F8D10C4B0A21094820
:20026000198008F04FF90120BDE8F0810020BDE8F08100BFDC180020F88C0000EC90000065
:200280001984000004190020FC180020F0180020E018002038B506F0C3FD064C064D208028
:2002A000284606F0D7FD28462188BDE8384008F0CBB800BFF01800200419002070B50546C3
:2002C0000E46084C54F8043F2BB12846314698470028F7D070BD04481021BDE8704008F061
:2002E000B0B800BFE08C00002D9100002DE9F041764C86B0236876485B68012198472368D6
:2003000001210A461B687248984708F08BFB01F0A1FE01F039FE00F0C1F901F071FE00F01F
:2003200091F96C4B01201860A3F58043043B186003F5005324331B6808F005F908F076FB4D
:2003400001F022F800F0C0FF08F048FA01F000F902F0B6FF41F2342008F005FA01F0B2FBFC
:2003600003F0D0F85C4808F083F900214BF2AC725A4802F01BFA5A4808F07AF905F090FDF6
:20038000584C594D10F0040F14BFA046A84605F08FFD01280CBF27462F4605F081FD10F08F
:2003A000020F14BF26462E4605F07AFD10F0080F08BF2C463A463346009441464B4802F024
:2003C000F5F900214A4803F007F802F0CDFD08F0DEF9022008F0B7F8464802F0E7F9464B45
:2003E000464C186808F044F9454802F0DFF9454B186808F03DF9444802F0D8F921684348BE
:2004000002F0D4F9E469A04720B1A0470146404802F0CCF90A2008F024F9002606F0DAFC7A
:2004200004A80821039601F0B9F89DF817309DF81640384D384F43EA042404AB03CBD7F838
:200440002C802860696002204AF6CD31C04721460320C0471A210120C04708227B6B04A987
:200460000B209847BB6A03A90120984703992B4802F09CF92A4B21462A481C8002F096F9A0
:20048000294A2B6813606B68536006F0ABFD3146264802F0A1FF022008F055F831462448FE
:2004A00002F09AFF234808F068F901F067F8012008F049F802F01CFF044601F055F814F0AA
:2004C000FF0FF7D101F050FCF4E700BFD8010010004003400C40094045910000689100009F
:2004E0007F9100003E9100004291000093910000C8000020C6910000EC8C0000CC90000013
:20050000CD910000B0900000D4910000DB910000DE910000921E0020EC8D00000192000021
:20052000B013002012920000FC1800207001002010000020DC8C000070B505880446772D37
:2005400030D07E2D3FD0002D4DD102F0B1FE294B1870294B1D601D462B68284A264E52F8E2
:2005600023204AB126480021C154936880209847336801333360EFE7224A1370772320E05E
:200580001F4AD256002A12DB1B4A136801331360194B1C4A1B6812789342F1DB1A4B1B68CC
:2005A000002BEBD0184A00231360134AEFE7114A00201178114A52F8232002F0E5FE30B980
:2005C0007E23238013E00B4B1B788B420FD10A4B0B491A688B5C03F07F038B540A4A136819
:2005E00001331360D0E700230380032070BD012070BD00BF8A1E0020DC0200203400002080
:200600008B1E0020B0160020D8020020094B1A780023934204DA084951F82310814207D10D
:2006200006490748CA5C62F07F02CA5402F0ECBE0133EEE7B0160020340000208B1E00205D
:200640001000002008B500F075F8024B00221A7008BD00BFB1160020024A1378184310703A
:2006600000F082B8B1160020034A137823EA0000107000F079B800BFB116002008B5064B2F
:2006800004201B685B699847034B04201B685B6B98470128F8D108BDB8010010F0B591B010
:2006A00008F0C0F90746FFF7E9FF1C4B4FF4A0601B68DB6998471A4B01221A60194B1B6825
:2006C0009A07FBD56C46184D07F083FF174801F04FFC0FCD0FC40FCD0FC40FCD0FC495E8F4
:2006E0000F0084E80F00ADF1040555F8044F631C0BD00F4E204633689B6B9847336820468B
:200700009B694FF400519847EFE727B911B0BDE8F04008F08BB911B0F0BD00BFB8010010E4
:200720002820086028200840048D000020000020B401001010B5094B1A686AB90122084CAE
:200740001A6023680620DB6B984723680720DB6B9847044BC0221A6010BD00BFE002002039
:20076000B4010010A0200240074BC0221870074B1A60C20744BF402243F8102C830742BFFA
:20078000034B80221A607047B2160020A02002409020024008B5034B1B685B689847C0F379
:2007A000804008BDB401001030B9064B1868C0F3403080F001007047012806BF024BD8686F
:2007C00000207047C0200240E402002030B9044B1868C0F3803080F0010070470020704700
:2007E000C0200240802870B5144602D0812815D070BD01239340164A164D13602B682046FD
:200800009B6B98472B68204600211B68124A9847E0B21249BDE8704001F0DCBB0D4D81B1C5
:20082000012393400A4A204613602B689B6B98472B6820461B680021074A98472B681B6B36
:2008400001E02B685B6B2046BDE87040184700BFE0200240B40100100040072061080000AE
:200860000D2838B51CD1144C204607F0CBFF08B32046042107F0B4FF104B1D68C5F34035E5
:2008800025B900F06BFDE560A06038BD00F066FDA368C01AE060BDE838400948FFF7B6BE98
:2008A0000E2807D1BDE838404FF480414FF0805201F094B938BD00BFE4020020C0200240DE
:2008C000448D000073B5194B00241868184B4FF4801501908DF800408DF8014001A81D609A
:2008E000042100F0B9F8134E08B9356017E06846022100F0CFF8356088B19DF80030EF2B4F
:2009000001D0C22B0DD19DF80100A0F11103012B09D9143801288CBF0020012004E0FF20EE
:2009200002E0204600E0012002B070BD2F920000A02002409020024037B5052302AC04F81C
:20094000043D124B4FF480151D6000F0C7F82046012100F081F8A0B10DF10700012100F09C
:2009600099F820B90A4B4FF480121A600BE09DF80730DB07F0D4064B4FF480121A6001204B
:2009800001E0034B1D6003B030BD00BFA02002409020024037B50A210F4800F0B1F80F4BF7
:2009A00014201B680E4DDB6B98474FF48014AB2302A82C6000F8013D0A4B01211C6000F00C
:2009C0004BF808B1FFF7B8FF2C60FFF77BFF431E5842584103B030BD00093D00B401001033
:2009E00090200240A020024037B5FFF7A5FFC0B102A8B92300F8013D0C4B4FF480141C60A6
:200A0000012100F029F80A4B1D461C600A24FFF759FF30B1013C14F0FF04F8D14FF480132F
:200A20002B6000F0CBF803B030BD00BFA02002409020024008B5064B02201B685B6B9847CD
:200A4000012803BF034B186800F00100002008BDB801001078200840F7B504460D46FFF71F
:200A6000E9FF064688B12544AC420ED0084F14F8011B3B684FF080405B6898473B684FF02F
:200A80008040DB6801A99847EEE7304603B0F0BDC4010010F7B504460E46FFF7CBFF0546F5
:200AA000B0B12644B44213D00B4F4FF080403B6800219B68984708B9054609E03B684FF0BC
:200AC0008040DB6801A99847019B04F8013BE9E7284603B0F0BD00BFC401001007B5FFF7D2
:200AE000A9FF38B1054B01A91B684FF080401B699847F6E703B05DF804FB00BFC40100100E
:200B0000F0B5254B07461B6885B05B6902200E469847214D02202B685B6B98470128044667
:200B2000F7D12B684FF48070DB6998471B4B1C601B4B1B689B07FBD51A4A082413684FF07D
:200B4000804023F00F031360174B03221A60174B00221B68009701941D6815491346A847DE
:200B6000144B09221B6800965D6C4FF080404FF0FF332146A847104A136843F002031360C3
:200B80000A4B4FF080401B6803A91B6998470028F6D105B0F0BD00BFB801001028200860E6
:200BA000282008401400004020000040C4010010006CDC02B40100100400004010B5174BA2
:200BC0004FF480701B681B6A9847154B01221A60144B1B689B07FBD5134C082023689B6B92
:200BE000984723684FF400519B6908209847236809209B6B984723684FF400519B69092007
:200C0000984723680A209B6B984723680A209B694FF40051BDE81040184700BFB801001032
:200C20002820086028200840B40100104FF6FF70094A4FF47A71D389128A4B4301FB0200F6
:200C4000A3F55223A3F6953303EB2043C820B3FBF0F0C0B2704700BFE401002008B501F0C4
:200C600085FA20B1024B5888831E5842584108BDB401002013B501F09BFB044601F076FA8F
:200C800050B1064801A901F079FA012804D1638803F44063002BFAD002B010BD01000104FA
:200CA00037B5FFF7DBFF044628BB144D01A96880AB7F28465BB2C3F5FF6307339BB22B8364
:200CC00001F05CFA012814D107F0C9FC04466B889BB2022B05D16C88A4B2A31E5C425C4130
:200CE00007E007F0BCFC6FF03F031B1BC342EED4F1E7204600E0012003B030BDB40100200C
:200D000008B50346B32994BF0A46B4220248194607F02AFA002008BD0E030020084B70B526
:200D20001D461C6800262379032B03D10548013602F06AFB24682B689C42F4D1304670BDC8
:200D4000000300207C000020F8B5114B1D681E462A79032A19D12C89023C002C10DD8C424E
:200D600005F10A0703DC3946224607F0FDF93957042089B206F00CF903207F2106F008F915
:200D80002B68336000232B7100E000242046F8BD0803002007B5FFF761FF90B10B4801A9D4
:200DA00001F0ECF9FFF75AFF0028FBD1084B5888A0F55050043880B201288CBF002001208F
:200DC00000E0012003B05DF804FB00BF01000104B401002013B50C4C052384F824300B4B03
:200DE00020461B6801A99B88638301F0C7F9012806D1204601F002FA431E5842584100E0DF
:200E0000002002B010BD00BFFC0100205400002007B5084801A901F0B1F9012806D1054845
:200E200001F0ECF9431E5842584100E0002003B05DF804FBE401002008B501F09FFB0128CB
:200E40000CD0FFF7A7FF01F0F9FA01F047F9044A00235380034A1371034A1371012008BD39
:200E6000B4010020C40300205004002038B501F085FB012801D1012038BD07F042FCFFF7A8
:200E8000EDFE0028F7D101F071F9054620BB01F0CBF90128044602D001F0D0FA25E01849DB
:200EA0004FF42372174807F05FF9174B022203F81B2C032203F8192C04229A770522DA76D1
:200EC000062203F80F2C114A1D7003F8174C1A6301F074FA0128DFD1002001F017FA01F0A6
:200EE000E3F8FFF777FF012801D0002038BDFFF78FFF0128F9D1BDE83840FFF7D1BE00BFC4
:200F0000248E00001C04002190030021BD05002138B50C46072805D8DFE800F00611040426
:200F200061042F46012038BD012905D1FFF79EFF012854D0032038BD002952D14CE0212907
:200F40004FD8FFF773FEE3B2984248D0C820604300F5522000F695304FF47A75B0FBF5F30A
:200F6000224C99B204FB03031B04B3FBF5F3204A1184204AD181138218E001F10A03182B74
:200F80002FD8FFF777FE0F231B49DA0051F83300844203DC8B18194A136002E013F1FF33BD
:200FA000F2D207F029FB1AE0154B1970FFF756FE28B9FFF75BFF0128BCD1054600E00025EE
:200FC000FFF7E8FE012814BF0324002407F014FB012818BF032435B1FFF72EFF03E00020B5
:200FE00038BD022038BD204638BD00BF18FCFFFFFC010020E4010020648D00005400002032
:201000009802002073B50C46002950D0102850D8DFE800F0090F4F4F4F4F14181C4F4F4FB3
:201020004F4245474A00FFF719FE003018BF012001E0FFF7FBFD206000203BE01E4B1B689E
:201040001B6832E01D4B93F900302EE0FFF706FE28B9FFF70BFF012816D1064600E000268C
:201060000023019340F2034301A86946ADF8043001F084F801280CBF9DF8025080250EB164
:20108000FFF7DAFE6BB201E06FF07F03236080330CBF032000200DE0002008600AE02123BC
:2010A00003E06FF0090300E00E232360C4E7022000E0012002B070BD540000209802002073
:2010C00073B50446FFF7CAFD28B9FFF7CFFE012835D1054600E000251B4A231D1B4E9BB263
:2010E00002341370A4B21B0A53703482F261FFF751FE0020014601F03BF9304601A901F00E
:201100003DF880B100F030FA738803F4406313B900F020FEF8E70D4B5C88A4B2B4F5505422
:2011200018BF012400E00124002001F035F900237380FFF7B5FD25B1FFF77EFE01E0012067
:2011400000E0204602B070BD0C0300202402002037B501F013FA012828D001F007F830B911
:20116000FFF784FE012808D0FFF766FE1DE0104B5B88022B19D0002500E0054680240D4802
:2011800001A900F0FBFF012803D19DF806406306F5D00DB1FFF750FE074B60B293F9003093
:2011A0008342D4BF0020012000E0012003B030BD24020020010003049802002038B5244894
:2011C00000F0D6FE04F074FE012801D000243CE0204C214D01F07EF8204600218C2207F03E
:2011E0009DF8284600218C2207F098F84FF000024FF00003022161F3830261F383036A7162
:20120000164A63718423E380EB801460144B154A25602C6000251C6093625D60124BD362FD
:20122000124B4FF459721A84114BDA8145F233321A82FFF71BFE01280446C7D10D4801F056
:201240005BF90D48294602F0C7F8204638BD00BF40000020C40300205004002008030020C5
:2012600000030020B4010020F4020020FC010020E4010020E48D00007C00002008B5064B23
:2012800004201B685B699847034B04201B685B6B98470128F8D108BDB80100100749084A48
:2012A0000B68126809688B42F8D1DB01054903EB52620023C1E90023704700BF0820094097
:2012C0000C200940A002002010B51A4B00200021C3E90001184C042023685B6B98470128DE
:2012E00001D0FFF7CBFF23680020DB699847134B01221A60124B1B689B07FBD5114A124C89
:201300001368204623F4807323F0010313600F4B0F491B681B689847042323600D4B31226C
:201320001A6040F2212243F8342C0B4B01221A6010BD00BFA0020020B80100102820086069
:20134000282008400C00014000000140C8010010002100043C0001400400244308B5FFF7D6
:201360009DFF024BD3E9000108BD00BFA002002010B507F057FB034B1C6808B907F056FB98
:20138000204610BD082009402DE9F04107F04AFB1D4F1E4B012400254FF480723D601C4ECB
:2013A0001C601A604FF480321A60336880461B68284623219847336820461B6824219847AB
:2013C000336802201B6825219847124A136843F4E0231360104B1D6004F052FD0F4B00F5BA
:2013E000007018600E4B14201C600E4B3C601B681B699847B8F1000F03D1BDE8F04107F0C8
:2014000015BBBDE8F08100BF00002443042009408401001000200940082009401C2009405F
:20142000A0022443B0010010431E012B10B501D904281AD110F001021CBF0C4B196010F0F1
:2014400002031CBF0A4C216010F004001CBF094C216012B1084A0121116013B1074B01223F
:201460001A6010B1064B01221A6010BD182009401C2009402020094080022443A0022443F5
:20148000C0022443014B1868704700BFDC04002008B507F0E4F8154B186007F0D0F8144B5B
:2014A0001B686BB1134B4FF480721A6004F0E8FC00F2052020F4FF700F4B20F0010018602B
:2014C0000E4B1B683BB10E4B00221A60094B01221A6001F0B7FF0B4B1B6833B10A4B002283
:2014E0001A60044B4FF480321A6008BDDC040020A0002443042009401C200940800024430F
:2015000080022443C0002443C0022443820742BF034B01221A60C30701D507F087BA70478E
:20152000000C084008B507F07DFA074B1A68012A09BF064A00231A600223002814BF1846FA
:2015400043F0010008BD00BF000C084051E5CC1A034A044B1A600122C3F8002C704700BFCD
:20156000FFFF0F0000000840024A034B1A600122DA607047FFFF0F000000084010B5FFF7DE
:20158000D1FF0446FFF7F0FF034B01221A602046BDE81040FFF7BABF040100430A4B13F8EF
:2015A000012FFF2A04D1094A9342F8D1084B00E0084B19440138994204D001390A7800F88D
:2015C000012FF8E7704700BFC7FF0100CFFF0100F0120050C8FF0100014800F09BBA00BF89
:2015E000151800002DE9F74F0388064633B1B3F5A57F11D0002303800320E9E0764A138015
:20160000764A1380764A1380764B01221A704FF4A57333800120DBE082294FF0010AF9D10D
:20162000DFF8BCB17048BBF80050704B425D83F800A0432ADFF8A081D94607462AD1674BB8
:201640001A88954226D2521B052A23DD00EB050C604667490622CDF804C006F053FDDDF85F
:2016600004C00446B0B960462146062206F056FE5A4BA8F800401C805A4BABF8004083F850
:2016800000A05C4B185D013407F01CF80D2CF8D1002491E0B8F800209542F9D002D300234F
:2016A0001C462CE000247B5DDB2B04D052490B550134A4B201E0012300E000230135ADB2C3
:2016C000954251D28C2C01D900244DE0002BEAD07B5DDD2B01D1DB2102E0DC2BEDD1C02112
:2016E000454B1955E4E78C2C1CD85BB9795DDB2916D0414801550134A4B20135ADB29B2DDA
:20170000F1D910E07B5DDD2B01D1DB2102E0DC2B04D1C021384B19550134A4B20023ECE750
:201720000123EAE70024002188B290421CD28C2CCAD863B17B5CDD2B01D1DB2002E0DC2B72
:201740000DD1C0202C4B18550134A4B207E0785CDB2806D0284D28550134A4B202E0002346
:2017600000E001230131DFE7013292B29C2A04BF0023A8F80030194B18BFA8F80020B8F8CF
:20178000002019888A4215D0104603468B4211D0F85CC02807D11948A8F80030A9F8002084
:2017A00001F032FE08E001339BB29C2B4FF00000ECD1EAE7A9F80020114B1C80002C3FF4F3
:2017C00026AF104B1B6803B1984704F045F91EE703B0BDE8F08F00BFB4130020B21300202A
:2017E000B6130020B3160020B41600208E1E0020339200003A92000004190020580000201B
:20180000F0180020E0040020014B1860704700BFE004002038B5254B1A781C46022A06D00B
:20182000032A12D1C02804BF01221A703CE000F12402D2B2012A06D903221A701C4B1A88C7
:201840001C4B1A8030E0012302E0DB2801D102232370184B174D1A88511C89B29C2908BF47
:201860000021198014491B8809888B4205D1032323700F4B1B882B8016E0104B5428985460
:2018800007D15B5C432B0FD10D4801F0BDFD012038BDC02808D1064B1888824203D0814249
:2018A000F2D11A80F0E72A80002038BDB3160020B4130020B2130020B6130020B4160020AD
:2018C0005800002038B50C4B02201B685B699847094D02202B685B6B984701280446F7D119
:2018E0002B684FF40070DB699847044B1C60044B1B689B07FBD538BDB80100102820086002
:201900002820084008B5064B02201B685B6B9847012803BF034B186800F00100002008BD50
:20192000B80100106C20084008B5084B15201B685B699847064A136823F4FE6323F0020344
:20194000136040F2F272034B1A6008BDB0010010381000404410004037B5284CFFF7B2FF0D
:201960002368274DDB6827489847FFF7DDFF2B680320DB6B9847244B08221A602B68122250
:2019800000921D6C1F48022103221323A84723681C485C681D494FF4E1326023A0471C4B18
:2019A00014221A601B4A1C49136843F01003136040F2011240F201330868002808BF134616
:2019C00002F1804202F62F72136040F2F272134B1A600B687BB102F1804202F646021368C9
:2019E000152043F0500313600D4B1B681B6903B0BDE83040184703B030BD00BFD0010010F3
:201A0000B40100100010004090200240006CDC02341000402C100040E404002044100040D9
:201A2000B001001038B50546FFF76CFF18B11E4B1B681A07FBD4032D03D01C4B1B68002B8F
:201A400030D1FFF75FFF30B1194B1A481B68DB689847FFF769FF184C4FF4007023681B6A60
:201A60009847032D09D123684FF400709B6A984723684FF400701B6B9847104B01221A60C0
:201A80000F4B1B689B07FBD5032000F08DFA022000F08AFA132000F087FABDE838401220D4
:201AA00000F082BA38BD00BF18100040E4040020D001001000100040B8010010282008602C
:201AC0002820084010B506F0ADFF0446054800F04FFA054B00221A601CB9BDE8104006F093
:201AE000A5BF10BD68000020E404002010B50446FFF708FF08B9FFF72FFF044B2146BDE8D9
:201B000010401B680248DB69184700BFD001001000100040124B10B51860124C124B40B9C7
:201B2000186123684FF400709B6A984723681B6B08E002221A6123684FF400705B6A984790
:201B40002368DB6A4FF400709847084B01221A60074B1B689B07FBD5BDE81040FFF7FCBE47
:201B6000E4040020B801001068000020282008602820084008B5FFF7C5FE18B1024B1868C0
:201B8000C0F3C00008BD00BF1810004008B5FFF799FE40F2F2710B4B0B4A1B68116013F065
:201BA000500F0AD108BD094B09481B681B699847084B1B680BB1C0B29847074B1B68DB0602
:201BC000F1D508BD4010004044100040D001001000100040E4040020181000402DE9F34765
:201BE000402300241646019307468846009406F019FF454B01221C60444B1A604FF4807244
:201C00001A604FF480321A60414B20461B683F211B6801349847042CF6D100243C4B204667
:201C20001B683F219B6801349847032CF6D1394D2B68FFF799FC384806F0F5FD04462CB181
:201C4000A3680BB1032098472468F8E77B1C0DD0324BBA0013431C60314B46F000521B684C
:201C600038461B68214642EA08029847DFF8DCA000242C4ECAF80040336807209B6998474F
:201C8000684605F069FE00F029FA06F01DFD264A264F1368382023F0030313609368DFF801
:201CA000B09023F00F03936033684FF001089B6998473C60012005F071FE1D4B3C60C9F820
:201CC0000040C3F800801B4B1B4A1C605C601B4BCAF800401C602B681368194823F003031A
:201CE0001360184B03211B685B689847164B3C60C9F80040C3F800802B6833689B6B984779
:201D000002B0BDE8F08700BF0000244304200940840100102C200940E8040020001A44428C
:201D2000B4010010B8010010001009404010094088010443400122432422084008000940CE
:201D400000400340D8010010181009400C40094020042243034A136823F00403136030BF44
:201D6000704700BF10ED00E0F8B506F05BFE01F001FB002840F0D5806F4806F054FD064630
:201D8000022546B1736823B19847A84228BF2846C5B23668F5E706F062FC684B04461B6893
:201DA00063B1674B1B681B1A022B04D4A3F28F23002B03DA0126B54228BF354601F0D8F90F
:201DC00028B301F0DDF90646FFF7C8FA361A002E40F3A780FFF756FB5A4A00EB4623121B19
:201DE000DA4200F1A280012085421BD16FF00702121BDA4202D504F1080106E004F58031CA
:201E0000CA1A11EA220138BF1946022005E0012D034607D1022004F58031FFF705FBFFF75C
:201E200099FF7EE0022D7CD110B12846194601E02846611EFFF7F8FA3F4806F0F4FC044635
:201E4000062544B1A3680BB1022098472369246825EA0305F5E73C4EFFF786FB05F006078C
:201E600015F0040F18BF346027B1384B38461B689B69984700F032F9002005F08FFD344A66
:201E80003920136823F003031360936843F00F0393602E4B1B689B6998472E4B00201860BF
:201EA00018602D4B186004F079FC062F02D1022004F0B6F8294C2A4D2A4F2B6823682A4890
:201EC00023F0030323603B6803215B6898471F4B1B689B6B98472B6804F070FD234B0022A7
:201EE0001A603B68204801215B689847236843F003032360012333602B6804F08FFD05F093
:201F000017FD06F09CFBFFF72FFB0B4806F08BFC044624B1E36803B198472468F9E706F0D1
:201F200085FDBDE8F84006F081BD022D3FF45EAF012DF6D15AE700BFE804002080022443B5
:201F40001820094071FDFFFF0C400940B8010010001009404010094020042243242208402D
:201F60002C200940D801001000400340800104430146014806F075BCE80400200146014845
:201F800006F05BBCE804002010B5054806F048FCBDE81040034B03201B6820211B681847D0
:201FA000E804002084010010431C10B504460BD0064B4FF4C0421B6800211B689847044B4C
:201FC000A400234300221A6010BD00BFB4010010001A444238B504460D4606F023FD0123A6
:201FE000054AA3401360054B43F8245018B9BDE8384006F01BBD38BDE0200240EC0400203A
:202000000023064A002142F823100133202BF8D1034B10201B681B69184700BFEC040020C4
:20202000B001001038B5094B00241D681D600123A3402B42E0B204D0054B53F8243003B1FB
:2020400098470134202CF2D138BD00BFE0200240EC0400201FB50023029302A84123039327
:2020600005F07AFC042003F0C5FF032812D00420032103F091FF042003F0BCFF0328FAD17A
:20208000074B00211B6800905C6806484FF040521C23A04702A805F0B5FC04B010BD00BF21
:2020A000A401001000A00C4007B54123002268468DE80C0005F050FC012003F09BFF0128F6
:2020C00003D0054B986B03F0C7FE684605F09AFC03B05DF804FB00BF4800001013B541239F
:2020E000002468460193009405F036FC0320214603F052FF012003F07DFF18B1044B986B46
:2021000003F0AAFE684605F07DFC02B010BD00BF4800001010B5038804463BB140F21A227E
:20212000934207D000230380032010BD40F21A23238001E0822901D0012010BDFFF714FAFC
:2021400004F0CCFE04F07EFE064B80211B6998470028EBDD80B204F059FE034B1B699847DE
:20216000ECE700BFEC8D0000CC900000024B186800F00100704700BF9C210840F8B510F012
:20218000030504460F4605D103881A0503D54580012500E0002506F045FC061C18BF0126F9
:2021A000FFF7E4FF20B90EB906F0C2FA0020F8BD55B1238813F4405F06D003F44063B3F5B0
:2021C000006F04BF0A4B1C600A4B1C604CF25133094A013B12683A60E5D012F0FF0FF7D03A
:2021E0000EB906F0A5FA3878431E58425841F8BD6C0500200010044004100440094B013BBD
:202200000DD0428802F44062B2F5806FF7D1408800F44060A0F58063584258417047184605
:20222000704700BF21A1070037B506F0FBFB224C0546236819201B6A9847236812201B6A64
:202240009847236819205B699847236812205B6998471A4B01201B685B699847174B0120A9
:202260001B685B6B98470128F8D1154B186003F10053043B1860134B1B689A07FBD5124AC0
:2022800000230D4C13605360236819201B699847236812201B6998470DB906F049FA0B4B00
:2022A00007221A6001A90A48FFF768FF431E5842584103B030BD00BFB0010010B8010010A5
:2022C0002C2008402820084010100460000004600100060408B503F011FE052802D10A4BD3
:2022E000186007E0032801D1022201E020B90322054B1A60012008BD012803BF024B052270
:202300001A60002008BD00BFD021084038B50028144C18BF0024FFF729FF08B306F082FBAA
:202320000546114B4FF000421A6043F8044C00220E4C43F8082C236819201B6A98472368D2
:2023400012201B6A9847236819201B699847236812201B6998471DB9BDE8384006F0E8B916
:2023600038BD00BF0000808018100460B0010010002814BF08220222044B0029044918BF77
:2023800000230B601343034A13607047000080801010046014100460034B0028034A18BF3C
:2023A00000231360704700BF0000808014100460014B1868704700BF6C0500207FB514214D
:2023C00001A840F60A0206F0BAF90A4B01A81B6869460593FFF7D2FE012806D101A8FFF73C
:2023E0000DFF431E5842584100E0002007B05DF804FB00BF740500207FB5142101A840F692
:20240000090206F09CF901A86946FFF7B7FE012804D101A8FFF7F2FE012801D0C0B206E044
:20242000044B1A781AB91870059A034B1A6007B05DF804FB501700207405002030B587B0B2
:2024400006F0F0FA274C0546236819205B699847236812205B699847FFF788FE90B1224AEE
:202460000023136002A85360102140F60D0206F066F902A801A9FFF781FE012802D102A82F
:20248000FFF7BCFEFFF7B8FF184B00221A6003F100530122043B1A60154B1B689B07FBD568
:2024A000144B01201B689B699847124B01201B685B6B98470228F8D10A4C192023681B6AFE
:2024C0009847236812201B6A9847236819201B699847236812201B6998470DB906F028F9D8
:2024E00007B030BDB0010010101004602C20084028200840B8010010014B1860704700BFCC
:202500007005002008B5FFF731FE20B1044B6FF000421A6008BDFFF787FE0128F6D008BD15
:202520001010046010B5FFF721FE60B1104C06F079FA23681B020ED56FF4000323600D489E
:2025400000F062FF07E00C4806F092F8FFF76CFE0128EBD010BD236813F00A0F1EBF044B8B
:202560006FF00A021A60BDE8104006F0E1B800BF101004607C00002054920000014B187851
:20258000704700BF51170020034B1B68002B14BF01200220704700BF7805002038B5064BDA
:2025A00002201B6800241D46044B1B685B689847201845F1000138BD04800240CC01001074
:2025C00008B5064B04201B685B6B9847012803BF034B1868C0F34000002008BDB801001047
:2025E0003C20084038B5038804461BB3B3F5847F03D000230380032038BD114B1B788B42AF
:202600001BD1104D2B682BB1FFF7C8FF2B68984700232B600C4B40F201401B689B6A9847F4
:202620000A4B01221A600A4B1B689B07FBD50948FFF7A4FC4FF484732380012038BD00BFC5
:202640009902002078050020B801001028200860282008408C00002038B50C4B04201B6882
:202660005B699847094D04202B685B6B984701280446F7D12B6840F20140DB699847044B52
:202680001C60044B1B689B07FBD538BDB8010010282008602820084070B51F4B1B688BB12E
:2026A00000231E4A995C39B10021D1541C4A02EBC30393E8030070BD0133042BF1D1002061
:2026C000014670BDFFF77CFF08B9FFF7C5FF154A154B116814460B406BB9144B01221A609D
:2026E00018680028FCD102464FF4807104F0D2F90F4B01221A6006F095F906462368DB07F6
:20270000FCD5FFF74BFF05460C460EB906F08EF92846214670BD00BF7805002052170020E0
:20272000A80200200880024001000080F09F0240A802504238B50E4D00240E4A2C601368AC
:20274000312023F0010313600B4B1B685B699847204622464FF4807104F09CF901232B60E8
:20276000064B224619780648BDE8384000F00CBEA80250420C800240B00100109902002064
:20278000A000002010B5074C2378802B08D100F08FFD207000210448BDE8104000F01CBE0A
:2027A00010BD00BF99020020A00000200FB407B504AA52F8041B0448019200F021F803B0E1
:2027C0005DF804EB04B07047B000002070B505460C46102C07D92B686868084910229847D7
:2027E00050B9103CF5E734B12B6868682246BDE8704002491847204670BD00BFE89200002D
:202800002DE9F04F80468FB0069107920026069B1B78002B00F05F83069B1C4613F8012B9D
:202820001AB9069B9C4203D10FE0252AF5D1F8E7069BD8F80400E51A0699D8F800302A460C
:202840009847002840F02A832E442378002B00F042836378611C002B00F03D8300240A4600
:2028600011F8013B2B2B11D006D8202B11D0232B12D144F00804F2E72D2B04D0302B0BD125
:2028800044F01004EBE744F00104E8E744F00604E5E744F00204E2E7A3F1310108290DD82D
:2028A000134600251A4613F8011BA1F13000092811D80A2202FB0515303DF3E72A2B09D17E
:2028C000079B01321D68191D002D0791B8BF44F0010400E0002513782E2B1CD15178531CE5
:2028E000A1F1300009280ED8194600270A780B46A2F13000092801F101010FD80A2303FBAC
:202900000727303FF2E72A2906D1931C079A111D0791176802E013464FF0FF371A786C2AAA
:2029200009D15A786C2A02D144F080040AE0013344F060040BE0682A09D15A78682A03D185
:2029400044F02004023302E0013344F040041A78642A3CD01FD8462A48D00DD8252A5AD053
:2029600003D8002A00F0B78257E0412A4AD0452A53D144F4424450E0582A31D004D8472A1C
:202980004BD144F4A13448E0612A38D0632A44D144F4A06441E06E2A3AD007D8662A22D051
:2029A00027D3672A28D0692A11D036E0732A2CD006D86F2A11D0702A2FD144F440742CE087
:2029C000752A07D0782A28D144F4C85425E044F4245422E044F410641FE044F488541CE020
:2029E00044F4B24419E044F4007416E044F4844413E044F4024410E044F481340DE044F49B
:202A0000C1340AE044F4E13407E044F4806404E044F4E06401E044F4C0640133069304F425
:202A2000E063B3F5806F00F0AA8116D8B3F5807F2BD0B3F5407F7FF4EAAE079BA04914F40C
:202A4000804F03F104029F4818BF08460DF1330107920F461A680023C5E1B3F5C06F08D087
:202A6000B3F5E06F00F03182B3F5A06F7FF4CFAE00E2D8F80030D8F8040093490122984781
:202A8000002840F00B820136C1E6002FACBF24F01004012714F40053039304F0E00337D0BA
:202AA000402B17D008D8DBB1202B2AD1079B1A1D079293F9002017E0602B11D0802B20D1F5
:202AC000079B073323F0070303F108020792D3E900230AE0079B1A1D0792B3F9002003E07C
:202AE000079B1A1D07921A68D317002A73F1000109DA524263EB4303CDE900234FF001093C
:202B000033E000220023CDE900234FF000092CE0402B16D007D8CBB1202B20D1079B1A1D6F
:202B200007921A78EEE7602B10D0802B17D1079B073323F0070303F108020792D3E9002328
:202B4000E1E7079B1A1D07921A88DBE7079B00211A1D07921B681846CDE90001D5E70022CE
:202B60000023CDE900234FF0000904F4C053B3F5805F0CD0B3F5C05F33D0B3F5006F4FD1A2
:202B8000DDE900230DF1360ACDE9042304E0DDE900230DF1360A15E0DDE9042313433AD0E4
:202BA000DDE904010A22002304F0D4FFDDE9040130320AF8012D00230A2204F0CBFFCDE914
:202BC0000401E9E752EA030125D002F0070130310AF8011DD10841EA4371D8080A4603463F
:202BE000F0E7384B14F4804F0DF1360A344908BF1946DDE9002352EA03000CD002F00F00BE
:202C0000085C4FEA131E0AF8010D100940EA037002467346EFE70DF1360BCAEB0B0B03E05C
:202C20000DF1360A4FF0000B41F6080241F208035F4502EA04028CBFCBEB070700279A42E5
:202C400002D1002F08BF012741F608018A4207EB0B030DD1DDE9000150EA010208D01B4959
:202C600014F4804F1A4A4FF0020C18BF0A4602E04FF0000C62460399A1B1B9F1000F0AD14E
:202C800004F0060102290AD00629124904BF4FF0010C0A4606E04FF0010C0F4A02E00F4A85
:202CA0004FF0010C63449D428CBFED1A002514F0010922D1E30613D52F444D461DE000BF37
:202CC000B3920000C4920000E6920000D8920000D5920000DD920000DB920000D2910000D1
:202CE00040462946CDF80CC00092FFF76FFD009ADDF80CC0002840F0D180BCF1000F0DD0DD
:202D00001146D8F800306246D8F80400CDF800C09847DDF800C0002840F0C0803C465E442B
:202D2000102CD8F800300DD9D8F804006C491022CDF800C09847002840F0B080103CDDF8A9
:202D400000C0EDE75CB1D8F8040065492246CDF800C09847DDF800C0002840F09F80D8F8A8
:202D60000030D8F8040051465A4666449847002840F094803E44B9F1000F79D073E0079BAA
:202D8000D3F800A01A1D0792BAF1000F09D05346994699F800200133002AF9D1CAEB09094D
:202DA00003E0DFF840A14FF00609002F02DBB94528BFB9464D458CBFC9EB0505002514F076
:202DC000010405D140462946FFF700FD002865D1D8F80030D8F8040051464A4698470028D0
:202DE0005CD14E443EE052EA030E0ED002F00F0E10F80EE04FEA131C01F801ED4FEA121E0E
:202E00004EEA037E72466346EDE70B467F1A01BF3022012701F1FF3301F8012C0337782282
:202E2000BD4203F8012C4FF0300203F8022C88BFED1B4FF0230298BF002514F00104A3F105
:202E4000030903F8032C04D140462946FFF7BEFC20BBD8F80030D8F8040049463A46984725
:202E6000E0B93E4424B140462946FFF7AFFCA8B92E44CCE4079B012D03F104021B688CBFB1
:202E800005F1FF35002514F0010407928DF8203008D140462946FFF799FC10B14FF0FF30E4
:202EA0001AE02E44D8F80030D8F8040008A9012298470028F2D16F1C2CB140462946FFF7E1
:202EC00085FC0028EAD13E44A1E4079B1A1D1B6807921E609BE430460FB0BDE8F08F00BF7D
:202EE000F8920000DF920000F8B50388064615462BB14A2B15D0002303800320F8BD1748E5
:202F000005F091FC04462CB1201DA16805F040FC2468F8E7124B01221A704A2333800120DB
:202F2000F8BD8829FBD10D4805F07DFC0446002CF3D0231D9D420ED10848214605F07DFC40
:202F4000084B62691F681A60A2691D460AB1E06990472F60E1E72468E9E700BF7C050020F6
:202F6000561700208805002010B5064B002406481C7005F055FC2146BDE81040034800F026
:202F80002BBA00BF561700207C050020B800002070B50446E3610B4B049D1B786561A26181
:202FA00043B1094D094B2E68201D2B6005F0F0FB2E6000E0A1602146BDE87040044805F0C9
:202FC00050BC00BF5617002088050020B80000207C05002013B5034C24680094FFF7D8FF6F
:202FE00002B010BD8805002070B5094B05461B783BB1084C084B26680430236005F0D1FBB5
:2030000026602946BDE87040044805F02ABC00BF5617002088050020B80000207C050020CD
:2030200010B5084B04461B781BB1043000F0B2F801E0C36003612146BDE81040024805F0FE
:20304000FCBB00BF561700207C05002010B50E4C236813B90D4A136010BDFEF77FF92168C9
:2030600091E80C001A44131A8A6842B192E812002144091A8B4228BF0B469268F5E7184410
:20308000024B186010BD00BF8005002084050020014800F0B9B900BFC8000020F8B5038807
:2030A00005462BB1592B09D0002303800320F8BD1E4A136059232B800120F8BD872920D096
:2030C0008229F7D1194F00263C68002CF2D0204605F098FB90B1E0688821224600F054F998
:2030E00050B9E060A3680EB1B36000E03B600023A360FFF7ABFFE5E7FFF7CAFF2646A46866
:20310000E3E70A490B680BB90B60D3E7D868904201D19B68F7E70B6099680029CAD0C86812
:2031200090420ABF89680B469960F5E78005002010B50446FFF7ACFFE3680B4A4BB1136871
:203140003BB1A34203D1094A1268DA6007E09B68F6E7064B1B68E36013681460A360BDE84E
:203160001040FFF773BF00BF8005002088050020024B1868003018BF012070478005002075
:20318000024B186808B1024B18687047800500208405002010B50B4A04461368984206D147
:2031A0008368136008E09A68A24203D01346002BF9D103E0A2689A60FFF748FF0023A36078
:2031C000E36010BD8005002038B5836804460D469BB10A4804600220A07304F10C009847AE
:2031E0000238012801D9832D05D120462146BDE8384000F005B80123A37338BD8805002099
:203200002DE9F8431C4A0446156889462B4690461A4E3768A34204D00BB11B68FAE7BDE895
:20322000F88334B3A37BABB10023A37345B1AC4204D028468721224605F0CAFA2D68F5E719
:20324000A3683BB14C4505D0346004F10C0083212A469847D8F800309C4203D12268064BFC
:2032600005E0134623B11A68A242FAD122681A603760BDE8F88300BF8C0500208805002033
:2032800010B5094B00221A70084B1C685CB1E37B3BB101230022A373E27320468221FFF78B
:2032A00093FF2468F2E710BD591700208C050020024B1878421C1A70704700BF5A1700203D
:2032C000064B8A221A70064A00231370054A1370054A1360054A1360704700BF5A17002014
:2032E00057170020581700208C050020880500202DE9F0411A4D2B780BB1FFF7C1FF194C2B
:2033000022783AB3184E0C213378184F5943781817F8018001334768806803F01F03013AAA
:203320003370227068B9124B1E689EB12B780BB1FFF7A6FF304641463A4605F049FA3668B8
:20334000F3E7B8F1810F04BF0123837341463A4605F03EFA2B7820781844BDE8F08100BFDD
:20336000591700205817002057170020900500208C050020024A034B10781B781844704772
:203380005817002059170020F0B50B4E3378202B0FD00A4C0C252478094F1C4404F01F0449
:2033A0006C4301333D19A86039556A6033700020F0BD0120F0BD00BF58170020571700205A
:2033C0009005002038B5034C256805F001FA256038BD00BF8805002010B50A4609490C68BE
:2033E000234683420DD00BB11B68FAE748B1046008600121817383818121BDE81040FFF736
:20340000E1BF10BD8C05002038B1837B013B012B9FBF024A0123C373137070475917002071
:20342000024610B5064853600468029B11609360026014B9084605F00EF9002010BD00BFEC
:203440001007002010B5084C206858B100232360816843689847236823B1BDE8104018689E
:2034600005F0F9B810BD00BF1007002038B505880446672D09D0792D2ED0002D32D1FFF7E8
:2034800017FF1B4B18701B4B1D601B4805F012FA431C01D167231DE00A28164B07D01A683D
:2034A0007E2AF2DC511C1960144B9854EDE7196800254A1C1A60114A0D4B555428461978B0
:2034C000FFF762FF0E4B852118682A46FFF75CFF20B97923238009E0852907D1054B00225C
:2034E0001A60D2E700230380032038BD012038BD8F1E00201C07002014070020DB17002068
:203500008805002008B505480549802205F0CBF9BDE8084003480021FFF75EBF14070020A4
:203520005B170020D800002037B5124B124D1C782B796A79C4EB032313449BB2ADF80630EA
:20354000BDF8063005F108011844202280B205F0C1F9BDF8062004F12801294492B205F063
:20356000B9F910B140BA80B201E04FF6FF7003B030BD00BF5B1800200419002070B51E4B5A
:203580001E4E1D781E482835AB195C780223E40007349C422ADBE9187218715C012920D036
:2035A00005D3632905D15278023213441EE001331AE001F0C001802905D0C02905D04029F9
:2035C0000FD1037015E0037004E00C4A0370127EFF2A0ED004200221EA1801F091FC022003
:2035E00070BD527802321344DBB2D2E70370002070BD012070BD00BF5B1800200419002066
:2036000061180020F0B5C578124A0D44EDB2D57083780F0A3B44DBB293704478BB425470FE
:203620000678167005D2601CC0B2507008B901361670C9B28D420CDA0133DBB20549937041
:203640003BB94B780133DBB24B7013B90B7801330B70F0BDF818002010B5084C0146206874
:203660001430FFF7CFFF064A236811781975517859759178D2789975DA7510BDA019002063
:20368000F818002008B501F089F801F0E5FC02F0A7F900230E49002221F813200133142B0C
:2036A000F8D10C49002311443032B2F5F07F81F82530F6D1084A4FF480611180074A0021EE
:2036C0001A442033B3F5A07F1182F7D108BD00BF8C1B0020A4190020B8130020B81B002011
:2036E0002DE9F041124F3D7805B3DFF84C8005F12703B8F80040A34203DB0023A8F800304C
:2037000013E00C4EA4F1280205F12801641BA4B206F128003144521B04F09CFDA8F800403B
:20372000283C23123371747100233B70BDE8F0815B18002004190020F01800200023064A18
:2037400032F81310814203D1002122F8131070470133142BF3D170478C1B00202DE9F74F5F
:20376000B34E04283468B34F00F0EC81B249B34DB34A03280D6015608A4615D194F8253085
:2037800003F00F03032B08D1A38B002B40F0EA85AC4B08221A7000F0DABC022B40F0E28530
:2037A000002305F8073C2EE302287AD1A64A00231370A64A3B801380A54AD3780133DBB251
:2037C000D37063B993780133DBB293703BB953780133DBB2537013B913780133137094F8DE
:2037E000253003F0FD02052A0DD194F826300133DBB2782B84F8263040F0B485002384F855
:20380000253000F0AFBD002B00F0AC85A28B8D48002A3DD094F82620511E84F82610002A55
:2038200040F0A08594F82720082A04D0591E01290AD8052A08D1002384F8253080230370C5
:2038400002F086FA00F091BC042A9CBF0321914003F00F0394BFC9B230210132013B84F82C
:20386000261084F82720072B00F27C85DFE813F0C70208000A0038047A0538047A053804D3
:203880000022BDE20423037002F062FA00F08FBC03F00F03032B40F065850823037000F069
:2038A00056BC052811D16B4B1B681B8A002B00F059850C3D1560654A0023138033603B809F
:2038C000604B08220D601A703AE115F83C3C3C3D03F0F003602B40F045852B796A791B02F4
:2038E00039889818884200F33D85283213443B802B7AFF2B00F036852B7EFF2B03D005F156
:20390000080005F06DF8544800F0AAFD50B1534B534C4D4A2360534B00211170197090461B
:20392000994626E04C4800F041FE0028EFD12B7EFF2B40F01785EAE722D93A2E00F0948020
:2039400027D93B2E00F00E853C2E6AD199F8003044499E0737D5580663D443F040030B7051
:20396000FFF70CFE012800F0FD842FD3022800F0F5842268DFF8E8B016782B2EDCD132E079
:20398000062E00F01581112E00F08F80002E48D103E02C2E00F0E68443E099F80030D9078D
:2039A0003FD4304A43F001031370FFF7E7FD012800F0D884DAD298F8003003F128022A4479
:2039C000CBF8002008E043F00203C8E798F8003003F128022A4422605278083303EBC203AF
:2039E00088F80030C5E799F8003003F0040000F0FF01B0B91B4A43F00403137098F8002088
:203A000002F128032B44D87810B104202A320BE0CBF800305B78083202EBC3020A4B1A700C
:203A2000A7E704200121521B01F06AFA00F096BCA0190020F01800209C190020401900205F
:203A4000F4180020901900205B180020B41B00205D180020981900201C1900200A190020F1
:203A6000941900205C18002004F050FF4FF6FF73984240F0778498F800302833E85C01F096
:203A8000D7FF98F800302833EA18E85C517801F015FA012801BF0023974A3B8013703B8838
:203AA000002B00F05F8400F059BCFFF719FEEB8DAE7153B96E8D002E00F054848F4B904DAB
:203AC0002B60904BB3F828800BE004F025FF4FF6FF73984240F04684ECE7238A33B92034DF
:203AE0002C602C68884B9C42F7D315E09E42F6D1638A0BB19845F2D123682BB963681BB938
:203B0000A3680BB9E3685BB180482146102204F0F9FA0028E3D103E001200421002283E7A6
:203B20003B887B49303B3B8000230B6079490220794A08707949CAF800200A60784A1380C8
:203B400002F006F9764B1A88002A00F00B8402F130036C4C9BB23B80283B19126371684B6D
:203B600008321B6852BA2171197DA2850022E2851A8AE17122855A8A11216285A17104F103
:203B800018050FCB85E80F0004F10800294600F089FD644B04F13C021A6004F0BDFEC043C2
:203BA00080B208B1E085D3E34FF6FF73E385CFE3FFF796FDAE7104F0ACFE4FF6FF73984257
:203BC000504C40F0CF83B4F82AB0BBF1000F00F0C983238D002B00F0C583534EB44696F80E
:203BE0002590B9F1000F11D0328A5A450ED1728A9A420BD14548314610228DE8081004F0D1
:203C000081FA9DE80810002800F01381474A30369642E4D195F8352002F03F02022A08D142
:203C20000022434931F81210594550D00132142AF7D195F83520334B520700F1938314229E
:203C400083F835203C223A80502283F8342093F8332093F8314093F82F0083F82F2093F852
:203C6000322093F82E1093F8306083F82E20013093F82D2083F82D4093F82C40C0B283F870
:203C8000321083F8312083F82C6083F8304083F8330060B90131C9B283F8321039B90132CE
:203CA000D2B283F8312012B9621C83F830202B8D6A8D164C2A856B8504F1100594E80F005B
:203CC00085E80F002046294600F0ECFC2BE300242146154A92F8250018B9302404FB01C42B
:203CE00031E0072827D12CB392F8266094F82600864288BF14461EE05B180020B81B0020FE
:203D00009819002004190020F81C00200C190020A01900209019002034190020F4180020E1
:203D2000B41B00209C190020A4190020841B00208C1B0020144601310A2902F13002C9D1DE
:203D4000002C00F00F83B64A63821460B54B032284F8262084F82420042284F823200FCBF6
:203D600084E80F00B04B01201A78002622765A7884F8250062769A78DB78A276E37695F8AE
:203D80002C30A083237595F82D3084F82260637595F82E3084F82760A37595F82F30A4F8BE
:203DA00010B0E375FFF758FC95F8343003F0F002502A24D91A093346053A9200E91891F85D
:203DC0003C00E0B1012801D1013316E002280FD191F83D0004280BD191F83E2091F83F303A
:203DE00043EA0223402B28BF4023E383238406E0E91891F83D1011B10B449342DEDB102221
:203E00008A4B83F83520894B93F8352042F0020283F83520022283F83C20042283F83D204A
:203E2000002283F83E20402283F83F203A80602232E27B4B95F835101E607D4B11F0040F09
:203E4000344618709B4603D086F825002022D1E13B8809F00F09A3F12802744BB9F1020F09
:203E600093F834304FEA1313A2EB83039BB23B8003D101F03F02122A05E0B9F1010F03D124
:203E800001F03F02022A16D00BB98B0713D0AA8DB38A9A4204D1654BDA8DF38A9A420AD036
:203EA000880740F1F281B9F1010FA8D0B9F1020F40F0EB81A7E7C90652D5B18B00294FD03E
:203EC00006F11800FFF79EFB5A4B95F830101878564A884244D192F8311093F801C08C45DB
:203EE0003ED192F832E09978714539D192F83320DB78934234D1F37696F82730307686F8CA
:203F000019C0B1761BBB96F8243096F8261096F82200591AA1EBD001C9B25FFA81FE1EF044
:203F2000800F96F82330084418BF4942A3EB930318BF5FFA81FE03EB0E02C0B2D3B286F81D
:203F4000233003EBD00386F8220086F82430384B01221A7096F8243086F826300023B3839C
:203F600096F82510DFF8C89001F00F03013B072B00F2F881DFE813F0080025008F004201AA
:203F800064017E018901340199F80020284BD2070FD5032286F82520388840221A700022E7
:203FA000B283002800F0D08042221A70FFF754FBCAE095F8353003F03F03022B40F0D281B0
:203FC0001DE799F80030DB075AD595F8353003F03F03122B54D1154B93F8343003F0F0024E
:203FE000502A30D91B09053B9B0000202A1892F83C1041B3012901D1013022E002291BD1CD
:2040000092F83D10042917D192F83E1092F83F3043EA0123402B28BF4023F383338412E0BE
:20402000A01900200C1900205D1800200419002090190020F81800202A1892F83D2012B1AB
:2040400010449842D2DB032386F8253095F82C300120337595F82D30737595F82E30B375F5
:2040600095F82F30F375FFF7F7FA4223A64A8BF800300023B3833B8088F80030138066E060
:2040800020238BF8003001F063FEA04B00221B6883F82520CDE595F83530D80725D5CA063B
:2040A00023D4B38B002B40F05D813888013080B2FFF7D2FA9BF8003043F010028BF8002002
:2040C0003A881AB1924A43F01203137001F040FE0123B383082386F82530002386F827302D
:2040E00011228C4B83F83520D2E098060DD595F83A2095F83B3043EA0223DAF800201A4433
:20410000CAF800203A88D31A3B80388848B1CA0607D499F8003043F0020389F80030FFF74F
:204120009BFA95F8362095F8373003EB0223328C9BB2934202D8002B18BF1A4699F8003023
:20414000F2839B0700F00E816F4B00221A8001F0FFFD6F4B1A786C4B02F0200000F0FF0161
:2041600028B100221A8084F825201422B9E702F0100000F0FF0540B119800123A383042322
:2041800084F8253084F82710AAE7198861B1D60748BFA583A28B32B9E28B914288BF1A8012
:2041A0001B88A38300E01A80002384F827305A4B1B68CAF80030544B1B882BB1A38B1BB194
:2041C0003C333B80182207E0514B1B789D0740F1C9803C233B8010224E4B83F8352059E059
:2041E00099F80030DC0740F1BD80002386F82530474B10221A7001F0ABFDB3E0388808B1C4
:20420000FFF72AFA95F8353013F001030FD099F80030D80745BF072386F8253006230023BF
:2042200046BF86F82630B38386F8253016E099F80020D1071BD5052286F82520B38391E09C
:20424000388808B1FFF708FA95F83530DA070ED5072386F82530002386F826300120FFF72C
:20426000FBF9102389F8003001F072FD0DE03B885BB977E099F80030DB0773D5072386F858
:204280002530002386F826306CE0102385F835303C233B801F4B502283F83420237D1D4DA2
:2042A00085F83030637D05F1180685F83130A37D85F83230E37D85F83330237E85F82C3096
:2042C000637E85F82D30A37E85F82E30E37E85F82F30238A2B85638A6B8594E80F0086E8B7
:2042E0000F0005F10800314600F0DCF994F8253003F0100303F0FF0283B1002385F837305F
:2043000085F836300FE000BFB41B0020A01900209019002004190020F4180020402385F832
:20432000362085F83730154C0623A371144B1B79E3713B88283B1A1263710023227184F806
:204340003B3084F83A30238704F0E3FAC04320870A4B60221A7000225A705A80094B00224A
:204360001A7007E0084A00231370084A3B801370044A137003B0BDE8F08F00BF04190020A0
:20438000F81C0020901900205B1800205C180020F7B50546164C00910F461646019415486C
:2043A000032120222B4604F0C7FA01281CD1236805F11002187028462368023350F8041BAB
:2043C000904243F8041BF9D12068877446B11430314604F01CFC064B00221B681A7701E03E
:2043E00001230377206800E0002003B0F0BD00BF24070020BC1D002013B5074C034600913F
:20440000019406480321202204F096FA08B9206800E0002002B010BD24070020BC1D0020C3
:2044200070B506460B4D0C4B2B602C680B4B9C420BD2237833B1A27CA01C3146D20803F08F
:2044400061FE20B120342C60EFE7002070BD012070BD00BF24070020BC1D00201C1E00207E
:2044600013B5084C802203460092019406480321202204F061FA08B9206800E0002002B010
:2044800010BD00BF28070020101D002010B50C4A0C4B136013680C498B420DD2197849B108
:2044A000411C02D0997C814204D148F2FE015C888C4202D02033ECE70023184610BD00BF30
:2044C00028070020101D0020701D002037B504460F4D80230093019523460E48042112221D
:2044E00004F02AFA01282B460ED12A6804F11001107020462A68023250F8044B884242F84C
:20450000044BF9D1186800E0002003B030BD00BF20070020701D0020F7B50546204C8023A9
:2045200000930E46174601941E48032120222B4604F002FA012830D12A46236805F1100149
:2045400018702368023352F8040B8A4243F8040BF9D12068C77416B90123037505E00023A4
:2045600003753146183004F052FB23680E480121997402234370FF2200230270438083805F
:20458000C38003818372C17202736B7B4373EB89C381FFF79BFF206800E0002003B0F0BDEB
:2045A00028070020101D0020BA13002013B5084C802203460092019406480421122204F0A9
:2045C000BBF908B9206800E0002002B010BD00BF20070020701D002038B50546C8B10D48A6
:2045E000022200244270FF230122C27244808480C4800481847203730370EB7B43732B8A07
:20460000C381FFF7D3FF044A106008B104F0BCF92C7038BDBA1300202007002010B51A4B7F
:204620001A4C236020681A4B98420ED203784BB1037D3BB9183003F0F9F918B1134B18682B
:20464000FFF7CAFF23682033EBE700F071FB114C114B23602068114B98420ED203784BB13E
:20466000037F3BB9143003F0E1F918B1094B186804F086F923682033EBE700F06BF9BDE8FA
:204680001040074804F08DB8101D002028070020701D002024070020BC1D00201C1E00205B
:2046A0001C1E00202DE9F84348F2FE030A8805469A42884621D00B78FF2B1ED01B4B002477
:2046C000A1461F461A4A1A603E681A4A964218D233787BB1B37C012B0CD148F2FE037288A0
:2046E0009A4207D04046B11C04F05BF9484524BF3446814620363E60E6E70120FFF7C6FE1F
:2047000004464CB92C806C80AC80EC802C816C81AC81EC81BDE8F883A31C123453F8042B47
:20472000A34245F8042BF9D1BDE8F88328070020101D0020701D002010B500F0E1FA78B934
:204740000A4C2378022B0BD801F0F4F823780848013323704FF40071BDE8104004F018B85C
:204760000348BDE81040FEF715BD00BF621800202C1E002010B503F0F1FF044603F0EEFF9D
:20478000054B24029A68A4B22044B0FBF2F302FB130000EB520010BDF81C002070B52A4C6E
:2047A00000F06EF800F06EF900216022274803F0B5FD00212046C02203F0B0FD244B2022DB
:2047C0001A70244B18221A704FF4A0632360224B40262671A360FFF7CDFF42F210732361E9
:2047E00048F2FE030025E06025751C4C2A463146204623806580A580E580FFF7C9FD204696
:20480000174904F0C5F8294601222046FFF784FE40F2FF23204623804FF48073E38165803B
:20482000A580E58025816581A581FFF74FFE03F095FF00F07F010B4803F0AAFFBDE87040BE
:2048400009480C2103F0A4BFF81C0020BC1D0020B91D0020B81D0020C0270900BA1300208F
:20486000FC1800202C1E00201C1E0020014618B1024B186802F072BA704700BFE8000020C7
:2048800008B502F039F9034B03491868BDE8084002F0D0B9E80000206D480000F8B51E46E7
:2048A000154B0546174618689DF81820079B02F0EFF90446F0B12B46054603F1100E2A46FE
:2048C00018685968083303C273451546F7D1012E0CBF4FF41671002104F114002774667459
:2048E00004F095F904F11C00002104F090F9002384F824302046F8BDE8000020024B0146DD
:20490000186804F001B900BFE800002070B50C4D0646286802F0A2F9044666B9002070BD05
:2049200020463146102203F0EDFB38B12146286804F0BAF80446002CF2D1EFE7204670BD65
:20494000E8000020024B0146186804F0C4B800BFE800002070B5364D286802F07FF9044618
:20496000002863D0637C042B5BD8DFE803F00C035A222F0004F1140003F058F8002850D093
:20498000022363744DE094F82430022B2AD804F11C06304603F04AF8002842D0254B1888D3
:2049A00000283ED194F824300146013384F824302BE004F1140003F039F890B304230021D2
:2049C000637484F8241004F11C0028E094F82430022B0BD9204600F04BF918B1037F0BB99D
:2049E00000F024F92046FFF741FF1AE004F11C06304603F01BF8A0B10E4B188888B921468F
:204A000094F82430013384F82430224600F0EEFE094B304619694FF47A73B1FBF3F104F06E
:204A2000F6F82868214604F03FF898E770BD00BFE8000020F0180020F81C00202DE9F04150
:204A400005460D480F46904603F0EDFE044688B1012D04D8094803F01CFF034601E0084B44
:204A60001B682846666839464246B047204603F017FFEBE7BDE8F081F80E0020900A002042
:204A80008C0A002008B50B4804F0D0F80A4803F0C7FE0A4B0A49186802F0CCF8094804F067
:204AA000C5F8094803F0BCFEBDE80840074803F0B7BE00BF1C010020340B00201801002003
:204AC0000B8A0000FC000020900A0020F80E002008B5034640B1054A5968106804F014F8C6
:204AE000BDE8084003F07ABF08BD00BF18010020014803F098BE00BF340B00202DE9F041E9
:204B00008046FFF7F5FF0026044637469CB194F82450B5420AD3404604F10801EA0803F06E
:204B2000F1FA18B9802D08D02E462746204603F068FF0446EAE73C4667B1084803F073FE2A
:204B4000844207D00548214603F077FE0348214603F096FE2046BDE8F08100BF340B0020C9
:204B600038B5044600283ED04368002B3BD01E48214603F062FE6368586803F054FE0546AC
:204B800030B14368A34207D0284603F089FEF6E704F1080001F010F963682946586803F024
:204BA0004CFE6368586803F03EFE28B963680F4A5968106802F0D2F821460D4804F05AF8F5
:204BC00029460C4804F056F80B4A20461368013B1360FFF77DFF04F108010246BDE8384016
:204BE0000320FFF72BBF38BD340B0020180100201C010020280100208C0A002010B50446DA
:204C000080B1406870B103F00EFE20B14068FFF7A7FF6068F7E7044B2146BDE810401868B5
:204C200002F09CB810BD00BF1801002038B505460D4803F0F8FD0446A0B1AC420ED1214625
:204C4000094803F0FAFD2146084804F013F8211D01200A46BDE83840FFF7F0BE204603F09A
:204C60001FFEE8E738BD00BF900A0020FC00002038B50546084803F0D6FD044648B1201DF0
:204C80002946102203F03EFA18B1204603F008FEF3E7204638BD00BF900A0020F8B505467A
:204CA0000F46FFF7E5FF044640B9134803F0CEFF0446F0B11148214603F0E2FD2B46261D36
:204CC00005F1100E324618685968083303C273451646F7D137B104F11400394603F097FF32
:204CE000002300E001232377002029462A46FFF7A5FE2046F8BD00BFFC000020900A0020AB
:204D000038B50A4803F08FFD044600255CB1251D2846FFF7FBFD08B1437C23B9204603F00E
:204D2000BFFD0446F2E7284638BD00BF900A002010B50A4803F077FD044670B1237F43B931
:204D400004F1140002F072FE18B12046FFF76EFFEFE7204603F0A4FDEEE710BD900A00202A
:204D60002DE9FF411F4C204D04F108030FCB8DE80F0029786F4694F80780A1B13A23A3717B
:204D80001A4B1A88521A92B21A80A2F1280318122C312071214404F12C002C3A637103F039
:204DA00059FA00232B70124803F03DFD064690B1D6F804C0BCF1000F09D00C4B2A781B880B
:204DC00038322C3B3846414622449BB2E047304603F066FDEAE7054B2870188004B0BDE8AD
:204DE000F08100BF041900205B180020F0180020FC0E0020F8B52A4B2A4C1B7904F1180622
:204E0000E371237E04F10805FF2B08D195E80F0086E80F0028463146FFF744FC1BE02F4604
:204E2000B646214A3B4603CB7345106051601F4602F10802F6D196E80F0085E80F001A4B4C
:204E40001A4D03F110062A4618685968083303C2B3421546F7D1164D297899B13A23A37159
:204E6000144B1A88521A92B21A80A2F1280318122C3120716371104821442C3A03F0EAF944
:204E800000232B702B7881222833E518E25400236B706B8003F03AFDC0436880F8BD00BF0E
:204EA000F81C002004190020CA1300201C1900205B180020F01800203019002038B50446D4
:204EC0000B480D4603F0AFFC78B10379A34209D14379AB4204D183683BB19847002038BDE1
:204EE000FF2BF8D003F0DCFCEEE7012038BD00BF000F00200146014803F0B3BC000F0020FB
:204F00002DE9F74F4C4F81463B78884692464B4C43B12833E35C3A2B0BD1494A00231380CB
:204F20003B7086E0A3793A2B03D194F92830002BF3DA444D444AAB46944600233B7005F180
:204F400010062B4603CBB342106051601D4602F10802F6D13A4ECDF804C0338830339BB243
:204F6000B3F5A06F88BF4FF4A0633380374B3288A3F130051846303A294603F06BF9002384
:204F8000637063803A23A371314B60221B7900F8302CE3712389DDF804C083B96B8973B90F
:204FA000AB8963B9EB8953B92B8A43B96B8A33B9AB8A23B9EB8A13B90023338039E0254DDC
:204FC00095E80F008BE80F009CF80030FF2B0AD1B9F1040FF0D1B8F1020FEDD128461A4933
:204FE000FFF760FB0AE0184B03F1100E2A4618685968083303C273451546F7D13D7850462A
:2050000005F12803E21804F8039082F8018003F089FC33882C35283B60511A1263713B7890
:20502000227128331C440023638003F06FFCC043608003B0BDE8F08F5B1800200419002034
:20504000F01800201C190020CA13002034190020F81C00200C19002008B50448FFF74AFFA8
:20506000BDE808400248FFF745BF00BF3401002040010020074A02230170437013680A303B
:2050800040F8083C5368002140F8043C062203F045B900BFFC18002050B1064B1B6833B17B
:2050A00053F8022F02605A684260012070471846704700BF140F00202DE9F04FAE4C87B039
:2050C000E379AE4EFF2BDFF8D48240F0948148F2FE0322899A4240F08E813378E21892F8AC
:2050E0002920002A40F087812C331A191B5D0BB1A3490B71506870B1A14DAF6803F012FCF8
:20510000874208D033782344186B03F00BFCA860FFF730FBE86033782344586B18B103F05D
:2051200001FC974B1861974F0C233B70337803F12C023B781344B8F80020934280F23681B2
:20514000E1184A78002A00F0568114F803B0BBF1030F4DD0BBF1050F44D0BBF1010F40F049
:205160000081DFF83CA28848CAF80010FFF7CEFB864D8146286004A8FFF78EFF002800F02F
:205180003A81B9F1000F0AD105238DE808027E4804A95A460223FFF781FB2860E1E0484698
:2051A000FFF7ACFB8146002800F025812B685A7C0AB902225A74DAF80000494602300822F2
:2051C00002F0A0FF50B1484604A9012201F0DCFD002800F010812B6802225A742B68012231
:2051E0001A74BEE0486803F09DFB654B1860B8E0674D4868296003F095FB2B6881469868BE
:2052000003F090FB8145C0F0AC8048F2FE022B68198A914200F0A58093F90320002A36DA2D
:2052200003F110009978FFF7E7F8DFF878A18346CAF800002B68A0B9586840B3411C03F119
:205240001009997806D0039103F06CFB03990246484601E048465A46FFF79AF8CAF8000095
:2052600015E05B6823B15A1C05D1012303770EE003F086FB0BE0184603F054FB01460BF188
:20528000140003F0C4FCDAF8003000221A772B68DA78500665D55A68002A62D09A78402A83
:2052A0005FD1DFF8F0E003F1200C10331A4603CA6245CEF80000CEF8041013460EF1080ED2
:2052C000F4D13448344903F063FB3248FFF7C8F8DFF8D4900346C9F8000078B3C27C012AB6
:2052E0002CD129684868411C26D003F01BFBB0F5E15F0AD9D9F800002B6800F1180A586815
:2053000003F010FB0146504611E0214B1B68586803F008FB8246D9F80000183003F07EFCCE
:205320008245E7D8D9F800004FF4E151183003F06EFCD9F8003000221A7512E02B68586805
:2053400003F0F0FA013002D11248002106E0104B1B68586803F0E6FA01460E480122FFF7E4
:20536000DBF833783A782C33134423445B7802EBC3023A70DAE600BF041900205B18002062
:20538000F81C00208D1800200C190020100F0020040F0020DA130020FC180020F0180020F4
:2053A000140F0020080F0020180F00201548FFF75FFC154B05461860144B1B782C331C44AA
:2053C0006388ABB1124B1B680BB101221A74608835B903F0A4FA01460A48FFF75FFC0AE0FE
:2053E00003F09DFA014605F1140003F010FC02E008B1FFF71BFC0023A8F80030337007B0DE
:20540000BDE8F08F0C1900200C0F00205B180020100F00202DE9F04F594C5A4DE2792B7877
:20542000FF2A03F12C0C85B00CEB04091CF80470DFF86C8140F09D80234493F82930002BCF
:2054400040F0978099F80430FF2B00F0928007F0400303F0FF0201921BB1237EFF2B00F0CC
:2054600088804949494E14230022B8F800B00B7032600CEB030EDE4511DA04EB0E0A9AF886
:20548000010010B932600B7073E014F80EE003EBC003DBB2BEF1020F08BF5246E9E709F1C1
:2054A00004000B703260FEF7DBFF394B186000285FD1287820443030FFF728FA354C20603B
:2054C000002856D0FFF71AFA8246002851D02F4BD3F80090B9F1000F07D009F1020051466B
:2054E000082202F00FFEC0B200E04846236827F07F065A7CF6B2A2B9B9F1000F39D002A837
:20550000FFF7CAFD002834D0504602A9012201F03BFC70B3019B53BB1E4B02221B685A746B
:2055200025E0B90609D418B923681B7CB3B91EE0012A1ED102225A741BE0B9F1000FF3D0EA
:205540000028F1D002A8FFF7A7FD90B1504602A9012201F019FC0028E6D10AE03EB90E485D
:20556000FFF786FB0D4A106008B1FFF75FFB23681E740023A8F800302B7005B0BDE8F08F60
:20558000041900205B1800208D180020140F0020180F0020100F00200C1900200C0F00202D
:2055A000F01800202DE9FF47854C864EE379DFF83482FF2B40F0FC803378E21892F8302084
:2055C000FF2A00F0F580234493F82930002B40F0EF807D4F7D4D3B6014232B7030782A78DB
:2055E0002C30B8F8003002449A4258DAA1184878734B002800F0DC80A25C012A45D11A898E
:2056000039607AB95A896AB99A895AB9DA894AB91A8A3AB95A8A2AB99B8A1BB9E38A002B2D
:2056200000F0C68002A8FFF737FD6948FFF76EF9DFF8B4910246C9F8000040B90523009379
:20564000019002A902236248FFF728F91DE0FFF755F98246002800F0AB8038685146023073
:20566000082202F04FFD50B1504602A9012201F08BFB002800F09C80D9F8003003E0D9F8FD
:2056800000305A7C0AB902225A7433782A782C33134423445B7802EBC3022A709EE72044DD
:2056A0000430FEF7DDFE4B4B454D1860994600287ED02B8973B96B8963B9AB8953B9EB894D
:2056C00043B92B8A33B96B8A23B9AB8A13B9EB8A002B6DD03E4D2846FEF7C2FE2F46002833
:2056E00066D140F2FF23228BA5F1080E9A4205F1100C19D16B8ABBB9AB8AABB9EB8A9BB923
:205700002B8B8BB96B8BB3F5807F0DD12B7FFF2B0AD195E80F008CE80F0033787344303391
:205720000FCB85E80F0011E02B4D2846FEF798FED9F8003083423BD197E80F0085E80F00D5
:205740003378234430330FCB87E80F002821602261713A212270A17184F82C20FF21D9F827
:2057600000200023E1711D4F8821337063706380237184F8293084F82810931C12323D4693
:2057800018685968083303C593422F46F7D114480221FFF76FFC337828331C440023638067
:2057A00003F0B4F8C04350236080A8F8003003E00023A8F80030337004B0BDE8F08700BF1C
:2057C000041900205B180020140F00208D1800200C190020180F00201C19002034190020A3
:2057E00044190020F0180020100F00202DE9F0414C4C4D4F00233B70637063803A238046A3
:20580000A3716020FF232070E37199B96183A183E183218484F8221002200121237660762A
:2058200084F8231084F82430537B84F82530D389E3840CE00B4604F1180601F1100E3546AC
:2058400018685968083303C573452E46F7D1872384F82830002384F82930E3621346334E7B
:2058600002F1100E354618685968083303C573452E46F7D10026267110462A4DFEF7F0FDF8
:20588000002836D1B8F1000F0CD04346083508F110062A4618685968083303C2B34215466F
:2058A000F7D105E005F1080005F11801FEF7FAFE22891C4B1E4D8AB95A897AB99A896AB925
:2058C000DA895AB91A8A4AB95A8A3AB99A8A2AB9DB8A1BB92B803B70BDE8F081387828232D
:2058E0004030637120440121FFF7C4FB50232B800CE018236B710E4B40222E816E81AE8180
:20590000EE812E826E82AE82EE821A803B7828331C440023638002F0F9FFC0436080BDE858
:20592000F08100BF041900205B18002034190020F018002070B5274C602323703A23A371B3
:20594000FF23E37140F2FF23002523834FF40073657065806583A583E58325846584A5840F
:20596000E38404F1080004F11801FEF79BFE1A4A8526137803F1280108190E55457021898D
:20598000257103F130001546144A89B9618979B9A18969B9E18959B9218A49B9618A39B9E4
:2059A000A18A29B9E18A19B908236371108007E0403313801823637120440121FFF75AFB41
:2059C0002B7828331C440023638002F09FFFC043608070BD041900205B180020F0180020CB
:2059E00008B50548FFF786FA0448FFF783FABDE808400348FFF77EBA580100206401002004
:205A00004C01002008B5054802F0DDFE20B1BDE80840024802F0CEBE08BD00BFC00F002049
:205A2000024B1B6803B1184718467047D00F002007B5074B8DF80700186828B1054B0DF12E
:205A400007021978FDF7BEFC03B05DF804FB00BF841B0020911E002008B50022044802215C
:205A6000FDF7B0FC034A00231380034A137008BD70010020F01800205B18002073B53D4DF0
:205A80002B88002B74D0B3F5A06F56D83A4B1A8B72B95A8B62B99A8B52B9DA8B42B91A8C74
:205AA00032B95A8C22B99A8C12B9DA8C002A44D01B7EFF2B3ED03148FEF7B2FC002841D07F
:205AC0002E4E3046FEF722FF044610BB05238DE818003046214622462346FEF7DFFE064628
:205AE00058B32748FEF7BCFC014608B1214624483246FFF77BFE234B06F11C0019694FF47F
:205B00007A73B1FBF3F103F082F8012386F8243010E0437C8BB1022B08D1032343740521B1
:205B2000143003F074F8002384F824302046FEF7E5FE00E00020FFF773FF134A00232B80FE
:205B4000137015E00D48FEF7D9FF044628B9FFF7D7F806460028B4D1EFE7FEF7B9FF0646F3
:205B60000028AED1204602B0BDE87040FEF7F8BF02B070BDF0180020041900201C190020CC
:205B80000C190020F81C00205B180020F8B50388064614463BB140F24B32934221D0002397
:205BA00003800320F8BD5A4A002122F833100133142BF8D1574B1B68C2F8A030FDF778FB16
:205BC000554B1870FDF774FB544B40211870544802F0DEFDFDF756FD40F24B33338001207E
:205BE000F8BD022917D14F4B1A881C46002AF3D04D4B9A79062A05D193F835309B0701D539
:205C0000FFF700FF0120FDF7A9FD2388002BE3D0FFF734FFE0E716D859B9002CDCD0434BF5
:205C200003201C60FDF79AFDFFF728FFFFF7EAFED2E70129D0D1002CCED03D4B05201C60C8
:205C4000FDF78CFDE4E7872935D08829C4D1344B9C4203D0374B9C4222D119E0204602F02D
:205C6000B2FD0028F6D00025334F2F4497F825304BB12B4802F09EFD2C4B02201F60FDF781
:205C80006DFDFFF7FBFE3035B5F5C07FECD1E1E7204602F098FD18B1FEF74EFDFFF7EEFE00
:205CA000264B9C4298D1204602F08DFD002893D0FEF7B4FCACE7224D05F1A00755F8043CEE
:205CC000A34208D135F8080CFDF738FD002325F8083C45F8043C0835BD42EFD1164B9A6A3A
:205CE0003033A24202BF002243F8082C03F80B2C144A9342F3D1144B9A692033A24204BF86
:205D0000002223F8102C114A9342F5D164E700BF1C0F002088050020901E0020911E002075
:205D2000C00F0020F018002004190020A0190020981900202C1E0020A41900201C1E0020C4
:205D4000240F0020241B0020B81B0020F81C002010B5144B1B6813B103F1280402E0124AA1
:205D600014681834114A1278520611D5198A00230F4A985A884206D11A4452681AB1002380
:205D80002260636002E00833A02BF1D1FFF73AFE206830B1074B62681978BDE81040FDF7E7
:205DA00011BB10BDA019002098190020901900201C0F0020901E0020F7B5054628B922487C
:205DC00003B0BDE8F040FCF7F1BC0388ABB94488ACB98388A3B9C4888CB9038983B94FF676
:205DE000FF72418991420AD1017B427B837BC07B00901648FCF7DAFC24E0002400E01C4627
:205E00002646AB195B78AF5D03EB0727BFB24FB9002C09DB01D0013411E00D48FCF7C6FCCD
:205E200001240CE0002C04DC2EB13A2002F019FC01E04FF0FF3407483946FCF7B7FC023606
:205E4000102EDED103B0F0BD3E9300004D930000609300006393000070B5064602F0E2FD19
:205E60000546064C2368002BFBD0B047012323601DB9BDE8704002F0D9BD70BD00800C40BA
:205E8000054A06491368086812689342F8D11B0443EA1040704700BF082009400C20094069
:205EA000024B186800F00E00704700BFD42108404BF69A12104B1868C0F30F30904206D101
:205EC0001B681B0F0B2B0CBF0420002011E04BF6BE1398420AD04BF64133984208D04BF671
:205EE0002033984214BFFF20022002E0012000E0032040B2704700BF1813005010B50A4B5E
:205F00001C68FFF7D5FF0128C4F3033408D1082C04D00F2C0CBF0120FF2002E0002000E013
:205F2000FF2040B210BD00BF9412005038B5194B1D68A3F51E7318682D0FC4B2802C28BF0A
:205F40000024FFF7B5FF042821D8DFE800F003131B1B1C00013D072D19D8DFE805F01118E7
:205F6000041818180608142012E0152010E004F116000AE025B1022D09D104F1140004E0BB
:205F80000A2005E01DB904F10A00C0B200E0FF2040B238BD1813005073B50C46C1070546BD
:205FA00009D5124BA2B21B68002100925E68104801220B46B047AA0709D50C4BA2B21B68D6
:205FC00000925E680A48002102220123B0476B0709D5064BA4B21B6800945C680448002178
:205FE0000C220223A04702B070BD00BFA401001000A00C4010B5084B04281B684FF03401ED
:20600000DC6807BF4FF0C0421D234FF080521C230248A04710BD00BFA401001000A00C4047
:20602000012804D1074A136843F0050304E028B9044A136823F0050313607047024B012218
:206040001A607047000009408001044338B50546264B01221A60264B1B68002BFBD0254B5E
:20606000C0221A60244B1B689B075FBF234B244A1B68C3F303435CBF43F0F0031370214B87
:2060800000221A60204B1C68204600F0D9F82846214600F00DFA40F21D221C4B1B689BB2DA
:2060A000934214D81A4A13681268C3F30363C2F3034203B1013B911F012986BF023202F07B
:2060C0000F02072243EA0213124ADBB21370204600F0BCFA104B02201B68DB689847054B5A
:2060E00040221A600D4B01221A6038BD101009409402224300600C40B03F0050AC3F005050
:206100005662084040100940B43F005014130050BC12005002600840A00100109404604279
:2061200010B51F4B1C68631C08BF002402F06FFC1C4B00221A601C4A012313601B4A13600D
:2061400000F03EFA1A4B1B6823B11A4B20461B68FFF77CFF184B00221A60184A136823F0AD
:206160007F6323F4702343F09C7343F48033136002F5BB2202F2BC721368C3F30133012B6D
:2061800001BF136823F0407323F4403343F4003104BF116013600A4B1B68002BFBD110BDC9
:2061A0001C130050840460425C600C400822044380012843000120438C21084048200340CD
:2061C0000C00684230B5194B1A68194BC2F304621B78152A03F01F0388BF203A152B88BFB0
:2061E000203B934220D01349002008600846D11A022905DC6FF00104A142B8BF214600E051
:2062000002210B440C490D4D0C6803F01F0444F4F8542C8093424FF001040C60E7D10B68F3
:206220000C600B6804600B6830BD00BF8813005006620840980020432C2009406C620840BB
:2062400000F04073B3F1807F10B504460FD14FF6D8011E4A80231370A2F8411002F8103C2C
:20626000FFF7B0FF1A4B1B68C3F3042303E0194B1B68C3F30463152B88BF203B03EB247366
:206280000133152B05DC6FF009029342B8BF134600E01523104A03F01F0343F4F8531380FE
:2062A0000E4B1B6813F002030ABF0D4A44F040641360C4F3C0630B4A83F001031360C4F3BF
:2062C0008064094B84F001041C6010BD2562084088130050B81200506E620840000009408F
:2062E00094042A430000204308002043154B81031B68C3F38362C3F38F231FD440F3072014
:20630000002819DA5B0805D1520806BF01231A464FF6FF730130F3E75B0043F00103B3F58A
:20632000803F08D3520042F001020F2A86BF4FF6FF730F22012301380028EDD143EA024024
:20634000704700BF50130050044A13681068C3F3870300F0030043EA0020704750130050E9
:20636000024B186800F0FC30704700BF74130050034B186820F07F4020F44030704700BF50
:206380007013005070B5154B15491C680968C4F3035211F00105C4F3034313D11149096893
:2063A00041F30326B21803D40F2AA8BF0F2200E02A4641F30331CB1803D40F2BA8BF0F23C9
:2063C00000E00023A1B2212841EA025242EA034384BF04F080442343184670BD7813005066
:2063E000B03F0050AC3F00501F2883BF024B1868C0F301500020704798130050212883BF6C
:20640000024B1868C0F30070012070478C130050212883BF024B1868C0F340700120704732
:206420008C1300501F2881BF074B1B68C3F30260800081BFC3F3C16240EA0220C3F381538A
:20644000184398BF0020704798130050024B1868C0F3C140704700BF8C1300501F2881BF4B
:20646000074B1B68C3F30510C3F3892281BF00041B0340EA82509BB28CBF184301487047CA
:206480009813005000803F40212883BF024B1868C0F3C060002070478C130050212883BF86
:2064A000024B1868C0F34550002070478C13005073B505460846FFF719FF394C024618212C
:2064C000204602F0FBFBFFF73FFF364B80B21B6800905E6820462C2140F2FF320023B0477E
:2064E000314B20461A681C21C2F30D0202F0E6FBFFF736FF14210246204602F0DFFBFFF794
:2065000037FF10210246204602F0D8FB2846FFF739FF0C210246204602F0D0FB2846FFF709
:206520006DFF4000214E40F02000C0B230702846FFF76EFF40F01000C0B230702846FFF757
:2065400071FF28210246204602F0B8FB2846FFF74BFF4000164B40F06000C0B218702846E8
:20656000FFF792FFC000134B60F07F00C0B218702846FFF793FF6FEA00606FEA90500E4B6C
:2065800080B218802846FFF769FF08210246204602F094FB094B4FF480021A6002B070BD9B
:2065A00000A00C40A40100107C13005049A10C404CA10C4041A10C40DCA10C4040A00C40C9
:2065C00030B5144B1B68002BFBD1134A13491368096823F0005323F0070311F0040F144667
:2065E00043F0005303D043F00503136030BD0C4943F004000D68AD0709D043F00703136069
:206600000B6803F00303032BFAD1206030BD106030BD00BF0C00684204400340B03F005010
:2066200000400340074B82B2C0F307401A605860012208331A60044A1268002AFBD000226E
:206640001A6070473C600C4084088C43C0F38143012B10B5044602D0022B2FD02AE0424B7F
:206660001B689A0326D4414A4FF4804111604049C3F303300A6822F08F020243C3F300403E
:2066800042EAC0120A6051F8012CC3F3032022F00F02024351F8010C41F8012C51F8022CA8
:2066A00003F0E70322F0E702134351F8022C41F8023C03E02D4B4FF000421A602D4B1B686D
:2066C0001B075EBF2C4B40221A602C4B4FF400721A60FFF7BBFE2A4B40F03000C0B2187004
:2066E000C4F3815001280BD002D3022826D028E004200121FFF750FC2248FFF793FF24E093
:20670000FFF778FC044604202146FFF745FC0420FFF770FCA042FAD11B4B1C6824F07F4013
:20672000FFF780FF194B4FF060221B68200E1B68072198470D4B4FF480621A600420032145
:2067400001E004200221FFF727FC114B114A1B6803F03F03137047F618020F4B1A80A3F523
:206760006433443B1B6810BD8C13005040A00C400C600840B03F005068A00C4080A00C40E5
:2067800008A10C40BD378600A83F0050B40100106C1300500BB00C4070B00C402DE9F74FF0
:2067A000774B07461B68774E13F0020F04D00823B371754A754BDFE001F048F9744B1D6897
:2067C0002A17AC0202F1010108D4C0F13E03DB10082BA8BF08239942B8BF194605F04073FE
:2067E000B3F1807F0AD16B4B1A681B68C2F30422152A88BF203AC3F304630AE0664B1A686B
:20680000664BC2F304621B68152A88BF203AC3F30443152B0A4488BF203B152A05DC6FF09D
:2068200009018A42B8BF0A4600E015225C4C02F01F0141F4F85121805A49096811F00304AF
:2068400018BF0124490748BF44F002040FB144F0040496F90710411A042903DC494989790E
:206860008C426FD0B0F10F01019104F00101DFF844A104F0040904F002080F462AD401992A
:2068800001EB01114FEA212EBEF1070F019101D804D101E04FF0070E062100E07146DFF8A3
:2068A00018B101315AF821C05BF82110C1EB0C0C5FFA8CF1B9F1000F02D0CCF3072B594473
:2068C000B8F1000F02D0CCF3074B59442FB101EB1C6102E04FF0000E71465AF82EA05FFAD8
:2068E0008AFCB9F1000F02D0CAF30729CC44B8F1000F02D0CAF30748C4440FB10CEB1A6CAF
:206900009B1A012BB8BF0123019F34225343A7EB0E277943EDB26B4380310CEB1121B3FB17
