:020000040000FA
:2000000000500020E1000000E5B40000C9000000E7B40000E7B40000E7B40000000000005C
:20002000000000000000000000000000E7B40000E7B4000000000000E7B40000E7B4000054
:2000400049270000E7B40000292C0000E7B40000591B0000B1220000E7B40000E7B4000028
:20006000E7B40000492C0000E7B40000E7B40000E7B40000E7B40000E7B40000E7B40000CE
:20008000E7B40000E7B40000E7B40000E7B40000E7B40000E7B40000E7B40000E7B4000088
:2000A000E7B40000E7B40000E7B40000E7B40000E7B40000E7B40000E7B40000E7B4000068
:2000C000E7B40000592E0000044B1A68B2F5806F03D01B689B0500D4FEE7704728ED00E03C
:2000E00008B508F00DFC0C4A0C4B0D498B4204D252F8041F43F8041BF7E70A480A494FF013
:2001000000028842B8BF40F8042BFADB00F052FCFFF7DAFF08BD00BFCED50000000000200C
:2001200021030020280300209629002010B5038804462BB1662B09D000230380032010BDDB
:2001400000F02CFC66232380012010BD034B1B788B42F9D1104600F0B9FBF3E78C2900204C
:200160002DE9F04100248046254608EB05035B7818F8056003EB0626B6B296B9002C12DBB6
:2001800001D001342CE0194C19482168194A0844C1F580710BF0D6FA236818442060012451
:2001A0001EE0002C0DDC75B1104F11483968124A0844C1F580710BF0C5FA3B68184438600D
:2001C00001E04FF0FF34094F09483968334608440A4AC1F580710BF0B5FA3B681844386081
:2001E0000235102DC1D1BDE8F08100BF60030020D1190020DCD00000DDD00000DFD000008F
:20020000F8B5838D0446DC2B68D009D8A42B16D0D62B48D0002B40F0D780A42383850EE07A
:2002200040F25112934200F0B780B3F5A97F00F0C28040F20312934240F0C6808AE004F13A
:200240002C006349332206F0D1FB012801D80020F8BD604960480BF03BF8604B0E221A6004
:200260005F4B186809F048F95E4B186006E05D4D5B4B296818680CF0A8FA2860594B574D44
:200280001868554EF0B1FFF76BFF2968564A7018C1F580710BF056FA2B681844D32828601D
:2002A000E5D9D623A3854C480BF070F84A49024604F12C0006F09AFB0128C8D9474B002263
:2002C0001A60D4E72968494A7018C1F580710BF039FA2B681844DC232860A3853E480BF049
:2002E00055F83D49024604F12C0006F07FFB0128ADD93A4B00221A6005F0E6FF3C4B1860A9
:200300003B4E364D3068344F002838D00830FFF727FF29683368374A781893F82430C1F560
:2003200080710BF00FFA2B6818442860306805F0BBFFFFF715FF2968336878189B69C1F58A
:2003400080712D4A0BF0FEF92B68184440F203132860A38520480BF019F81F49024604F143
:200360002C0006F043FB01287FF671AF204D1B4B002228681A600BF080FB2860C0E729682A
:200380001E4A7818C1F580710BF0DCF92B68184440F251132860A3850F480AF0F7FF0E491B
:2003A000024604F12C0006F021FB01287FF64FAF4FF4A973A38504F12C0011490F2206F0FD
:2003C00015FB01287FF643AF0023A3850320F8BDE2D0000016D10000D11900206003002034
:2003E000040100206803002036D1000025D100006403002038D1000042D100004AD1000092
:2004000051D100000048704701020000074B3F2210B51A70064C50225A700223238001F06F
:200420005DFD044A00232380137010BD7822002064220020D621002070B504880546B4F5E2
:20044000CF7F18D00FD854BB2F4B20461C702F4B5B6998472E4B85211868224603F056FB9C
:200460004FF4CF7319E040F2AF139C423AD0B4F5DE7F3ED013E0852939D1264B812001212F
:200480009B689847204B1B786BB9234880210BF071F9FFF7BBFF40F2AF132B8027E000236E
:2004A0002B80032070BD194B01205B6998471B480BF0AFF81A4C04F1600614F8022C237C7A
:2004C00052B1012B08D820200BF09CF8204606F01FFD0A200BF096F82034B442EDD14FF4C8
:2004E000DE73DAE70C480BF060F90028CAD1012070BD0C4B1B788B42F1D1064B9A42EED1CC
:200500001E200BF040FDEAE7D019002084D000000C0700200CCD00005003002061D1000086
:200520008E26002086290020034630B5154A85B000F1100553F8041BAB4242F8041BF9D1D6
:2005400003466C46224618685968083303C2AB421446F7D10C4B012468460C491C700BF0E2
:200560005BFA00216846224605F05CFC1E20694606F0E0FE18B1034940220BF056FB05B069
:2005800030BD00BF50150020D01900207022002008B54FF4E13001F083FB0448002103F08F
:2005A000DDFABDE80840024801F092BC74000020B505000030B52F4C85B023782546212BB9
:2005C00021D161782C4802F083FC2C4B002119802B4B19706378502B3DD1102268460AF0FD
:2005E00029FE6B4654F8020F616803C3254802F06FFC684606F08CFC0A200BF003F8684673
:20060000FFF792FF27E03F2B25D11F48617802F05FFC63784D2B19D12123237000231B4AC3
:2006200001331A4412F8012C1949140902F00F02645C525C05EB4300082B05F81340427099
:20064000EDD10E4B12221A8001F048FC0B4A002313800B4A13700F4C0F4A04F11005234676
:2006600003CBAB42106051601C4602F10802F6D105B030BD7822002099D10000642200200C
:20068000D6210020BFD10000CFD1000070220020EFD10000802200206015002008B50D4838
:2006A0000D4910220AF0BAFC78B90C4802F010FC094806F02DFC0A4802F00AFC094806F07E
:2006C00027FC0A200AF09EFF01E001F007FC002008BD00BF601500208022002000D2000094
:2006E00034D200009022002038B5038904469E2B0AD004D8002B50D19E23038104E0A32B9D
:200700001BD0BA2B41D048E004F10800202106F0CDF9012801D8002038BD04F1520021490E
:2007200004220AF061FE30B11F4B10221A7000232381022038BDA323238104F1080528467B
:20074000202106F0B3F90128E5D994F852302F2BEAD194F85330202B04D1144B1B88A4F8DF
:200760006C300DE028460BF08FF90023204480F8513004F1520104F16C0002220AF07EFE3C
:20078000012384F87430BA23238104F108000A2106F08CF90128F6D8BDE70023238103206C
:2007A00038BD00BF7DD30000042300203AD2000038B5838D0446632B0D4604D0762B11D064
:2007C000C3B96323838528460AF0E0FD2946024604F12C0006F00AF9012801D8002038BDE2
:2007E0007623A38504F12C0004491B2206F0FEF80128F3D90023A385032038BDF9D200007E
:2008000010B5B0F850300446882B21D003D83BB1862B12D04AE08E2B35D08F2B3CD045E0D0
:2008200003676D30FFF7EEFD206748BB224B1B88A4F86C308623A4F8503020461F49FFF775
:20084000B7FF012801D8002010BD8823A4F85030A38D13B1562B02D009E05623A38504F166
:200860002C001749582206F0C1F80128EBD9154A00231021A3851170A4F85030022010BD6F
:200880008E23A4F8503020460F49FFF791FF0128D9D98F23A4F85030236F2046984701289E
:2008A000D1D900232367074B10221A700023A4F85030032010BD00BF15D3000046D20000E5
:2008C00024D3000004230020A3D200002DE9F0412F4D04462B78A84613F0300601D11A069C
:2008E00009D5002C51D0002323672146BDE8F04128480AF0F1BF03F0400202F0FF073AB3AF
:2009000024480AF0D5FF044620B9202388F80030BDE8F081204B2146186804F1520506F0DD
:2009200047F904F10800294619220BF0B2F804F12C00294619220BF0ACF8A4F850602667E8
:2009400084F8746020464FF4A0610AF03EFF10E00028DAD01B070AD50AF049FF48B1202325
:20096000276721460B482B700AF0B6FF01E00AF038FF2046FFF7B8FE94F87430012B04D190
:200980002046BDE8F041FFF73BBFBDE8F08100BF04230020200000201423002008B54FF478
:2009A000A04006F0F1F8BDE8084001480AF070BF200000202DE9F041764C86B02368764851
:2009C0005B6801219847236801210A461B68724898470BF0A6FE01F0CFFE01F067FE00F097
:2009E000C1F901F09FFE00F091F96C4B01201860A3F58043043B186003F5005324331B68AE
:200A00000AF072FD0BF091FE01F022F800F0C0FF0AF0D9FE01F000F903F014F841F23420E8
:200A20000AF072FE01F0E0FB03F02EF95C480AF0F0FD00214BF2AC725A4802F049FA5A48E6
:200A40000AF0E7FD07F01CFE584C594D10F0040F14BFA046A84607F01BFE01280CBF274632
:200A60002F4607F00DFE10F0020F14BF26462E4607F006FE10F0080F08BF2C463A463346F7
:200A8000009441464B4802F023FA00214A4803F065F802F00FFE0AF06CFE02200AF024FDF6
:200AA000464802F015FA464B464C18680AF0B1FD454802F00DFA454B18680AF0AAFD444899
:200AC00002F006FA2168434802F002FAE469A04720B1A0470146404802F0FAF90A200AF05E
:200AE00091FD002608F0D6FD04A80821039601F0B9F89DF817309DF81640384D384F43EA67
:200B0000042404AB03CBD7F82C802860696002204AF6CD31C04721460320C0471A21012010
:200B2000C04708227B6B04A90B209847BB6A03A90120984703992B4802F0CAF92A4B214676
:200B40002A481C8002F0C4F9294A2B6813606B68536008F0DBFE3146264802F0FFFF022011
:200B60000AF0C2FC3146244802F0F8FF23480AF0F6FD01F067F801200AF0B6FC02F07AFF11
:200B8000044601F055F814F0FF0FF7D101F07EFCF4E700BFD8010010004003400C400940ED
:200BA00089D30000ACD30000C3D3000082D3000086D30000D7D30000E40000200AD400008A
:200BC00078D00000ACD0000011D4000084D0000018D400001FD4000022D400008E2900206C
:200BE000B4CD000045D400007015002056D4000070220020680100202C000020B8CC000081
:200C000070B505880446772D30D07E2D3FD0002D4DD102F00FFF294B1870294B1D601D46DF
:200C20002B68284A264E52F823204AB126480021C154936880209847336801333360EFE75D
:200C4000224A1370772320E01F4AD256002A12DB1B4A136801331360194B1C4A1B68127805
:200C60009342F1DB1A4B1B68002BEBD0184A00231360134AEFE7114A00201178114A52F831
:200C8000232002F043FF30B97E23238013E00B4B1B788B420FD10A4B0B491A688B5C03F022
:200CA0007F038B540A4A136801331360D0E700230380032070BD012070BD00BF86290020D4
:200CC000600400205000002087290020D31A00205C040020094B1A780023934204DA0849B6
:200CE00051F82310814207D106490748CA5C62F07F02CA5402F04ABF0133EEE7D31A002017
:200D000050000020872900202C00002008B500F075F8024B00221A7008BD00BFD41A0020A2
:200D2000024A13781843107000F082B8D41A0020034A137823EA0000107000F079B800BF84
:200D4000D41A002008B5064B04201B685B699847034B04201B685B6B98470128F8D108BDDC
:200D6000B8010010F0B591B00BF0DBFC0746FFF7E9FF1C4B4FF4A0601B68DB6998471A4B12
:200D800001221A60194B1B689A07FBD56C46184D0AF0F0FB174801F07DFC0FCD0FC40FCD0E
:200DA0000FC40FCD0FC495E80F0084E80F00ADF1040555F8044F631C0BD00F4E20463368AB
:200DC0009B6B9847336820469B694FF400519847EFE727B911B0BDE8F0400BF0A6BC11B04C
:200DE000F0BD00BFB80100102820086028200840CCCC00003C000020B401001010B5094BAC
:200E00001A686AB90122084C1A6023680620DB6B984723680720DB6B9847044BC0221A60E4
:200E200010BD00BF64040020B4010010A0200240074BC0221870074B1A60C20744BF402221
:200E400043F8102C830742BF034B80221A607047D51A0020A02002409020024008B5034B61
:200E60001B685B689847C0F3804008BDB401001030B9064B1868C0F3403080F0010070474B
:200E8000012806BF024BD86800207047C02002406804002030B9044B1868C0F3803080F0C7
:200EA0000100704700207047C0200240802870B5144602D0812815D070BD01239340164A76
:200EC000164D13602B6820469B6B98472B68204600211B68124A9847E0B21249BDE8704044
:200EE00001F00ABC0D4D81B1012393400A4A204613602B689B6B98472B6820461B68002176
:200F0000074A98472B681B6B01E02B685B6B2046BDE87040184700BFE0200240B40100106E
:200F200000400720290F00000D2838B51CD1144C20460AF05CFC08B3204604210AF045FC6A
:200F4000104B1D68C5F3403525B900F06BFDE560A06038BD00F066FDA368C01AE060BDE8F7
:200F600038400948FFF7B6BE0E2807D1BDE838404FF480414FF0805201F0C2B938BD00BFDE
:200F800068040020C02002400CCD000073B5194B00241868184B4FF4801501908DF8004009
:200FA0008DF8014001A81D60042100F0B9F8134E08B9356017E06846022100F0CFF83560B4
:200FC00088B19DF80030EF2B01D0C22B0DD19DF80100A0F11103012B09D9143801288CBF54
:200FE0000020012004E0FF2002E0204600E0012002B070BD73D40000A0200240902002404A
:2010000037B5052302AC04F8043D124B4FF480151D6000F0C7F82046012100F081F8A0B12E
:201020000DF10700012100F099F820B90A4B4FF480121A600BE09DF80730DB07F0D4064BDD
:201040004FF480121A60012001E0034B1D6003B030BD00BFA02002409020024037B50A210A
:201060000F4800F0B1F80F4B14201B680E4DDB6B98474FF48014AB2302A82C6000F8013DDE
:201080000A4B01211C6000F04BF808B1FFF7B8FF2C60FFF77BFF431E5842584103B030BD94
:2010A00000093D00B401001090200240A020024037B5FFF7A5FFC0B102A8B92300F8013D7E
:2010C0000C4B4FF480141C60012100F029F80A4B1D461C600A24FFF759FF30B1013C14F061
:2010E000FF04F8D14FF480132B6000F0CBF803B030BD00BFA02002409020024008B5064BAF
:2011000002201B685B6B9847012803BF034B186800F00100002008BDB8010010782008404D
:20112000F7B504460D46FFF7E9FF064688B12544AC420ED0084F14F8011B3B684FF08040AD
:201140005B6898473B684FF08040DB6801A99847EEE7304603B0F0BDC4010010F7B5044609
:201160000E46FFF7CBFF0546B0B12644B44213D00B4F4FF080403B6800219B68984708B9AC
:20118000054609E03B684FF08040DB6801A99847019B04F8013BE9E7284603B0F0BD00BF7C
:2011A000C401001007B5FFF7A9FF38B1054B01A91B684FF080401B699847F6E703B05DF853
:2011C00004FB00BFC4010010F0B5254B07461B6885B05B6902200E469847214D02202B6826
:2011E0005B6B984701280446F7D12B684FF48070DB6998471B4B1C601B4B1B689B07FBD5E9
:201200001A4A082413684FF0804023F00F031360174B03221A60174B00221B6800970194F8
:201220001D6815491346A847144B09221B6800965D6C4FF080404FF0FF332146A847104AF7
:20124000136843F0020313600A4B4FF080401B6803A91B6998470028F6D105B0F0BD00BF72
:20126000B801001028200860282008401400004020000040C4010010006CDC02B4010010CD
:201280000400004010B5174B4FF480701B681B6A9847154B01221A60144B1B689B07FBD578
:2012A000134C082023689B6B984723684FF400519B6908209847236809209B6B98472368E9
:2012C0004FF400519B690920984723680A209B6B984723680A209B694FF40051BDE8104092
:2012E000184700BFB80100102820086028200840B40100104FF6FF70094A4FF47A71D38971
:20130000128A4B4301FB0200A3F55223A3F6953303EB2043C820B3FBF0F0C0B2704700BF88
:201320006802002008B501F0B3FA20B1024B5888831E5842584108BD3802002013B501F01E
:20134000C9FB044601F0A4FA50B1064801A901F0A7FA012804D1638803F44063002BFAD0ED
:2013600002B010BD0100010437B5FFF7DBFF044628BB144D01A96880AB7F28465BB2C3F5AF
:20138000FF6307339BB22B8301F08AFA012814D10AF036F904466B889BB2022B05D16C8889
:2013A000A4B2A31E5C425C4107E00AF029F96FF03F031B1BC342EED4F1E7204600E00120FB
:2013C00003B030BD3802002008B50346B32994BF0A46B4220248194609F052FE002008BDE1
:2013E00092040020084B70B51D461C6800262379032B03D10548013602F0C8FB24682B68BC
:201400009C42F4D1304670BD8404002098000020F8B5114B1D681E462A79032A19D12C89C5
:20142000023C002C10DD8C4205F10A0703DC3946224609F025FE3957042089B208F03CFA81
:2014400003207F2108F038FA2B68336000232B7100E000242046F8BD8C04002007B5FFF739
:2014600061FF90B10B4801A901F01AFAFFF75AFF0028FBD1084B5888A0F55050043880B2B0
:2014800001288CBF0020012000E0012003B05DF804FB00BF010001043802002013B50C4C50
:2014A000052384F824300B4B20461B6801A99B88638301F0F5F9012806D1204601F030FAE2
:2014C000431E5842584100E0002002B010BD00BF800200207000002007B5084801A901F061
:2014E000DFF9012806D1054801F01AFA431E5842584100E0002003B05DF804FB680200209D
:2015000008B501F0CDFB01280CD0FFF7A7FF01F027FB01F075F9044A00235380034A13712D
:20152000034A1371012008BD3802002048050020D405002038B501F0B3FB012801D101208C
:2015400038BD0AF0AFF8FFF7EDFE0028F7D101F09FF9054620BB01F0F9F90128044602D04D
:2015600001F0FEFA25E018494FF42372174809F087FD174B022203F81B2C032203F8192C3B
:2015800004229A770522DA76062203F80F2C114A1D7003F8174C1A6301F0A2FA0128DFD116
:2015A000002001F045FA01F011F9FFF777FF012801D0002038BDFFF78FFF0128F9D1BDE849
:2015C0003840FFF7D1BE00BFECCD00001C04002190030021BD05002138B50C46072805D873
:2015E000DFE800F00611040461042F46012038BD012905D1FFF79EFF012854D0032038BD2D
:20160000002952D14CE021294FD8FFF773FEE3B2984248D0C820604300F5522000F6953046
:201620004FF47A75B0FBF5F3224C99B204FB03031B04B3FBF5F3204A1184204AD181138222
:2016400018E001F10A03182B2FD8FFF777FE0F231B49DA0051F83300844203DC8B18194A47
:20166000136002E013F1FF33F2D209F096FF1AE0154B1970FFF756FE28B9FFF75BFF012806
:20168000BCD1054600E00025FFF7E8FE012814BF0324002409F081FF012818BF032435B1C4
:2016A000FFF72EFF03E0002038BD022038BD204638BD00BF18FCFFFF8002002068020020A0
:2016C0002CCD0000700000201E03002073B50C46002950D0102850D8DFE800F0090F4F4FB0
:2016E0004F4F14181C4F4F4F4F4245474A00FFF719FE003018BF012001E0FFF7FBFD20602C
:2017000000203BE01E4B1B681B6832E01D4B93F900302EE0FFF706FE28B9FFF70BFF0128D7
:2017200016D1064600E000260023019340F2034301A86946ADF8043001F0B2F801280CBF81
:201740009DF8025080250EB1FFF7DAFE6BB201E06FF07F03236080330CBF032000200DE060
:20176000002008600AE0212303E06FF0090300E00E232360C4E7022000E0012002B070BD24
:20178000700000201E03002073B50446FFF7CAFD28B9FFF7CFFE012835D1054600E0002526
:2017A0001B4A231D1B4E9BB202341370A4B21B0A53703482F261FFF751FE0020014601F031
:2017C00069F9304601A901F06BF880B100F030FA738803F4406313B900F04EFEF8E70D4B14
:2017E0005C88A4B2B4F5505418BF012400E00124002001F063F900237380FFF7B5FD25B160
:20180000FFF77EFE01E0012000E0204602B070BD90040020A802002037B501F041FA012870
:2018200028D001F035F830B9FFF784FE012808D0FFF766FE1DE0104B5B88022B19D0002560
:2018400000E0054680240D4801A901F029F8012803D19DF806406306F5D00DB1FFF750FEA0
:20186000074B60B293F900308342D4BF0020012000E0012003B030BDA8020020010003043C
:201880001E03002038B5244800F004FF06F000FF012801D000243CE0204C214D01F0ACF81D
:2018A000204600218C2209F0C5FC284600218C2209F0C0FC4FF000024FF00003022161F34D
:2018C000830261F383036A71164A63718423E380EB801460144B154A25602C6000251C6041
:2018E00093625D60124BD362124B4FF459721A84114BDA8145F233321A82FFF71BFE012874
:201900000446C7D10D4801F089F90D48294602F025F9204638BD00BF5C0000204805002046
:20192000D40500208C0400208404002038020020780400208002002068020020ACCD0000BB
:201940009800002008B5064B04201B685B699847034B04201B685B6B98470128F8D108BD26
:20196000B80100100749084A0B68126809688B42F8D1DB01054903EB52620023C1E900234C
:20198000704700BF082009400C2009402803002010B51A4B00200021C3E90001184C042000
:2019A00023685B6B9847012801D0FFF7CBFF23680020DB699847134B01221A60124B1B6894
:2019C0009B07FBD5114A124C1368204623F4807323F0010313600F4B0F491B681B689847D0
:2019E000042323600D4B31221A6040F2212243F8342C0B4B01221A6010BD00BF280300203E
:201A0000B801001028200860282008400C00014000000140C8010010002100043C000140B4
:201A20000400244308B5FFF79DFF024BD3E9000108BD00BF2803002010B50AF072FE034B96
:201A40001C6808B90AF071FE204610BD082009402DE9F0410AF065FE1D4F1E4B0124002571
:201A60004FF480723D601C4E1C601A604FF480321A60336880461B682846232198473368B5
:201A800020461B6824219847336802201B6825219847124A136843F4E0231360104B1D6078
:201AA00006F0DEFD0F4B00F5007018600E4B14201C600E4B3C601B681B699847B8F1000F82
:201AC00003D1BDE8F0410AF030BEBDE8F08100BF00002443042009408401001000200940CD
:201AE000082009401C200940A0022443B0010010431E012B10B501D904281AD110F00102E0
:201B00001CBF0C4B196010F002031CBF0A4C216010F004001CBF094C216012B1084A012177
:201B2000116013B1074B01221A6010B1064B01221A6010BD182009401C2009402020094076
:201B400080022443A0022443C0022443014B1868704700BF6006002008B509F051FD154B3E
:201B6000186009F03DFD144B1B686BB1134B4FF480721A6006F074FD00F2052020F4FF70AE
:201B80000F4B20F0010018600E4B1B683BB10E4B00221A60094B01221A6002F015F80B4B5F
:201BA0001B6833B10A4B00221A60044B4FF480321A6008BD60060020A00024430420094050
:201BC0001C2009408000244380022443C0002443C0022443820742BF034B01221A60C30721
:201BE00001D50AF0A2BD7047000C084008B50AF098FD074B1A68012A09BF064A00231A60AB
:201C00000223002814BF184643F0010008BD00BF000C084051E5CC1A034A044B1A600122E5
:201C2000C3F8002C704700BFFFFF0F0000000840024A034B1A600122DA607047FFFF0F00BD
:201C40000000084010B5FFF7D1FF0446FFF7F0FF034B01221A602046BDE81040FFF7BABFCD
:201C6000040100430A4B13F8012FFF2A04D1094A9342F8D1084B00E0084B194401389942A6
:201C800004D001390A7800F8012FF8E7704700BFC7FF0100CFFF0100F0120050C8FF010087
:201CA000014800F0C9BA00BF391F00002DE9F74F0388064633B1B3F5A57F11D000230380E7
:201CC0000320E9E0764A1380764A1380764A1380764B01221A704FF4A57333800120DBE0C7
:201CE00082294FF0010AF9D1DFF8BCB17048BBF80050704B425D83F800A0432ADFF8A0814C
:201D0000D94607462AD1674B1A88954226D2521B052A23DD00EB050C604667490622CDF85E
:201D200004C009F07BF9DDF804C00446B0B960462146062209F07EFA5A4BA8F800401C805F
:201D40005A4BABF8004083F800A05C4B185D013409F089FC0D2CF8D1002491E0B8F80020AA
:201D60009542F9D002D300231C462CE000247B5DDB2B04D052490B550134A4B201E00123FC
:201D800000E000230135ADB2954251D28C2C01D900244DE0002BEAD07B5DDD2B01D1DB213B
:201DA00002E0DC2BEDD1C021454B1955E4E78C2C1CD85BB9795DDB2916D04148015501343E
:201DC000A4B20135ADB29B2DF1D910E07B5DDD2B01D1DB2102E0DC2B04D1C021384B195558
:201DE0000134A4B20023ECE70123EAE70024002188B290421CD28C2CCAD863B17B5CDD2BE1
:201E000001D1DB2002E0DC2B0DD1C0202C4B18550134A4B207E0785CDB2806D0284D285559
:201E20000134A4B202E0002300E001230131DFE7013292B29C2A04BF0023A8F80030194BBF
:201E400018BFA8F80020B8F8002019888A4215D0104603468B4211D0F85CC02807D1194807
:201E6000A8F80030A9F8002001F090FE08E001339BB29C2B4FF00000ECD1EAE7A9F8002094
:201E8000114B1C80002C3FF426AF104B1B6803B1984704F0A9FE1EE703B0BDE8F08F00BF6F
:201EA000741500207215002076150020D61A0020D71A00208A29002077D400007ED4000096
:201EC00078220020740000206422002064060020014B1860704700BF6406002038B5C020F3
:201EE00009F0C1FB114B00241149A2B20988914216D93C2A04BF0F4B1B6818785D1CC028B5
:201F000004D1DB2009F0AFFBDC2004E0DB2802D109F0A9FBDD2009F0A6FB01342B46E3E7F4
:201F2000C02009F0A0FB002038BD00BF78220020642200201023002038B5254B1A781C4655
:201F4000022A06D0032A12D1C02804BF01221A703CE000F12402D2B2012A06D903221A70A7
:201F60001C4B1A881C4B1A8030E0012302E0DB2801D102232370184B174D1A88511C89B2A3
:201F80009C2908BF0021198014491B8809888B4205D1032323700F4B1B882B8016E0104B15
:201FA0005428985407D15B5C432B0FD10D4801F0EDFD012038BDC02808D1064B1888824220
:201FC00003D08142F2D11A80F0E72A80002038BDD61A00207415002072150020761500206D
:201FE000D71A00207400002038B50C4B02201B685B699847094D02202B685B6B98470128D7
:202000000446F7D12B684FF40070DB699847044B1C60044B1B689B07FBD538BDB801001078
:20202000282008602820084008B5064B02201B685B6B9847012803BF034B186800F001005E
:20204000002008BDB80100106C20084008B5084B15201B685B699847064A136823F4FE6350
:2020600023F00203136040F2F272034B1A6008BDB0010010381000404410004037B5284C75
:20208000FFF7B2FF2368274DDB6827489847FFF7DDFF2B680320DB6B9847244B08221A6049
:2020A0002B68122200921D6C1F48022103221323A84723681C485C681D494FF4E132602378
:2020C000A0471C4B14221A601B4A1C49136843F01003136040F2011240F2013308680028C1
:2020E00008BF134602F1804202F62F72136040F2F272134B1A600B687BB102F1804202F645
:2021000046021368152043F0500313600D4B1B681B6903B0BDE83040184703B030BD00BFE9
:20212000D0010010B40100100010004090200240006CDC02341000402C10004068060020DF
:2021400044100040B001001038B50546FFF76CFF18B11E4B1B681A07FBD4032D03D01C4B82
:202160001B68002B30D1FFF75FFF30B1194B1A481B68DB689847FFF769FF184C4FF400709B
:2021800023681B6A9847032D09D123684FF400709B6A984723684FF400701B6B9847104B26
:2021A00001221A600F4B1B689B07FBD5032000F08DFA022000F08AFA132000F087FABDE8BA
:2021C0003840122000F082BA38BD00BF1810004068060020D001001000100040B801001085
:2021E000282008602820084010B50AF09AFA0446054800F04FFA054B00221A601CB9BDE816
:2022000010400AF092BA10BD840000206806002010B50446FFF708FF08B9FFF72FFF044BE9
:202220002146BDE810401B680248DB69184700BFD001001000100040124B10B51860124CEA
:20224000124B40B9186123684FF400709B6A984723681B6B08E002221A6123684FF40070B7
:202260005B6A98472368DB6A4FF400709847084B01221A60074B1B689B07FBD5BDE810402C
:20228000FFF7FCBE68060020B801001084000020282008602820084008B5FFF7C5FE18B114
:2022A000024B1868C0F3C00008BD00BF1810004008B5FFF799FE40F2F2710B4B0B4A1B68E5
:2022C000116013F0500F0AD108BD094B09481B681B699847084B1B680BB1C0B29847074BCB
:2022E0001B68DB06F1D508BD4010004044100040D0010010001000406806002018100040A4
:202300002DE9F34740230024164601930746884600940AF006FA454B01221C60444B1A6015
:202320004FF480721A604FF480321A60414B20461B683F211B6801349847042CF6D10024F8
:202340003C4B20461B683F219B6801349847032CF6D1394D2B68FFF76BFC384809F058FA5F
:2023600004462CB1A3680BB1032098472468F8E77B1C0DD0324BBA0013431C60314B46F0D3
:2023800000521B6838461B68214642EA08029847DFF8DCA000242C4ECAF800403368072036
:2023A0009B699847684608F0B3F800F029FA09F05CF9264A264F1368382023F00303136044
:2023C0009368DFF8B09023F00F03936033684FF001089B6998473C60012008F0BBF81D4B3D
:2023E0003C60C9F80040C3F800801B4B1B4A1C605C601B4BCAF800401C602B6813681948AF
:2024000023F003031360184B03211B685B689847164B3C60C9F80040C3F800802B6833681D
:202420009B6B984702B0BDE8F08700BF0000244304200940840100102C2009406C0600209A
:20244000001A4442B4010010B8010010001009404010094088010443400122432422084058
:202460000800094000400340D8010010181009400C40094020042243034A136823F004032E
:20248000136030BF704700BF10ED00E0F8B50AF048F901F031FB002840F0D5806F4809F025
:2024A000B7F90646022546B1736823B19847A84228BF2846C5B23668F5E709F0A1F8684BFF
:2024C00004461B6863B1674B1B681B1A022B04D4A3F28F23002B03DA0126B54228BF3546DD
:2024E00001F008FA28B301F00DFA0646FFF79AFA361A002E40F3A780FFF728FB5A4A00EBC0
:202500004623121BDA4200F1A280012085421BD16FF00702121BDA4202D504F1080106E0B6
:2025200004F58031CA1A11EA220138BF1946022005E0012D034607D1022004F58031FFF781
:20254000D7FAFFF799FF7EE0022D7CD110B12846194601E02846611EFFF7CAFA3F4809F0AC
:2025600057F90446062544B1A3680BB1022098472369246825EA0305F5E73C4EFFF758FBFB
:2025800005F0060715F0040F18BF346027B1384B38461B689B69984700F032F9002007F045
:2025A000D9FF344A3920136823F003031360936843F00F0393602E4B1B689B6998472E4BDA
:2025C0000020186018602D4B186006F0D7FC062F02D1022006F014F9294C2A4D2A4F2B680D
:2025E00023682A4823F0030323603B6803215B6898471F4B1B689B6B98472B6806F0CEFDB3
:20260000234B00221A603B68204801215B689847236843F003032360012333602B6806F05A
:20262000EDFD07F061FF08F0DBFFFFF701FB0B4809F0EEF8044624B1E36803B198472468DA
:20264000F9E70AF072F8BDE8F8400AF06EB8022D3FF45EAF012DF6D15AE700BF6C06002043
:20266000800224431820094071FDFFFF0C400940B8010010001009404010094020042243AB
:20268000242208402C200940D801001000400340800104430146014809F0D8B86C06002038
:2026A0000146014809F0BEB86C06002010B5054809F0ABF8BDE81040034B03201B682021B1
:2026C0001B6818476C06002084010010431C10B504460BD0064B4FF4C0421B6800211B68EB
:2026E0009847044BA400234300221A6010BD00BFB4010010001A444238B504460D460AF091
:2027000010F80123054AA3401360054B43F8245018B9BDE838400AF008B838BDE02002400A
:20272000700600200023064A002142F823100133202BF8D1034B10201B681B69184700BF17
:2027400070060020B001001038B5094B00241D681D600123A3402B42E0B204D0054B53F846
:20276000243003B198470134202CF2D138BD00BFE0200240700600201FB50023029302A86C
:202780004123039307F0C4FE042006F023F8032812D00420032105F0EFFF042006F01AF8ED
:2027A0000328FAD1074B00211B6800905C6806484FF040521C23A04702A807F0FFFE04B042
:2027C00010BD00BFA401001000A00C4007B54123002268468DE80C0007F09AFE012005F0B6
:2027E000F9FF012803D0054B986B05F025FF684607F0E4FE03B05DF804FB00BF48000010D4
:2028000013B54123002468460193009407F080FE0320214605F0B0FF012005F0DBFF18B136
:20282000044B986B05F008FF684607F0C7FE02B010BD00BF4800001010B5038804463BB1C4
:2028400040F21A22934207D000230380032010BD40F21A23238001E0822901D0012010BD6B
:20286000FFF7E6F906F0CEFF06F062FF064B80211B6998470028EBDD80B206F03DFF034B72
:202880001B699847ECE700BFB4CD0000ACD00000024B186800F00100704700BF9C2108400D
:2028A000F8B510F0030504460F4605D103881A0503D54580012500E0002509F032FF061C30
:2028C00018BF0126FFF7E4FF20B90EB908F001FF0020F8BD55B1238813F4405F06D003F490
:2028E0004063B3F5006F04BF0A4B1C600A4B1C604CF25133094A013B12683A60E5D012F09D
:20290000FF0FF7D00EB908F0E4FE3878431E58425841F8BDF0060020001004400410044086
:20292000094B013B0DD0428802F44062B2F5806FF7D1408800F44060A0F580635842584163
:2029400070471846704700BF21A1070037B509F0E8FE224C0546236819201B6A98472368EC
:2029600012201B6A9847236819205B699847236812205B6998471A4B01201B685B6998474E
:20298000174B01201B685B6B98470128F8D1154B186003F10053043B1860134B1B689A0742
:2029A000FBD5124A00230D4C13605360236819201B699847236812201B6998470DB908F044
:2029C00088FE0B4B07221A6001A90A48FFF768FF431E5842584103B030BD00BFB00100106B
:2029E000B80100102C2008402820084010100460000004600100060408B505F06FFE0528AB
:202A000002D10A4B186007E0032801D1022201E020B90322054B1A60012008BD012803BF94
:202A2000024B05221A60002008BD00BFD021084038B50028144C18BF0024FFF729FF08B382
:202A400009F06FFE0546114B4FF000421A6043F8044C00220E4C43F8082C236819201B6AAF
:202A60009847236812201B6A9847236819201B699847236812201B6998471DB9BDE838401C
:202A800008F027BE38BD00BF0000808018100460B0010010002814BF08220222044B002997
:202AA000044918BF00230B601343034A13607047000080801010046014100460034B002815
:202AC000034A18BF00231360704700BF0000808014100460014B1868704700BFF0060020E6
:202AE0007FB5142101A840F60A0208F0F9FD0A4B01A81B6869460593FFF7D2FE012806D106
:202B000001A8FFF70DFF431E5842584100E0002007B05DF804FB00BFF80600207FB5142125
:202B200001A840F6090208F0DBFD01A86946FFF7B7FE012804D101A8FFF7F2FE012801D051
:202B4000C0B206E0044B1A781AB91870059A034B1A6007B05DF804FB731B0020F8060020A3
:202B600030B587B009F0DDFD274C0546236819205B699847236812205B699847FFF788FE65
:202B800090B1224A0023136002A85360102140F60D0208F0A5FD02A801A9FFF781FE012893
:202BA00002D102A8FFF7BCFEFFF7B8FF184B00221A6003F100530122043B1A60154B1B6836
:202BC0009B07FBD5144B01201B689B699847124B01201B685B6B98470228F8D10A4C192075
:202BE00023681B6A9847236812201B6A9847236819201B699847236812201B6998470DB9B8
:202C000008F067FD07B030BDB0010010101004602C20084028200840B8010010014B1860BE
:202C2000704700BFF406002008B5FFF731FE20B1044B6FF000421A6008BDFFF787FE01287E
:202C4000F6D008BD1010046010B5FFF721FE60B1104C09F066FD23681B020ED56FF40003D1
:202C600023600D4800F092FF07E00C4808F0D1FCFFF76CFE0128EBD010BD236813F00A0F43
:202C80001EBF044B6FF00A021A60BDE8104008F020BD00BF101004609800002098D40000F2
:202CA000014B1878704700BF741B0020034B1B68002B14BF01200220704700BFFC06002069
:202CC00038B5064B02201B6800241D46044B1B685B689847201845F1000138BD04800240EC
:202CE000CC01001008B5064B04201B685B6B9847012803BF034B1868C0F34000002008BD0C
:202D0000B80100103C20084038B5038804461BB3B3F5847F03D000230380032038BD114B1E
:202D20001B788B421BD1104D2B682BB1FFF7C8FF2B68984700232B600C4B40F201401B6851
:202D40009B6A98470A4B01221A600A4B1B689B07FBD50948FFF7A4FC4FF48473238001206E
:202D600038BD00BF1F030020FC060020B80100102820086028200840A800002038B50C4B26
:202D800004201B685B699847094D04202B685B6B984701280446F7D12B6840F20140DB69B2
:202DA0009847044B1C60044B1B689B07FBD538BDB8010010282008602820084070B51F4B98
:202DC0001B688BB100231E4A995C39B10021D1541C4A02EBC30393E8030070BD0133042B5D
:202DE000F1D10020014670BDFFF77CFF08B9FFF7C5FF154A154B116814460B406BB9144B31
:202E000001221A6018680028FCD102464FF4807106F030FA0F4B01221A6009F082FC06464A
:202E20002368DB07FCD5FFF74BFF05460C460EB909F07BFC2846214670BD00BFFC0600205D
:202E4000751B0020300300200880024001000080F09F0240A802504238B50E4D00240E4A53
:202E60002C601368312023F0010313600B4B1B685B699847204622464FF4807106F0FAF909
:202E800001232B60064B224619780648BDE8384000F03CBEA80250420C800240B001001019
:202EA0001F030020BC00002010B5074C2378802B08D100F0BFFD207000210448BDE810401F
:202EC00000F04CBE10BD00BF1F030020BC0000200FB407B504AA52F8041B0448019200F0E9
:202EE00035F803B05DF804EB04B07047CC0000201FB5084C8DE80300114602A81A460294C0
:202F0000CDF80CD000F022F8009B00221A7004B010BD00BF1DB7000070B505460C46102CAD
:202F200007D92B68686808491022984750B9103CF5E734B12B6868682246BDE8704002496B
:202F40001847204670BD00BF1BD500002DE9F04F80468FB0069107920026069B1B78002BC1
:202F600000F05F83069B1C4613F8012B1AB9069B9C4203D10FE0252AF5D1F8E7069BD8F8CB
:202F80000400E51A0699D8F800302A469847002840F02A832E442378002B00F04283637873
:202FA000611C002B00F03D8300240A4611F8013B2B2B11D006D8202B11D0232B12D144F05A
:202FC0000804F2E72D2B04D0302B0BD144F01004EBE744F00104E8E744F00604E5E744F049
:202FE0000204E2E7A3F1310108290DD8134600251A4613F8011BA1F13000092811D80A2219
:2030000002FB0515303DF3E72A2B09D1079B01321D68191D002D0791B8BF44F0010400E03E
:20302000002513782E2B1CD15178531CA1F1300009280ED8194600270A780B46A2F130006D
:20304000092801F101010FD80A2303FB0727303FF2E72A2906D1931C079A111D0791176804
:2030600002E013464FF0FF371A786C2A09D15A786C2A02D144F080040AE0013344F06004F5
:203080000BE0682A09D15A78682A03D144F02004023302E0013344F040041A78642A3CD05A
:2030A0001FD8462A48D00DD8252A5AD003D8002A00F0B78257E0412A4AD0452A53D144F47E
:2030C000424450E0582A31D004D8472A4BD144F4A13448E0612A38D0632A44D144F4A064A8
:2030E00041E06E2A3AD007D8662A22D027D3672A28D0692A11D036E0732A2CD006D86F2A8F
:2031000011D0702A2FD144F440742CE0752A07D0782A28D144F4C85425E044F4245422E020
:2031200044F410641FE044F488541CE044F4B24419E044F4007416E044F4844413E044F4E0
:20314000024410E044F481340DE044F4C1340AE044F4E13407E044F4806404E044F4E06498
:2031600001E044F4C0640133069304F4E063B3F5806F00F0AA8116D8B3F5807F2BD0B3F520
:20318000407F7FF4EAAE079BA04914F4804F03F104029F4818BF08460DF1330107920F46DD
:2031A0001A680023C5E1B3F5C06F08D0B3F5E06F00F03182B3F5A06F7FF4CFAE00E2D8F822
:2031C0000030D8F80400934901229847002840F00B820136C1E6002FACBF24F01004012760
:2031E00014F40053039304F0E00337D0402B17D008D8DBB1202B2AD1079B1A1D079293F9FE
:20320000002017E0602B11D0802B20D1079B073323F0070303F108020792D3E900230AE036
:20322000079B1A1D0792B3F9002003E0079B1A1D07921A68D317002A73F1000109DA524289
:2032400063EB4303CDE900234FF0010933E000220023CDE900234FF000092CE0402B16D0E2
:2032600007D8CBB1202B20D1079B1A1D07921A78EEE7602B10D0802B17D1079B073323F0F1
:20328000070303F108020792D3E90023E1E7079B1A1D07921A88DBE7079B00211A1D07927D
:2032A0001B681846CDE90001D5E700220023CDE900234FF0000904F4C053B3F5805F0CD0E6
:2032C000B3F5C05F33D0B3F5006F4FD1DDE900230DF1360ACDE9042304E0DDE900230DF11E
:2032E000360A15E0DDE9042313433AD0DDE904010A22002307F0BAFBDDE9040130320AF857
:20330000012D00230A2207F0B1FBCDE90401E9E752EA030125D002F0070130310AF8011D52
:20332000D10841EA4371D8080A460346F0E7384B14F4804F0DF1360A344908BF1946DDE984
:20334000002352EA03000CD002F00F00085C4FEA131E0AF8010D100940EA03700246734699
:20336000EFE70DF1360BCAEB0B0B03E00DF1360A4FF0000B41F6080241F208035F4502EAF3
:2033800004028CBFCBEB070700279A4202D1002F08BF012741F608018A4207EB0B030DD13A
:2033A000DDE9000150EA010208D01B4914F4804F1A4A4FF0020C18BF0A4602E04FF0000CF1
:2033C00062460399A1B1B9F1000F0AD104F0060102290AD00629124904BF4FF0010C0A46DA
:2033E00006E04FF0010C0F4A02E00F4A4FF0010C63449D428CBFED1A002514F0010922D1BD
:20340000E30613D52F444D461DE000BFF7D40000EFD1000019D500000BD5000008D50000E3
:2034200010D500000ED5000016D4000040462946CDF80CC00092FFF76FFD009ADDF80CC025
:20344000002840F0D180BCF1000F0DD01146D8F800306246D8F80400CDF800C09847DDF81E
:2034600000C0002840F0C0803C465E44102CD8F800300DD9D8F804006C491022CDF800C06E
:203480009847002840F0B080103CDDF800C0EDE75CB1D8F8040065492246CDF800C09847B5
:2034A000DDF800C0002840F09F80D8F80030D8F8040051465A4666449847002840F0948000
:2034C0003E44B9F1000F79D073E0079BD3F800A01A1D0792BAF1000F09D05346994699F89C
:2034E00000200133002AF9D1CAEB090903E0DFF840A14FF00609002F02DBB94528BFB946E4
:203500004D458CBFC9EB0505002514F0010405D140462946FFF700FD002865D1D8F80030C6
:20352000D8F8040051464A46984700285CD14E443EE052EA030E0ED002F00F0E10F80EE07C
:203540004FEA131C01F801ED4FEA121E4EEA037E72466346EDE70B467F1A01BF30220127A1
:2035600001F1FF3301F8012C03377822BD4203F8012C4FF0300203F8022C88BFED1B4FF0DE
:20358000230298BF002514F00104A3F1030903F8032C04D140462946FFF7BEFC20BBD8F892
:2035A0000030D8F8040049463A469847E0B93E4424B140462946FFF7AFFCA8B92E44CCE410
:2035C000079B012D03F104021B688CBF05F1FF35002514F0010407928DF8203008D140462E
:2035E0002946FFF799FC10B14FF0FF301AE02E44D8F80030D8F8040008A901229847002887
:20360000F2D16F1C2CB140462946FFF785FC0028EAD13E44A1E4079B1A1D1B6807921E60B6
:203620009BE430460FB0BDE8F08F00BF2BD5000012D50000F8B50388064615462BB14A2BDC
:2036400015D0002303800320F8BD174808F0E0F804462CB1201DA16808F08CF82468F8E784
:20366000124B01221A704A2333800120F8BD8829FBD10D4808F0CCF80446002CF3D0231D43
:203680009D420ED10848214608F0CCF8084B62691F681A60A2691D460AB1E06990472F6002
:2036A000E1E72468E9E700BF00070020791B00200C07002010B5064B002406481C7008F00D
:2036C000A4F82146BDE81040034800F047BA00BF791B002000070020D400002070B50446B9
:2036E000E3610B4B049D1B786561A26143B1094D094B2E68201D2B6008F03CF82E6000E09D
:20370000A1602146BDE87040044808F09FB800BF791B00200C070020D40000200007002090
:2037200013B5034C24680094FFF7D8FF02B010BD0C07002070B5094B05461B783BB1084C3C
:20374000084B26680430236008F01DF826602946BDE87040044808F079B800BF791B002092
:203760000C070020D40000200007002070B5094B05461B783BB1084C084B266804302360CC
:2037800008F00AF826602946BDE87040044808F05DB800BF791B00200C070020D4000020F2
:2037A0000007002010B5084B04461B781BB1043000F0B2F801E0C36003612146BDE810408F
:2037C000024808F02FB800BF791B00200007002010B50E4C236813B90D4A136010BDFEF724
:2037E00021F9216891E80C001A44131A8A6842B192E812002144091A8B4228BF0B4692681E
:20380000F5E71844024B186010BD00BF0407002008070020014800F0B9B900BFE400002057
:20382000F8B5038805462BB1592B09D0002303800320F8BD1E4A136059232B800120F8BD76
:20384000872920D08229F7D1194F00263C68002CF2D0204607F0CBFF90B1E0688821224674
:2038600000F054F950B9E060A3680EB1B36000E03B600023A360FFF7ABFFE5E7FFF7CAFF19
:203880002646A468E3E70A490B680BB90B60D3E7D868904201D19B68F7E70B6099680029DD
:2038A000CAD0C86890420ABF89680B469960F5E70407002010B50446FFF7ACFFE3680B4A11
:2038C0004BB113683BB1A34203D1094A1268DA6007E09B68F6E7064B1B68E36013681460F8
:2038E000A360BDE81040FFF773BF00BF040700200C070020024B1868003018BF01207047DF
:2039000004070020024B186808B1024B18687047040700200807002010B50B4A0446136839
:20392000984206D18368136008E09A68A24203D01346002BF9D103E0A2689A60FFF748FF65
:203940000023A360E36010BD0407002038B5836804460D469BB10A4804600220A07304F165
:203960000C0098470238012801D9832D05D120462146BDE8384000F005B80123A37338BDD3
:203980000C0700202DE9F8431C4A0446156889462B4690461A4E3768A34204D00BB11B6861
:2039A000FAE7BDE8F88334B3A37BABB10023A37345B1AC4204D028468721224607F0FDFE44
:2039C0002D68F5E7A3683BB14C4505D0346004F10C0083212A469847D8F800309C4203D1DF
:2039E0002268064B05E0134623B11A68A242FAD122681A603760BDE8F88300BF10070020F8
:203A00000C07002010B5094B00221A70084B1C685CB1E37B3BB101230022A373E273204669
:203A20008221FFF793FF2468F2E710BD7C1B002010070020024B1878421C1A70704700BF00
:203A40007D1B0020064B8A221A70064A00231370054A1370054A1360054A1360704700BF65
:203A60007D1B00207A1B00207B1B0020100700200C0700202DE9F0411A4D2B780BB1FFF7B6
:203A8000C1FF194C22783AB3184E0C213378184F5943781817F8018001334768806803F05B
:203AA0001F03013A3370227068B9124B1E689EB12B780BB1FFF7A6FF304641463A4607F0B3
:203AC0007CFE3668F3E7B8F1810F04BF0123837341463A4607F071FE2B7820781844BDE835
:203AE000F08100BF7C1B00207B1B00207A1B00201407002010070020024A034B10781B784D
:203B0000184470477B1B00207C1B0020F0B50B4E3378202B0FD00A4C0C252478094F1C4477
:203B200004F01F046C4301333D19A86039556A6033700020F0BD0120F0BD00BF7B1B002022
:203B40007A1B00201407002038B5034C256807F034FE256038BD00BF0C07002010B50A4602
:203B600009490C68234683420DD00BB11B68FAE748B1046008600121817383818121BDE82E
:203B80001040FFF7E1BF10BD1007002038B1837B013B012B9FBF024A0123C37313707047AE
:203BA0007C1B0020024610B5064853600468029B11609360026014B9084607F01DFD002025
:203BC00010BD00BF9408002010B5084C206858B100232360816843689847236823B1BDE8D6
:203BE0001040186807F008BD10BD00BF9408002038B505880446672D09D0792D2ED0002DEF
:203C000032D1FFF717FF1B4B18701B4B1D601B4807F09BFE431C01D167231DE00A28164B86
:203C200007D01A687E2AF2DC511C1960144B9854EDE7196800254A1C1A60114A0D4B5554CE
:203C400028461978FFF762FF0E4B852118682A46FFF75CFF20B97923238009E0852907D147
:203C6000054B00221A60D2E700230380032038BD012038BD8B290020A0080020980800206F
:203C8000FE1B00200C07002008B505480549802207F054FEBDE8084003480021FFF75EBF09
:203CA000980800207E1B0020F40000200C4AB82303FB0022002330B553821A46094CE1189B
:203CC0008D782DB11C5D844202BF00248C70013240F24C5171338B42F0D1104630BD00BFAB
:203CE000C0080020891C002008B5064802F046FF054B01221A70FD2100225A709970DA707B
:203D000008BD00BF513F00007F1C002010B513780446087A83F0020398421DD1487A5378EB
:203D2000984219D1887A9378984215D1C87AD378984211D1087B137998420DD1487B537953
:203D4000984209D1887B9379984205D1C87BD379984201D103201BE00B890F4A6BB94B89B2
:203D6000B3F57F4F09D18B89FE2B06D11368C989022023F8021B13600AE0136851F8080F80
:203D8000083343F8080C486843F8040C13600120A040C0B210BD00BFAC08002010B50F4C38
:203DA0000220A17905F088FDA379112B01D0062B05D1238D618D9942A8BF194608E03A2B91
:203DC00005BF94F8281094F82930002143EA01210120BDE8104005F06FBD00BF7822002056
:203DE00010B5084C01462378012B08D1A01C082207F014F900280CBF2046002010BD002073
:203E000010BD00BF7F1C002008B50146102005F061FD044B04489B6800219847BDE8084049
:203E2000FDF706BFCCD000002D3E000010B508460C46114602F0D4F9044B1B6813B19B68AE
:203E400020469847024B1C6010BD00BFBC080020B8080020F8B505460023114A712404FBFA
:203E60000324A278B2B9617005F050FC26460D4F0D4A3B7806F8035BC01A1568A0701D448E
:203E800005F044FC3A782946821A304607F0F8F8A078F8BD01330C2BDFD14FF0FF30F8BDC8
:203EA000891C0020D5210020B00800202DE9F8434FEA1219B9F10F0F80461D4602F00F04A4
:203EC0000BD00F2C05D1B9F1000F0AD11024274619E0B9F1000F09D004E00F2C4FF01009BF
:203EE00000D1102440464A4607F0CAF809EB04020F2A274606DC08EB09000021C2F110028A
:203F000007F098F9BCB1114DC7F110002E6840443146224607F0B4F8022C08D1B9F10A0F20
:203F20009FBFFF2388F80B30FE2388F80C3034442C60BDE8F883B9F1000F05D040462946C2
:203F4000BDE8F84307F068BDBDE8F883AC0800202DE9F04F8E4E8F4D002387B033702B70CC
:203F6000044605F04FFC05F0E3FB8B4A8B4B126818608DE8600099460AB1FFF70FFF04A828
:203F80000CB9874900E0214608F0D3FB854B864E1A8803933E2A40F20182D9F800B0834D35
:203FA0000BF102032B60009B06F1180093F80080002308F102080BF80830FFF711FF20B980
:203FC00006F10800FFF70CFF20B10BF103032B60802400E0044672783178130943EA0113C5
:203FE000DBB2980840EA8313DBB212F00F0FDEB26E4F01F00F010CD16B48408848B911B9B6
:2040000012F0F00F1FD03B6803F8016B3B6070261AE079B912F0F00F0CD1296823F03F0385
:204020001A43634B0A701B88033121F8023C6826296009E05C4A2B681068186003F8046B3A
:204040002B60602600E07826574B9A790293112A08BF46F0040673075EBF3B6803F8012BE4
:204060003B60029BDB79402B06D0FF2B07D0012B08D146F0010609E046F0020606E046F0ED
:20408000030603E03A6802F8013B3A60029A464B128982B95A8972B99A8962B9DA8952B905
:2040A0001A8A42B95A8A32B99A8A22B9DB8A13B944F0400013E03F48FFF792FE3E4B1860ED
:2040C00078B142781BF80830042043EA02130BF808303849394AFFF719FE60F03F00C4B2FB
:2040E00027E0029B30491A8948F2FE039A420CD14B8B53B98B8B43B9CB8B33B90420083179
:204100002E4AFFF703FE2043E9E73A68DFF8A4C096460CF1100A634603CB5345CEF8000058
:20412000CEF804109C460EF1080EF4D11F4B10321A60DFF874A09AF81830FF2B40F08A809A
:204140009AF8192044F0080E022A5FFA8EFE37D1BAF81A30A3BBBAF81C308BBBBAF81E3093
:2041600073BBBAF820305BBBBAF8223043BBBAF824302BBB9AF8263013BB3B689AF82720D9
:2041800044F00B0003F8012BC4B23B609FE000BF7E1C0020D5210020BC080020B0080020DE
:2041A000B2D500006422002078220020AC0800207A22002080220020A40800207022002048
:2041C0009B4B588B194688BB988B78BBD88BA8B9188C98B9588C88B993F8240070B92968D7
:2041E00044F00A00C4B2084600F8012B33F8252F043121F8032C9B78837015E0C98B8C4B77
:20420000A1B9198C91B993F8221079B9296844F00900C4B2084600F8012B53F8232F0631DC
:2042200041F8052C1B790371296050E0814ADFF818C214680CF110082746634603CB4345DA
:20424000386079609C4607F10807F6D11034146074463CE00AF11800FFF7C2FD764B1860AE
:2042600050B143781BF8081044F004040B43E4B20BF8083000200EE048F2FE03BAF81820C9
:204280009A4210D1BAF81A306BB9BAF81C3053B9BAF81E303BB90AF1180104AAFFF736FD58
:2042A0002043C4B213E0634ADFF89CC117680CF11008BE46634603CB4345CEF80000CEF82E
:2042C00004109C460EF1080EF4D110371760019A5749282313708B79112B53D14FF2B003EF
:2042E0000A8D52BA92B222F00F0080B2984217D14B8D5BBA23F00F031B041B0C83420FD1C5
:204300002868F32303704B8D02301A0A0B8D1B0A02EB031303F5AA6300F8013C286028E0CC
:20432000029B43495B8D5BBA03F47F43B3F5704F09D12B68F1221A700A8DA3F801204A8D03
:20434000120ADA700CE002F47F42B2F5704F2B6808D1F2221A700A8D120A5A704A8D5A80B6
:20436000043305E0F0221A70886A053343F8040C2B60324B1A882B6823F8022B019A2B6065
:2043800030231370009BD9F800201B78D65413445C70284B1B689B1A009A1AE0D9F80020AB
:2043A00041231370009B06F128051C78631CDBB21344324603CAAA4218605960164603F1AE
:2043C0000803F6D1009B29341C70019B019A1B782833102013700DEB000105F07BFA184BE9
:2043E000DFF868801B68984730EA200028BF1520039BC0F17D051C88019BDFF854A01E78D4
:20440000009BA21B93F800B00E4FCBEB05039A4240F3CD80C0F17803019305F085FA019BC2
:2044200094FBF3F40134A04214DC0020D1E000BF78220020AC080020A4080020A62200202D
:20444000A0D00000D521002090220020642200207E1C0020D9F800B05F4B3C7800221A6029
:20446000594622460BF10400039306F07FFEB8F800205A496FEA82426FEA9242C2F3072291
:204480008BF80020B8F8002004348BF801200A88E4B2501C0880110ADFF850C18BF8021019
:2044A0002D1B9AF8001025F007054D4E61448BF803200BEB04002A46CDF808C03C703560D3
:2044C00006F0DEFD281980B205F016F905F032FA039B04461D460028A7D00DF1100B5846D2
:2044E000FFF792FC204605F05DFA204605F044FA2B68012B99D0043B012B96D99AF800A0B9
:20450000336853441FFA83FA05233B70354B1A68B8F800306FEAC3436FEAD343C3F3072370
:204520001370B8F800305370019B23F0070737602D4B1B889A454BD2D9F800204FEADA01E5
:2045400011713268CAEB03039342B8BF244AD9F80000B8BF1360009B376893F80080029B2D
:204560003A4603EB0A01404406F08AFD08EB070080B205F0C1F805F0DDF9074600283FF474
:2045800054AF5846FFF740FC384605F00BFA384605F0F2F9124B1B689A442B681FFA8AFA84
:2045A000012B3FF442AF043B012BC1D83DE7D9F800000E495844314406F062FDB8F8000045
:2045C0005844801B80B205F097F804A8FFF71CFC012007B0BDE8F08FB808002078150020AB
:2045E000B4080020B008002064220020782200202DE9F047074688461646002A47D0434C13
:204600000025A146238ABB4215D1638A9BB10F2005F06CF90146204608F090F858B1ECB268
:2046200020463146FFF716FC002827DA0027DFF8E0A0B8460DE0B834002D5DD10125E1E7CE
:20464000A8450BD10AF1B80AB8F1000F10D14FF001083AF8063C002BF4D0F1E7504607F02B
:20466000C6F80028EED04046FFF720FB0744E9E7002F41DD20463146FFF7ECFB00283BDD9D
:20468000B82303FB0595AB8A1844A8823AE0204DFF2435F8063C4FFA84F97BB3284607F07A
:2046A000A6F810B13046FFF701FBB9F1FF3F03D135F8063C03B9F4B2012E05F1B80501D0F3
:2046C0000126E6E765B26B1C16D0B8235D43DFF83C900F2009EB0506A6F81280378205F038
:2046E00005F90146304608F024F805F118004844402107F06AF805E0FF2403E0B9F1FF3FC4
:20470000DAD1D8E760B2BDE8F08700BFC0080020D80800202DE9F04F0F2087B0A54CDFF8D7
:20472000CCA205F0E3F8002604F018FE8AF80060267004F0FDFFA04DA0462860042005F02F
:20474000C3F89E4B2A6800B218605778137847EA032703F0F803C02B02D0E02B19D03AE08B
:2047600090782378D278C7F30A07043342EA0020394632462370FFF73BFFB0F1FF3F81469E
:2047800000F07E828E4CB82303FB00440126223424E01379D17890782278C7F30A07053238
:2047A000227041EA00201A4639460093FFF720FFB0F1FF3F814600F063828149B82202FB79
:2047C0000012958A4FF0010BBD4234BF002501253446009BDFE1B1464F467A4C296898F8D8
:2047E00000504A5D02F0E003602B40F0B681A81C084429444D78744B5FFA85FC1CF0800F85
:2048000018601CBF0130186012F0100F02F0080130D1D1B9196831F8010FA4F8010089789D
:20482000E170196811F8040B1960830803F00F0141F060012170617803F0300343EA8013A5
:2048400001F00F010B43637030E018686021864621701EF8011B03304FEA910B0BF0300B58
:2048600001F00F014BEA01016170BEF80010186061801BE001F0FF0E99B919680878C0F311
:20488000830040F06000207011F801BBA4F802E04FEA9B0000F0300040EA8B106070196030
:2048A00004E06023237000236370638002F0040303F0FF0100912BB943490B6813F8010BAE
:2048C000A0710B6012F003020BBF3F4A3F4B13689B5C09BF13F8011BE3711360E1716B068D
:2048E000C5F3011233D51CF0800F1DBF324998F80030096800211EBF5B189978090922B953
:2049000004F1080B9AB9114614E0314B1878012805D1587888420CBF1946002100E0002100
:204920002C4B19600029EBD1B3460D4632E1294B19680231284B0F209A5C0391CDF808C062
:20494000019204F0D3FF0399034658460BE0234B0F209A5CCDF808C0019204F0C7FF2049BA
:20496000034604F10800019AFFF7A0FA05F00800DDF808C005F0030200F0FF0105F0040346
:20498000002835D0002B6BD1164B1B88ADF81430531E012B9FBF0C490B6813F8010B0B6051
:2049A000114B98BF8DF815009A5C04F1180005A9002353E0D5210020B0080020A8080020E5
:2049C000C008002078220020AC08002066D500007F1C0020A40800207FD500006AD500000C
:2049E0006ED5000064D5000070D500007E1C002053B31CF0800F1DBFA34998F800300968A2
:204A00000B4618BF5B18A14918BF9D78087818BF05F00F03012805D14D789D420CBF0D4606
:204A2000002500E000259A4B1D60002D00F0AE80984B10209A5C019204F058FFA91C0346AA
:204A4000019A04F1180009E0934B10209D5C04F04DFF2A469149034604F11800FFF726FAC8
:204A60009AF800008E4900F128038AF80030009B002B53D00B681A7802F0F802F02A4DD1ED
:204A80001122A2711A7802F0040502F0F302F03AEDB2032A7CD8DFE802F0020A1622B3F86A
:204AA00001200533228533F8022C62852CE0B3F801202285DA78A2F5805292B2120242F0F2
:204AC000F002628509E05A78A2F5805292B2120242F0F00222855A886285043314E05A78F0
:204AE00002331209A2F5756292B2120242F0F002228513F8012C02F00F02A2F5756292B2E8
:204B0000120242F0F00262850B6025B90B6833F8022BE2850B6030308AF800005A4A0B6897
:204B200012689B1A88F8003067B904F0EFFD5D4B1B78C01A9AF8003018442838031223715A
:204B4000607104E0A7F128031A1222716371A379112B1DD1A388A3851AE0412A40F090800C
:204B60006A1CD2B28B18224603F1280153F8040B8B4242F8040BF9D105F1290388F80030F7
:204B80009AF8003028338AF8003001E0B34601E0B34600252B46009304F0B8FD98F8002010
:204BA00082426DD804F0B2FD3E4A009B12789AF800A0DB009BB2C2EB000853443A494344EC
:204BC0008C2BC1F800805BD83CB12F4B04EB0A0019681144424606F053FA002F39D056B172
:204BE00032484FFA89F3B82404FB030308EB0A0189B29982198495B3B8224FFA89F402FBBF
:204C000004F32A492A48CA18114697822231128C06F036FA274D05F24C5615F8012C5AB1FD
:204C200015F8033CA34207D115F8020C204B294603EBC00006F024FA7135B542EDD15FFA00
:204C400089F0FFF733F8BBF1000F0BD01A4B1F800CE0BBF1000F05D0002DF7D110E0BBF113
:204C6000000F0DD1144BD044A3F80080134C236823B1FFF793F823685B68984701F0B4FFA9
:204C800007B0BDE8F08F00BFB00800207F1C0020A40800207FD500006AD500006ED5000045
:204CA000AC080020D5210020B4080020C0080020782200208C1C002064220020BC0800203A
:204CC00037B5124B124D1C782B796A79C4EB032313449BB2ADF80630BDF8063005F10801D3
:204CE0001844202280B206F040FEBDF8062004F12801294492B206F038FE10B140BA80B2ED
:204D000001E04FF6FF7003B030BD00BFD6210020782200202DE9F041264F274E3D78274879
:204D20002835AB195C780223E40007349C423DDBE9187218715CDFF88080012931D002D315
:204D4000632902D011E001332EE0037018461B4C02F02CFDD0B13B78227828331344434468
:204D60005B7813440233237021E001F0C001802905D0C02905D0402913D1037006E0037039
:204D800007E098F818200370FF2A02D10120BDE8F08104200221EA1801F032FD0220BDE88E
:204DA000F081527802321344DBB2BFE703700020BDE8F081D621002078220020DC21002063
:204DC000F0B5C578124A0D44EDB2D57083780F0A3B44DBB293704478BB42547006781670BC
:204DE00005D2601CC0B2507008B901361670C9B28D420CDA0133DBB2054993703BB94B78B7
:204E00000133DBB24B7013B90B7801330B70F0BD6C22002010B5084C014620681430FFF79B
:204E2000CFFF064A236811781975517859759178D2789975DA7510BD142300206C22002099
:204E400008B501F0F5F801F0C3FD06F01CFE00230E49002221F813200133142BF8D10C497D
:204E6000002311443032B2F5F07F81F82530F6D1084A4FF480611180074A00211A44203383
:204E8000B3F5A07F1182F7D108BD00BF00250020182300207A1500202C2500202DE9F04165
:204EA000124F3D7805B3DFF84C8005F12703B8F80040A34203DB0023A8F8003013E00C4E6E
:204EC000A4F1280205F12801641BA4B206F128003144521B06F04AF9A8F80040283C23126C
:204EE0003371747100233B70BDE8F081D621002078220020642200200023064A32F813100E
:204F0000814203D1002122F8131070470133142BF3D17047002500200023054A32F81310F3
:204F200011B922F8130070470133142BF5D17047002500202DE9F74FA24E04283468A24F89
:204F400000F06F82A149A24DA24A03280D6015608A4615D194F8253003F00F03032B08D1FB
:204F6000A38B002B40F074869B4B08221A7000F065BD022B40F06C86002305F8073CB3E3BA
:204F800002287AD1954A00231370954A3B801380944AD3780133DBB2D37063B99378013362
:204FA000DBB293703BB953780133DBB2537013B913780133137094F8253003F0FD02052A0E
:204FC0000DD194F826300133DBB2782B84F8263040F03E86002384F8253000F039BE002BE1
:204FE00000F03686A28B7C48002A3DD094F82620511E84F82610002A40F02A8694F827200D
:20500000082A04D0591E01290AD8052A08D1002384F825308023037001F046FF00F01CBDF6
:20502000042A9CBF0321914003F00F0394BFC9B230210132013B84F8261084F82720072BB8
:2050400000F20686DFE813F04C0308000A00C3040406C3040406C304002242E3042303705D
:2050600001F022FF00F024BD03F00F03032B40F0EF850823037000F0E1BC052811D15A4B97
:205080001B681B8A002B00F0E3850C3D1560544A0023138033603B804F4B08220D601A704A
:2050A000BDE115F83C3C3C3D03F0F003602B40F0CF852B796A791B0239889818884200F38D
:2050C000C785283213443B802B7AFF2B00F0C085464EAB1D3360464C404B00221A702270CA
:2050E000AA799846BAB901232370FFF713FE012800F0AE8503D3022800F0A6850BE098F89C
:20510000003003F128022A4432605278083303EBC20388F80030374800F028FE002840F0EC
:20512000B280344800F0C8FE002840F0AC802A7E304BFF2AA3F1180360D048F2FE00198B80
:2051400081425BD01989814258D079B9598969B9998959B9D98949B91B8A3BB9698A264B09
:2051600021B9998A11B9DB8A002B47D0298B224B79B9598B69B9998B59B9D98B49B9198C27
:2051800039B9598C29B9998C19B9DB8CB3F5807F34D03B88B3F5A06F04D9022000214FF470
:2051A000A06205E0EB79012B06D800210A46032001F026FB00F048BD0F4A013BD37100F036
:2051C00043BD00BF142300206422002010230020B42200206822002004230020D6210020C2
:2051E00028250020D82100200C23002008230020D7210020902200207822002048F2FE03B0
:205200002989994240F02485298BA14B81B9598B71B9998B61B9D98B51B9198C41B9598C10
:2052200031B9998C21B9DB8CB3F5807F00F01085FF2A00F00D85974800F078FD0246002893
:2052400040F0068501200221B2E725D9B9F13A0F78D02CD9B9F13B0F00F0FA84B9F13C0F21
:205260006CD123788C4998073BD5580666D443F040030B70FFF74EFD012800F0E98433D37C
:20528000022800F0E1843268DFF83CB292F80090B9F12B0FD9D134E0B9F1060F00F016812E
:2052A000B9F1110F6FD0B9F1000F47D104E0B9F12C0F00F0CD8441E02378D9073ED4764A9C
:2052C00043F001031370FFF725FD012800F0C084D6D298F8003003F128022A44CBF80020C8
:2052E00008E043F00203C4E798F8003003F128022A4432605278083303EBC20388F800309D
:20530000C1E7237803F0040000F0FF01B0B9624A43F00403137098F8002002F128032B4454
:20532000D87810B104202A3242E7CBF800305B78083202EBC302594B1A70A4E70420012102
:20534000521B35E706F02DFB4FF6FF73984240F07F8498F800302833E85C01F031FC98F8D5
:2053600000302833EA18E85C517801F027FA012801BF0023494A3B8013703B88002B00F0C6
:20538000678400F061BCFFF789FDEB8D85F8069053B96E8D002E00F05B84414B414D2B6065
:2053A0003B4BB3F828800BE006F001FB4FF6FF73984240F04D84ECE7238A33B920342C6059
:2053C0002C68394B9C42F7D315E09E42F6D1638A0BB19845F2D123682BB963681BB9A3680F
:2053E0000BB9E3685BB131482146102205F016FE0028E3D103E0012004210022D8E63B88CF
:205400002B49303B3B8000230B602A4902202A4A08702A49CAF800200A60294A138001F02D
:2054200043FD274B1A88002A00F0128402F13003174C9BB23B80283B19126371194B0832D7
:205440001B6852BA2171197DA2850022E2851A8AE17122855A8A11216285A17104F1180527
:205460000FCB85E80F0004F10800294600F082FD144B04F13C021A6006F099FAC04380B231
:2054800008B1E085DAE34FF6FF73E385D6E300BF7822002090220020D7210020D6210020DF
:2054A0002C2500200C2300206C260020802200201423002004230020A82200206822002086
:2054C000282500201023002008230020FFF7E6FC85F8069006F068FA4FF6FF739842AE4CF3
:2054E00040F0B683B4F82AB0BBF1000F00F0B083238D002B00F0AC83A84EB44696F82590B2
:20550000B9F1000F11D0328A5A450ED1728A9A420BD1A348314610228DE8081005F07EFD72
:205520009DE80810002800F0F5809E4A30369642E4D195F8352002F03F02022A08D100222A
:20554000994931F81210594550D00132142AF7D195F83520904B520700F17A83142283F872
:2055600035203C223A80502283F8342093F8332093F8314093F82F0083F82F2093F8322042
:2055800093F82E1093F8306083F82E20013093F82D2083F82D4093F82C40C0B283F8321047
:2055A00083F8312083F82C6083F8304083F8330060B90131C9B283F8321039B90132D2B253
:2055C00083F8312012B9621C83F830202B8D6A8D734C2A856B8504F1100594E80F0085E8DC
:2055E0000F002046294600F0C5FC12E3002421466A4A92F8250018B9302404FB01C413E057
:20560000072809D13CB192F8266094F82600864288BF144600E0144601310A2902F13002A5
:20562000E7D1002C00F01483604A638214605C4B032284F8262084F82420042284F82320C9
:205640000FCB84E80F005A4B01201A78002622765A7884F8250062769A78DB78A276E376BE
:2056600095F82C30A083237595F82D3084F82260637595F82E3084F82760A37595F82F30D4
:20568000A4F810B0E375FFF7C5FB95F8343003F0F002502A24D91A093346053A9200E918E5
:2056A00091F83C00E0B1012801D1013316E002280FD191F83D0004280BD191F83E2091F827
:2056C0003F3043EA0223402B28BF4023E383238406E0E91891F83D1011B10B449342DEDBEB
:2056E00010222D4B83F835202B4B93F8352042F0020283F83520022283F83C20042283F838
:205700003D20002283F83E20402283F83F203A80602242E2254B95F835101E60254B11F064
:20572000040F344618709B4603D086F825002022E1E13B8809F00F09A3F12802164BB9F15C
:20574000020F93F834304FEA1313A2EB83039BB23B8003D101F03F02122A05E0B9F1010FEE
:2057600003D101F03F02022A26D00BB98B0723D0AA8DB38A9A4204D1074BDA8DF38A9A4281
:205780001AD0880740F10282B9F1010FA8D0B9F1020F40F0FB81A7E778220020182300209F
:2057A00080220020F82400200025002014230020D821002004230020C90654D5B18B002992
:2057C00051D006F11800FFF7FBFAB24B95F8301093F800E0B04A8E4545D192F8311093F840
:2057E00001C08C453FD192F83200997881423AD192F83320DB78934235D1F37696F8273013
:2058000086F818E086F819C0B1761BBB96F8243096F8261096F82200591AA1EBD001C9B21D
:205820005FFA81FE1EF0800F96F82330084418BF4942A3EB930318BF5FFA81FE03EB0E0293
:20584000C0B2D3B286F8233003EBD00386F8220086F82430914B01221A7096F8243086F864
:2058600026300023B38396F82510DFF8309201F00F03013B072B00F2EB81DFE813F008007C
:2058800025008300400162017C018701320199F80020824BD2070FD5032286F825203888A1
:2058A00040221A700022B283002800F0C48042221A70FFF7AFFABEE095F8353003F03F03F7
:2058C000022B40F0C5810BE799F80030DB074ED595F8353003F03F03122B48D16E4B93F8AC
:2058E000343003F0F002502A24D91B09053B9B0000202A1892F83C10E1B1012901D10130F2
:2059000016E002290FD192F83D1004290BD192F83E1092F83F3043EA0123402B28BF4023CF
:20592000F383338406E02A1892F83D2012B110449842DEDB032386F8253095F82C3001207E
:20594000337595F82D30737595F82E30B37595F82F30F375FFF75EFA4223514A8BF8003065
:205960000023B3833B8088F80030138066E020238BF8003001F098FA4A4B00221B6883F85C
:205980002520E5E595F83530D80725D5CA0623D4B38B002B40F05C813888013080B2FFF7D7
:2059A00039FA9BF8003043F010028BF800203A881AB13A4A43F01203137001F075FA0123A9
:2059C000B383082386F82530002386F827301122314B83F83520DCE098060DD595F83A20F9
:2059E00095F83B3043EA0223DAF800201A44CAF800203A88D31A3B80388848B1CA0607D45D
:205A000099F8003043F0020389F80030FFF702FA95F8362095F8373003EB0223328C9BB2F5
:205A2000934202D8002B18BF1A4699F80030F2839B0700F00D811A4B00221A8001F034FABF
:205A4000164B1A78164B02F0200000F0FF0128B100221A8084F825201422B9E702F01000C2
:205A600000F0FF0540B119800123A383042384F8253084F82710AAE71988B1B1D60748BF3B
:205A8000A583A28B82B9E28B914288BF1A801B88A3830AE06C2200207822002004230020F3
:205AA00028250020142300201A80002384F827306D4B1B68CAF800306C4B1B882BB1A38B01
:205AC0001BB13C333B80182207E0694B1B789D0740F1BE803C233B801022664B83F8352088
:205AE00059E099F80030DC0740F1B280002386F825305F4B10221A7001F0D6F9A8E0388802
:205B000008B1FFF787F995F8353013F001030FD099F80030D80745BF072386F825300623B4
:205B2000002346BF86F82630B38386F8253016E099F80020D1071BD5052286F82520B383D1
:205B400086E0388808B1FFF765F995F83530DA070ED5072386F82530002386F82630012047
:205B6000FFF758F9102389F8003001F09DF90DE03B885BB96CE099F80030DB0768D5072359
:205B800086F82530002386F8263061E0102385F835303C233B80374B502283F83420237D68
:205BA000344D85F83030637D05F1180685F83130A37D85F83230E37D85F83330237E85F858
:205BC0002C30637E85F82D30A37E85F82E30E37E85F82F30238A2B85638A6B8594E80F00B0
:205BE00086E80F0005F10800314600F0C3F994F8253003F0100303F0FF022BB1002385F8B0
:205C0000373085F8363004E03C2385F8362085F83730184C0623A371174B1B79E3713B8892
:205C2000283B1A1263710023227184F83B3084F83A30238705F0B8FEC04320870D4B6022A5
:205C40001A7000225A705A80094B00221A7007E00A4A002313700A4A3B801370044A1370B0
:205C600003B0BDE8F08F00BF6822002028250020042300207822002074260020D6210020A5
:205C8000D72100200C4A0346106828B10B4A121A9142A8BF114602E05029A8BF502100298E
:205CA00009DD074A8342118005D08AB200B90548194605F0E5B970476822002004230020A6
:205CC00028250020B42200202DE9F3410446154D00910E4690461F460195234612480321CE
:205CE000202205F071FE01282B4616D12A6804F11001107020462A68023250F8044B8842D8
:205D000042F8044BF9D11868089B86744361099B80F813800777836100E0002002B0BDE807
:205D2000F08100BF340A00207027002070B506460B4D0C4B2B602C680B4B9C420BD2237833
:205D400033B1A27CA01C3146D20805F067F920B120342C60EFE7002070BD012070BD00BFFE
:205D6000340A002070270020D027002013B5084C802203460092019406480321202205F020
:205D800023FE08B9206800E0002002B010BD00BF380A00208C26002010B50C4A0C4B136042
:205DA00013680C498B420DD2197849B1411C02D0997C814204D148F2FE015C888C4202D043
:205DC0002033ECE70023184610BD00BF380A00208C260020EC26002037B504460F4D8023F5
:205DE0000093019523460E480521122205F0ECFD01282B460ED12A6804F11001107020468C
:205E00002A68023250F8044B884242F8044BF9D1186800E0002003B030BD00BF300A0020CF
:205E200010270020F7B50546204C802300930E46174601941E48032120222B4605F0C4FD39
:205E4000012830D12A46236805F1100118702368023352F8040B8A4243F8040BF9D120680D
:205E6000C77416B90123037505E0002303753146183006F0E0FD23680E4801219974022335
:205E80004370FF220023027043808380C38003818372C17202736B7B4373EB89C381FFF725
:205EA0009BFF206800E0002003B0F0BD380A00208C2600207C15002013B5084C8022034674
:205EC0000092019406480521122205F07DFD08B9206800E0002002B010BD00BF300A0020A3
:205EE0001027002038B50546C8B10D48022200244270FF230122C27244808480C480048141
:205F0000847203730370EB7B43732B8AC381FFF7D3FF044A106008B105F07AFD2C7038BD51
:205F20007C150020300A002010B50E4B0E4C236020680E4B98420ED203784BB1037D3BB9D5
:205F4000183004F04FFB18B1074B1868FFF7CAFF23682033EBE700F06BFBBDE8104004481A
:205F600005F011BC8C260020380A0020EC260020D02700202DE9F84348F2FE030A88054679
:205F80009A42884621D00B78FF2B1ED01B4B0024A1461F461A4A1A603E681A4A964218D24B
:205FA00033787BB1B37C012B0CD148F2FE0372889A4207D04046B11C05F037FD484524BFFE
:205FC0003446814620363E60E6E70120FFF7E4FE04464CB92C806C80AC80EC802C816C81AD
:205FE000AC81EC81BDE8F883A31C123453F8042BA34245F8042BF9D1BDE8F883380A0020CB
:206000008C260020EC26002010B505F078FB044605F075FB054B24029A68A4B22044B0FBC3
:20602000F2F302FB130000EB520010BD7426002073B52F4C00F07CF800F010F90021602204
:206040002C4805F0F7F800212046F82205F0F2F8294B20221A70294B18221A704FF4A063AA
:206060002360274B40262671A360FFF7CDFF42F21073236148F2FE03314640F2FF26002500
:20608000E06025751F4C2A46238065802B46A580E580204600950195FFF716FE20461A4964
:2060A00005F0BAFC294601222046FFF7BBFE4FF480732046E38126806580A580E5802581D3
:2060C0006581A581FFF788FE4FF40073204626806580A580E58025816581A581E381FFF7FB
:2060E0007BFE0A480C2102B0BDE8704005F042BB74260020702700206D2700206C270020D7
:20610000C02709007C15002070220020D027002010B5044640B100F0ADFF044B2146BDE81E
:206120001040186803F08CBA10BD00BF0401002008B503F039F9034B03491868BDE80840BC
:2061400003F0C6B9040100201161000070B51E460C4B04469DF810201868059B03F0E6F955
:20616000054668B120462B4604F1100250F8041B904243F8041BF9D16E74284600F07AFFC7
:20618000284670BD04010020024B0146186806F054BB00BF0401002070B50C4D06462868E8
:2061A00003F0AAF9044666B9002070BD20463146102204F033FF38B12146286806F005FB88
:2061C0000446002CF2D1EFE7204670BD04010020024B0146186806F017BB00BF0401002038
:2061E00070B5054610200C4603F080FB0849064606F0A4FA58B930462946224603F072F853
:20620000304629462246BDE8704000F009BF70BDB2D500002DE9F04105460D480F4690465E
:2062200005F0F6FA044688B1012D04D8094805F025FB034601E0084B1B68284666683946CB
:206240004246B047204605F020FBEBE7BDE8F081E80E0020800A00207C0A002008B50B48EB
:2062600005F016FB0A4805F0D0FA0A4B0A49186803F02EF9094805F00BFB094805F0C5FA74
:20628000BDE80840074805F0C0BA00BF38010020240B00203401002083BA00001801002021
:2062A000800A0020E80E002008B5034640B1054A5968106806F0C1FABDE8084005F0D2BB7F
:2062C00008BD00BF34010020014805F0A1BA00BF240B002008B505F0C7FB014638B1044B4B
:2062E000186806F091FA003018BF012008BD08BD340100202DE9F0418046FFF7E5FF002689
:20630000044637469CB194F82450B5420AD3404604F10801EA0804F081FE18B9802D08D056
:206320002E462746204605F0A8FB0446EAE73C4667B1084805F06CFA844207D005482146CD
:2063400005F070FA0348214605F08FFA2046BDE8F08100BF240B002038B5044600283ED0B7
:206360004368002B3BD01E48214605F05BFA6368586805F04DFA054630B14368A34207D0CB
:20638000284605F082FAF6E704F1080000F0C0FD63682946586805F045FA6368586805F0E9
:2063A00037FA28B963680F4A5968106803F048F921460D4805F090FA29460C4805F08CFAC1
:2063C0000B4A20461368013B1360FFF76DFF04F108010246BDE838400320FFF71BBF38BD2B
:2063E000240B00203401002038010020440100207C0A002010B5044680B1406870B105F097
:2064000007FA20B14068FFF7A7FF6068F7E7044B2146BDE81040186803F012B910BD00BF4B
:20642000340100202DE9F84F074610468946904605F01AFB834610B90020BDE8F88F3846FC
:20644000FFF758FF044660B1FFF72EFF014628B14046102204F0E2FD002859D02046FFF719
:206460007BFF2D4B1A689A46142AE5D02B4E5946306806F0C9F9054668B92B463068594659
:20648000042203F053F805460028D5D000236860036005F0BAF9224805F00AFA04460028B5
:2064A000CAD02048214605F0E0F91F4805F000FA834620B921461A4805F00EFABCE74460A0
:2064C0006868594605F0C2F9DAF800306560013330682946CAF8003003F0C8F83B4604F180
:2064E000080507F110062A4618685968083303C2B3421546F7D100210C2284F8249004F144
:20650000180004F097FE022039464246FFF782FE2046BDE8F88F00BF7C0A002034010020EF
:2065200038010020240B00204401002038B505460D4805F06DF90446A0B1AC420ED1214697
:20654000094805F06FF92146084805F0C5F9211D01200A46BDE83840FFF75CBE204605F0EC
:2065600094F9E8E738BD00BF800A00201801002038B50546084805F04BF9044648B1201DE7
:206580002946102204F04AFD18B1204605F07DF9F3E7204638BD00BF800A0020F8B50546EF
:2065A0000F46FFF7E5FF044640B9134805F080F90446F0B11148214605F057F92B46261DFC
:2065C00005F1100E324618685968083303C273451646F7D137B104F11400394606F02BFA87
:2065E000002300E001232377002029462A46FFF711FE2046F8BD00BF18010020800A002019
:2066000038B50A4805F004F9044600255CB1251D2846FFF7C1FD08B1437C23B9204605F0BA
:2066200034F90446F2E7284638BD00BF800A002010B50A4805F0ECF8044670B1237F43B945
:2066400004F1140003F0CEFF18B12046FFF76EFFEFE7204605F019F9EEE710BD800A002050
:206660002DE9FF411F4C204D04F108030FCB8DE80F0029786F4694F80780A1B13A23A37162
:206680001A4B1A88521A92B21A80A2F1280318122C312071214404F12C002C3A637104F01F
:2066A00065FD00232B70124805F0B2F8064690B1D6F804C0BCF1000F09D00C4B2A781B8871
:2066C00038322C3B3846414622449BB2E047304605F0DBF8EAE7054B2870188004B0BDE822
:2066E000F08100BF78220020D621002064220020EC0E0020F8B52A4B2A4C1B7904F118069A
:20670000E371237E04F10805FF2B08D195E80F0086E80F0028463146FFF72CFC1BE02F4603
:20672000B646214A3B4603CB7345106051601F4602F10802F6D196E80F0085E80F001A4B33
:206740001A4D03F110062A4618685968083303C2B3421546F7D1164D297899B13A23A37140
:20676000144B1A88521A92B21A80A2F1280318122C3120716371104821442C3A04F0F6FC1B
:2067800000232B702B7881222833E518E25400236B706B8005F005F9C0436880F8BD00BF2C
:2067A0007426002078220020F416002090220020D621002064220020A422002038B504468F
:2067C0000B480D4605F024F878B10379A34209D14379AB4204D183683BB19847002038BD55
:2067E000FF2BF8D005F051F8EEE7012038BD00BFF00E00200146014805F028B8F00E00201E
:206800002DE9F74F484D81462B7888469246474C43B12833E35C3A2B0BD1454A00231380D0
:206820002B707EE0A3793A2B03D194F92830002BF3DA01F03BF83F4E3F4AB446934606F129
:20684000100E334603CB7345106051601E4602F10802F6D1364E2F78338804EB4700303353
:206860009BB2B3F5A06F88BF4FF4A063338032882E4BD21B1946303A3030CDF804C000936F
:2068800004F074FC9DE80810602222700022627062803A2217B183F8282000E09A71274ACA
:2068A000224B1279E271228972B95A8962B99A8952B9DA8942B91A8A32B95A8A22B99A8ABB
:2068C00012B9DB8A002BA8D01D4B0FCB8CE80F009BF80030FF2B05D1B9F1040F9DD1B8F189
:2068E000020F9AD114491648FFF744FB2F78504607F12803E21804F8039082F8018005F053
:2069000059F833882C37283BE0511A1263712B78227128331C440023638005F042F8C0434B
