:020000040000FA
:2000000000500020E9000000E1000000C9000000E5000000E5000000E5000000000000002E
:20002000000000000000000000000000E5000000E500000000000000E5000000E50000002C
:200040005D200000E50000008D260000E5000000D1160000491B0000E5000000E500000091
:20006000E5000000B5260000E5000000E5000000E5000000E5000000E5000000E500000062
:20008000E5000000E5000000E5000000E5000000E5000000E5000000E5000000E500000038
:2000A000E5000000E5000000E5000000E5000000E5000000E5000000E5000000E500000018
:2000C000E5000000FD280000044B1A68B2F5806F03D01B689B0500D4FEE7704728ED00E054
:2000E000FEE700BFFEE700BF08B509F0C9FE104A104B9A420DD2D0430F4918440B4620F0A3
:2001000003000430084453F8041B834242F8041BF9D10A480A494FF000028842B8BF40F8AB
:20012000042BFADB00F06EF8FFF7CEFF08BD00BF00000020F5020020A0D90000F802002054
:20014000462D002010B5038804465BB1182B05D1882912D018232380012010BD0023038048
:20016000032010BD80210B4803F092FA0A4801F051FB18232380012010BD01F019FA014676
:20018000064802F001FC034803F096FA012000F021FADFE720030020D8D20000ECD20000B7
:2001A000F0B5002706463C463D4683B0304600F0FDF90195019B9C4206DD00BF019B013311
:2001C0000193019B9C42F8DC304600F0F9F90195019BC4F5C874A34206DA00BF019B01336A
:2001E0000193019BA342F8DB0137B7F5487F06D0B7F5C87FCCBFC7F548743C46D6E703B0AE
:20020000F0BD00BF2DE9F041744C86B02368744801215B689847236801210A461B687048F2
:20022000984709F05BFD01F031FF01F0C9FE00F0EBF901F001FF00F0AFF96A496A486B4A3E
:20024000012303600B6018461368FFF7A9FF09F049FD01F0AFF901F015F903F0E5FB01F09A
:200260009DFA03F00FFB41F2342002F05DFA01F037FC03F07DFC5E4801F0CCFA00214BF2CF
:20028000AC725C4802F080FB5B4801F0C3FA09F099FC5A4C5A4D10F0040F14BFA046A84649
:2002A00009F098FC01280CBF26462E4609F08AFC10F0020F14BF27462F4609F083FC10F020
:2002C000080F08BF2C4632463B46414600944D4802F05AFB00214C4803F07AFB03F088F84E
:2002E00003F01EF90220FFF75BFF484802F04CFB474B484C186801F08DFA474802F044FBDB
:20030000464B186801F086FA454802F03DFB2168444802F039FBE469A04720B1A047014636
:20032000414802F031FB0A2001F06CFA00250AF0EFFD04A808213D4E3D4F039501F0A2FA79
:200340009DF817309DF8164004AA03CA43EA0424D7F82C803060716002204AF6CD31C047C3
:2003600021460320C04729460120C047082204A97B6B0B209847BB6A03A901209847039921
:200380002C4802F001FB2C4B21462C481C8002F0FBFA2B4B726831685A6019600AF028FFE9
:2003A0002946284803F014FB0220FFF7F9FE2946254803F00DFB254802F0C4FF01F0FCF96E
:2003C0000120FFF7EDFE03F077FA044601F00CFA14F0FF0FF7D101F0B9FCF4E7D801001032
:2003E00000400340080009400C4009402C20094018D300003CD3000054D3000010D30000FB
:2004000014D3000068D30000B80000209CD30000C8D800005CD90000A4D300002CD9000022
:20042000ACD30000B4D30000B8D30000EC2C0020FCD40000DCD3000088220020F0D30000E7
:20044000C82200203C01002010000020D0D200002DE9F04104880646772C30D07E2C27D000
:2004600024B1002303800320BDE8F08103F002FA2F4F304B304D3A6818702C60002A45D06E
:200480002346A0462D4C04F8038093688020002198472B68013357F823202B60002AF2D1A9
:2004A000DBB2274A1370772333800120BDE8F081204B1B788B4219D00120BDE8F081DFF875
:2004C00080801D4D98F800201E4F002393423B602B6007DA194CE156002919DB01339342D4
:2004E0002B60F7DB3B68002BEFD1DCE7124D134CDFF84C80134F2B683A68E05C511C00F0BD
:200500007F0098F80020E0543960E7E71346C8E70849074A097852F82320002003F02CFA20
:200520000028E8D17E2333800120BDE8F08100BF34000020422D002034030020B82200205C
:20054000982200203003002010B40F4B1C7864B10E4A1368984214D0002303E052F8041FA3
:2005600088420CD00133A342F8D1094A0948135D63F07F0313555DF8044B03F049BA1C46A6
:20058000F3E70024F1E700BF9822002034000020B82200201000002008B500F081F8024BFB
:2005A00000221A7008BD00BF99220020034A137803431846137000F08DB800BF9922002062
:2005C000034A137823EA00031846137000F082B899220020034A137843401846137000F021
:2005E00079B800BF9922002010B5064C042023685B699847236804205B6B98470128F9D180
:2006000010BD00BFB8010010F0B591B009F066FB0746FFF7E9FF1C4B4FF4A0601B68DB69A9
:2006200098471A4B01211A4A196013689907FCD56D46184C00F0E4F9174801F0B5FC0FCCCB
:200640000FC50FCC0FC50FCC0FC594E80F00009C85E80F00621C0FD06D46104E3368204656
:200660009B6B9847336820469B694FF40051984755F8044F631CF1D10FB111B0F0BD11B04D
:20068000BDE8F04009F02EBBB8010010282008602820084008D4000020000020B4010010B9
:2006A000094B1A6802B1704710B50122074C1A6023680620DB6B984723680720DB6B984798
:2006C000034BC0221A6010BD38030020B4010010A0200240074B0849C02208701A60C20741
:2006E00044BF402243F8102C830702D5034B80221A607047A02002409A22002090200240CC
:2007000008B5034B1B685B689847C0F3804008BDB401001028B1012806BF054BD868002035
:200720007047044B1868C0F3403080F0010070473C030020C020024008B100207047034B89
:200740001868C0F3803080F001007047C02002408138012801D9002070470D20FFF7D0BF27
:200760008138012801D9002070470E20FFF7C8BF802870B514460AD0812807D1E1B9BDE87A
:200780007040184B10461B685B6B184770BD154D1549012393402A680B60936B2046984724
:2007A0002B68204600211B68104A9847E0B21049BDE8704001F02ABC0A4D0B4901239340AA
:2007C0002A680B60936B204698472B6820461B680021064A98472B682046BDE870401B6B39
:2007E000184700BFB4010010E0200240004007200D08000008B50D22FFF7BAFF012008BDD7
:2008000008B50E22FFF7B4FF012008BD0D2838B50AD00E2800D038BD4FF480414FF0805250
:20082000BDE8384001F0BAB90E4C204603F03CF90028F0D02046042103F022F90A4B1D68F4
:20084000C5F3403525B900F069FEE560A06038BD00F064FEA368C31AE3600448BDE8384016
:20086000FFF772BE3C030020C020024050D4000030B51B4A1B4B106883B000244FF4801556
:2008800001908DF800408DF8014001A81D60042100F0D2F820B9144BFF201D6003B030BDC3
:2008A0006846022100F0E6F80F4B1D6010B9FF2003B030BD9DF80030EF2B03D0C22B01D0CA
:2008C0002046EBE79DF80100A0F11103012B05D9143801288CBF00200120DFE70120DDE7EF
:2008E00070D40000A02002409020024030B5164B83B002AC05224FF4801504F8042D1D60F0
:2009000000F0DCF82046012100F096F820B910E09DF80730DB0710D50DF10700012100F09A
:20092000A9F80028F4D1094B4FF480121A6003B030BD064B1D6003B030BD044B4FF4801254
:2009400001201A6003B030BDA02002409020024030B583B0FFF7CAFF08B903B030BD0E4BD7
:2009600002A8B9224FF4801500F8012D01211D6000F062F8094B0A241D60FFF779FF631E1D
:200980000028EAD013F0FF04F7D1044B4FF480121A6003B030BD00BFA020024090200240B6
:2009A00010B50A2182B0124800F09AF8114B14201B68114CDB6B9847104A4FF48013AB21A8
:2009C00002A8236000F8011D1360012100F034F808B1FFF78BFF084B4FF480121A60FFF752
:2009E00047FFA0F10100B0FA80F0400902B010BD00093D00B401001090200240A02002403E
:200A000008B5FFF7CDFFFFF7A3FFBDE8084000F0C7B800BF08B5064B02201B685B6B98474C
:200A2000012803BF034B186800F00100002008BDB801001078200840F0B583B005460C4609
:200A4000FFF7E8FF074680B17CB1094E33684FF080405B6815F8011B984733684FF08040B8
:200A6000DB6801A99847013CF0D1384603B0F0BDC4010010F0B583B005460C46FFF7CAFFC5
:200A80000746B0B1ACB10C4E09E033684FF08040DB689847019B013C05F8013B09D03368C6
:200AA00000214FF080409B68984701A90028ECD10746384603B0F0BDC401001010B582B0AE
:200AC000FFF7A8FF40B1054C23684FF080401B6901A998470028F7D102B010BDC40100105C
:200AE000F0B5264D07462B6885B002205B690E4698472B6802205B6B9847012804461F4B79
:200B0000F7D11B684FF48070DB6998471C4B1D4A1C6013689B07FCD51B4A1C4913681C4853
:200B20004FF0030E082523F00F030C4609681360C0F800E000220195009713460F684FF0E7
:200B400080401449B847144B29461B6800965D6C09224FF0FF334FF08040A8470F4A13686B
:200B600043F00203136023684FF080401B6903A998470028F7D105B0F0BD00BFB801001057
:200B8000282008602820084014000040C401001020000040006CDC02B40100100400004039
:200BA00010B5174B4FF480701B681B6A9847154B0121154A196013689B07FCD5134C082025
:200BC00023689B6B984723684FF4005108209B699847236809209B6B984723684FF40051C3
:200BE00009209B69984723680A209B6B984723680A209B694FF40051BDE81040184700BFEF
:200C0000B80100102820086028200840B4010010012070470120704708B501F0FBFA30B1D2
:200C2000044B5B88022B0CBF0120022008BD022008BD00BF0C02002010B582B001F01AFDAF
:200C4000044601F0E7FA08B902B010BD084801A901F0E8FA0128F7D1638803F44063002BCA
:200C6000F2D1638803F44063002BF5D0ECE700BF0100010430B583B001F0CCFA184C88B930
:200C800000256580A37F16485BB2C3F5FF6307339BB201A9238301F0C5FA012809D02846AC
:200CA00003B030BD6388022B08BF0120E8D103B030BD00F07DFC6FF03F052D1A03E000F015
:200CC00077FCC54203D563889BB2022BF7D1608880B2A0F10200B0FA80F04009E7E700BFF8
:200CE0000C02002008B50346B32994BF0A46B422024819460CF096F9002008BD66030020C9
:200D000070B50A4D00262C6803E024682B68A3420AD02379032BF8D1054802F079FE246807
:200D20002B680136A342F4D1304670BD580300206C000020F8B5124E35682B79032B02D047
:200D400000242046F8BD2C89023C002C0CDD8C4205F10A070EDD3957042089B20AF01EFA8B
:200D600003207F210AF01AFA2A68002332602B712046F8BD394622460CF054F9EBE700BFE3
:200D80006003002010B582B001F044FAD0B10F4C6388022B16D101A90D4801F043FA02E0C0
:200DA0006388022B03D101F035FA0028F8D16088A0F55050043880B201288CBF00200120F6
:200DC00002B010BD012002B010BD00BF0C0200200100010410B50E4B0E4C1B68052284F863
:200DE000242082B09B88204601A9638301F01AFA012802D0002002B010BD204601F064FA10
:200E0000A0F10100B0FA80F0400902B010BD00BF540000205402002000B583B00A4801A9D1
:200E200001F000FA012803D0002003B05DF804FB054801F049FAA0F10100B0FA80F040092E
:200E400003B05DF804FB00BF3C02002008B5FFF7C1FF012801D0002008BDFFF7DDFF012821
:200E6000F9D1FFF707FFC0B208BD00BF08B501F04FFC01280CD0FFF785FF01F009FB01F058
:200E800081F904480449054A002343800B711371012008BD0C0200201C040020A8040020EA
:200EA0002DE9F84F01F034FC012817D001F038F901F0B0F970B901F0ADF9044600283AD1AB
:200EC00001F01AFA012805460BD001F0E1FA0020BDE8F88F224B5B88022BECD10120BDE8A6
:200EE000F88F20494FF423721F480CF09BF81F48DFF890C01E491F4B1F4ADFF88CB0DFF882
:200F00008C901E4F1E4E04704FF0040E06204FF0020A4FF0030805248BF8005089F800A03F
:200F20008CF8008087F800E0347008701A6001F03DFA0128C9D1002001F042FB01F008F98D
:200F4000FFF748FF012802D00020BDE8F88FFFF763FF0128F8D1BDE8F84FFFF78BBE00BFD9
:200F60000C02002034D500001C0400219003002181030021C0030021BD050021AE03002107
:200F8000AB03002177030021790300217503002130B583B007285ED8DFE800F03E045D5D81
:200FA000205D452321293BD8464C4FF47A72208AE38902FB03F302FB00F2A3F5522302F532
:200FC0007F42FF32A3F695333F4803EB2243A0FB0323CAB2C3F387139A4246D1002003B091
:200FE00030BD3A4B197001F015F9002836D0384B5B88022B08BF002530D1FFF7C3FE012869
:2010000014BF03240024FFF721FF012818BF0324002D42D12046E2E7012948D0002940D08B
:20102000022003B030BD01F10A03182BF8D80191284CFFF701FE01990F2354F83320D8009E
:201040009142244D03F1FF3338DD5A1CF5D1FFF7FDFE0020C3E7012003B030BDFFF720FF44
:20106000012829D0032003B030BDC82303FB01F1194801F5522303F69533A0FB0321174A03
:20108000890902FB01331B04A0FB032314488AB29B092382E2810284A5E7FFF7E7FE204616
:2010A0009DE70191FFF7E2FE0199084697E7FFF7F7FE0128D6D191E705469EE7094B28441B
:2010C0001860C4E73C0200201F85EB51F20200200C02002074D40000D34D621018FCFFFF81
:2010E000540200205400002079B130B50C4683B010286FD8DFE800F0101D6E6E6E6E62688D
:20110000376E6E6E6E56595D0B00022070470E230B60002003B030BD01F07CF830B13C4BC7
:201120005888A0F10200B0FA80F0400920600020F0E738494FF47A72CB89098A02FB03F3D8
:2011400002FB01F2A3F5522302F57F42FF32A3F69533314903EB2243A1FB0323C3F3871369
:2011600023600020D6E701F055F8002834D1FFF797FE012840D140F20343002201A86946ED
:201180000192ADF8043001F04DF801283CD06FF07F05FFF76BFE15F1800F25600CBF03202E
:2011A0000020B7E700200860B4E721230B600020B0E76FF009030B600020ABE7174B0020DE
:2011C0001B681B680B60A5E7154B002093F900300B609FE701209DE70D4B5B88022BC6D141
:2011E00040F20343002201A869460192ADF8043001F018F8012804D06FF07F03236003200C
:2012000088E79DF90250C6E79DF90250C1E700BF0C0200203C0200201F85EB51540000209B
:20122000F202002070B582B0044600F0F3FF38B3244B5B88022B08BF002621D12249221D24
:20124000A31C224C92B29BB2100A2382E1610A704870FFF797FD0020014601F0EBF9204671
:2012600001A900F0DFFF90B90125002001F0F6F900236380FFF7FEFCEEB9284602B070BD9D
:20128000FFF70EFE01281BD0012002B070BD00F0ABFA638803F4406333B900F04DFD63880D
:2012A00003F44063002BF8D0608880B2B0F5505518BF0125D9E7FFF7D9FD284602B070BD67
:2012C0000646BBE70C020020640300207C02002010B50C46B32C014694BF2246B4220448B3
:2012E0000BF0A0FE2046BDE81040FFF79BBF00BF6603002030B583B001F00AFA01281BD041
:2013000000F088FFD0B1154B5B88022B1FD000258024134801A900F085FF012803D19DF8A2
:2013200006406306F5D07DB90E4B64B293F90000A042D4BF0020012003B030BDFFF7B0FD0F
:20134000012806D10546E3E7FFF790FDECE70120F2E7FFF78BFD0120EEE700BF7C02002057
:2013600001000304F202002008B500F053FF58B1064B5B88022B06D1FFF7BCFF10F1FF3030
:2013800018BF012008BD002008BD00BF0C0200202DE9F84F284800F007FE08F01BFC0128C4
:2013A00003D000242046BDE8F88F244C244D01F0E5F8204600218C220BF00EFF00218C22E9
:2013C00028460BF009FF4FF0000CE64640F25F3102261C4B1C481D4A66F3830C66F3830E37
:2013E0008427DFF874A0DFF87490DFF8748025602C6084F805C0E78000264FF4005B85F8B7
:2014000005E0EF80CAF8004083E850008362C0F82C90A8F82010D181A2F810B0FFF740FDB3
:2014200001280446BDD10A4801F02AF93146094802F0CEFAB6E700BF400000201C040020C7
:20144000A8040020580300200C0200203C020020F4D400006C000020600300204C03002073
:201460005402002010B5064C042023685B699847236804205B6B98470128F9D110BD00BFBA
:20148000B8010010F8B51A4A00200021C2E90001184B04201B685B6B9847012801D0FFF7E6
:2014A000E1FF144B00201B68DB699847124B0121124A196013689B07FCD5114A11491368B5
:2014C000096823F4807323F001030F4C13600B6820460E49984740F221200D4D0D490E4B21
:2014E00004273126012227602E6008601A60F8BDF8020020B8010010282008602820084078
:201500000C000140C801001000000140002100043C000140080001400400244310B40949F8
:20152000094C0B68226808688342FAD1DB01074903EB52620023C1E900235DF8044BD1E93D
:2015400000017047082009400C200940F802002010B50B490B4C0B68226808688342FAD166
:20156000DB01094903EB52620023C1E9002302F0B7F800B910BDBDE8104002F083B800BFA3
:20158000082009400C200940F802002010B508F0A5FB034B1C6808B908F0A4FB204610BD91
:2015A00008200940704700BF0146012000F052B808F0F6BA2DE9F04108F090FB1D4E1E4B9C
:2015C0001E4F32680124002580464FF480314FF480703D601C601860196013682846232196
:2015E0009847336820461B6824219847336802201B6825219847124A1249136843F4E02393
:2016000013600D6008F0CCFA0F4B1049104A1B6800F50070086014603C601B691420984728
:20162000B8F1000F01D0BDE8F081BDE8F04108F059BB00BF84010010042009400000244301
:201640000020094008200940B00100101C200940A0022443431E012B10B41BD9042802D01E
:201660005DF8044B704700231A4610F004001CBF0E4C216013B10E4B0121196012B10D4BFF
:2016800001221A600028EBD00B4B01221A605DF8044B704710F0010302D0084A01231160BF
:2016A00010F00202E1D0064C2160DEE72020094080022443A0022443C002244318200940B8
:2016C0001C200940014B1868704700BF3405002008B5FFF76DFF184B1860FFF739FF174B60
:2016E0001B686BB9164B1B68E3B9164B1B6833B11549164B00204FF4803208601A6008BD80
:20170000124B4FF480721A6008F04AFA00F205200F4B20F4FF7020F001001860084B1B682E
:20172000002BE2D00B49094B0020012208601A6002F092F9D9E700BF34050020A0002443A3
:2017400080002443C0002443C0022443042009401C20094080022443820702D5034B0122A6
:201760001A60C30700D4704708F0BCBA000C084008B508F0B3FA074B1A68012A03BF064966
:20178000022219600022002814BF104642F0010008BD00BF000C084051E5CC1A034904487A
:2017A000044B012208601A60704700BF00000840FFFF0F00000C084038B5FFF7D9FF064CA9
:2017C000064D0749074A012325600B601360BDE83840FFF7C1BF00BF00000840FFFF0F00E7
:2017E0000C0008400401004303490448044B012208601A60704700BF00000840FFFF0F0096
:201800000C00084010B50446C0B200F07DF9204610BD00BF70B506460024451E04E015F8B2
:20182000010F00F071F9013430460BF023FD8442F5D30A2000F068F900F07AF90128FBD018
:20184000204670BD70B50446B0B10078C0B1A9B10025661804E014F8010F38B1B44205D08B
:2018600000F052F9631C05F10105F4D100F060F90128FBD0284670BD0546F7E70D46F5E7BD
:201880000546F3E710B40B4B0B4C13F8012FFF2A0ED1A342F9D1094A39B1114401380139BB
:2018A0000B78914200F8013FF9D15DF8044B7047034AF1E7C7FF0100CFFF0100F012005068
:2018C000C8FF010038B50C4D02202B685B6998472B6802205B6B984701280446064BF7D1BC
:2018E0001B684FF40070DB699847044B044A1C6013689B07FCD538BDB8010010282008601A
:20190000282008402DE9F04340F2F275DFF8DC8083B0FFF7D7FFD8F800302A4EDB682A48F6
:2019200098473368294C5B69152098472368DFF8C090274F23F4FE63D9F8002023F0020337
:2019400023603D60D36B032098472249D9F800300820122208600092D3F840C01A48022115
:2019600003221323E047D8F800301748D3F804C019494FF4E1326023E04740F2011240F21E
:20198000013E1649164B142008601968154841F01001196003681449002B0CBF1346734643
:2019A0000B603D60036853B12368326843F0500323601369152003B0BDE8F043184703B034
:2019C000BDE8F083B001001000100040381000404410004090200240006CDC023410004002
:2019E0002C1000403805002030100040D0010010B401001008B5064B02201B685B6B984790
:201A0000012803BF034B186800F00100002008BDB80100106C20084038B50446FFF7EAFF84
:201A200018B1254A13681907FCD4032C03D0234B1B6803B138BDFFF7DDFFE0B9204D4FF44C
:201A400000702B681B6A9847032C2AD01D4B01211D4A196013689B07FCD5032000F0C0FAD1
:201A6000022000F0BDFA132000F0BAFABDE83840122000F0B5BA154B15481B68DB689847B6
:201A8000144B15201B685B69984740F2F270124A1249136823F4FE6323F00203136008605B
:201AA000CCE72B684FF400709B6A98472B684FF400701B6B9847C9E7181000403805002029
:201AC000B80100102820086028200840D001001000100040B00100103810004044100040EF
:201AE00010B508F0FBF80446054800F05DFA054B00221A6004B110BDBDE8104008F0F2B853
:201B0000580000203805002010B50446FFF772FF08B9FFF7F7FE044B2146BDE810401B68A0
:201B20000248DB69184700BFD00100100010004008B5FFF75FFF18B1024B1868C0F3C000AE
:201B400008BD00BF1810004038B5FFF7BBFE40F2F2710C4B0C4A1B68116013F0500F10D085
:201B60000A4C0B4D05E02B681B699847094B1B6823B923680848DB06F5D538BDC0B298475D
:201B8000F7E738BD401000404410004018100040D001001038050020001000402DE9F0470B
:201BA0004FF000094C4682B040230F46164601930546CDF8009008F091F84A4BDFF864E19F
:201BC00001204FF480714FF48032DFF85C81CEF80090186019601A60D8F8003020461B685D
:201BE00001343F219847042CF6D1DFF83C810024D8F8003020469B6801343F219847032CB6
:201C0000F6D1394B1B68FFF7EFFD384801F0C6FF044630B1A368032003B198472468002C3A
:201C2000F8D16B1C0CD0324BAA0013430021314A1960136846F000523A4328461B68984796
:201C40002D4EDFF8E8A000243368CAF800409B690720984768460AF04FFA00F093FA00F081
:201C600041FA264826490368326823F0030303600B68244D23F00F030B6093693820984724
:201C80002C6001200AF058FADFF8A490DFF8A4E01D481E491E4B1F4A4FF00108124F2C6012
:201CA000C9F80040CEF8008004600C60CAF800401C603B6818491368096823F00303136013
:201CC0004B68164803219847154A33682C60C9F80040C2F800809B6B3A68984702B0BDE851
:201CE000F08700BF042009402C2009403C050020001A4442B4010010B801001000100940C4
:201D0000081009404010094040012243440122430800094024220840D8010010004003402E
:201D20001810094000002443840100100C4009402004224388010443034A136823F0040366
:201D4000136030BF704700BF10ED00E070B507F0C5FF01F007FE18B1BDE8704007F0C2BF62
:201D6000814801F01BFF0225044648B1636823B19847A84228BF2846C5B22468002CF5D173
:201D8000FFF716FC794B04461B68002B40F08B8001F0A6FC002840F09280012D014600F0E2
:201DA000D680022DD8D1002840F0C3802846611EFFF750FC6C4801F0F1FE062504460028FA
:201DC00000F0B080A368022003B198472369246825EA0305002CF5D1FFF706FD6B0705F0A2
:201DE000060400F1A280002C40F0A78000F0CAF900200AF0A1F95E495E4A0B685E4823F061
:201E000003030B601368016843F00F0313608B6939209847594A5A490023136018461360DC
:201E20000B6008F08BFB062C00F08D80554C564D564E2B682368326823F003032360536893
:201E40005348032198474C4B1B689B6B98472B6808F0CCFC4F4A3368002111604C485B6875
:201E60000121984723684C4A012143F00303236011602B6808F0ECFC0AF02AF9FFF768FB08
:201E8000FFF7B2FC384801F089FE044628B1E36803B198472468002CF9D107F023FFBDE865
:201EA000704007F01FBF3D4B1B681B1A022B34D4A3F28F23002BBFF66BAF01232EE001F0C4
:201EC00017FC0646FFF72AFB361A002E7FF744AFFFF7F8FB324B00EB46211B1BCB423CD496
:201EE000012085427FF45DAF6FF007031B1BCB4230D404F58034631A31EA230128BF214614
:201F00000220FFF7A7FB274A136823F00403136030BFBDE8704007F0E5BE00239D4228BFC7
:201F20001D4635E7FFF760FC06241B4B00221A6059E72846FFF78EFB3CE70F4B20461B6811
:201F40009B69984752E7022007F016FF6EE704F58031D5E704F10801D2E7022DC4D0012DD4
:201F60007FF4FAAEC0E700BF3C050020800224430010094008100940B8010010401009407A
:201F800020042243242208402C200940D801001000400340800104430C400940182009404B
:201FA00071FDFFFF10ED00E00146014801F0F8BD3C0500200146014801F036BE3C0500206B
:201FC00010B5054801F0E6FDBDE81040034B03201B6820211B6818473C0500208401001019
:201FE000421C0ED010B50446064B4FF4C0421B6800211B689847044AA3001A430023136016
:2020000010BD7047B4010010001A444238B504460D4607F063FE01230549064AA3400B60E5
:2020200042F8245000B138BDBDE8384007F05ABEE020024040050020064B002103F1800291
:2020400043F8041F9342FBD1034B10201B681B69184700BF3C050020B0010010F8B5094BBB
:20206000094F1D6800241D60012606FA04F32B42E0B203D057F8243003B198470134202C3B
:20208000F3D1F8BDE02002404005002010B584B00022412302A8029203930AF02DF804208A
:2020A00007F054FE032813D00420032107F01EFE042007F04BFE03280346F9D1074A08482B
:2020C00012680093546800214FF040521C23A04702A80AF067F804B010BD00BFA401001027
:2020E00000A00C4000B583B00022412368468DE80C000AF001F8042007F028FE022808D021
:202100000420022107F0F2FD042007F01FFE0228FAD168460AF046F803B05DF804FB00BFB9
:2021200000B583B00022412368468DE80C0009F0E3FF012007F00AFE012803D003200121C6
:2021400007F0D4FD68460AF02DF803B05DF804FB00B583B00022412368468DE80C0009F04D
:20216000CBFF012007F0F2FD012803D0044B986B07F000FD68460AF015F803B05DF804FB90
:202180004800001010B582B04123684600240193009409F0B1FF0320214607F0A7FD0120A3
:2021A00007F0D4FD18B1044B986B07F0E3FC684609F0F8FF02B010BD4800001070B5038841
:2021C00004465BB140F21A22934203D182290AD0012070BD00230380032070BD40F21A235A
:2021E0002380012070BD094B094E1D69FFF7FCFA08F060FF08F018FF8021A847002880B281
:20220000ECDD08F00BFF33699847EFE7FCD400005CD90000024B186800F00100704700BF69
:202220009C21084010F0030370B506460D4602D1028811051FD407F051FD1F4B00301B6807
:2022400018BF0120DB0720D51C4B1D4C1E6023684CF250322B6003E02368013A2B6014D073
:2022600013F0FF0FF8D018B32878A0F10100B0FA80F0400970BD438007F030FD0E4B003088
:202280001B6818BF0120DA0702D468B1002070BD338813F4405FD7D003F44063B3F5006FED
:2022A00004BF084B1E60CFE707F01CFD002070BD07F018FDD8E700BF9C2108400010044094
:2022C00004100440C00500200A4A01E0013A0ED0438803F44063B3F5806FF7D1428802F4EF
:2022E0004062A2F58060B0FA80F0400970471046704700BF20A1070030B583B007F0EEFC1E
:20230000224C0546236819201B6A9847236812201B6A9847236819205B6998472368122097
:202320005B6908349847236801205B699847236801205B6B98470128F9D11549154B164A0D
:202340000860186013689B07FCD5104C134814492268002303600B60136919209847236801
:2023600012201B6998476DB10E4B07221A6001A90D48FFF757FFA0F10100B0FA80F040096E
:2023800003B030BD07F0AEFCEEE700BFB00100102C2008402820086028200840101004604F
:2023A00014100460000004600100060440F60A0230B5164B87B01D680024012301A8694642
:2023C00001940494059502940394ADF804208DF81130FFF727FF012802D0204607B030BD59
:2023E0000B4801E00138F9D0BDF8063003F44063B3F5806FF6D1BDF8060000F44060A0F5E0
:202400008060B0FA80F0400907B030BDC805002020A1070010B540F6090486B0002301229C
:2024200001A8694601930493029303930593ADF804408DF81120FFF7F5FE012802D0C0B261
:2024400006B010BD0F4801E00138F9D0BDF8063003F44063B3F5806FF6D1BDF8063003F4FA
:202460004063B3F5806F02D0002006B010BD064B1A782AB9054A0599012011601870DFE71A
:202480000120DDE720A107009B220020C805002030B587B007F022FC2F4C0546236819200A
:2024A0005B699847236812205B6998472B4B1B68DA0715D540F60D04294A2A490023136092
:2024C00002A80B60012201A90293059303930493ADF808408DF81520FFF7A4FE01282CD05C
:2024E000FFF798FF2048214B00240121204A0460196013689B07FCD51E4C012023689B69E6
:202500009847236801205B6B98470228F9D1124C192023681B6A9847236812201B6A9847F0
:20252000236819201B699847236812201B6998470DB907F0D7FB07B030BD0F4A01E0013AAC
:20254000CED0BDF80A3003F44063B3F5806FF6D1BDF80A30C4E700BFB00100109C210840D7
:2025600010100460141004602C2008402820086028200840B801001020A1070008B507F036
:2025800051FB052803460BD003280DD018B101280FD0002008BD094B03221A60012008BD07
:2025A000064A0120136008BD044B02221A60012008BD024A0521116008BD00BFD0210840FF
:2025C000F8B5164A164B1268002814BF00241C46D30700D4F8BD07F081FB0646114A1248BB
:2025E000124F134D00214FF000433B60046011602B6819201B6A98472B6812201B6A9847AE
:202600002B6819201B6998472B6812201B69984706B1F8BDBDE8F84007F064BB9C210840FF
:2026200000008080101004601410046018100460B00100100028064B14BF0822022200297E
:2026400018BF0023034804491A4303600A607047000080801010046014100460034B002885
:20266000034A18BF00231360704700BF0000808014100460014B1868704700BFC00500207B
:20268000014B1860704700BFC405002008B5074B1B68DB0704D4FFF72FFE012800D008BDEA
:2026A000034B6FF000421A6008BD00BF9C2108401010046008B5124B1B68D90707D41148F3
:2026C000FFF7A8F8FFF718FE012800D008BD07F005FB0D4B1A6812020BD40B4B1A6812F0FC
:2026E0000A0F1CBF6FF00A021A60BDE8084007F0F9BA6FF400021A60044801F089F9ECE7F9
:202700009C210840C0D70000101004606C000020014B1878704700BF9C22002008B500F030
:202720008BF880B208BD00BF00F010B938B50C4D04202B685B6998472B6804205B6B9847AB
:2027400001280446064BF7D11B6840F20140DB699847044B044A1C6013689B07FCD538BDD8
:20276000B80100102820086028200840034B1B68002B14BF01200220704700BFCC050020D7
:20278000F8B503880446002B2ED0B3F5847F05D1184B1B788B4205D00120F8BD00230380F9
:2027A0000320F8BD144D2B6873B1144B144A1B6812685B680220174698470026301847F1A8
:2027C00000012B6898472E600E4B40F201401B689B6A98470C4B01210C4A196013689B0760
:2027E000FCD50B48FFF7E6FB4FF4847323800120F8BD00BFF3020020CC050020CC01001089
:2028000004800240B801001028200860282008407C00002008B5064B04201B685B6B9847F3
:20282000012803BF034B1868C0F34000002008BDB80100103C20084070B5274B1B689BB134
:20284000264C0023224612F8011B29B90133042BF9D10020014670BD214A002502EBC30270
:20286000E55492E8030070BDFFF7D4FF00282FD01C4A1D4B1268134073B91C4A01211346DD
:20288000116018680028FCD102464FF4807108F01DF8174B01221A6007F020FA0646114A12
:2028A0001368DB07FCD5134B134A1B6814685B680220984723460022141843F1000516B1B5
:2028C0002046294670BD07F00DFA2046294670BDFFF72CFFCCE700BFCC050020D00500207D
:2028E000000300200880024001000080F09F0240A8025042CC0100100480024038B50E4D72
:2029000000240E4A2C6013680D4923F00103096813604B6931209847204622464FF48071FD
:2029200007F0D4FF0122074B2A6019782246BDE83840054801F020B8A80250420C80024098
:20294000B0010010F30200209000002010B5074C2378802B00D010BD00F08CFF20700021CA
:202960000348BDE8104001F033B800BFF3020020900000200AB90020704708B508461146BB
:20298000FEF760FF002008BD0FB400B583B004AB53F8041B04481A46019300F025F803B03A
:2029A0005DF804EB04B07047A0000020102970B50C46054602D80AE0102C0BD92B68686866
:2029C000084910229847103C0028F5D070BD08460029FBD022462B6868680249BDE8704082
:2029E000184700BF6CD800002DE9F04F82460F468FB007924FF0000B3B78002B00F0E880AB
:202A0000252B08BF3E461BD03C4602E0252B04D014466378621C002BF8D1974216460CD0F0
:202A2000D51B39462A46DAF80030DAF804009847002840F079826378AB44002B00F0C88080
:202A400073780136002B00F0C38019460025A1F12003102B1BD8DFE803F0171A1A141A1A42
:202A60001A1A1A1A1A111A0E1A1A090045F0100516F8011FEBE745F00105F9E745F00605B9
:202A8000F6E745F00805F3E745F00205F0E7A1F13102082A0B46374600F2DC80A1F1300253
:202AA000092A4FF000040AD804EB840403EB440417F8013F303CA3F13002092AF4D92E2B37
:202AC00000F0D1804FF0FF366C2B00F03D81682B00F04281782B00F28180DFE813F07900DD
:202AE0007F007F007F007F007F007F007F007F007F007F007F007F007F007F007F007F00E6
:202B00007F007F007F007F007F007F007F007F007F007F007F007F007F007F007F007F00C5
:202B20007F007F007F007F00BE027F007F007F007F007F007F007F007F007F007F007F0064
:202B40007F007F007F007F007F007F007F007F007F007F007F007F007F007F007F007F0085
:202B6000BB027F007F007F00B802B502B2027F007F007F007F007F007F007F007F007F007F
:202B80007F007F007F007F007F007F007F00AF027F007F007F007F007F007F007F007F0013
:202BA000AC027F00A902A602A302A0029D027F00A6027F007F007F007F009A0297027D00DA
:202BC0007F007F0091027F008E027F007F00940258460FB0BDE8F08F45F4407505F4E06316
:202BE000B3F5806F07F1010700F0CE804FD9B3F5C06F00F0A581B3F5E06F00F09A81B3F541
:202C0000A06F7FF4F9AE079B012C1A6803F1040307938CBF04F1FF340024EB078DF8202057
:202C200000F1D08150462146FFF7C0FE002840F07B81DAF80030DAF8040008A901229847C2
:202C4000002840F071810BF1010C0CEB040505EB040BD1E62A2900F08C800B462E2B4FF033
:202C600000047FF42FAF7B78791CA3F13002092A7AD80F46002606EB860603EB460617F8EB
:202C8000013F303EA3F13002092AF4D91CE7B3F5807F00F0B080B3F5407F7FF4ADAE079B1F
:202CA000C34A1968C34815F4804F03F1040308BF9046079318BF80460A460023002900F048
:202CC00094810DF133094846110941EA03714FEA131E02F00F0673460A4618F8061000F8C6
:202CE000011D52EA0301EFD1B9EB0006034600F07E810336B4424FF030024FF078014FF03D
:202D0000230300F8022C8CBFA41B0024EA0700F8011C00F8033CA0F1030800F1A1815046B7
:202D20002146FFF743FE002840F0FE804146DAF80030DAF8040032469847002840F0F4809D
:202D40005E4406EB040B57E67B786C2B00F00481013745F06005BDE67B78682B00F0938196
:202D6000013745F04005B5E62A2B00F091810F46A8E6079B771C1C680433002C0793B8BF9F
:202D800045F0010573789AE6079BD3F8009004330793B9F1000F00F08F8299F80030002B19
:202DA00000F0B2824B4613F8012F002AFBD1C9EB0308002E02DBB04528BFB04644458CBFBD
:202DC000C8EB04040024E90700F1E08050462146FFF7ECFD002840F0A7804946DAF80030E7
:202DE000DAF8040042469847002840F09D80D84408EB040B00E6002EABBF25F01005012337
:202E00000196019315F40053049305F0E00300F0A880402B00F07F8200F24181002B00F079
:202E20002D82202B40F05A82079B1A1D079293F90020D317002A73F10001C0F22A82CDE9E1
:202E400002230023059305F4C053B3F5805F00F09281B3F5C05F00F0BF81B3F5006F00F0FE
:202E600067810DF136064FF00008019B41F20802984541F6080303EA050380F0338101993E
:202E80009342C8EB0101019100F0468141F6080201999342414400F031814FF000094A46B0
:202EA000049B73B1059B002B40F0838105F00603022B00F01B824048062B04BF02464FF095
:202EC000010909EB01039C428CBFE41A002415F00103049306D1E80640F1F681019B234495
:202EE000049C0193B9F1000F07D01146DAF80030DAF804004A469847B0B9019B08EB0B0568
:202F0000102B40F291819B4603E0BBF1100F40F28E81DAF80030DAF8040028491022984708
:202F2000ABF1100B0028F0D04FF0FF300FB0BDE8F08F079B1A680433C2F800B007935BE502
:202F4000DAF80030DAF804001D49012298470028EAD10BF1010B4FE5BB7845F080050237EC
:202F6000B8E5402B00F0C68100F2A980002B00F09881202B40F02181079B049A05921A1D98
:202F800007921A780023CDE902235CE74946DAF80030DAF80400424698470028C4D15046A4
:202FA0002146D844FFF702FD00283FF421AFBBE738D8000024D800005CD800007CD8000038
:202FC00068D80000DAF80030DAF8040008A9012298470028A8D1504621460BF10105FFF790
:202FE000E5FC00283FF433AE9EE70DF13303302203F8012C581E04267CE645F41065EDE5FF
:2030000045F48065EAE545F4C855E7E545F48855E4E545F4E065E1E545F48135DEE545F493
:203020000075DBE545F40245D8E545F42455D5E545F4A065D2E545F4C135CFE545F4B245AA
:20304000CCE545F4A135C9E545F48445C6E545F44245C3E545F4E135C0E545F4C065BDE5F9
:203060004146DAF80030DAF804003246984700287FF45AAF504621465E44FFF797FC0028A6
:203080003FF45FAE50E7BB7845F02005023721E5079ABB78111D07911668023714E5602B18
:2030A00000F0EC80802B40F01981079B073323F0070303F108020792D3E90023BAE6602BA5
:2030C00000F0EF80802B78D1049B0593079B073323F0070303F108020792D3E90023CDE941
:2030E0000223B0E6934200F0EC800022019241F608020199934241447FF4CFAEDDE902231F
:2031000013433FF4CAAE874B15F4804F864A4FF0020908BF1A46C3E60B46002908BF0123B5
:203120000193019B4FF000094A4603EB0801B7E6DDE9028942464B46134300F0E7800DF1DE
:2031400036031E460693404649460A22002309F05FFC30324046494606F8012D00230A228F
:2031600009F056FC8046894658EA0903EBD1069BC6EB030879E6DDE90223134300F0C68032
:203180000DF1360306939E46DDE90223D00840EA4370DE0802F007013346024630310EF8D3
:2031A000011D52EA0301F1D1069B7646CEEB03085BE64FF001095D4A83E605F4C053002206
:2031C00000200021B3F5805F0592CDE90201D2D0B3F5C05F40F08580DDE90201544A554B32
:2031E00015F4804F14BF9046984602460B46134300F08C800DF1360306931E4602460B46B8
:20320000110941EA03714FEA131E02F00F0073460A4618F8001006F8011D52EA0301EFD145
:20322000069BC6EB030820E6019B9B464BB15A46DAF80030DAF804003F49984700287FF438
:2032400073AE31464246DAF80030DAF804004D44984700287FF468AE019B2B441E46049B47
:20326000002B3FF46EAD50462146FFF79FFB00287FF45AAE06EB040BFFF7BEBB079B1A6812
:2032800004330793002A4FEAE27373F10001BFF6D6AD524263EB4303CDE902230123059349
:2032A000D1E5049A079B05921A680021104604330793CDE90201C6E5DFF884904FF006081B
:2032C00077E5012301932CE7504621460292FFF76DFB029A00283FF405AE25E600220023DE
:2032E000ADE5DDF814800DF13606BEE5134A4FF00109E6E5079B049A05921A1D07921A883C
:203300000023CDE902239EE5984652E54FF000080DF13606A9E5079B1A1D0792B3F90020CA
:20332000D31787E550D800004CD8000054D8000024D8000038D800007CD8000058D800002F
:2033400060D8000010B50446006830B1002100F03FFB54F8040F0028F8D110BDF0B5038845
:2033600083B005465BB14A2B04D188291BD0012003B0F0BD00230380032003B0F0BD1948D2
:2033800000F00CFC044630B1201DA16800F080F92468002CF8D1144B01221A704A23012040
:2033A0002B8003B0F0BD0F48019200F0F7FB04460028F3D0019A031D9A4205D02468231DC9
:2033C000002CEBD09A42F9D10648214600F02CFC064E6269A369376832600BB1E069984753
:2033E0003760DBE7D40500209D220020E005002010B5064B002406481C7000F0CBFB214666
:20340000BDE81040034800F0E3BA00BF9D220020D4050020A800002070B504460D48049D1B
:203420000078A261E361656130B9A1600A482146BDE8704000F0B4BB084D094B2E68201D34
:203440002B6000F025F92E602146BDE87040024800F0A6BB9D220020D4050020E005002011
:20346000A800002010B5044C82B024680094FFF7D3FF02B010BD00BFE005002070B5094B99
:2034800004461B783BB1084D084B2E6804302B6000F008F92E602146BDE87040044800F0EF
:2034A0007FBB00BF9D220020E0050020A8000020D405002070B5094B04461B783BB1084DD7
:2034C000084B2E6804302B6000F0F6F82E602146BDE87040044800F063BB00BF9D22002024
:2034E000E0050020A8000020D405002010B50A4B04461B783BB9C36003612146BDE8104038
:20350000064800F091BB043000F0FCF82146BDE81040024800F088BB9D220020D405002058
:20352000704700BF10B50E4C2368B3B1FDF7F6FF22685168136892681944091A4AB192E871
:20354000180023441B1A9268994228BF1946002AF5D1044B0844186010BD024A136010BD40
:20356000D8050020DC0500202DE9F041038805467BB1592B08D1872912D0822920D05923FE
:203580002B800120BDE8F081002303800320BDE8F081254A0120136059232B80BDE8F0812A
:2035A000214F3B68002BEAD0D9688A4203D024E0D9688A4220D19B68002BF9D13B60DEE7D9
:2035C000194F4FF000083C68002CD8D0002604E0A3682646002BD2D01C46204600F064FA60
:2035E0000028F5D0E0688821224600F0C5F978B10E4800F00DFAEBE73B6099680029BED03C
:20360000C86882420BBF89680B4699608968F5E7E060A3682EB1B360C4F80880FFF782FFEC
:20362000D1E73B60F8E700BFD8050020B800002010B50446104800F0EBF91049E3680A6873
:203640004BB142B194420FD0134601E09C420BD09B68002BFAD10A4BA2601B680C60E36051
:20366000BDE81040FFF75EBF054B1B68E360BDE81040FFF757BF00BFB8000020D805002097
:20368000E0050020014800F0C3B900BFB800002010B5044600F0F4F92046BDE81040FFF79C
:2036A000C7BF00BF10B5044600F0F2F92046BDE81040FFF7BDBF00BF10B5044600F0EEF969
:2036C0002046BDE81040FFF7B3BF00BFC068B0FA80F04009704700BF05C81044704700BFD0
:2036E000024B1868003018BF01207047D8050020024B186808B1024B18687047D80500201A
:20370000DC05002010B5114B04461A68904218D05AB19368834208BF13460AD02BB19A685E
:20372000A24206D01346002BF9D10023A360E36010BDA2689A60FFF7F5FE0023A360E360F5
:2037400010BD82681A60FFF7EDFEEEE7D80500202DE9F843DFF8A480274DD8F800702E68EF
:20376000874247D077B33B4601E0002B3BD01B689842FAD133B3837B8946044623B3002389
:2037800083736FB1BC424FF0870106D0BB7BDB0703D53846224600F033F83F68002FF1D1EF
:2037A000A3683BB14C4505D02C6004F10C00832100229847D8F80000844208D12368C8F8C0
:2037C00000302E60BDE8F88338468442F6D00028F7D00368A34208D0002BF2D01A68A24297
:2037E00004D01346F8E7BDE8F883034622681A602E60E7E73B46BDE7E0050020E4050020C1
:2038000070B586687EB104460A4802230460A37304F10C000D46B0470238012804D9832DF0
:2038200002D00123A37370BD20462146BDE87040FFF78EBFE005002070B50C4A0C4B146897
:2038400000251D7084B1012601E0246864B1E37B002BFAD0A673E573204682210022FFF7F3
:20386000CFFF2468002CF2D170BD00BFE4050020A0220020024B1878421C1A70704700BFED
:20388000A122002070B407480749084A0023084D084C8A2603700B6013602E70237070BC06
:2038A000704700BF9F220020E4050020E0050020A12200209E2200202DE9F041244D2B7885
:2038C0000BB1FFF7B9FF234E3378D3B1DFF890E0214F9EF80020013B02EB420189007C18E8
:2038E0000132A068DBB202F01F0233708EF800207F5CD4F8048098B1812F06D0827BD207D4
:2039000005D428781844BDE8F0810123837339464246FFF775FF337828781844BDE8F08174
:203920000E4A146834B9ECE7A37BD9070AD42468002CF0D02B78002BF6D0FFF77DFFA37B7B
:20394000D907F4D5204639464246FFF759FFEEE7A02200209F220020E8050020E405002055
:203960009E220020024A034B10781B78184470479F220020A0220020F0B40C4D2C78202CEF
:2039800011D00B4B0B4E1B78671C234403F01F0303EB43039B00F418A06062602F70F15484
:2039A0000020F0BC70470120F0BC70479F2200209E220020E805002038B5837B034CDB0716
:2039C000256801D5FFF71CFF256038BDE005002070B404460D4D2868A04206D038B10346B2
:2039E00000E023B11B689C42FBD170BC7047002CFBD0012600232060A673A3810A4620464F
:203A00002C60812170BCFFF7D7BF00BFE405002038B1837B013B012B03D8024A01231370DB
:203A2000C3737047A0220020FDF7BCBD38B5094C049D226822B180E82A002060002038BDE3
:203A4000024680E82A0008462260FDF7ADFD002038BD00BF6807002010B5084C206858B111
:203A600000224368816822609847236823B1BDE810401868FDF798BD10BD00BF68070020F7
:203A800010B541600446FDF749FD206010BD00BF90E80C0013440360704700BF10B504466D
:203AA000FDF73CFD206010BD10B50446FDF736FD23686268C3F10103184482422CBF00201E
:203AC000012010BDF8B504880546672C0CD0792C1BD01CB1002303800320F8BDFFF7CAFE6C
:203AE0001E4A1F4B10701C601D4C264604E00A2813D023687E2B2BDD1A4800F0C1F8431C84
:203B0000F5D167232B800120F8BD852901D00120F8BD134C00232360E6E7114C124F236864
:203B20000E49002603F1010E3A4609783046FE54C4F800E0FFF720FF0C4B32461868852196
:203B4000FFF71AFF0028E5D179232B800120F8BD05495A1CC8543260CEE700BF432D0020E5
:203B600074080020EC070020F4070020E005002008B505480549802200F07AF8BDE808402D
:203B800003480021FFF724BFEC0700206C070020C800002000230360704700BF0068704737
:203BA000026842B1914203D11BE099420ED01A461368002BF9D100230B6002680AB90EE0D4
:203BC0001A461368002BFBD1116070470B68136000230B6000230B600268002AF1D1016032
:203BE00070470B680360F3E710B404684CB1A14217D0224602E0994208D01A461368002B64
:203C0000F9D10C6001605DF8044B70470C460B6813600023236004680C6001605DF8044BF7
:203C200070470B680360F4E7026842B18A4203D10BE0994204D01A461368002BF9D17047FE
:203C40001968116000221A607047134612680260F8E700BF03682BB100201B680130002B06
:203C6000FBD170471846704700B10068704700BF0023013A0160027143718371704700BFCD
:203C80000346807959791A79091A114208D010B4411C1C680A40205C9A715DF8044B70475E
:203CA0004FF0FF30704700BF08B5064803F066FA054B00220120FD21187099705A70DA706C
:203CC00008BD00BF45470000F409002070B413780D7A83F002039D42044614D00B891BB994
:203CE0004B89B3F57F4F2FD01E4A51F8085F13684E68012003F10801A0405E601D60116088
:203D0000C0B270BC7047487A53789842E6D1887A93789842E2D1C87AD3789842DED1087BFD
:203D200013799842DAD1487B53799842D6D1887B93799842D2D1D379CA7B9A42CED10323A4
:203D400003FA04F0C0B2DCE78B89FE2BCCD1054DC9892A68022322F8021B03FA04F02A6056
:203D6000C0B2CEE78008002010B5114C0220A17907F014FAA379112B0FD0062B0DD03A2B67
:203D800005BF94F8281094F82930002143EA01210120BDE8104007F001BA238D618D0120BF
:203DA0009942A8BF1946BDE8104007F0F7B900BFD022002010B5084C2378012B01D0002024
:203DC00010BD01460822A01C09F0FAF800280CBF2046002010BD00BFF409002008B50146D8
:203DE000102007F0E9F9044B04489B6800219847BDE80840FDF7F8BC90D90000013E0000DF
:203E000010B50C461146204602F05AFD044B1B6813B19B6820469847024B1C6010BD00BF52
:203E2000580F0020040A00202DE9F041154D07462A4600239078713230B101330C2BF9D183
:203E40004FF0FF30BDE8F081C3EBC30403EB04142E19717007F0FCF8DFF830800A4A98F8E5
:203E600000301168C01A2F55B070CC1807F0F0F898F800202146821AF01C09F0D3F8B078AD
:203E8000BDE8F081080A0020000A0020A32200202DE9F04F074683B092BB604E894636F8FE
:203EA000063C15469346FF244FF0FF38DFF878A1002B37D1B8F1FF3F4DD0012D06F1B806E9
:203EC0002BD1B8F1FF3F23D0B82000FB08F5DFF850810F2008EB0506A6F81290378207F077
:203EE00077F90146304606F00DFD05F1180040444021FFF7C5FD234658B203B0BDE8F08FA0
:203F0000474D00262C46238ABB422CD0B83436B3FF2358B203B0BDE8F08F36F8063C012561
:203F2000002BC7D03046FFF7BFFD68B13D4B26F806BCE9B29A7822B11A788A4208BF83F8F6
:203F400002B071335345F5D1B8F1FF3FB5D136F8063C002BB1D1ECB24FFA84F8ADE7238A7F
:203F60000126BB42D2D1638A002BCFD00F20019207F02EF90146204606F0CAFC019A0028B7
:203F8000C4D0F4B211462046FFF74EFF0028019A0CDB0028BCDDB82303FB06562346B28AA2
:203FA0001044B08258B203B0BDE8F08F4FF0000BDA461A4FDFF870904FF0B80837F8063C80
:203FC000EBB156451BD038460192FFF76DFD019AA8B100218E468C465FFA8AF008FB00536A
:203FE0005982104B997831B11978814204BF83F802C00EF1010E71334B45F3D1F344B83718
:20400000BAF1000F07D0BBF1000F81D011462046FFF70AFFBDE74FF0010ACFE79C080020DF
:2040200084080020080A0020540F00202DE9F04715090F2D07469A4602F00F043FD00F2CFC
:2040400034D0A146A84666195DBB0F2E03DD5CB9E5B9BDE8F08707EB0800C6F11002002120
:2040600009F0BAF8002CF3D0DFF87480C9F11000D8F8006038443146224608F0D3FF022C8E
:2040800026D03444C8F80040BDE8F08738465146BDE8F04702F004BB454620264FF01009CB
:2040A0004C462A46384608F0BDFFCEE7A84605F11006002DF2D14FF010094C46D4E70F2C4D
:2040C0004FF01008E8D042464546A146A618E9E70A2DD6D8FF22FE23FA723B73D1E700BF91
:2040E000800800202DE9F04F0F2089B0DFF8F482B24D07F06DF8002706F0A0FC88F800700A
:204100002F7006F091FFAE4E3060042007F04EF83368DFF8D4E21C785A7804F0F80100B260
:20412000C029CEF8000042EA042274D0E02963D1297893F8049093F802E0D878C2F30A04BD
:204140004B1D4A46214640EA0E202B70FFF7A0FEB0F1FF3F83465BD09A4AB82303FB0023C6
:20416000B3F814A00123A245009734BF4FF0000A4FF0010A019306F06BFF2B788F4D834280
:2041800046D806F065FF2B7898F80080C51A08EBC9098D4AA944B9F57A7F156038D837B178
:2041A000316807EB080019442A4608F03BFF002C78D0009B53B183494FFA8BF3B82000FBF4
:2041C000031305EB080292B29A821A84BAF1000F40F00E81019BDBB97C4B45441D807C4C73
:2041E000236823B1FFF7C0FD23685B68984702F0DFFF09B0BDE8F08FBB4600973C46754FF5
:204200002A78995C01F0E000602854D041291DD009B0BDE8F08F297893F802E0D878C2F343
:204220000A040B1D3A46214640EA0E202B70FFF72FFEB0F1FF3F8346EAD0624FB82303FB5F
:2042400000770122336822370092D9E73946501CC0B2034403F12000D3F800A0D3F80490FC
:20426000D3F808C0D3F80CE010338342C1F800A0C1F80490C1F808C0C1F80CE001F110011D
:20428000EAD118685B6808604B6098F800302932283388F80030009B4FF0000A2A70D14652
:2042A000019368E7019B002B96D0BAF1000FAFD0464B1C8093E7981890F801900232DFF83A
:2042C0002CA14FFA89FC1344BCF1000FCAF80030BCBF0133CAF80030CA064AD501F00803B2
:2042E00003F0FF0E002B40F0B081DAF800301A461B78C3F3830343F060033B7012F8010BAA
:20430000A7F802E0830803F0300343EA8013CAF800207B7001F0040303F0FF02019233B973
:20432000DAF8003013F8012BBA71CAF8003011F0030100F09780284B5B5CFB7119F0400F2D
:20434000C9F3011300F06281BCF1000FC0F299810022002B00F08E8020490878012800F0E5
:20436000B6811F4A00239A4699461360009B019301E70B0700F16F81DAF800301A4633F8B1
:20438000010F9B78A7F80100FB70787812F804EB00F00F00019202464FEA9E0303F030002F
:2043A00040EA8E10104303F00F03019A43F06003CAF800203B707870ACE700BFA322002000
:2043C000000A002084080020540F0020BC220020580F0020D0220020BCD80000F40900203C
:2043E00078080020A22200207C080020800800204FFA8BF7B82101FB07F1DFF834A3C2489D
:204400000AEB010319461A8C9C822231BF4E08F009FEBD4B06F24C5916F8012C22B116F860
:20442000031C8F4200F03B8171364E45F4D100221046B823FFB203FB07AAB54B5FFA8BFC4E
:20444000AAF8122003F24C519A781AB11A78624508BF987071338B42F6D1019B002B3FF4DF
:20446000BBAE25E7DAF8003013F8012BFA71CAF8003063E707F1080204920593A54A0F2099
:20448000D25CCDF80CC0029206F0A2FE05990346029A0498FFF7CAFDDDF80CC009F00803B2
:2044A00003F0FF0209F0030E002B36D019F0040F11D1994A0EF1FF331288012BADF81C2014
:2044C00040F21881954B07F1180013F80E2007A90023FFF7ABFD98F8002002F1280388F829
:2044E0000030019B002B3BD1DAF800303268DFF844929B1A2B70002C00F09A80A4F128032A
:204500001A127B713A71BB79112B00F0C080009B4FF0000AD14601932DE619F0040F00F08A
:20452000C880BCF1000FC0F2DE807D490B78012B7FF417AF4B7893427FF413AF794A754B69
:20454000102013F80E901160029106F041FE029903464A46023107F11800FFF767FDBAE797
:20456000DAF80030197801F0F801F029BED11121B971187800F0F301F03900F00400C0B2B7
:204580000329C4D8DFE801F0382F2002597802330909A1F5756189B2090241F0F001398568
:2045A00013F8011C01F00F01A1F5756189B2090241F0F0017985CAF80030002800F0BC80BA
:2045C000303288F8002091E759780433A1F5805189B2090241F0F001398533F8021CCAF8C1
:2045E00000307985E9E7B3F801100433398513F8011CA1F58051D9E7B3F80110053339850B
:2046000033F8021CCAF800307985D6E7464A0F20D25CCDF80CC0029206F0DAFD029A0346E0
:20462000424907F10800FFF701FDDDF80CC035E706F00EFD99F8002098F80030801A0344EB
:20464000283B1A127B713A715DE7002360223A707B707B805EE6DAF80020602310463B7001
:2046600010F8013B03324FEA930E0EF0300E03F00F034EEA03037B700388CAF800207B8015
:2046800048E62A7831680A449278120961E6BB884FF0000ABB85009BD14601936BE516F887
:2046A000020C314603EBC000009308F0BBFC009BBAE61D4B102013F80E9006F089FD4A46FD
:2046C00003461A4907F11800FFF7B0FC03E7487890427FF446AE134A881C116007F1080225
:2046E00005900492CAE632682B7813449A7802F00F021AE7DAF8003013F8012B8DF81D203A
:20470000CAF80030DEE600BFD02200200B0A0020080A0020D8D80000B8D80000D4D80000BF
:20472000F409002078080020C0D80000C4D8000084080020A322002033F8021BF985CAF86F
:2047400000303DE72DE9F04FB14EDFF8F4A2002387B033708AF80030054606F0ABFC06F0B7
:2047600063FCAC4BAC4C1B6820600BB1FFF7FCFA04A80190002D00F0A682294606F0C2F89F
:20478000A64B1B883E2B36D99AF80070D4F8008000230237A24D08F80730A24808F1020355
:2047A0002B60FFF707FB002800F00F8108F103032B604FF08009DFF874B29BF801209BF838
:2047C0000010130943EA0113DBB2980840EA8313DBB210075FFA83FE5FD1BBF802000028F4
:2047E0005BD1080740F0F98012F0F00F40F0F5807823029361E0DFF834B29AF800C0DE468B
:2048000023680CF10105EDB241221D441A700BF1200877460FCF474528606960AA60EB602C
:204820000EF1100E05F11005F3D1BEE803002860696033780CF1290C28338AF800C0337075
:204840000199102006F0B8FC774B744D1B689847724B0028B3F8009036789AF80080ACBFB4
:20486000C0F17D076827C6EB0902C8EB0703B8BF15209A4240F3B880C0F178031E460293E3
:2048800006F0C4FC99FBF6F909F101098145C0F2D980002007B0BDE8F08F090703D112F029
:2048A000F00F00F084802A68DBF800001346106003F804EB2B60602302939BF80630112B45
:2048C00000F005822A6802F8013B9BF807302A60402B00F00582FF2B00F02282012B61D048
:2048E0002A6802F8013B2A60BBF808304F4A3BB953892BB993891BB9D389002B00F0448201
:204900004B48FFF757FA4B4B1860002800F07781427818F80730042043EA021308F8073001
:204920004349454AFFF7D2F960F03F005FFA80F99BF818303D49FF2B00F08F8101F11800A5
:204940000391FFF737FA3B4A03991060002800F0CC8118F8072043781831134308F80730DE
:204960000020019AFFF7B2F949F004095FFA89F949EA00002F685FFA80FE9BF80630282206
:20498000112B3270294900F0108123689AF800209DF80800FF1A991898548AF8007081F84B
:2049A00001E04DE7029B43F0010302939CE7296823F03F031343214A0B701288CB1C2B60C8
:2049C0006823A1F80120029377E71948FFF7F2F900287FF4EBAE8146EDE62B68702203F86F
:2049E00001EB02922B6068E720680BEB0601404408F018FB28884044801B80B206F00EFB49
:204A00000198FFF7EBF9012007B0BDE8F08F00BFA2220020580F0020000A0020BC220020D5
:204A200080080020E822002050D90000D0220020D822002078080020C8220020D222002091
:204A4000A3220020C24BD4F8008093F80090C14E41464A46002308F10400336008F058FBD9
:204A60002B88DFF818E36FEA83436FEA9343BA4AC3F3072309F104095FFA89F988F80030ED
:204A8000BEF8003028881178C9EB070703F1010C27F007071A0A88F80330B04EAC4B88F8C3
:204AA000010088F8022059443A4608EB090083F80090AEF800C0376008F0B4FA07EB090091
:204AC00080B206F0ABFA06F0A7FBA54F804600283FF4DFAE0198FFF781F9404606F0EAFB65
:204AE000404606F0D1FB9B4B1B68012B3FF4D1AE043B012B7FF6CDAE2B883A686FEAC34318
:204B00006FEAD3439449C3F3072391F8008013703368029943442D881FFA83F88C4B21F0EF
:204B200007000521557030601970374632E0D6F8009020684A450346B8BF91469AF80050ED
:204B4000B8BF3A6083F804E04A46284408F06AFA09EB050080B206F061FA06F05DFB054678
:204B600000283FF496AE0198FFF738F9284606F0A1FB284606F088FB764A3368126898443E
:204B8000012AA2F104031FFA88F83FF482AE012B7FF67FAE734B0BEB08011B884FEAD80E07
:204BA0009845C8EB0302C2D32DE74FF2B0020B8D5BBA9BB223F00F0080B290424A8D52BAC1
:204BC00092B200F0B28002F47F42B2F5704F00F0308103F47F43B3F5704F00F0FA80624B7A
:204BE000F0223A7018687B1DC7F801001F465F4B30221B88327027F8023B2F60C5E648F2AB
:204C0000FE03BBF808205A499A420FD14B8B6BB98B8B5BB9CB8B4BB908310420554AFFF7E9
:204C200055F840EA09005FFA80F981E6D5F800C0DFF84CE10CF110032B60BEE80F00CCF816
:204C40000410CCF80000CCF80820CCF80C309BF818304749FF2B7FF471AE91F819C049F0CE
:204C6000080EBCF1020F5FFA8EFE4B8B00F0BC80002B43D18B8B002B40D1BBF81E303C4863
:204C8000002B3BD1038C33B9438C23B990F82430002B00F0DA80BBF82020354B72BB93F83B
:204CA00022205ABB2F6849F0090E3A4602F801CB53F8231F063747F8051C1B795FFA8EFECD
:204CC00013712F6059E62C4905F01CFE58E5029B43F0040302939BF80730402B7FF4FBAD05
:204CE000029B43F002030293FEE548F2FE030A8B9A4202D14B8B002B5BD0CE46D5F800805B
:204D0000DFF880C008F11007BCE80F002F60C8F80000C8F80410C8F80820C8F80C302CE6A0
:204D2000029B43F003030293DEE522F00F0C84457FF449AFF3233B704B8D0A8D1B0A120A73
:204D400003EB021303F5AA637B70BB1C4EE700BFA3220020040A0020A2220020540F00201B
:204D6000000A0020BC220020F8220020FE220020D0220020C822002024D900008A220020AC
:204D8000D8220020E8220020138A002B7FF4B8AD538A002B7FF4B4AD938A002B7FF4B0AD3B
:204DA000D38A002B7FF4ACAD49F040095FFA89F9BEE58B8B002BA0D1CB8B002B9DD11831B5
:204DC000019AFEF783FF40EA09005FFA80FE2F68D3E5F2233B70BBF82830244A1B0A7B701F
:204DE00012883B1D7A8001E7002B87D18B8B002B84D1CB8B002B7FF440AF0B8C002B7FF4AE
:204E00003CAF4B8C002B7FF438AF8B8C002B7FF434AF91F82630002B7FF42FAF2F6891F838
:204E2000273049F00B0E07F8013B5FFA8EFE2F60A3E5F1220E4B3A701A883B1DA7F80120C2
:204E4000BBF82A20120AFA70D0E62A6849F00A0E134603F801CB30F8251F171D80785FFA25
:204E60008EFEA2F801102F60987086E5FA220020F8220020013A0A44914230B414D20C460B
:204E800025786378023403EB05239BB2184480B2834284BF013080B2A242F1D8CB431344F6
:204EA00023F0010302331944914201D030BC70470B7830BC1B02184480B2834284BF0130AF
:204EC00080B2704730B5134B134D1C782B796A79C4EB0323134483B09BB2ADF80630BDF8EF
:204EE000063005F108011844202280B2FFF7C2FFBDF8062004F12801294492B2FFF7BAFF9D
:204F000018B94FF6FF7003B030BD40BA80B203B030BD00BFA4220020D02200200223184666
:204F20002DE9F0412C4D2D4E2A782D4F2832B1184978C90001F1070E704549DC8118745C21
:204F4000DFF89880012C31440AD01DD3632C0DD13B70234C03F094FCD0B90120BDE8F0812C
:204F60004C7802340319DBB21846E5E704F0C004802C1AD0C02C25D0402C1FD04B780233E2
:204F80000344DBB21846D7E7431CDBB21846D3E72B78227828331344984498F80130002071
:204FA000134402332370BDE8F0813B7002440221042001F0D7FF0220BDE8F0813B700120B9
:204FC000BDE8F08198F818103B70FF29EED1C4E73B700020BDE8F081A4220020D0220020ED
:204FE000A622002070B4C278134C0A44D2B2E27083780E0A3344DBB2A37045789E4265704C
:205000000078207003D90135EDB265708DB1C9B28A420CDA0133DBB2A370074A3BB95378B3
:205020000133DBB2537013B913780133137070BC704701302070EAE7C422002010B5084C4A
:20504000014620681430FFF7CDFF064A2368507814789178D2781C7558759975DA7510BD71
:20506000C8260020C42200203A20FFF72BBF00BF08B501F033FB02F05FF802F06FF80F4B4B
:20508000002103F1280223F8021F9342FBD10C4B002103F5F07283F8251030339342FAD16F
:2050A000084A094B4FF48061118003F5A07100221A8220338B42FBD108BD00BFB228002064
:2050C000CC2600208C220020E02800202DE9F041134E347814B3134F04F127033D88AB427A
:2050E00004DB00233B803370BDE8F081DFF83880A5F12802121B04F128012C1B4144A4B27E
:2051000008F1280008F004F8A4F12803191200223C8088F8053088F804103270BDE8F081B0
:20512000A4220020BC220020D0220020074A002332F8021F814203D00133142BF8D1704731
:20514000034A002122F81310704700BFB2280020B42800202DE9F04FC44F042887B03D68C8
:2051600029D0C34ADFF828B3DFF828C30328CBF80020CCF800202CD0022800F09880052868
:2051800000F0598112F83C3CA2F13C0403F0F003602B00F0E280DFF80093B64EB64BDFF8E7
:2051A000FCA2002232801A708AF8002089F8002007B0BDE8F08FDFF8E092AE4EDFF8E08257
:2051C000B8F80030002B40F06D81AB4BDFF8CCA2E7E795F8251001F00F01032900F0F1804D
:2051E0000229D8D1A2F13C04DFF8AC92A14E04F1180840234FF0020E04270020602284F8F4
:20520000351084F83CE084F83D7084F83E0084F83F30338084F834202B7D984F84F83030F5
:205220006B7D84F83130AB7D84F83230EB7D84F833302B7E84F82C306B7E84F82D30AB7EF0
:2052400084F82E30EB7E84F82F302B8A23856B8A638595E80F0088E80F0007F1080007F1F3
:20526000180101F0A3F995F8253003F0100303F0FF02002B40F05581402387F8362087F8C4
:20528000373033887E4A283B1579062100221E12084663712671E571A17184F83B2084F846
:2052A0003A202287FFF70EFEC04320872AE17548704EC278704B0132DFF8E4810021D2B2B0
:2052C000C27031801970A8F8001062B982780132D2B282703AB942780132D2B2427012B913
:2052E00002780132027095F8251001F0FD02052A00F09380002900F09980AA8B002A00F02A
:20530000208395F82620501E85F82600002A40F08D8095F82720082A00F05E83481E012839
:2053200040F25783042A9CBF0320904001F00F0194BFC0B2302001324C1E85F8272085F8F1
:205340002600072C72D8DFE814F00F0100011601060171000601710006012379454E6179B7
:205360001B0230885D18854200F3E180207A28310B44FF28338000F0DA80434D3E4BDFF872
:205380001CA1A0790021363A2A6019708AF80010002840F01B8101220193CDF800C08AF84F
:2053A0000020FFF7BBFD0128DDF800C0019B00F06E81C0F00181022840F00881DFF8D89092
:2053C000A5E0AB8B002B7FF4E6AEDFF8CC900823CDF800C089F80030264E02F03DF8DFF8DA
:2053E000C080DDF800C099F8002002F0200303F0FF01002B00F0B682204C0023142285F88A
:205400002530A8F8003084F8352004F118083C233380502384F83430FEE695F82620013232
:20542000D2B2782A85F8262000F08780DFF86890DFF868A0B5E6154B1B681B8A002B3FF45D
:20544000AAAEDFF85C800B4EDFF84C9000230C3A0821CBF80020CCF80020A8F800303B6071
:20546000338089F8001001F0F7FFA9E6C82600200C230020BC220020A4220020D02200201F
:20548000282A00205C0F0020BC260020C0260020C4260020C0220020B8260020A522002016
:2054A000DC280020AC4AAD4C126803F1080149BA002092F814E0A185E085118A3033218592
:2054C0009BB2508AA3F128010D12112784F807E02571608533806171A77104F118050FCA2B
:2054E00085E80F00294604F1080001F05FF89C4B04F13C0238461A60FFF7E4FCC04380B25F
:2055000058B1E08500236022227063706380002389F8003007B0BDE8F08F4FF6FF73E38562
:20552000F0E7002387F8373087F83630A9E6DFF838928C4BDFF834A233E6002285F82520F5
:20554000DFF82492DFF824A22BE6844CDFF8189204F118084DE6814CDFF80C9204F1180820
:20556000112384F8353052E77C4CDFF8FC9104F1180812213DE6DFF8F0910423CDF800C042
:2055800089F8003001F068FFB8F80030DDF800C0DCF80020CBF80020002B00F0F881AB8BEC
:2055A000002B00F0F4816D4C18223C33338084F8352004EB02082CE71A7802F12801214456
:2055C0004878083202EBC00229601A70DFF8A08101934046CDF800C000F0C8FEDDF800C02D
:2055E000019B002800F02A822A68DFF8809110783C2800F29E81DFE810F090019C019C0142
:205600009C019C019C0112019C019C019C019C019C019C019C019C019C019C01BD009C0124
:205620009C019C019C019C019C019C019C019C019C019C019C019C019C019C019C019C019A
:205640009C019C019C019C019C019C019C019C018D004A009C019C019C019C019C019C01DD
:205660009C019C019C019C019C019C019C016A004A004D000193CDF800C0FFF723FC4FF66B
:20568000FF729042DDF800C0019B00F08080DFF8D89086E59AF80000810740F1AE8141063B
:2056A00000F1478140F0400089F800000193CDF800C0FFF733FC0128DDF800C0019BE6D0F2
:2056C000C0F0A08102283FF479AE2A688FE73A200093FFF7F7FB4FF6FF729042009BD6D1CE
:2056E0001A7800932832A05C01F04EFD009B1D4D1A782832A1184978A05C01F00FFC012867
:20570000009B00F0C1823288DFF85C90002A3FF448ADFCE69AF8000000F0040E0EF0FF0178
:205720000091BEF1000F40F0048140F00402114693F800E089F800100EF128022244D07805
:20574000002840F0A58250780EF1080E05490EEBC00008702A604AE7C0260020D02200209B
:20576000C4260020A4220020B8260020A5220020E82200208DE80810FFF7A8FC9DE8081066
:20578000E28D1120A071A54D002A7FF473AFB5F82A80B8F1000F3FF47AAFDFF89492A04B54
:2057A0009F4DC9F80030248D05F5A07A05E020355545C9F8005000F0A0812B8A002BF6D0AB
:2057C0009845F4D16B8A974810220BB1A342EED12B682BB96B681BB9AB680BB9EB6843B185
:2057E0002946CDF800C007F0EBFBDDF800C00028DDD133888C49DFF83C92DFF8308200228D
:20580000303B02203380CBF80010CCF8001089F80000A8F800203A6001F01EFED0E48DE890
:205820000810FFF753FC06221046A271FFF74AFB9DE808104FF6FF72904278497FF427AF10
:205840004A8D0092002A3FF422AF0A8D0192002A3FF41DAFDFF8E091CDF810A009F5F0753E
:20586000A24603934C4603E03034AC4200F04B8194F825300293002BF6D0228A009B9A429D
:20588000F2D1628A019B9A42EED1664821461022CDF814C007F094FBDDF814C00028E3D137
:2058A00022460094544694F835E0DFF888911EF0040F3A601546039BDDF810A089F8000007
:2058C000564A40F06A8392F8341032880909283AA2EB8101029A89B202F00F02022A318049
:2058E00000F06C83012A00F0638319B91EF0030F00F06E820098A18D808A814200F0618290
:205900001EF0020F05D0012A3FF433AE022A00F08182102384F8353079E59AF8000001939D
:20592000C307CDF800C004D440F0010089F80000BFE6121B0420012101F014FBDFF8F4901B
:20594000E5E501F00F0103297FF470ADDFF8E4900823CDF800C089F8003001F07DFDDDF8D4
:2059600000C040E502F0100303F0FF00EBB12B4C01200422112385F82710A8F80010A8832E
:2059800085F8252004F1180884F835303FE599F8003098077FF519AC204C10223C2384F819
:2059A000352004F11808338033E5B8F800301F495BB1D40740F19A80A883EA8B934288BF7C
:2059C000A8F80020B8F80030AB83002285F82720DEE5052A7FF4A6AC0023DFF8589085F8FD
:2059E00025300E4C802389F8003001F035FD142384F8353004F1180809E540F0020089F8B3
:205A0000000053E6187800F12802224492F801E0083000EBCE002A601870E8E5D0220020EF
:205A2000E0280020D822002000230020DC280020C0260020B8260020CC260020404601938D
:205A4000CDF800C000F048FDDDF800C0019B00287FF4CAAD217EA8F11808FF2900F0D78082
:205A600048F2FE00B8F81820824200F0D080B8F80820824200F0D180AAB9B8F80A2092B99D
:205A8000B8F80C207AB9B8F80E2062B9B8F810204AB9618A39B9B8F8141021B9B8F81620AA
:205AA000002A3FF4F4AD218BA44A81B9518B71B9918B61B9D18B51B9118C41B9518C31B914
:205AC000918C21B9D28CB2F5807F3FF4E0AD3388B3F5A06F00F29982E379984A012B40F2F0
:205AE0008B82013BD371DFF86C9210E5AA8B002A3FF463AF13460A8067E701200421002212
:205B000001F030FA5AE4544694F83520039B02F03F02022ADDF810A053D0DFF8389294F8DF
:205B20003510864A48073FF53CAB92F82F0092F833C092F832A092F82E1092F82D3092F81B
:205B400031E092F82C5092F830700130C0B24FF0140B82F82FC082F82EA04FF03C0C4FF08C
:205B6000500A82F8330082F8321082F8313082F82DE082F8305082F82C7082F835B0A6F8F3
:205B800000C082F834A060B90131C9B282F8321039B90133DBB282F8313013B96B1C82F81A
:205BA0003030228D638D664D6285238595E80F0088E80F00284605F1100100F0F7FCFFF74B
:205BC00060BB6049002201E0142AA6D031F81200009D0132A842F7D1002529465A4A05E070
:205BE00001310A2902F1300200F0D38092F82500002856D00728F3D1002D00F0CD8092F8F4
:205C000026E095F82600864588BF1546E8E748F2FE02208990427FF43AAD2089474A78B915
:205C2000508968B9908958B9D08948B9108A38B9508A28B9908A18B9D28A002A3FF427AD28
:205C4000208B3E4A80B9508B70B9908B60B9D08B50B9108C40B9508C30B9908C20B9D28C8F
:205C6000B2F5807F3FF413ADFF293FF410AD3748009300F05DFB0246002800F08280DFF8E0
:205C8000D490009BFFF78DBA002232802A703AE500990EF12A02042001F064F9DFF8B490EA
:205CA00035E4302505FB01953D60BDF80070284A2F82BDF8047092F800B0507891786F82D6
:205CC000D27894F82F701E4B94F82EC094F82C9094F82DA04FF0010E009785F818B0032777
:205CE0006876A976EA764FF0000B0FCB85E80F00042385F825E0A5F81CE085F816C085F895
:205D0000149085F815A085F8267085F8247085F822B085F823309DF800307046EB7585F812
:205D200027B0FFF78BF994F8342002F0F003502B23D91209053A5B46920015E0D022002042
:205D4000D8220020B4280020CC260020E82200205C0F0020B826002002281FD097F83D1073
:205D600059B10B449A4208DDE11891F83C000F4618B10128F0D10133F4E7DFF81C93FFF7B8
:205D8000F8BB0120022101F0EDF8DFF80C93FFF7BEBB002D88D17AE4154621E791F83D0044
:205DA0000428DBD191F83E2091F83F30DFF8E89243EA0223402B28BF4023EB832B84FFF7C1
:205DC000D8BBB349C88D0099C98A88427FF498AD1EF0100F02D0009A918BF9B9009A92F8E6
:205DE00025E00EF00F02013A072A3FF6DAA901A151F822F02B610000C95F00003D6000001D
:205E00005B5F0000275F00000B5F000013590000E75E00004EF00201FFF7EBB902F1180041
:205E20000393CDF804C0FFF7DDF89A4A94F830001378974983420293DDF804C0039BCDD13E
:205E4000507891F831E003907045C7D191F8320092F802E08645C1D1D27891F833100192D3
:205E60008A42BBD10098014690F827209DF8080004929DF80C2008764A769DF8042081F8B8
:205E80001AE0CA76049A12BB91F8260091F8242091F82210121AA2EBD102D2B211445FFA68
:205EA00081FE0099D0B281F822E0010644BF5242D0B2009A92F82320A2EB92020244D2B25B
:205EC000009802EBDE0180F8241080F8232000994FF0010E91F82400002281F8260089F821
:205EE00000E08A837AE799F800106B4AC9077FF558A90193009B0020102183F82500117018
:205F000001F0AAFA019BFFF74CB999F80020D1077FF547A9009C0721002284F8251084F855
:205F20002620FFF73EB930885C4F002840F0758194F83520D2077FF534A9009F0722002387
:205F400087F82630012087F82520FFF777F8102389F8003001F080FADBE4308818B10193FF
:205F6000FFF76CF8019B94F8352012F0010259D099F80030DF0750D500980023072280F8F4
:205F8000252080F8263083830120FFF757F8102389F8003001F060FABBE4202285F82500D0
:205FA000019389F8002001F057FA019BFFF7F9B80EF03F0002287FF498AC09E70EF03F00DC
:205FC00012287FF492AC03E799F80020D00707D594F835202E4902F03F02122A00F0BE8093
:205FE0002022009389F8002001F036FA3A68002182F82510009B92E500210A46032000F002
:20600000B1FFDFF89490FFF782BA022000214FF4A06200F0A7FFFFF7D1B9009A062382F8C8
:206020002530B1E799F80010C80740F10681009C0521A28384F82510FFF7B3B894F8352071
:20604000D1072DD51EF0100F2AD1009A928B002A7FF4A7A83088013080B2FEF7EFFF99F80C
:206060000030318843F0100289F800200A4A11B143F01203137001F0EFF9009F01210822AC
:206080000023B98387F8252087F82730FFF768BAD0220020C4220020B8260020BC220020DB
:2060A00092060DD594F83A7094F83B20DBF80010308842EA07221144821ACBF800103280E3
:2060C000308880B11EF0100F0DD199F80020029342F00202CDF804C089F80020FEF7AEFF84
:2060E000029BDDF804C094F8360094F83720009902EB0022098C92B28A4202D8002A18BF9D
:20610000114699F8002000989707C1833FF449A8DFF838810023CDF800C0A8F8003001F0E0
:206120009BF9DDF800C0FFF75EB999F80010464ACF072DD5009F308803244021002387F89F
:2061400025401170BB830028E2D04223CDF800C01370FEF773FFDDF800C0D9E791F834203B
:2061600002F0F00150292CD91109053989000022A01890F83C7086461FB3012F4BD0022FB5
:206180000FD09EF83D00E0B102449142F0DC18E094F8352002F03F02022A7FF402A8FFF78C
:2061A000E8B990F83D70042FEBD190F83E1090F83F20009842EA0122402A28BF4022C2837E
:2061C000028494F82D700293009B94F82CE05F751F4694F82E1094F82F40032283F814E0B6
:2061E000997583F825200120DC75CDF804C0DFF85C80FEF723FF0022029B4221BA83A8F80D
:20620000002032801A7089F8001001F025F9DDF804C0FFF7E8B80132B7E70193FEF70EFFEC
:2062200094F83520019B12F0010F7FF486AE3A88002A7FF46EABFEF7B4BF3288002A7FF4F1
:2062400068ABFEF7AEBF00BFB8260020DC280020030C80B2020A5BBA9BB242EA002043EAC0
:20626000004070472DE9F84302FB0105099F1646A8424FF0000204463A609DF820801DD29C
:2062800099464FEAD80807E04946424606F098FE88B13444AC4207D22378A01C002BF3D1BE
:2062A0003C603444AC42F7D33B68002B14BF01200220BDE8F8833C60BDE8F8830220BDE88B
:2062C000F88300BF2DE9F041174D82B0009104460E4690461F46019503460321134820229D
:2062E000FFF7C0FF01281BD12B68187020682B68D4F804E0A168E268C3F802002868C3F893
:2063000006E0C3F80A10C3F80E20089B86744361099B80F813800777836102B0BDE8F081BF
:20632000002002B0BDE8F081640F0020242B0020F8B50C4B07461C460B4D03F160062B6083
:206340002378A01C2BB1A27C3946D20806F038FE28B12034B4422C60F2D30020F8BD0120FD
:20636000F8BD00BF242B0020640F002010B5094C82B0802203468DE8140007480321202232
:20638000FFF770FF10B9206802B010BD002002B010BD00BF680F0020402A00200E4B30B40C
:2063A00003F1600148F2FE040C4D05E09A7C824207D020338B420BD01A78002AF9D0421C7F
:2063C000F4D15A88A242F4D118462B6030BC70472B60002030BC7047402A0020680F002072
:2063E000F0B5114D83B0802203468DE82400044605210E481222FFF735FF012811D12B6821
:20640000187020682A686768A668E168C2F802002868C2F80670C2F80A60C2F80E1003B089
:20642000F0BD002003B0F0BD600F0020C42A00202DE9F0410446254D82B080208DE8210027
:206440000F4690462346224803212022FFF70AFF012837D12B68187026682B68D4F804E0BC
:20646000A168E268C3F802602E68C3F806E0C3F80A10C3F80E2086F81380D7B93075154B11
:206480000022FF2101200227B0745F70D872197019735A809A80DA801A819A72627B1846EE
:2064A0005A73E289DA81FFF79BFF286802B0BDE8F0810023337506F11800394605F086FE8F
:2064C0002E68DCE7002002B0BDE8F081680F0020402A00206C0F002010B5094C82B08022D1
:2064E00003468DE81400074805211222FFF7BAFE10B9206802B010BD002002B010BD00BF45
:20650000600F0020C42A0020E8B138B504460E4B0025FF22022001215870D9721A735D80AE
:206520009D80DD801D819D721A70E27B18465A73228ADA81FFF7D0FF044B186000B1057069
:206540000023237038BD70476C0F0020600F002038B5134B134C1846236003F1600504E0E7
:2065600020682030A842206012D20378002BF7D0037D002BF4D1183005F030FE0028EFD0C6
:206580002068FFF7C1FF20682030A8422060ECD300F0F2FBBDE838400348FDF783B800BF89
:2065A000402A0020680F0020842B002048F2FE0C2DE9F84F0B88804663453FD00B78FF2B8D
:2065C0003CD0354A354F00201346814602F1600E3A6003E0203373453B601FD01A78002A3D
:2065E000F8D09A7C012AF5D15A886245F2D04E1E5D1C002216F801AF15F8014F02F1080B59
:20660000A2451FD15FFA8BF2802AF3D191459CBF91461846203373453B60DFD140B350F868
:20662000024F41688268C368C8F80040C8F80410C8F80820C8F80C30BDE8F88F0120FFF750
:20664000ADFEEBE702F1080615468AEA0404F2B2660014F0800F05F1010AF4B21AD15FFA5D
:206660008AF59542F4D191459CBF91461846D1E7A8F80000A8F80200A8F80400A8F8060055
:20668000A8F80800A8F80A00A8F80C00A8F80E00BDE8F88F2A46B9E7402A0020680F0020F1
:2066A0000B684A688360037AC26083F002030372704700BF10B5FCF731F80446FCF72EF88C
:2066C000054B24029A68A4B22044B0FBF2F302FB130000EB520010BD282A00202DE9F04125
:2066E000344E82B000F086F800F02CF900216022314806F071FD30460021F82206F06CFDD3
:206700002E4C2F492F4B4FF0400818224FF4A06520203560B4601A7086F804800870FFF721
:20672000C9FF48F2FE0E42F2107C40F2FF27264C002500950195F060A4F800E041462A46AE
:206740002B4620466580A580E580C6F810C03575FFF7B8FD1D4A04F1080310685168012255
:2067600003C3237A294683F0020320462372FFF75FFE4FF480732046E3816580A580E58012
:2067800025816581A5812780FFF72AFE4FF40073204627806580A580E58025816581A5819E
:2067A000E381FFF71DFE0A480C2102B0BDE8F041FCF76EBF282A0020242B0020C02709006C
:2067C000212B0020202B00206C0F0020C8220020842B002050B110B5044600F085FF044B9B
:2067E0002146BDE81040186804F050BB704700BFD800002008B504F04FF9034B034918683D
:20680000BDE8084004F010BAD8000020D5670000F8B50C4A05461E461068079B9DF8182000
:2068200004F07CFA044650B12F686968AA68EB68076041608260C360467400F055FF204665
:20684000F8BD00BFD8000020024B0146186804F047BB00BFD800002070B505460C4E3068A9
:2068600004F030FA8DB1044630B90EE02146306804F0F0F9044640B120462946102206F087
:206880009FFB0028F2D1204670BD002070BD00BFD8000020024B0146186804F0DDBA00BF7E
:2068A000D800002008B5FFF7D7FF30B1034B01461868BDE8084004F013BB08BDD8000020F5
:2068C00070B5054610200C4604F082FC0849064604F01EF800B170BD30462946224604F08E
:2068E0004FF8304629462246BDE8704000F0CCBE24D900002DE9F84305460F480F4690461A
:20690000FDF74CF90446A8B1DFF834900BE0D9F800302846394642466668B0472046FDF780
