:020000040000FA
:2000000000500020E9000000E1000000C9000000E5000000E5000000E5000000000000002E
:20002000000000000000000000000000E5000000E500000000000000E5000000E50000002C
:2000400031210000E500000061270000E5000000A51700001D1C0000E5000000E50000003D
:20006000E500000089270000E5000000E5000000E5000000E5000000E5000000E50000008D
:20008000E5000000E5000000E5000000E5000000E5000000E5000000E5000000E500000038
:2000A000E5000000E5000000E5000000E5000000E5000000E5000000E5000000E500000018
:2000C000E5000000D1290000044B1A68B2F5806F03D01B689B0500D4FEE7704728ED00E07F
:2000E000FEE700BFFEE700BF08B504F081FF104A104B9A420DD2D0430F4918440B4620F0EF
:2001000003000430084453F8041B834242F8041BF9D10A480A494FF000028842B8BF40F8AB
:20012000042BFADB00F0FEF8FFF7CEFF08BD00BF00000020140200202D8900001802002048
:200140003A15002070B503880446562B3DD023D95E2B1BD0762B3FD13E4803F0D5FAC8B1C6
:200160004FF470613B4803F0C5FA02F041FB0146394B3A48A3FB0123DB0AC3EB0313A1EBC4
:20018000032189B203F0B6FA5E232380334803F0BBFA28BB002070BDF3B9314B31488221A2
:2001A000012204F03DFA304B1D88012D06D12F4801F09AFB29462B4804F088FA27484FF4C5
:2001C000705103F097FA56232380244803F09CFA0028C5D1002070BD00232380032070BDA8
:2001E000234801F081FB05F047FD05F001FD0346204A214D1068928818609A80062005F09B
:20020000F1FC0F21174804F093FA164804F0FEFA2946064605F032FC10B1762323809BE73A
:200220002846164905F02AFC70B13046134905F025FC20B13146104805F01CFCEDE73178A3
:200240000F4802F00BFCF5E729780E4802F006FCEBE700BF540200208988888844020020F9
:200260000882000064020020F81400201482000020820000288200004002002088880000EE
:200280003C820000308200002DE9F04184B00C4690460778467805F0BFFC054605F0A8FC7A
:2002A000CDF8008002903946324601952346034802F0D4FB04B0BDE8F08100BF4882000012
:2002C000F0B5002706463C463D4683B0304600F0EDF90195019B9C4206DD00BF019B013300
:2002E0000193019B9C42F8DC304600F0E9F90195019BC4F5C874A34206DA00BF019B013359
:200300000193019BA342F8DB0137B7F5487F06D0B7F5C87FCCBFC7F548743C46D6E703B08C
:20032000F0BD00BF2DE9F0416E4C86B023686E4801215B689847236801210A461B686A48E3
:20034000984704F083FD01F00BFF01F0A3FE00F0D1F901F0DBFE00F09FF964496448654AA9
:20036000012303600B6018461368FFF7A9FF04F071FD01F089F901F0FBF803F06FFB01F00D
:2003800077FA03F099FA41F2342002F037FA01F011FC03F0FBFB584801F0A6FA00214BF246
:2003A000AC72564802F05AFB554801F09DFA04F0C1FC544C544D10F0040F14BFA046A84669
:2003C00004F0C0FC01280CBF26462E4604F0B2FC10F0020F14BF27462F4604F0ABFC10F096
:2003E000080F08BF2C4632463B4641460094474802F034FB0021464803F004FB03F062F8FB
:2004000003F0C0F80220FFF75BFF424802F026FB414B424C186801F067FA414802F01EFBA2
:20042000404B186801F060FA3F4802F017FB21683E4802F013FBE469A04720B1A047014699
:200440003B4802F00BFB0A2001F046FA002505F01DFB04A80821374E039501F07DFA9DF8A5
:200460001730354ABDF816109DF81640118043EA0424F76A4AF6CD310220B84721460320C0
:20048000B84729460120B847082204A9736B0B209847B36A03A9012098470399274802F049
:2004A000DDFA274B214627481C8002F0D7FA0220FFF706FF2946244803F0A4FA234802F0D8
:2004C000ABFF01F0E3F90120FFF7FAFE03F00EFA044601F0F3F914F0FF0FF7D101F0A0FC0D
:2004E000F4E700BFD801001000400340080009400C4009402C200940A8820000CC82000003
:20050000E4820000A0820000A4820000F8820000B80000202C8300006C880000BC880000F4
:2005200034830000948800003C83000044830000488300008C840000F81400206C8300006C
:200540009C14002080830000100000200C8200002DE9F04104880646772C30D07E2C27D0A7
:2005600024B1002303800320BDE8F08103F09CF92F4F304B304D3A6818702C60002A45D0D4
:200580002346A0462D4C04F8038093688020002198472B68013357F823202B60002AF2D1A8
:2005A000DBB2274A1370772333800120BDE8F081204B1B788B4219D00120BDE8F081DFF874
:2005C00080801D4D98F800201E4F002393423B602B6007DA194CE156002919DB01339342D3
:2005E0002B60F7DB3B68002BEFD1DCE7124D134CDFF84C80134F2B683A68E05C511C00F0BC
:200600007F0098F80020E0543960E7E71346C8E70849074A097852F82320002003F0C6F986
:200620000028E8D17E2333800120BDE8F08100BF340000203815002064030020BC14002057
:20064000A41400206003002010B40F4B1C7864B10E4A1368984214D0002303E052F8041F74
:2006600088420CD00133A342F8D1094A0948135D63F07F0313555DF8044B03F0E3B91C460C
:20068000F3E70024F1E700BFA414002034000020BC1400201000002008B500F077F8024B10
:2006A00000221A7008BD00BFA5140020034A137803431846137000F083B800BFA51400206F
:2006C000034A137823EA00031846137000F078B8A514002010B5064C042023685B699847EF
:2006E000236804205B6B98470128F9D110BD00BFB8010010F0B591B004F0A8FB0746FFF79E
:20070000E9FF1C4B4FF4A0601B68DB6998471A4B01211A4A196013689907FCD56D46184C3A
:2007200000F0E4F9174801F0A9FC0FCC0FC50FCC0FC50FCC0FC594E80F00009C85E80F0047
:20074000621C0FD06D46104E336820469B6B9847336820469B694FF40051984755F8044F2D
:20076000631CF1D10FB111B0F0BD11B0BDE8F04004F070BBB801001028200860282008404C
:200780009883000020000020B4010010094B1A6802B1704710B50122074C1A602368062093
:2007A000DB6B984723680720DB6B9847034BC0221A6010BD68030020B4010010A020024074
:2007C000074B0849C02208701A60C20744BF402243F8102C830702D5034B80221A6070477B
:2007E000A0200240A61400209020024008B5034B1B685B689847C0F3804008BDB4010010FE
:2008000028B1012806BF054BD86800207047044B1868C0F3403080F0010070476C03002001
:20082000C020024008B100207047034B1868C0F3803080F001007047C020024081380128A9
:2008400001D9002070470D20FFF7D0BF8138012801D9002070470E20FFF7C8BF802870B52A
:2008600014460AD0812807D1E1B9BDE87040184B10461B685B6B184770BD154D1549012362
:2008800093402A680B60936B204698472B68204600211B68104A9847E0B21049BDE870402F
:2008A00001F01EBC0A4D0B49012393402A680B60936B204698472B6820461B680021064A9E
:2008C00098472B682046BDE870401B6B184700BFB4010010E020024000400720F9080000D8
:2008E00008B50D22FFF7BAFF012008BD08B50E22FFF7B4FF012008BD0D2838B50AD00E28C9
:2009000000D038BD4FF480414FF08052BDE8384001F0AEB90E4C204603F0D4F80028F0D021
:200920002046042103F0C6F80A4B1D68C5F3403525B900F069FEE560A06038BD00F064FEB3
:20094000A368C31AE3600448BDE83840FFF77CBE6C030020C0200240E083000030B51B4A75
:200960001B4B106883B000244FF4801501908DF800408DF8014001A81D60042100F0D2F849
:2009800020B9144BFF201D6003B030BD6846022100F0E6F80F4B1D6010B9FF2003B030BDE5
:2009A0009DF80030EF2B03D0C22B01D02046EBE79DF80100A0F11103012B05D914380128D5
:2009C0008CBF00200120DFE70120DDE700840000A02002409020024030B5164B83B002AC41
:2009E00005224FF4801504F8042D1D6000F0DCF82046012100F096F820B910E09DF80730EF
:200A0000DB0710D50DF10700012100F0A9F80028F4D1094B4FF480121A6003B030BD064BD6
:200A20001D6003B030BD044B4FF4801201201A6003B030BDA02002409020024030B583B02E
:200A4000FFF7CAFF08B903B030BD0E4B02A8B9224FF4801500F8012D01211D6000F062F8B1
:200A6000094B0A241D60FFF779FF631E0028EAD013F0FF04F7D1044B4FF480121A6003B087
:200A800030BD00BFA02002409020024010B50A2182B0124800F09AF8114B14201B68114C48
:200AA000DB6B9847104A4FF48013AB2102A8236000F8011D1360012100F034F808B1FFF772
:200AC0008BFF084B4FF480121A60FFF747FFA0F10100B0FA80F0400902B010BD00093D00F4
:200AE000B401001090200240A020024008B5FFF7CDFFFFF7A3FFBDE8084000F0C7B800BF0B
:200B000008B5064B02201B685B6B9847012803BF034B186800F00100002008BDB801001025
:200B200078200840F0B583B005460C46FFF7E8FF074680B17CB1094E33684FF080405B6824
:200B400015F8011B984733684FF08040DB6801A99847013CF0D1384603B0F0BDC401001076
:200B6000F0B583B005460C46FFF7CAFF0746B0B1ACB10C4E09E033684FF08040DB68984737
:200B8000019B013C05F8013B09D0336800214FF080409B68984701A90028ECD10746384673
:200BA00003B0F0BDC401001010B582B0FFF7A8FF40B1054C23684FF080401B6901A9984793
:200BC0000028F7D102B010BDC4010010F0B5264D07462B6885B002205B690E4698472B68F8
:200BE00002205B6B9847012804461F4BF7D11B684FF48070DB6998471C4B1D4A1C601368EB
:200C00009B07FCD51B4A1C4913681C484FF0030E082523F00F030C4609681360C0F800E048
:200C200000220195009713460F684FF080401449B847144B29461B6800965D6C09224FF020
:200C4000FF334FF08040A8470F4A136843F00203136023684FF080401B6903A99847002834
:200C6000F7D105B0F0BD00BFB8010010282008602820084014000040C401001020000040F9
:200C8000006CDC02B40100100400004010B5174B4FF480701B681B6A9847154B0121154ADF
:200CA000196013689B07FCD5134C082023689B6B984723684FF4005108209B699847236821
:200CC00009209B6B984723684FF4005109209B69984723680A209B6B984723680A209B6988
:200CE0004FF40051BDE81040184700BFB80100102820086028200840B401001001207047A7
:200D00000120704708B501F0EFFA30B1044B5B88022B0CBF0120022008BD022008BD00BFAB
:200D20002C01002010B582B001F00EFD044601F0DBFA08B902B010BD084801A901F0DCFA62
:200D40000128F7D1638803F44063002BF2D1638803F44063002BF5D0ECE700BF0100010422
:200D600030B583B001F0C0FA184C88B900256580A37F16485BB2C3F5FF6307339BB201A929
:200D8000238301F0B9FA012809D0284603B030BD6388022B08BF0120E8D103B030BD00F0B0
:200DA00071FC6FF03F052D1A03E000F06BFCC54203D563889BB2022BF7D1608880B2A0F1EB
:200DC0000200B0FA80F04009E7E700BF2C01002008B50346B32994BF0A46B42202481946D0
:200DE00007F020F9002008BD9603002070B50A4D00262C6803E024682B68A3420AD02379B2
:200E0000032BF8D1054802F01DFE24682B680136A342F4D1304670BD880300206C000020A7
:200E2000F8B5124E35682B79032B02D000242046F8BD2C89023C002C0CDD8C4205F10A0748
:200E40000EDD3957042089B204F082FF03207F2104F07EFF2A68002332602B712046F8BD11
:200E60003946224607F0DEF8EBE700BF9003002010B582B001F038FAD0B10F4C6388022B6C
:200E800016D101A90D4801F037FA02E06388022B03D101F029FA0028F8D16088A0F550505A
:200EA000043880B201288CBF0020012002B010BD012002B010BD00BF2C01002001000104DE
:200EC00010B50E4B0E4C1B68052284F8242082B09B88204601A9638301F00EFA012802D0F1
:200EE000002002B010BD204601F058FAA0F10100B0FA80F0400902B010BD00BF5400002003
:200F00007401002000B583B00A4801A901F0F4F9012803D0002003B05DF804FB054801F019
:200F20003DFAA0F10100B0FA80F0400903B05DF804FB00BF5C01002008B5FFF7C1FF0128A6
:200F400001D0002008BDFFF7DDFF0128F9D1FFF707FFC0B208BD00BF08B501F043FC01280E
:200F60000CD0FFF785FF01F0FDFA01F075F904480449054A002343800B711371012008BD20
:200F80002C0100204C040020D80400202DE9F84F01F028FC012817D001F02CF901F0A4F972
:200FA00070B901F0A1F9044600283AD101F00EFA012805460BD001F0D5FA0020BDE8F88FAC
:200FC000224B5B88022BECD10120BDE8F88F20494FF423721F4807F025F81F48DFF890C040
:200FE0001E491F4B1F4ADFF88CB0DFF88C901E4F1E4E04704FF0040E06204FF0020A4FF063
:20100000030805248BF8005089F800A08CF8008087F800E0347008701A6001F031FA01286A
:20102000C9D1002001F036FB01F0FCF8FFF748FF012802D00020BDE8F88FFFF763FF0128EA
:20104000F8D1BDE8F84FFFF78BBE00BF2C010020C48400001C0400219003002181030021AE
:20106000C0030021BD050021AE030021AB03002177030021790300217503002130B583B01F
:2010800007285ED8DFE800F03E045D5D205D452321293BD8464C4FF47A72208AE38902FB22
:2010A00003F302FB00F2A3F5522302F57F42FF32A3F695333F4803EB2243A0FB0323CAB2DD
:2010C000C3F387139A4246D1002003B030BD3A4B197001F009F9002836D0384B5B88022B4B
:2010E00008BF002530D1FFF7C3FE012814BF03240024FFF721FF012818BF0324002D42D188
:201100002046E2E7012948D0002940D0022003B030BD01F10A03182BF8D80191284CFFF755
:2011200001FE01990F2354F83320D8009142244D03F1FF3338DD5A1CF5D1FFF7FDFE0020A1
:20114000C3E7012003B030BDFFF720FF012829D0032003B030BDC82303FB01F1194801F5F8
:20116000522303F69533A0FB0321174A890902FB01331B04A0FB032314488AB29B09238295
:20118000E2810284A5E7FFF7E7FE20469DE70191FFF7E2FE0199084697E7FFF7F7FE012833
:2011A000D6D191E705469EE7094B28441860C4E75C0100201F85EB51120200202C0100207F
:2011C00004840000D34D621018FCFFFF740100205400002079B130B50C4683B010286FD8C7
:2011E000DFE800F0101D6E6E6E6E6268376E6E6E6E56595D0B00022070470E230B600020EE
:2012000003B030BD01F070F830B13C4B5888A0F10200B0FA80F0400920600020F0E738499F
:201220004FF47A72CB89098A02FB03F302FB01F2A3F5522302F57F42FF32A3F695333149E4
:2012400003EB2243A1FB0323C3F3871323600020D6E701F049F8002834D1FFF797FE0128B6
:2012600040D140F20343002201A869460192ADF8043001F041F801283CD06FF07F05FFF7C7
:201280006BFE15F1800F25600CBF03200020B7E700200860B4E721230B600020B0E76FF037
:2012A00009030B600020ABE7174B00201B681B680B60A5E7154B002093F900300B609FE759
:2012C00001209DE70D4B5B88022BC6D140F20343002201A869460192ADF8043001F00CF817
:2012E000012804D06FF07F032360032088E79DF90250C6E79DF90250C1E700BF2C010020CA
:201300005C0100201F85EB51540000201202002070B582B0044600F0E7FF38B3244B5B8814
:20132000022B08BF002621D12249221DA31C224C92B29BB2100A2382E1610A704870FFF710
:2013400097FD0020014601F0DFF9204601A900F0D3FF90B90125002001F0EAF9002363808E
:20136000FFF7FEFCEEB9284602B070BDFFF70EFE01281BD0012002B070BD00F09FFA6388FF
:2013800003F4406333B900F041FD638803F44063002BF8D0608880B2B0F5505518BF0125C0
:2013A000D9E7FFF7D9FD284602B070BD0646BBE72C010020940300209C01002010B50C468E
:2013C000B32C014694BF2246B422044806F02AFE2046BDE81040FFF79BBF00BF96030020C9
:2013E00030B583B001F0FEF901281BD000F07CFFD0B1154B5B88022B1FD00025802413486A
:2014000001A900F079FF012803D19DF806406306F5D07DB90E4B64B293F90000A042D4BF0E
:201420000020012003B030BDFFF7B0FD012806D10546E3E7FFF790FDECE70120F2E7FFF7CD
:201440008BFD0120EEE700BF9C010020010003041202002008B500F047FF58B1064B5B8826
:20146000022B06D1FFF7BCFF10F1FF3018BF012008BD002008BD00BF2C0100202DE9F84F7C
:20148000284800F0FBFD03F05DFC012803D000242046BDE8F88F244C244D01F0D9F82046ED
:2014A00000218C2206F034FE00218C22284606F02FFE4FF0000CE64640F25F3102261C4B0D
:2014C0001C481D4A66F3830C66F3830E8427DFF874A0DFF87490DFF8748025602C6084F8A6
:2014E00005C0E78000264FF4005B85F805E0EF80CAF8004083E850008362C0F82C90A8F875
:201500002010D181A2F810B0FFF740FD01280446BDD10A4801F01EF93146094802F072FA3B
:20152000B6E700BF400000204C040020D8040020880300202C0100205C0100208484000006
:201540006C000020900300207C0300207401002010B5064C042023685B6998472368042000
:201560005B6B98470128F9D110BD00BFB8010010F8B51A4A00200021C2E90001184B0420F9
:201580001B685B6B9847012801D0FFF7E1FF144B00201B68DB699847124B0121124A1960DA
:2015A00013689B07FCD5114A11491368096823F4807323F001030F4C13600B6820460E497D
:2015C000984740F221200D4D0D490E4B04273126012227602E6008601A60F8BD1802002025
:2015E000B801001028200860282008400C000140C801001000000140002100043C000140D9
:20160000080001400400244310B40949094C0B68226808688342FAD1DB01074903EB5262E0
:201620000023C1E900235DF8044BD1E900017047082009400C2009401802002010B50B496B
:201640000B4C0B68226808688342FAD1DB01094903EB52620023C1E9002302F05BF800B978
:2016600010BDBDE8104002F03FB800BF082009400C20094018020020704700BF0146012002
:2016800000F052B803F044BB2DE9F04103F0DEFB1D4E1E4B1E4F32680124002580464FF41D
:2016A00080314FF480703D601C60186019601368284623219847336820461B682421984788
:2016C000336802201B6825219847124A1249136843F4E02313600D6003F01AFB0F4B10499E
:2016E000104A1B6800F50070086014603C601B6914209847B8F1000F01D0BDE8F081BDE855
:20170000F04103F0A7BB00BF8401001004200940000024430020094008200940B001001080
:201720001C200940A0022443431E012B10B41BD9042802D05DF8044B704700231A4610F0FA
:2017400004001CBF0E4C216013B10E4B0121196012B10D4B01221A600028EBD00B4B012203
:201760001A605DF8044B704710F0010302D0084A0123116010F00202E1D0064C2160DEE78A
:201780002020094080022443A0022443C0022443182009401C200940014B1868704700BF5D
:2017A0006405002008B5FFF76DFF184B1860FFF745FF174B1B686BB9164B1B68E3B9164B82
:2017C0001B6833B11549164B00204FF4803208601A6008BD124B4FF480721A6003F098FA96
:2017E00000F205200F4B20F4FF7020F001001860084B1B68002BE2D00B49094B00200122CE
:2018000008601A6002F042F9D9E700BF64050020A000244380002443C0002443C002244373
:20182000042009401C20094080022443820702D5034B01221A60C30700D4704703F00ABB75
:20184000000C084008B503F001FB074B1A68012A03BF0649022219600022002814BF104668
:2018600042F0010008BD00BF000C084051E5CC1A03490448044B012208601A60704700BFDF
:2018800000000840FFFF0F00000C084038B5FFF7D9FF064C064D0749074A012325600B608A
:2018A0001360BDE83840FFF7C1BF00BF00000840FFFF0F000C0008400401004303490448DA
:2018C000044B012208601A60704700BF00000840FFFF0F000C00084010B50446C0B200F024
:2018E0007DF9204610BD00BF70B506460024451E04E015F8010F00F071F90134304606F08C
:2019000055FC8442F5D30A2000F068F900F07AF90128FBD0204670BD70B50446B0B100783B
:20192000C0B1A9B10025661804E014F8010F38B1B44205D000F052F9631C05F10105F4D10A
:2019400000F060F90128FBD0284670BD0546F7E70D46F5E70546F3E710B40B4B0B4C13F8B6
:20196000012FFF2A0ED1A342F9D1094A39B11144013801390B78914200F8013FF9D15DF8CE
:20198000044B7047034AF1E7C7FF0100CFFF0100F0120050C8FF010038B50C4D02202B6871
:2019A0005B6998472B6802205B6B984701280446064BF7D11B684FF40070DB699847044BF6
:2019C000044A1C6013689B07FCD538BDB801001028200860282008402DE9F04340F2F2756F
:2019E000DFF8DC8083B0FFF7D7FFD8F800302A4EDB682A4898473368294C5B6915209847C1
:201A00002368DFF8C090274F23F4FE63D9F8002023F0020323603D60D36B03209847224952
:201A2000D9F800300820122208600092D3F840C01A48022103221323E047D8F8003017481E
:201A4000D3F804C019494FF4E1326023E04740F2011240F2013E1649164B14200860196802
:201A6000154841F01001196003681449002B0CBF134673460B603D60036853B123683268E2
:201A800043F0500323601369152003B0BDE8F043184703B0BDE8F083B001001000100040C6
:201AA000381000404410004090200240006CDC02341000402C1000406805002030100040C1
:201AC000D0010010B401001008B5064B02201B685B6B9847012803BF034B186800F001005E
:201AE000002008BDB80100106C20084038B50446FFF7EAFF18B1254A13681907FCD4032C7C
:201B000003D0234B1B6803B138BDFFF7DDFFE0B9204D4FF400702B681B6A9847032C2AD0AD
:201B20001D4B01211D4A196013689B07FCD5032000F0C0FA022000F0BDFA132000F0BAFAE0
:201B4000BDE83840122000F0B5BA154B15481B68DB689847144B15201B685B69984740F289
:201B6000F270124A1249136823F4FE6323F0020313600860CCE72B684FF400709B6A984789
:201B80002B684FF400701B6B9847C9E71810004068050020B80100102820086028200840EC
:201BA000D001001000100040B0010010381000404410004010B503F049F90446054800F096
:201BC0005DFA054B00221A6004B110BDBDE8104003F040B9580000206805002010B504464B
:201BE000FFF772FF08B9FFF7F7FE044B2146BDE810401B680248DB69184700BFD001001017
:201C00000010004008B5FFF75FFF18B1024B1868C0F3C00008BD00BF1810004038B5FFF78B
:201C2000BBFE40F2F2710C4B0C4A1B68116013F0500F10D00A4C0B4D05E02B681B699847EA
:201C4000094B1B6823B923680848DB06F5D538BDC0B29847F7E738BD40100040441000400E
:201C600018100040D001001068050020001000402DE9F0474FF000094C4682B040230F462D
:201C8000164601930546CDF8009003F0DFF84A4BDFF864E101204FF480714FF48032DFF818
:201CA0005C81CEF80090186019601A60D8F8003020461B6801343F219847042CF6D1DFF85B
:201CC0003C810024D8F8003020469B6801343F219847032CF6D1394B1B68FFF7EFFD3848E7
:201CE00001F06AFF044630B1A368032003B198472468002CF8D16B1C0CD0324BAA0013433D
:201D00000021314A1960136846F000523A4328461B6898472D4EDFF8E8A000243368CAF803
:201D200000409B6907209847684604F0C9FE00F093FA00F041FA264826490368326823F053
:201D4000030303600B68244D23F00F030B609369382098472C60012004F0D2FEDFF8A490F7
:201D6000DFF8A4E01D481E491E4B1F4A4FF00108124F2C60C9F80040CEF8008004600C601E
:201D8000CAF800401C603B6818491368096823F0030313604B68164803219847154A33683B
:201DA0002C60C9F80040C2F800809B6B3A68984702B0BDE8F08700BF042009402C20094046
:201DC0006C050020001A4442B4010010B8010010001009400810094040100940400122434B
:201DE000440122430800094024220840D80100100040034018100940000024438401001081
:201E00000C4009402004224388010443034A136823F00403136030BF704700BF10ED00E03D
:201E200070B503F013F801F0B7FD18B1BDE8704003F010B8814801F0BFFE0225044648B120
:201E4000636823B19847A84228BF2846C5B22468002CF5D1FFF716FC794B04461B68002B0C
:201E600040F08B8001F056FC002840F09280012D014600F0D680022DD8D1002840F0C3804C
:201E80002846611EFFF750FC6C4801F095FE06250446002800F0B080A368022003B198475E
:201EA0002369246825EA0305002CF5D1FFF706FD6B0705F0060400F1A280002C40F0A78001
:201EC00000F0CAF9002004F01BFE5E495E4A0B685E4823F003030B601368016843F00F030D
:201EE00013608B6939209847594A5A4900231360184613600B6003F0D9FB062C00F08D8035
:201F0000554C564D564E2B682368326823F00303236053685348032198474C4B1B689B6B0C
:201F200098472B6803F01AFD4F4A3368002111604C485B680121984723684C4A012143F091
:201F40000303236011602B6803F03AFD04F0A4FDFFF774FBFFF7B2FC384801F02DFE044646
:201F600028B1E36803B198472468002CF9D102F071FFBDE8704002F06DBF3D4B1B681B1A13
:201F8000022B34D4A3F28F23002BBFF66BAF01232EE001F0C7FB0646FFF736FB361A002EF5
:201FA0007FF744AFFFF7F8FB324B00EB46211B1BCB423CD4012085427FF45DAF6FF00703DD
:201FC0001B1BCB4230D404F58034631A31EA230128BF21460220FFF7A7FB274A136823F04A
:201FE0000403136030BFBDE8704002F033BF00239D4228BF1D4635E7FFF760FC06241B4BF5
:2020000000221A6059E72846FFF78EFB3CE70F4B20461B689B69984752E7022002F064FFFE
:202020006EE704F58031D5E704F10801D2E7022DC4D0012D7FF4FAAEC0E700BF6C0500202B
:20204000800224430010094008100940B80100104010094020042243242208402C200940CF
:20206000D801001000400340800104430C4009401820094071FDFFFF10ED00E0014601483D
:2020800001F09CBD6C0500200146014801F0DABD6C05002010B5054801F08AFDBDE810403D
:2020A000034B03201B6820211B6818476C05002084010010421C0ED010B50446064B4FF404
:2020C000C0421B6800211B689847044AA3001A430023136010BD7047B4010010001A44422B
:2020E00038B504460D4602F0B1FE01230549064AA3400B6042F8245000B138BDBDE8384034
:2021000002F0A8BEE020024070050020064B002103F1800243F8041F9342FBD1034B10202B
:202120001B681B69184700BF6C050020B0010010F8B5094B094F1D6800241D60012606FA82
:2021400004F32B42E0B203D057F8243003B198470134202CF3D1F8BDE020024070050020AF
:2021600010B584B00022412302A80292039304F0A7FC042002F0A2FE032813D00420032169
:2021800002F06CFE042002F099FE03280346F9D1074A084812680093546800214FF040529C
:2021A0001C23A04702A804F0E1FC04B010BD00BFA401001000A00C4000B583B0002241232F
:2021C00068468DE80C0004F07BFC042002F076FE022808D00420022102F040FE042002F04C
:2021E0006DFE0228FAD1684604F0C0FC03B05DF804FB00BF00B583B00022412368468DE8CA
:202200000C0004F05DFC012002F058FE012803D00320012102F022FE684604F0A7FC03B0B1
:202220005DF804FB00B583B00022412368468DE80C0004F045FC012002F040FE012803D02B
:20224000044B986B02F04EFD684604F08FFC03B05DF804FB4800001010B582B0412368465A
:2022600000240193009404F02BFC0320214602F0F5FD012002F022FE18B1044B986B02F049
:2022800031FD684604F072FC02B010BD4800001070B5038804465BB140F21A22934203D10C
:2022A00082290AD0012070BD00230380032070BD40F21A232380012070BD094B094E1D69C4
:2022C000FFF7FCFA03F0D8FC03F092FC8021A847002880B2ECDD03F085FC33699847EFE752
:2022E0008C840000BC880000024B186800F00100704700BF9C21084010F0030370B50646DA
:202300000D4602D1028811051FD402F09FFD1F4B00301B6818BF0120DB0720D51C4B1D4CBA
:202320001E6023684CF250322B6003E02368013A2B6014D013F0FF0FF8D018B32878A0F15C
:202340000100B0FA80F0400970BD438002F07EFD0E4B00301B6818BF0120DA0702D468B1E8
:20236000002070BD338813F4405FD7D003F44063B3F5006F04BF084B1E60CFE702F06AFDB4
:20238000002070BD02F066FDD8E700BF9C2108400010044004100440F00500200A4A01E022
:2023A000013A0ED0438803F44063B3F5806FF7D1428802F44062A2F58060B0FA80F0400904
:2023C00070471046704700BF20A1070030B583B002F03CFD224C0546236819201B6A98478E
:2023E000236812201B6A9847236819205B699847236812205B6908349847236801205B6949
:202400009847236801205B6B98470128F9D11549154B164A0860186013689B07FCD5104C51
:20242000134814492268002303600B60136919209847236812201B6998476DB10E4B072215
:202440001A6001A90D48FFF757FFA0F10100B0FA80F0400903B030BD02F0FCFCEEE700BFA4
:20246000B00100102C2008402820086028200840101004601410046000000460010006044C
:2024800040F60A0230B5164B87B01D680024012301A8694601940494059502940394ADF8BF
:2024A00004208DF81130FFF727FF012802D0204607B030BD0B4801E00138F9D0BDF80630F0
:2024C00003F44063B3F5806FF6D1BDF8060000F44060A0F58060B0FA80F0400907B030BD39
:2024E000F805002020A1070010B540F6090486B00023012201A869460193049302930393C5
:202500000593ADF804408DF81120FFF7F5FE012802D0C0B206B010BD0F4801E00138F9D071
:20252000BDF8063003F44063B3F5806FF6D1BDF8063003F44063B3F5806F02D0002006B0F4
:2025400010BD064B1A782AB9054A0599012011601870DFE70120DDE720A10700A714002093
:20256000F805002030B587B002F070FC2F4C0546236819205B699847236812205B69984737
:202580002B4B1B68DA0715D540F60D04294A2A490023136002A80B60012201A902930593A5
:2025A00003930493ADF808408DF81520FFF7A4FE01282CD0FFF798FF2048214B00240121E3
:2025C000204A0460196013689B07FCD51E4C012023689B699847236801205B6B9847022852
:2025E000F9D1124C192023681B6A9847236812201B6A9847236819201B6998472368122086
:202600001B6998470DB902F025FC07B030BD0F4A01E0013ACED0BDF80A3003F44063B3F596
:20262000806FF6D1BDF80A30C4E700BFB00100109C21084010100460141004602C20084025
:202640002820086028200840B801001020A1070008B502F09FFB052803460BD003280DD007
:2026600018B101280FD0002008BD094B03221A60012008BD064A0120136008BD044B0222AF
:202680001A60012008BD024A0521116008BD00BFD0210840F8B5164A164B1268002814BF57
:2026A00000241C46D30700D4F8BD02F0CFFB0646114A1248124F134D00214FF000433B6075
:2026C000046011602B6819201B6A98472B6812201B6A98472B6819201B6998472B681220D8
:2026E0001B69984706B1F8BDBDE8F84002F0B2BB9C210840000080801010046014100460BE
:2027000018100460B00100100028064B14BF08220222002918BF0023034804491A43036057
:202720000A607047000080801010046014100460034B0028034A18BF00231360704700BFC6
:202740000000808014100460014B1868704700BFF0050020014B1860704700BFF405002047
:2027600008B5074B1B68DB0704D4FFF72FFE012800D008BD034B6FF000421A6008BD00BF3F
:202780009C2108401010046008B5124B1B68D90707D41148FFF7A8F8FFF718FE012800D064
:2027A00008BD02F053FB0D4B1A6812020BD40B4B1A6812F00A0F1CBF6FF00A021A60BDE8EF
:2027C000084002F047BB6FF400021A60044801F039F9ECE79C21084050870000101004603C
:2027E0006C000020014B1878704700BFA814002008B500F08BF880B208BD00BF00F010B980
:2028000038B50C4D04202B685B6998472B6804205B6B984701280446064BF7D11B6840F27B
:202820000140DB699847044B044A1C6013689B07FCD538BDB801001028200860282008402F
:20284000034B1B68002B14BF01200220704700BFFC050020F8B503880446002B2ED0B3F57C
:20286000847F05D1184B1B788B4205D00120F8BD002303800320F8BD144D2B6873B1144B1C
:20288000144A1B6812685B680220174698470026301847F100012B6898472E600E4B40F28A
:2028A00001401B689B6A98470C4B01210C4A196013689B07FCD50B48FFF7E6FB4FF48473D6
:2028C00023800120F8BD00BF13020020FC050020CC01001004800240B8010010282008604E
:2028E000282008407C00002008B5064B04201B685B6B9847012803BF034B1868C0F34000A6
:20290000002008BDB80100103C20084070B5274B1B689BB1264C0023224612F8011B29B9FA
:202920000133042BF9D10020014670BD214A002502EBC302E55492E8030070BDFFF7D4FFE8
:2029400000282FD01C4A1D4B1268134073B91C4A01211346116018680028FCD102464FF437
:20296000807103F06BF8174B01221A6002F06EFA0646114A1368DB07FCD5134B134A1B68A4
:2029800014685B680220984723460022141843F1000516B12046294670BD02F05BFA204691
:2029A000294670BDFFF72CFFCCE700BFFC0500200006002020020020088002400100008014
:2029C000F09F0240A8025042CC0100100480024038B50E4D00240E4A2C6013680D4923F013
:2029E0000103096813604B6931209847204622464FF4807103F022F80122074B2A6019786C
:202A00002246BDE83840054800F0D0BFA80250420C800240B00100101302002090000020B5
:202A200010B5074C2378802B00D010BD00F03CFF207000210348BDE8104000F0E3BF00BF2E
:202A400013020020900000200AB90020704708B508461146FEF760FF002008BD0FB400B5E4
:202A600083B004AB53F8041B04481A46019300F025F803B05DF804EB04B07047A00000209B
:202A8000102970B50C46054602D80AE0102C0BD92B686868084910229847103C0028F5D059
:202AA00070BD08460029FBD022462B6868680249BDE87040184700BFFC8700002DE9F04F46
:202AC00082460F468FB007924FF0000B3B78002B00F0E880252B08BF3E461BD03C4602E097
:202AE000252B04D014466378621C002BF8D1974216460CD0D51B39462A46DAF80030DAF847
:202B000004009847002840F079826378AB44002B00F0C88073780136002B00F0C380194673
:202B20000025A1F12003102B1BD8DFE803F0171A1A141A1A1A1A1A1A1A111A0E1A1A090048
:202B400045F0100516F8011FEBE745F00105F9E745F00605F6E745F00805F3E745F002059B
:202B6000F0E7A1F13102082A0B46374600F2DC80A1F13002092A4FF000040AD804EB8404D8
:202B800003EB440417F8013F303CA3F13002092AF4D92E2B00F0D1804FF0FF366C2B00F0E9
:202BA0003D81682B00F04281782B00F28180DFE813F079007F007F007F007F007F007F003E
:202BC0007F007F007F007F007F007F007F007F007F007F007F007F007F007F007F007F0005
:202BE0007F007F007F007F007F007F007F007F007F007F007F007F007F007F00BE027F00A4
:202C00007F007F007F007F007F007F007F007F007F007F007F007F007F007F007F007F00C4
:202C20007F007F007F007F007F007F007F007F007F007F00BB027F007F007F00B802B502F3
:202C4000B2027F007F007F007F007F007F007F007F007F007F007F007F007F007F007F004F
:202C60007F00AF027F007F007F007F007F007F007F007F00AC027F00A902A602A302A00265
:202C80009D027F00A6027F007F007F007F009A0297027D007F007F0091027F008E027F00A1
:202CA0007F00940258460FB0BDE8F08F45F4407505F4E063B3F5806F07F1010700F0CE807F
:202CC0004FD9B3F5C06F00F0A581B3F5E06F00F09A81B3F5A06F7FF4F9AE079B012C1A68BB
:202CE00003F1040307938CBF04F1FF340024EB078DF8202000F1D08150462146FFF7C0FEFE
:202D0000002840F07B81DAF80030DAF8040008A901229847002840F071810BF1010C0CEB8A
:202D2000040505EB040BD1E62A2900F08C800B462E2B4FF000047FF42FAF7B78791CA3F12B
:202D40003002092A7AD80F46002606EB860603EB460617F8013F303EA3F13002092AF4D907
:202D60001CE7B3F5807F00F0B080B3F5407F7FF4ADAE079BC34A1968C34815F4804F03F14D
:202D8000040308BF9046079318BF80460A460023002900F094810DF133094846110941EAAA
:202DA00003714FEA131E02F00F0673460A4618F8061000F8011D52EA0301EFD1B9EB00063F
:202DC000034600F07E810336B4424FF030024FF078014FF0230300F8022C8CBFA41B0024AA
:202DE000EA0700F8011C00F8033CA0F1030800F1A18150462146FFF743FE002840F0FE80DD
:202E00004146DAF80030DAF8040032469847002840F0F4805E4406EB040B57E67B786C2BC7
:202E200000F00481013745F06005BDE67B78682B00F09381013745F04005B5E62A2B00F08C
:202E400091810F46A8E6079B771C1C680433002C0793B8BF45F0010573789AE6079BD3F83D
:202E6000009004330793B9F1000F00F08F8299F80030002B00F0B2824B4613F8012F002A31
:202E8000FBD1C9EB0308002E02DBB04528BFB04644458CBFC8EB04040024E90700F1E080D6
:202EA00050462146FFF7ECFD002840F0A7804946DAF80030DAF8040042469847002840F091
:202EC0009D80D84408EB040B00E6002EABBF25F0100501230196019315F40053049305F0D8
:202EE000E00300F0A880402B00F07F8200F24181002B00F02D82202B40F05A82079B1A1DCD
:202F0000079293F90020D317002A73F10001C0F22A82CDE902230023059305F4C053B3F54B
:202F2000805F00F09281B3F5C05F00F0BF81B3F5006F00F067810DF136064FF00008019BAC
:202F400041F20802984541F6080303EA050380F0338101999342C8EB0101019100F046818F
:202F600041F6080201999342414400F031814FF000094A46049B73B1059B002B40F08381E0
:202F800005F00603022B00F01B824048062B04BF02464FF0010909EB01039C428CBFE41A4D
:202FA000002415F00103049306D1E80640F1F681019B2344049C0193B9F1000F07D01146C2
:202FC000DAF80030DAF804004A469847B0B9019B08EB0B05102B40F291819B4603E0BBF1B3
:202FE000100F40F28E81DAF80030DAF80400284910229847ABF1100B0028F0D04FF0FF300A
:203000000FB0BDE8F08F079B1A680433C2F800B007935BE5DAF80030DAF804001D490122CD
:2030200098470028EAD10BF1010B4FE5BB7845F080050237B8E5402B00F0C68100F2A98012
:20304000002B00F09881202B40F02181079B049A05921A1D07921A780023CDE902235CE7A5
:203060004946DAF80030DAF80400424698470028C4D150462146D844FFF702FD00283FF45C
:2030800021AFBBE7C8870000B4870000EC8700000C880000F8870000DAF80030DAF80400D6
:2030A00008A9012298470028A8D1504621460BF10105FFF7E5FC00283FF433AE9EE70DF127
:2030C0003303302203F8012C581E04267CE645F41065EDE545F48065EAE545F4C855E7E5AF
:2030E00045F48855E4E545F4E065E1E545F48135DEE545F40075DBE545F40245D8E545F417
:203100002455D5E545F4A065D2E545F4C135CFE545F4B245CCE545F4A135C9E545F4844504
:20312000C6E545F44245C3E545F4E135C0E545F4C065BDE54146DAF80030DAF804003246B1
:20314000984700287FF45AAF504621465E44FFF797FC00283FF45FAE50E7BB7845F0200598
:20316000023721E5079ABB78111D07911668023714E5602B00F0EC80802B40F01981079BC8
:20318000073323F0070303F108020792D3E90023BAE6602B00F0EF80802B78D1049B0593AD
:2031A000079B073323F0070303F108020792D3E90023CDE90223B0E6934200F0EC800022DC
:2031C000019241F608020199934241447FF4CFAEDDE9022313433FF4CAAE874B15F4804FA1
:2031E000864A4FF0020908BF1A46C3E60B46002908BF01230193019B4FF000094A4603EB8A
:203200000801B7E6DDE9028942464B46134300F0E7800DF136031E460693404649460A227C
:20322000002304F0F5FB30324046494606F8012D00230A2204F0ECFB8046894658EA0903D7
:20324000EBD1069BC6EB030879E6DDE90223134300F0C6800DF1360306939E46DDE90223E0
:20326000D00840EA4370DE0802F007013346024630310EF8011D52EA0301F1D1069B764614
:20328000CEEB03085BE64FF001095D4A83E605F4C053002200200021B3F5805F0592CDE98D
:2032A0000201D2D0B3F5C05F40F08580DDE90201544A554B15F4804F14BF904698460246BF
:2032C0000B46134300F08C800DF1360306931E4602460B46110941EA03714FEA131E02F069
:2032E0000F0073460A4618F8001006F8011D52EA0301EFD1069BC6EB030820E6019B9B469A
:203300004BB15A46DAF80030DAF804003F49984700287FF473AE31464246DAF80030DAF843
:2033200004004D44984700287FF468AE019B2B441E46049B002B3FF46EAD50462146FFF7EE
:203340009FFB00287FF45AAE06EB040BFFF7BEBB079B1A6804330793002A4FEAE27373F1B0
:203360000001BFF6D6AD524263EB4303CDE9022301230593D1E5049A079B05921A68002125
:20338000104604330793CDE90201C6E5DFF884904FF0060877E5012301932CE75046214646
:2033A0000292FFF76DFB029A00283FF405AE25E600220023ADE5DDF814800DF13606BEE549
:2033C000134A4FF00109E6E5079B049A05921A1D07921A880023CDE902239EE5984652E59D
:2033E0004FF000080DF13606A9E5079B1A1D0792B3F90020D31787E5E0870000DC87000060
:20340000E4870000B4870000C88700000C880000E8870000F087000010B50446006830B1E5
:20342000002100F0EFFA54F8040F0028F8D110BDF0B5038883B005465BB14A2B04D18829C0
:203440001BD0012003B0F0BD00230380032003B0F0BD194800F0B0FB044630B1201DA1686A
:2034600000F048F92468002CF8D1144B01221A704A2301202B8003B0F0BD0F48019200F01B
:203480009BFB04460028F3D0019A031D9A4205D02468231D002CEBD09A42F9D106482146E7
:2034A00000F0D0FB064E6269A369376832600BB1E06998473760DBE704060020A9140020B1
:2034C0001006002010B5064B002406481C7000F06FFB2146BDE81040034800F093BA00BFA5
:2034E000A914002004060020A800002070B504460D48049D0078A261E361656130B9A16029
:203500000A482146BDE8704000F058BB084D094B2E68201D2B6000F0EDF82E602146BDE824
:203520007040024800F04ABBA91400200406002010060020A800002010B5044C82B02468C4
:203540000094FFF7D3FF02B010BD00BF1006002010B50A4B04461B783BB9C36003612146C2
:20356000BDE81040064800F06DBB043000F0E4F82146BDE81040024800F064BBA91400205E
:2035800004060020704700BF10B50E4C2368B3B1FEF73AF822685168136892681944091A1E
:2035A0004AB192E8180023441B1A9268994228BF1946002AF5D1044B0844186010BD024AAB
:2035C000136010BD080600200C0600202DE9F041038805467BB1592B08D1872912D0822968
:2035E00020D059232B800120BDE8F081002303800320BDE8F081254A0120136059232B8074
:20360000BDE8F081214F3B68002BEAD0D9688A4203D024E0D9688A4220D19B68002BF9D1C2
:203620003B60DEE7194F4FF000083C68002CD8D0002604E0A3682646002BD2D01C462046ED
:2036400000F040FA0028F5D0E0688821224600F0ADF978B10E4800F0F5F9EBE73B60996899
:203660000029BED0C86882420BBF89680B4699608968F5E7E060A3682EB1B360C4F808804C
:20368000FFF782FFD1E73B60F8E700BF08060020B800002010B50446104800F0D3F9104940
:2036A000E3680A684BB142B194420FD0134601E09C420BD09B68002BFAD10A4BA2601B68E3
:2036C0000C60E360BDE81040FFF75EBF054B1B68E360BDE81040FFF757BF00BFB800002085
:2036E0000806002010060020014800F0ABB900BFB800002010B5044600F0DCF92046BDE853
:203700001040FFF7C7BF00BFC068B0FA80F04009704700BF024B1868003018BF0120704771
:2037200008060020024B186808B1024B18687047080600200C06002010B5114B04461A6804
:20374000904218D05AB19368834208BF13460AD02BB19A68A24206D01346002BF9D10023E1
:20376000A360E36010BDA2689A60FFF70DFF0023A360E36010BD82681A60FFF705FFEEE7C7
:20378000080600202DE9F843DFF8A480274DD8F800702E68874247D077B33B4601E0002BCE
:2037A0003BD01B689842FAD133B3837B8946044623B3002383736FB1BC424FF0870106D02F
:2037C000BB7BDB0703D53846224600F033F83F68002FF1D1A3683BB14C4505D02C6004F182
:2037E0000C00832100229847D8F80000844208D12368C8F800302E60BDE8F883384684423C
:20380000F6D00028F7D00368A34208D0002BF2D01A68A24204D01346F8E7BDE8F883034603
:2038200022681A602E60E7E73B46BDE7100600201406002070B586687EB104460A48022390
:203840000460A37304F10C000D46B0470238012804D9832D02D00123A37370BD20462146AD
:20386000BDE87040FFF78EBF1006002070B50C4A0C4B146800251D7084B1012601E02468B1
:2038800064B1E37B002BFAD0A673E573204682210022FFF7CFFF2468002CF2D170BD00BFF9
:2038A00014060020AC140020024B1878421C1A70704700BFAD14002070B407480749084ABD
:2038C0000023084D084C8A2603700B6013602E70237070BC704700BFAB140020140600202F
:2038E00010060020AD140020AA1400202DE9F041244D2B780BB1FFF7B9FF234E3378D3B16E
:20390000DFF890E0214F9EF80020013B02EB420189007C180132A068DBB202F01F02337033
:203920008EF800207F5CD4F8048098B1812F06D0827BD20705D428781844BDE8F081012302
:20394000837339464246FFF775FF337828781844BDE8F0810E4A146834B9ECE7A37BD907B1
:203960000AD42468002CF0D02B78002BF6D0FFF77DFFA37BD907F4D5204639464246FFF7C1
:2039800059FFEEE7AC140020AB1400201806002014060020AA140020024A034B10781B7830
:2039A00018447047AB140020AC140020F0B40C4D2C78202C11D00B4B0B4E1B78671C23443B
:2039C00003F01F0303EB43039B00F418A06062602F70F1540020F0BC70470120F0BC70474A
:2039E000AB140020AA1400201806002038B5837B034CDB07256801D5FFF71CFF256038BDC2
:203A00001006002070B404460D4D2868A04206D038B1034600E023B11B689C42FBD170BC21
:203A20007047002CFBD0012600232060A673A3810A4620462C60812170BCFFF7D7BF00BF76
:203A40001406002038B1837B013B012B03D8024A01231370C3737047AC140020FDF70CBE84
:203A600038B5094C049D226822B180E82A002060002038BD024680E82A0008462260FDF741
:203A8000FDFD002038BD00BF9807002010B5084C206858B10022436881682260984723684D
:203AA00023B1BDE810401868FDF7E8BD10BD00BF9807002010B541600446FDF7A5FD206013
:203AC00010BD00BF10B50446FDF79EFD23686268C3F10103184482422CBF0020012010BD96
:203AE000F8B504880546672C0CD0792C1BD01CB1002303800320F8BDFFF7D6FE1E4A1F4B5C
:203B000010701C601D4C264604E00A2813D023687E2B2BDD1A4800F0C1F8431CF5D16723E5
:203B20002B800120F8BD852901D00120F8BD134C00232360E6E7114C124F23680E49002617
:203B400003F1010E3A4609783046FE54C4F800E0FFF72CFF0C4B324618688521FFF726FFCC
:203B60000028E5D179232B800120F8BD05495A1CC8543260CEE700BF39150020A40800202A
:203B80001C080020240800201006002008B505480549802200F07AF8BDE8084003480021AA
:203BA000FFF730BF1C0800209C070020C800002000230360704700BF00687047026842B1B9
:203BC000914203D11BE099420ED01A461368002BF9D100230B6002680AB90EE01A46136836
:203BE000002BFBD1116070470B68136000230B6000230B600268002AF1D1016070470B68C3
:203C00000360F3E710B404684CB1A14217D0224602E0994208D01A461368002BF9D10C6037
:203C200001605DF8044B70470C460B6813600023236004680C6001605DF8044B70470B68E3
:203C40000360F4E7026842B18A4203D10BE0994204D01A461368002BF9D170471968116016
:203C600000221A607047134612680260F8E700BF03682BB100201B680130002BFBD1704755
:203C80001846704700B10068704700BF0023013A0160027143718371704700BF03468079EE
:203CA00059791A79091A114208D010B4411C1C680A40205C9A715DF8044B70474FF0FF3012
:203CC000704700BF38B504460D4601F0D5FF94F8F6101720013989B202F03AF811491C2027
:203CE00002F044F80121152002F032F80121162002F02EF8A9B2112002F02AF8042001F0FE
:203D00002FFF04F1800004F1EC0100F01DFE38B1A90204F178002246BDE8384000F0F6BEE9
:203D200038BD00BFF814002038B504460D4623464FF400515030064AFFF7FEFBFDF764FC09
:203D4000C4F8F800291D2046BDE8384000F0C0BF514200002DE9F04190F8F35082B015B1DA
:203D600002B0BDE8F0810446783000F0FDFE0028F6D000F01DFF0028F2D004F1EC0702F0E0
:203D80006DF8394604F1800000F0DEFD0646B8B34FF00108394604F1EE0084F8F38001F0BE
:203DA00069FE84F8F450112001F0DAFF414684F8F5000F2001F0CCFF94F8F5100920022919
:203DC00094BF89B2022101F0C3FF94F8F2100E2001F0BEFF124AB4F8F0101369002001333D
:203DE00013610190ADF8061001F002FF0346019831461860204602B0BDE8F041FFF794BF09
:203E000094F8F730002BABD01C34204640F2FF1102F060FF204602B0BDE8F04102F06CBFF5
:203E2000C01400202DE9F047B0F8F0500DB9BDE8F08700F1800600F1EC07394604463046DD
:203E400000F082FD8146304600F0ECFD8246002851D0B9F1000F41D000F02AFE8046484696
:203E600000F026FE08F10C08804529DB3046394600F06AFDB0B100F01BFE40F2FF16002833
:203E800018BF064694F8F730A4F8F06093B940F2FF139D42CBD1AE42C9D02046BDE8F0478A
:203EA000FFF758BF40F2FF1694F8F730A4F8F060002BECD004F11C00314602F00BFFE6E7D7
:203EC00038460AF1040101F0D5FD124A04F11C0053680133536002F00FFFC7E7011D384648
:203EE00001F0C8FD0B4A04F11C0013680133136002F002FFBAE73846074901F0BFFD18B9A4
:203F0000044A9368013393603846034901F0B2FDACE700BFC01400208888000010B5044662
:203F2000783000F025FE94F8F23004F15000013384F8F230FFF70CFB002384F8F33084F8C6
:203F4000F4302046BDE81040FFF704BF2DE9F84300F16406044630461D46894600F0F4FCAB
:203F6000A4F11C0758B140F2FF139D4217D0294600F080FD3846BDE8F843FFF753BFB4F888
:203F8000D430AB422BD840F2FF139D42F2D1B4F8D430AB4210D0204602F0AEFE0CE0804614
:203FA00000F092FDA84202D0204602F0A5FE404640F2FF1100F05EFD3846FFF733FF40F2E0
:203FC000FF13B4F8D4209A4202D094F8DB300BB9BDE8F8832046BDE8F84302F08DBE30460D
:203FE00049462A4600F0CAFCCDE700BF2DE9F04106460E2090460D4601F0B2FE074601F0D0
:204000003BFE042001F0EEFD01F0F2FD0346002403F8014B0133447003F8014B1C70B6F86A
:20402000F0302946438080F800801B2001F09EFE01210D2001F08CFE21460F2001F088FE97
:204040002146192001F084FE39460E2001F080FE0521092001F07CFE3046294600F038FE6C
:20406000024AD3680133D360BDE8F081C014002070B582B00446FEF7BBFB00F07F00C0EBE2
:2040800000112346890004F1CC00214AFFF754FAB4F8F03043B140F2FF12934204D004F10C
:2040A000780000F061FD08B102B070BD04F1800000F0B4FCFFF780FD05460028F4D0EB8870
:2040C000B4F8F0200833934205F10C0002DA00F0C9FB30B12846FFF7D5FD05460028EED139
:2040E000E2E704F1EC06314601A801F0C3FC3046291D01F0BFFC20460F21FFF7E3FD10B1AB
:204100002046FFF727FE304601A901F0B3FCCBE771400000D0F8C83013B9A830FFF718BACF
:2041200070B50446FEF764FBD4F8C85023466D08B0FBF5F101FB1501034A294404F1A80000
:20414000BDE87040FFF7F8B9B942000010B50446002380F8F33004F1EE01803000F0F4FB28
:2041600018B194F8F51000F08BFC2046FFF75AFE2046FFF7D3FE2046BDE81040FFF7CABFB3
:20418000F0B590F8F42090F8F53083B09A4204464DD2002380F8F330783000F0E5FC00285A
:2041A0004BD000F005FD0546002846D02046FFF739FE04F1EC07284604F1EE0501F04EFE5B
:2041C0002846394601F05AFC0646002837D0294604F1800000F0B8FB054670B3012184F89D
:2041E000F3100F2001F0B4FD94F8F53094F8F4100920591A0229A8BF022189B201F0A8FD88
:2042000094F8F2100E2001F0A3FDB4F8F03000220192ADF8063001F0EBFC034601982946CC
:204220001860204603B0BDE8F040FFF77DBDFFF78DFF064A536B0133536303B0F0BD39468F
:20424000284601F017FC84F8F460C0E7C014002090F8F430033380F8F430FFF791BF00BFFE
:2042600070B504460D20154601F07AFDB0B994F8F41094F8F5306A18D2B2934284F8F420CA
:204280000DD9FEF7B5FAC1B2234604F1500001F58071074ABDE87040FFF74EB970BD204656
:2042A000FFF754FF034A536B0133536370BD00BF81410000C014002010B50446FFF72AFFF0
:2042C00094F8F33003B110BD04F1780000F06CFC0028F8D120460821FFF7F4FC0028F2D099
:2042E0002046BDE81040FFF735BD00BF2DE9F041074601F091FC04281CD90F4D172095F869
:20430000008001F02DFD0D4E2C7806EBC80888F806001C2001F036FD06EBC4040434014624
:20432000204601F0A7FB2A78531C03F00F0346F832702B70BDE8F081AE140020D009002002
:204340002DE9F04782B0054601F052FC006805F1800400901A2001F015FD0146204600F008
:20436000F3FA30B1BDF8021000F084FB2846FFF759FD0D2001F0F4FC00283BD1A54F1A200F
:204380007B6905F1780801337B6101F0FBFC014601A801F06FFB404600F006FC9E4C0228F4
:2043A000D4BF4FF000094FF0800904F1800602E00834B44237D054F8043C9D42F8D1172059
:2043C00094F802A001F0CCFC8245F1D11C2001F0D9FC0146204601F051FB0028E8D0284633
:2043E00001A94A46FFF702FE3B6A01333B6202B0BDE8F0870D2001F0B3FC0128F7D11A2051
:2044000001F0C0FC05F1EE0101F038FB814F002840F08C80FB690133FB61BB690133BB614A
:2044200002B0BDE8F087B5F8F0407CBB2846FFF75DFF01F0C5FC0646002863D001A922466F
:204440002846FFF7D3FD304601F008FD304601F0EFFC042001F0B0FB01F0DEFB0028C6D022
:20446000EB6C1C68002CC2D01C2001F08BFC0646172001F075FC0546152001F071FCE9B291
:20448000C2B23046A04702B0BDE8F087162001F067FC01283AD940F2FF12B5F8F0309342D2
:2044A00034D0BDF8022015209A4298BF49F0100901F056FC411C89B2152001F049FC1620EB
:2044C00001F04EFC411E89B2162001F041FC404600F06AFB022809DC112001F041FC2A46EA
:2044E0008102404600F012FB002870D1284601A949F0C002FFF77AFD7B6A01337B6202B025
:20450000BDE8F0873B6B01333B63A2E7162001F027FC01283FF66BAF284601A949F0600209
:20452000FFF764FDFB6A0133FB6260E70E2001F017FC95F8F23083427FF46CAFBB6901335B
:20454000BB6101F055FB95F8F4300068019013B9022385F8F4301A2001F014FC01462046DA
:2045600000F0F2F90646002841D095F8F41000F093FA3046BDF8061000F07CFA2846FFF7C2
:2045800051FC9DF80440230639D460062BD5A10629D495F8F510304600F07EFA2846FFF7E1
:2045A00041FCFEF725F9C0F3080101F5007105F150001A4A2B46FEF7BFFFE20603D505F104
:2045C0001C0002F099FB2846FFF7A4FD25E72846FFF78CFE284601A94A46FFF707FD28462A
:2045E000FFF7B8FB03E72846FFF798FCE5E79DF804402306C9D52846FFF714FCC5E730462E
:2046000000F066FA95F8F5103046490000F044FAF1E700BFC0140020D40900208141000081
:204620002DE9F04704469946904640F2FF170E464D1CADB22946204A00F038FB1F492846F8
:2046400002F0BAFC00220A2304F1700084F8F23084F8F62022676067C4F84C9084F8F780F3
:20466000A4F8F070FFF7A4FA04F1800000F056F9134B04F17402E367A26704F11C0500F0D4
:204680003FF9314628460F4A02F008FB94F8F7301BB12846394602F01DFBFEF7A9F800F0B3
:2046A0007F00C0EB0011234604F1CC008900064ABDE8F047FEF740BF5C8800004888000038
:2046C000D80000204D3F00007140000070B5054689B940F2FF131946A0F8F03000F11C0685
:2046E000304602F0F7FA2846FFF79CFB3046BDE8704002F001BB0122002300F11C0680F81C
:20470000F720A0F8F030304602F0F6FA05F1780402E0204600F02CFA204600F045FA0028E5
:20472000F7DC05F15000FEF713FFB5F8F010D7E770B504460D46172094F8F61001F008FB6F
:2047400094F8F6303049013313F0FF0308BF802384F8F6301C2001F009FB0121152001F070
:20476000F7FA0F21162001F0F3FA1F2DCBBF1F21A9B21120112001F0EBFAB4F8F010B1B945
:20478000152001F0E5FAE36C1C683CB31C2001F0F9FA0646172001F0E3FA0546152001F070
:2047A000DFFAE9B2C2B23046A047012070BD042001F0D6F9112001F0D3FA2246810204F1B3
:2047C000780000F0A3F958B9054604F1800004F1EC0100F0B9F840B1284670BD012070BDA7
:2047E0002046FFF7B7FA0125EFE794F8F730002BF2D01C34204640F2FF1102F06BFA20465B
:2048000002F07AFA284670BDF8140020EE30704718B10022082302710360704768B161B1C8
:2048200002795AB9CB000132027103EB830301EB410103EBC103DB0803607047FF2A036894
:20484000F3D0F0E720B1490001F0FE01FFF7E6BF704700BF10B103790BB9802070470088C3
:20486000704700BF00B10079704700BF70B505464068FFF7A1F948B10289438901320133C3
:2048800002814381FFF7FEF90028F5D16868FFF793F90026044640B924E02389B42B0FD0CD
:2048A0002046FFF7EFF90446E0B163890A2BF4D104F10C00FFF7ACFF23896681B42BEFD11F
:2048C00021460D4802F096F921466868FFF7BAF96868FFF771F904462046FFF7D3F90446CF
:2048E0000028E2D105F108002B46BDE870404FF4F051024AFEF720BEE40000206D480000BD
:20490000044B1A7802B17047012203481A7002F041B900BFAF140020E400002010B50446B3
:20492000002380E81800FFF743F96068FFF740F904F108002346BDE810408021014AFEF76F
:20494000FBBD00BF6D480000B0B138B540680D46FFF732F9044628B90CE02046FFF792F9C3
:20496000044638B1201D294601F088F80028F4D0204638BD002038BD002070472DE9F0416D
:204980000E4679B3074668B340689046FFF714F9044628B91BE02046FFF774F90446B0B114
:2049A000251D2846314601F069F80028F3D0002728463146278101F05DF804F10C00A4F8FC
:2049C0000680FFF725FF67810120BDE8F081124802F0F2F8044678683CB12146FFF7EEF888
:2049E000251DE4E70020BDE8F081FFF7E5F8254603460028F6D0DA881846AA4284BF1C46AE
:204A00001546FFF73FF903460028F4D14545E9D9002CE7D0251DCAE7E400002000B1406858
:204A2000704700BF20B32DE9F0414068FFF7C4F80746D0B140F2FF160446002704F10C08FD
:204A40004046E588FFF706FF284485B2B54206D24046E688FFF7FEFE2746304486B2204691
:204A6000FFF710F904460028E8D13846BDE8F081704700BF10B10023C1800381704700BFE3
:204A800010B5044630B1C9B20C30FFF7DBFE00236381238110BD00BF10B5044630B1C9B2FE
:204AA0000C30FFF7BBFE00236381238110BD00BF40B1034610B50C30DC88FFF7CBFE204412
:204AC00080B210BD704700BF00B1C088704700BF20B114304FF4F041FEF7ECBF704700BF53
:204AE00038B50446856801462B681868FFF7AAF8606801F09DF904F10C00FEF729FD686865
:204B00002146BDE8384002F075B800BF2DE9F041054640680F46904602F04EF80446C0B1DB
:204B200001F04EF906466060A8B1A560C4F82C803FB92B6821461868FFF740F80120BDE805
:204B4000F081394604F10C00064A2346FEF7F4FCEFE7BDE8F0816868214602F04BF83046F8
:204B6000BDE8F081E14A000003681868FFF724B838B5036805461868FFF71EF8044688B185
:204B80002B6801461868FFF75DF8606801F050F904F10C00FEF7DCFC68682146BDE838404C
:204BA00002F028B838BD00BF03681868FFF760B800B14068704700BFF8B506460B480D4608
:204BC0001746FEF7F9FF044648B1A3680BB1284698472046FFF756F804460028F5D13046DC
:204BE00029463A46BDE8F84002F04CB8380B002038B502F097F905460A48FEF7DDFF044669
:204C000040B1636803B198472046FFF73BF804460028F6D125B12846BDE8384002F02CB846
:204C200038BD00BF380B002010B501F0BBF801F023F802F02DF802F073F9BDE8104002205C
:204C40004FF400714FF4F0524FF4E12302F018B910B5044602F074F938B100F033FF034B4A
:204C6000034821469B689847012010BDE4880000B94B000083695B6803B11847704700BF0A
:204C800070B504461B200D4601F07CF8064900F0F5FE38B1A3691B6823B120462946BDE8BA
:204CA0007040184770BD00BFF814002070B5054616460C46044A02F013F9AE612046BDE849
:204CC0007040024902F078B9788800008088000010B504461B2001F049F82046BDE81040D7
:204CE00002F010B970B5064600F0B0F80546074A1368064C002BFBD0B0470123236005B13D
:204D000070BDBDE8704000F0A5B800BF00800C4010B4064A064C1368206811688B42FAD1BF
:204D20001B0443EA10405DF8044B7047082009400C200940024B186800F00E00704700BF55
:204D4000D42108404BF69A11114A1368C3F30F338B4212D04BF6BE12934216D04BF641322D
:204D6000934207D04BF62030834214BFFF20022040B27047032040B2704713681B0F0B2BCD
:204D80000CBF0420002040B27047012040B270471813005010B50A4B1C68FFF7D3FF012887
:204DA000C4F303340AD1082C05D00F2C0CBF0120FF2040B210BD002040B210BDFF20F8E73F
:204DC0009412005038B5194A194B1B6814681D0FE4B2802C28BF0024FFF7B4FF04281BD8E9
:204DE000DFE800F00E0803030400ADB90A34E0B240B238BD6DB1022D0ED11434E0B2F7E7DB
:204E00006B1E072B08D8DFE803F004070C0707070E090A2040B238BDFF20E9E71634E0B21E
:204E2000E6E71420E4E71520E2E700BFA01000501813005008B5FFF785FF012800D0FEE759
:204E4000FFF7C0FF1328FADD08BD00BFEFF3108072B67047EFF3108062B6704770B50D46FD
:204E6000C10782B004461AD4A2070DD4630709D5104BADB21B6800955C680F4800210C22F2
:204E80000223A04702B070BD0A4AABB21268009356680948002102220123B047E6E7054ADE
:204EA000ABB212680021009356680B4602480122B047D9E7A401001000A00C4010B5084B7B
:204EC00004281B684FF03401DC6807BF4FF0C0421D234FF080521C230248A04710BD00BF17
:204EE000A401001000A00C4001280AD018B1084B01221A607047074A136823F00503136044
:204F00007047044A136843F005031360704700BF800104430000094038B50546284B01210F
:204F2000284A19601368002BFCD0274AC021274B11601B689B070AD4254BA2F57F321B68A1
:204F4000A2F5D572C3F3034343F0F0031370214A214B002111601C68204600F00DF9284617
:204F6000214600F09FFA40F21D221C4B1B689BB2934212D81A4A13681268C3F30363C2F3B0
:204F80000342CBB9911F012983BF023202F00F0212017022134913430B70204600F04CF988
:204FA000114B02201B68DB68984707490F4B4020012208601A6038BD013BDBB2E2E700BF79
:204FC000101009409402224300600C40B03F0050AC3F005040100940B43F005014130050F4
:204FE000BC12005002600840A00100109404604238B51E4B00251C68631C08BF0024FFF79F
:2050000019FF1B481B491C4A012305600B60136000F016FB194B1B6823B1194B20461B68DB
:20502000FFF77AFF174B0021174A19601368174923F07F6323F4702343F09C7343F48033FE
:2050400013600B68C3F30133012B04D0104A1368002BFCD138BD0B6823F0407323F44033FB
:2050600043F400320A600B60F0E700BF1C130050840460425C600C4008220443800128434E
:20508000000120438C21084048200340040009400C006842064B1B68C3F30260C3F3C16244
:2050A000800040EA0220C3F381531843704700BF98130050064B1B68C3F30510C3F38922CE
:2050C00000041B0340EA82509BB21843704700BF98130050F0B5234B1B68C3F30467152F9E
:2050E000214B34D91B78203F03F01F03152B1ED81E4A002111601E4C1E496FF001060120A8
:2051000010E0B242B8BF3246134403F01F0242F4F852BB420D68DFF85CE022804FF0010C5E
:20512000086008D0FA1A022AEBDD0222ECE7203B9F42DDD1F0BD0D4BDEF80020CEF800C0C5
:20514000DEF80020C3F800C0DEF80030F0BD1A7802F01F03152B01D9203BC9E79F42C7D1E7
:20516000F0BD00BF8813005006620840980020436C6208402C20094000F04073B3F1807F3C
:2051800070B504462BD0224B1B68C3F30463152B36D803EB24730133152B1DDC13F10A0F3B
:2051A000B8BF41F616732DDA1A491B4A0B8013681A4913F002030ABF194A44F04064136001
:2051C000C4F3C063174AC4F3806483F0010384F001040B60146070BD41F61573E4E74FF62E
:2051E000D8051149114A124E802333700D801370FFF770FF0F4B1B68C3F30423152BC8D967
:20520000203BC6E703F01F0343F4F853CCE700BFB81200506E62084000000940000020439F
:2052200094042A430800204366620840156208402562084088130050F8B5C0F38143012B25
:205240002CD0022B2ED14F4B1B681B0702D44E4B40221A604D4A4FF400714D4B11601B68C5
:20526000C0F38150C3F3C14343F03003012882F8883037D020D3022819D104200321FFF7E3
:20528000EDFD47F61800434B434C1B68434903F03F03434A237008801368F8BD3C4B1B688C
:2052A0009A034BD53F4B4FF000421A60CBE704200221FFF7D3FDE4E743F2BD760420012174
:2052C000FFF7CCFD384D3948394B86240121394A2E60046019601368002BFCD0344B0022B8
:2052E0001A60CEE7FFF7EAFD044604202146FFF7B5FD0420FFF7E2FDA042FAD12E4B2A4E8E
:2053000018682A4C2A4B87B2C0F307450121294A3760256019601368002BFCD0274B244A6E
:205320001B68002111601B684FF06022000E072198471C4B4FF480621A609EE7194A2049A8
:205340004FF4804414600A68C3F3033422F08F022243C3F3004442EAC4121A4C0A60226815
:20536000C3F3032122F00F020A431749256822600A6803F0E70322F0E70213430A680B60F7
:2053800061E700BFB03F005068A00C4080A00C408C1300506C1300500BB00C4070B00C40D6
:2053A0002C20094040A00C403C600C4040600C4044600C4084088C43A83F0050B401001011
:2053C0000C6008400B6008400A600840174B82031B68C3F38361C3F38F230ED440F307220A
:2053E000002A0DDA5B0806D149084FF001030CBF19464FF6FF730132F4D143EA01407047D0
:20540000FBD05B0043F00103B3F5803F4FEA410007D340F001010F2986BF4FF6FF730F21DE
:205420000123013AEDD143EA014070475013005070B4194A194B11681B68C1F3035213F084
:205440000103C1F303450ED012052B048CB2212842EA040243EA020384BF01F080410B43FA
:20546000184670BC70470E4C246844F30326B2180DD40F2A0DDD4FF4700244F30334641937
:20548000E4D40F2CD4BF23044FF47023DEE71A46F3E71205F1E700BF78130050B03F0050C2
:2054A000AC3F005030B5044683B00846FFF78EFF18210246544801F0A3FD544B54491A6812
:2054C0001B68C2F3870203F0030342EA03230A68009355684C482C2140F2FF320023A847A8
:2054E0004C4B49481A681C21C2F30D0201F088FD494B45481A68142102F0FC3201F080FD25
:20550000464B10211A68404822F07F4222F4403201F076FD2046FFF78BFF0C2102463A4823
:2055200001F06EFD212C20D83D4B222111221F2C19701A704FD834482821002201F060FD12
:20554000384A3948394B6025157080244FF47C41374A047019802C48082101F051FD354B2C
:205560004FF480021A6003B030BD334C2C4A2368C3F300735B0043F02003DBB21370236857
:20558000C3F3407343F01003DBB21370FFF782FD282102461C4801F033FD284B214A1B6860
:2055A0002149C3F301535B0043F0600313702368C3F3C063DB0063F07F03DBB20B7023685C
:2055C000C3F345539B0043F47C43A2F89030FFF771FD0246BFE7FFF75DFD282102460A480D
:2055E00001F00EFD154B0F4D1B680F48C3F301535B000E4A43F0600380244FF47C412B7087
:2056000004701180E3E700BF00A00C4050130050A40100107C13005074130050701300501F
:2056200049A10C404CA10C4041A10C40DCA10C4000803F4040A00C408C13005098130050EF
:20564000164A1368002BFCD11549164A0B68126823F00053520723F0070319D410B4124AE3
:2056600043F00053146843F00400A4070CD043F007030B60136803F00303032BFAD1084B02
:2056800018605DF8044B704708605DF8044B704743F0005343F005030B6070470C006842DB
:2056A00004400340B03F0050004003402DE9F84F984B1B6813F0020407D09749974B984A5A
:2056C000082088711A60BDE8F88F064601F080FC944B1B681A179F0202F1010540F1B580B7
:2056E00003F04072B2F1807F00F0BE808E4A11688E4AC1F3046112681529C2F3044788BFF4
:205700002039152F00D9203F4A19152A00F3998012F10A0F80F2E88041F616716FF00902E8
:20572000DFF824E2824DAEF80010296811F0030518BF0125490748BF45F002050EB145F0E9
:205740000405754E96F90710411A042903DCB179A94200F0C780B0F10F0100F1BA8001EB5C
:2057600001110C12072C00F2AC8000F0CA8004F10108DFF8D8E14FEA8808DFF8D4C1C644A1
:20578000C444F0462402DEF800E0DCF800A015F0040CCEEB0A0A5FFA8AFB1CBFCAF3072EEE
:2057A000F34415F0020E1CBFCAF30749CB4415F001097CD10C1B04FB0BF48034240AD8F873
:2057C00000805FFA88F1BCF1000F02D0C8F3072C6144BEF1000F02D0C8F3074E7144B9F157
:2057E000000F01D001EB1861BA1A002A0C444FF03401C8BF5143DAB202FB01F24FF6FF7156
:20580000B2FBF4F38B4228BF0B467F289AB2B2804BDC10F1800FB8BF802370DAF371B57125
:20582000444B1E2A19683C48134631602BD81F238380414B3948414A002103601160BDE828
:20584000F88F41F6157115226AE7C0F13E02D210082AA8BF08229542B8BF154603F0407298
:20586000B2F1807F7FF442AF354A1168344AC1F3042112681529C2F3046788BF2039152F17
:205880007FF642AF3FE7B2F5007F28BF002230D35B08B3F5007F02F10102F9D229490F3B43
:2058A0001B09114341EAC303C4E77F23B6E70BEB1A6A091B01FB0AF48034240A4FF00109D2
:2058C0007DE7DFF890804FF4E064C446DFF888E059E705F0040C05F0020E05F00109DFF88D
:2058E00070806CE7B2889BE702F01F0141F4F85116E70F3A1209134BD20013439AE7C3B23C
:205900008CE7DFF85080DFF850E0C4464FF4E06439E700BF000009403C0B002030100940BD
:20592000FDFDA400B43F0050B81200503C110050242208400820094008E7A4803410094030
:205940008813005000E7A4806E620840981300509C130050B8130050B413005038B5154BC0
:205960001C68A4B204B938BD01F032FB124B93F90720904216DB9A880F49944210D34FF632
:20598000FF700E4B0D681B68A41A02335B1B1F2B28BF1F235B08DC401444844228BF04469D
:2059A0008C8038BD6FF07F029042B8BF1046D871E1E700BF341009403C0B00200820094032
:2059C000194B1B6813B3194A116801F04062B2F1406F1BD016480268920717D4154A126849
:2059E000920713D410B4144A0468126814F0050FC2F3035202F11C024FEA021207D09342F3
:205A000002D224F0050404605DF8044B70479342FAD90A0158BF44F001044B01044B58BF21
:205A200044F004041C60EFE728500940B43F005000000940B03F0050AC3F00504FF6FF339A
:205A400030B40A4D12022C6802F47062090AC0F38710090410432340054A24F480640843E5
:205A60000B432C602B60106030BC704714800240188002400B880380704700BF08B5022291
:205A800002F09EFAB0FA80F0400908BD084B10B51B689847074B5B689847074B5B689847F2
:205AA000064B5B689847BDE81040054B5B6818478C840000BC880000E488000094880000B0
:205AC0006C880000F0B5DFF844E0BEF80040ACB10B4B1D8875B1002213460A490A4F0E7811
:205AE0003444E4B20133B9189BB2085D1AB2AA428855F7DB0023AEF80030F0BDF0BD00BF68
:205B00009E140020B0140020440B0020A01400202DE9F0410E4A0F4B15781E88AC19802CEF
:205B200003DD00242046BDE8F0810746DFF82C802A46414602F076FA074B781919783246D0
:205B40002944C9B2414402F06DFA2046BDE8F081B01400209E140020A0140020440B00200A
:205B6000F0B4114B114F1B783E78114A33441288DBB213449BB21A18802A12DC013B9BB28C
:205B80001AB2002A08DB0B4C2518A15C013B9BB2A9541AB2511CF8D130443870F0BC01202A
:205BA00070470020F0BC7047A0140020B01400209E140020440B0020084A138883420BDB1A
:205BC00010B4074C80B221881B1A13800844208001205DF8044B7047002070479E140020FA
:205BE000A0140020014B1880704700BF9E140020044B054A1B78127804481344DBB218445E
:205C0000704700BFA0140020B0140020440B002000487047440B0020014B1888704700BF17
:205C20009E140020054A064B10781B78054A03441088DBB2184480B2704700BFB014002034
:205C4000A01400209E14002038B508480021342202F05EFA064C04F1080520460549023462
:205C6000FFF708FFAC42F8D138BD00BF04150020FC1400208888000004480549054A002337
:205C800003800B801370FFF7DFBF00BFA01400209E140020B0140020802928BF802170B540
:205CA0000C4606460849094A094D00230B8013702B80FFF7C9FF31462246064802F0B2F9E8
:205CC0002C80204670BD00BFA0140020B01400209E140020440B0020F0B40C4B03F13002AC
:205CE0001F685E689D68DC6810339342076046608560C46000F11000F2D1F0BC1A68044B9F
:205D000002601A685B680A604B60704704150020FC140020F0B40C4B00F13002076846686C
:205D20008568C468103090421F605E609D60DC6003F11003F2D10068044A186008684B68A7
:205D400010605360F0BC704704150020FC140020024B23F810100120704700BF04150020FC
:205D6000014B33F8100070470415002008B5044B1A3803EB4000FFF77DFE012008BD00BF0A
:205D8000FC140020024B1A3803EB4000704700BFFC14002001480249FFF770BEFE14002076
:205DA0008888000008B5044800F0F4FEBDE80840024800F0EFBE00BFFC000020F000002029
:205DC00038B50F4800F0F8FE044688B10D4800F0F3FE0546206060B1FFF79AFE05F1B601C9
:205DE000A5F8800005F18200FFF776FF204638BD38BD2146024800F0FDFE284638BD00BF95
:205E0000F0000020FC000020016801F18200B631FFF762BF10B5046804F1820004F1B60127
:205E2000FFF75AFF2046FFF773FEA4F8800010BD10B504460748214600F0FEFE00B910BD26
:205E40002168054800F0D6FE2146BDE81040014800F0D0BEF0000020FC00002010B504464A
:205E60000948214600F0E8FE00B910BD2468B4F880102046FFF710FF04F1820004F1B601B8
:205E8000BDE81040FFF746BFF0000020036803EB4101B1F882007047014BDB68184700BFD8
:205EA000E4880000014B5B69184700BFBC880000014B9B69184700BFBC880000024BD869C4
:205EC00000B10047704700BFBC88000080B110B5044682B0006BFDF76FFE50B10246214622
:205EE000054B0648DB68019302B0BDE810401847704702B010BD00BFBC8800006561000028
:205F000070B590F829300546032B14D8104A01249C40D3699847002808BF0120013C00FB58
:205F200004F474B9214605F108002B46BDE87040084AFDF701BB064B0F24DB699847002840
:205F4000EDD1FCF755FCB0FBF4F303FB1404E9E7BC880000CD5E00002DE9F04106461B208A
:205F60000F46FFF70FFF4F4B05461A78002A44D04D4A118800293DD04B1C9BB20A2013803C
:205F8000FFF7E6FE4948FDF717FE044628B917E02046FDF777FE044690B1201D2946FFF76F
:205FA0006DFD0028F4D0206BFDF762FE07282CDD30463946BDE8F0410422012300F046B970
:205FC0003B4800F0F9FD04460028F1D02946201DFFF750FD002304F12C00206384F828309B
:205FE00084F82930E362FDF7E3FD30482146FDF7E5FDD8E702230121C0E701221A70FCF7B1
:20600000F7FB294A01461080B4E72A4800F0D4FD054658B3284800F0CFFDA86010B3FFF733
:20602000CFFE6860D0B10920D5F80880FFF798FE50BB082388F8083088E8C0000D20FFF7FF
:206040008FFE01282946206B24D0FDF7B7FD206BFDF7B2FD854220D0BDE8F0811648A9688A
:2060600000F0C8FD2946134800F0C4FD206BFDF7FFFD00289CD121460C48FDF7E3FD2146EA
:206080000B4800F0B7FD93E70920FFF769FE88F80800D1E7FDF7B6FDD9E72046BDE8F04126
:2060A000FFF72EBFB1140020A21400205412002020010020140100200801002008B5054813
:2060C00000F068FD044800F065FDBDE80840034800F060BD140100200801002020010020E9
:2060E0002DE9F0410D4614468B680646106BD3F800805F68FDF7A6FD6868FFF799FEA968DB
:20610000144800F077FD2946134800F073FD206BFDF752FD80B1002384F8283084F82930CA
:206120002046FFF7EDFE40463946324694F82830BDE8F04100F08AB804F10800FDF708FABC
:2061400021460648FDF77EFD2146054800F052FDE9E700BF080100201401002054120020B5
:206160002001002028B32DE9F0410646006B90460F46FDF721FD044628B916E02046FDF74D
:2061800081FD044698B10A216068FFF77FFE05460A20FFF7E5FD8542F0D1A3682BB1032F9A
:2061A00045D8DFE807F0361B0702BDE8F081BDE8F081704796F8282000214244D2B286F848
:2061C000282086F829101B7A934237D93046FFF797FE6068BDE8F041FFF716BE96F8292006
:2061E0004244D2B2052A86F8292096F8282006D901320021D2B286F8282086F829101B7A00
:206200009342E3D821463246BDE8F0410120FFF767BF96F828200020424486F8282086F83C
:20622000290021463246BDE8F041FFF759BF384621463246BDE8F041FFF752BF2146324659
:20624000BDE8F0410220FFF74BBF00BF844618B1084611461A466047704700BF10207047EB
:2062600010B50A4A0A4B82B0002414701C80FBF709FA009400F500510122064B0648FDF7B5
:20628000EFFB064B01221A7002B010BDB314002058130020316800002C130020B914002040
:2062A000074B1B7813B1074B1A7802B17047064982B0096A012201911A7002B0084700BFF4
:2062C000B9140020B31400208C840000094B1B783BB1094B1A7822B1084A127802F0FF0180
:2062E00002B17047064A1970536A82B0019302B0184700BFB9140020B3140020B51400204B
:206300008C84000008B5FFF7E1FF024B00221A6008BD00BF28130020F0B593B0FFF77CFCBC
:206320000546FFF765FC3D4C06462368002B46D0FFF772FC032802D0FFF774FC08B913B0CF
:20634000F0BD374B9B6898470028F8DBFFF764FC0028F4D0FFF766FC0028F0D01B20FFF77E
:2063600011FD3049FFF78AFB18B9FFF713FD0028E5D01320FFF7F4FC206000283CD0FFF7A4
:206380008FFF29480421294A0023FDF7D5F801F069F902AF0446002834D0304629463A46A3
:2063A00000F0A8FF9DF81830012BC8D19DF81B3043B9002CC3D11E4BDB689847BFE7FFF7E1
:2063C00085FFB5E738461749FFF758FB0028F0D09DF82220174B0026174D02218DF80620FD
:2063E0008DF804100122DB688DF8056001A803212A7098472E70DCE7FFF768FF0A48FDF76A
:20640000A7F8C4E701F056F9304629463A4600F071FF9DF81830012BCDD1C7E7281300207D
:206420000C890000F81400203813002005630000948800008C840000B4140020024B1B68E4
:2064400003B17047FFF742BF2813002010B40D4B0D49C2B200240C7083B01A700B4A0C4B90
:2064600038B9526A18701346019203B05DF8044B1847126A019201221A70019B03B05DF8E5
:20648000044B1847B5140020B91400208C840000B314002030B50B4983B00B7803F0FF049C
:2064A0006BB9094B01250D701C70FBF7EBF82A4600F5005100940548054BFDF7D1FA012099
:2064C00003B030BDB9140020B51400202C1300203168000030B583B00C460546FBF7D2F8DD
:2064E000231A042B48BF041D00230093284621460122024BFDF7B4FA03B030BD3168000032
:206500002DE9F04F804E89B033783BB97F4B1B7823B90525284609B0BDE8F08F0446FFF792
:2065200081FB0028F5D07A491A20FFF71FFCFFF731FC80460C20FFF713FC40B901210B2084
:20654000FFF706FC734B5B6898470028E1DBFFF769FB8246704F4FF001097D68FFF758FBA7
:206560005146A847BB696D4A019382F80090984720B16A4A002313700125CBE7FB69039340
:20658000984705460028F4D1FFF7A0FE337886F80090DBB202934CBB7B6905941C464FF050
:2065A000060B0495FBF76EF80546FFF779FE6FF02709C5EB0909FBF765F810EB090FFAD4A0
:2065C000A047002800F09280FFF780FEFBF75AF8DFF85091C0EB0909FBF754F810EB090F2C
:2065E000FAD4BBF1010BDDD1049D059C18F1000818BF4FF00108B8F1000F74D00A20FFF7D9
:20660000AFFBC3B20593FBF759F9FBF73BF8444BDFF814B11B1A0493234644469846C0EBE7
:206620000B0BFBF72FF810EB0B0F55D5FBF746F914B9B8F1000F2ED1BB6850469847FBF7AD
:2066400021F86FF48879C0EB0909FBF71BF810EB090FFAD4002CE4D1019B984710B9039B57
:206660009847A0B3FBF70EF86FF04004241AFBF709F8E042FBD43B6907A8032198470328AA
:2066800017D0FFF723FE9DF8082000233270234A012513703EE7FAF7F5FF049BC342CBD417
:2066A000FFF714FE9DF80830022533701B4B1C7030E79DF81E30059A9342E2D1FFF706FE2E
:2066C0009DF8082000233270144A137022E77B6998470028C6D0A4E7FFF7F8FD002C14BF58
:2066E00000250225ECE7FFF7DBFD87E70190FFF7EDFD0A4B019801251870FFF7E7FD9DF8C3
:206700000830337006E700BFB9140020B5140020F81400200C8900008C840000B414002063
:20672000BCFBFFFFC8FEFFFF80DAFFFF2DE9F0471646002A40D0334B07461B688846002B5E
:2067400054D11546DFF8C0902846FDF79BFA04466868FFF783FB0C20FFF702FBB0B9012163
:2067600013200CB1FFF7F4FA01210B20FFF7F0FAD9F80430984700284FF001014FF00C0080
:206780002CDBFFF7E5FA6868FFF744FB2546002CDAD13046FDF776FA05467068FFF75EFB8A
:2067A0001320FFF7DDFA81462046FFF7A9FE032804464FF0010301D1BDE8F0873846414664
:2067C0002246FFF743FD002CF6D1002DF4D02E460124B9F1000FDCD1BDE8F0873846414617
:2067E000BDE8F04705220123FFF730BD5068FFF735FB012238464146BDE8F0471346FFF75E
:2068000025BD00BF281300200C89000070B5054600200C46FFF774FE0328024606D02846E6
:206820002146BDE870400123FFF710BD70BD00BF40F2B1122DE9F04F7D4C83B0238805468D
:20684000934271D0B3F5D97F63D340F2E31293421CD040F20222934261D17649764A002305
:206860000B701370754E337823B9754B1B68002B00F0A580FAF706FF724B01461B78002B95
:2068800040F0938040F2B11323804AE06B4E33786D4F002B79D13B78002B76D0FAF7F2FE58
:2068A0006A4A6B4B12689B1AC3426ED5DFF8B091DFF8A481D9F814309847002800F09B80BC
:2068C00098F80030013388F80030DFF890A1D9F818B09AF8003001338AF80030D847002884
:2068E0004BD0002388F800309AF800300A2B03D9D847002800F08280D9F81C30984700287A
:2069000043D1504B1B78002B7ED140F2E313238007E023B9FAF7B6FE4E4B18609DE70023D0
